{
  "address": "0xEF567aa7C61c69761fDc50c38b56797D4dA79d8f",
  "abi": [
    {
      "inputs": [
        {
          "internalType": "address",
          "name": "_admin",
          "type": "address"
        },
        {
          "internalType": "address",
          "name": "_SYNTH",
          "type": "address"
        },
        {
          "internalType": "address",
          "name": "_synthrStaking",
          "type": "address"
        }
      ],
      "stateMutability": "nonpayable",
      "type": "constructor"
    },
    {
      "inputs": [
        {
          "internalType": "address",
          "name": "target",
          "type": "address"
        }
      ],
      "name": "AddressEmptyCode",
      "type": "error"
    },
    {
      "inputs": [
        {
          "internalType": "address",
          "name": "account",
          "type": "address"
        }
      ],
      "name": "AddressInsufficientBalance",
      "type": "error"
    },
    {
      "inputs": [],
      "name": "FailedInnerCall",
      "type": "error"
    },
    {
      "inputs": [
        {
          "internalType": "address",
          "name": "owner",
          "type": "address"
        }
      ],
      "name": "OwnableInvalidOwner",
      "type": "error"
    },
    {
      "inputs": [
        {
          "internalType": "address",
          "name": "account",
          "type": "address"
        }
      ],
      "name": "OwnableUnauthorizedAccount",
      "type": "error"
    },
    {
      "inputs": [
        {
          "internalType": "address",
          "name": "token",
          "type": "address"
        }
      ],
      "name": "SafeERC20FailedOperation",
      "type": "error"
    },
    {
      "anonymous": false,
      "inputs": [
        {
          "indexed": true,
          "internalType": "address",
          "name": "pool",
          "type": "address"
        },
        {
          "indexed": true,
          "internalType": "address",
          "name": "user",
          "type": "address"
        },
        {
          "indexed": false,
          "internalType": "uint256",
          "name": "pendingRewardAmount",
          "type": "uint256"
        }
      ],
      "name": "Claimed",
      "type": "event"
    },
    {
      "anonymous": false,
      "inputs": [
        {
          "indexed": true,
          "internalType": "address",
          "name": "pool",
          "type": "address"
        },
        {
          "indexed": true,
          "internalType": "address",
          "name": "user",
          "type": "address"
        },
        {
          "indexed": false,
          "internalType": "uint256",
          "name": "tokenId",
          "type": "uint256"
        }
      ],
      "name": "Deposit",
      "type": "event"
    },
    {
      "anonymous": false,
      "inputs": [
        {
          "indexed": true,
          "internalType": "address",
          "name": "owner",
          "type": "address"
        },
        {
          "indexed": false,
          "internalType": "address[]",
          "name": "pool",
          "type": "address[]"
        },
        {
          "indexed": false,
          "internalType": "uint256[]",
          "name": "rewardPerBlock",
          "type": "uint256[]"
        }
      ],
      "name": "EpochUpdated",
      "type": "event"
    },
    {
      "anonymous": false,
      "inputs": [
        {
          "indexed": true,
          "internalType": "address",
          "name": "pool",
          "type": "address"
        },
        {
          "indexed": true,
          "internalType": "address",
          "name": "user",
          "type": "address"
        },
        {
          "indexed": false,
          "internalType": "uint256",
          "name": "amount",
          "type": "uint256"
        }
      ],
      "name": "IncreaseDeposit",
      "type": "event"
    },
    {
      "anonymous": false,
      "inputs": [
        {
          "indexed": true,
          "internalType": "address",
          "name": "owner",
          "type": "address"
        },
        {
          "indexed": false,
          "internalType": "address[]",
          "name": "pool",
          "type": "address[]"
        }
      ],
      "name": "LogPoolAddition",
      "type": "event"
    },
    {
      "anonymous": false,
      "inputs": [
        {
          "indexed": true,
          "internalType": "address",
          "name": "pool",
          "type": "address"
        },
        {
          "indexed": false,
          "internalType": "uint64",
          "name": "lastRewardBlock",
          "type": "uint64"
        },
        {
          "indexed": false,
          "internalType": "uint256",
          "name": "accRewardPerShare",
          "type": "uint256"
        }
      ],
      "name": "LogUpdatePool",
      "type": "event"
    },
    {
      "anonymous": false,
      "inputs": [
        {
          "indexed": false,
          "internalType": "address",
          "name": "owner",
          "type": "address"
        },
        {
          "indexed": false,
          "internalType": "uint256",
          "name": "stakeAmount",
          "type": "uint256"
        }
      ],
      "name": "LogUpdatedStakeAmount",
      "type": "event"
    },
    {
      "anonymous": false,
      "inputs": [
        {
          "indexed": true,
          "internalType": "address",
          "name": "previousOwner",
          "type": "address"
        },
        {
          "indexed": true,
          "internalType": "address",
          "name": "newOwner",
          "type": "address"
        }
      ],
      "name": "OwnershipTransferred",
      "type": "event"
    },
    {
      "anonymous": false,
      "inputs": [
        {
          "indexed": true,
          "internalType": "address",
          "name": "pool",
          "type": "address"
        },
        {
          "indexed": true,
          "internalType": "address",
          "name": "user",
          "type": "address"
        },
        {
          "indexed": false,
          "internalType": "uint256",
          "name": "tokenId",
          "type": "uint256"
        }
      ],
      "name": "Withdraw",
      "type": "event"
    },
    {
      "anonymous": false,
      "inputs": [
        {
          "indexed": true,
          "internalType": "address",
          "name": "pool",
          "type": "address"
        },
        {
          "indexed": true,
          "internalType": "address",
          "name": "user",
          "type": "address"
        },
        {
          "indexed": false,
          "internalType": "uint256",
          "name": "pendingRewardAmount",
          "type": "uint256"
        }
      ],
      "name": "WithdrawAndClaim",
      "type": "event"
    },
    {
      "anonymous": false,
      "inputs": [
        {
          "indexed": true,
          "internalType": "address",
          "name": "pool",
          "type": "address"
        },
        {
          "indexed": true,
          "internalType": "address",
          "name": "user",
          "type": "address"
        },
        {
          "indexed": false,
          "internalType": "uint256",
          "name": "pendingRewardAmount",
          "type": "uint256"
        }
      ],
      "name": "WithdrawPendingRewardAmount",
      "type": "event"
    },
    {
      "anonymous": false,
      "inputs": [
        {
          "indexed": false,
          "internalType": "address",
          "name": "owner",
          "type": "address"
        },
        {
          "indexed": false,
          "internalType": "uint256",
          "name": "totalLockAmount",
          "type": "uint256"
        }
      ],
      "name": "totalLockAmountUpdated",
      "type": "event"
    },
    {
      "inputs": [],
      "name": "ACC_REWARD_PRECISION",
      "outputs": [
        {
          "internalType": "uint256",
          "name": "",
          "type": "uint256"
        }
      ],
      "stateMutability": "view",
      "type": "function"
    },
    {
      "inputs": [],
      "name": "SYNTH",
      "outputs": [
        {
          "internalType": "contract IERC20",
          "name": "",
          "type": "address"
        }
      ],
      "stateMutability": "view",
      "type": "function"
    },
    {
      "inputs": [
        {
          "internalType": "address[]",
          "name": "_pool",
          "type": "address[]"
        }
      ],
      "name": "addPool",
      "outputs": [],
      "stateMutability": "nonpayable",
      "type": "function"
    },
    {
      "inputs": [
        {
          "internalType": "address",
          "name": "_pool",
          "type": "address"
        },
        {
          "internalType": "address",
          "name": "_to",
          "type": "address"
        }
      ],
      "name": "claim",
      "outputs": [],
      "stateMutability": "nonpayable",
      "type": "function"
    },
    {
      "inputs": [
        {
          "internalType": "address",
          "name": "_pool",
          "type": "address"
        },
        {
          "internalType": "uint256",
          "name": "_tokenId",
          "type": "uint256"
        }
      ],
      "name": "deposit",
      "outputs": [],
      "stateMutability": "nonpayable",
      "type": "function"
    },
    {
      "inputs": [
        {
          "internalType": "address",
          "name": "_pool",
          "type": "address"
        }
      ],
      "name": "increaseDeposit",
      "outputs": [],
      "stateMutability": "nonpayable",
      "type": "function"
    },
    {
      "inputs": [
        {
          "internalType": "address",
          "name": "",
          "type": "address"
        },
        {
          "internalType": "address",
          "name": "",
          "type": "address"
        },
        {
          "internalType": "uint256",
          "name": "",
          "type": "uint256"
        },
        {
          "internalType": "bytes",
          "name": "",
          "type": "bytes"
        }
      ],
      "name": "onERC721Received",
      "outputs": [
        {
          "internalType": "bytes4",
          "name": "",
          "type": "bytes4"
        }
      ],
      "stateMutability": "nonpayable",
      "type": "function"
    },
    {
      "inputs": [],
      "name": "owner",
      "outputs": [
        {
          "internalType": "address",
          "name": "",
          "type": "address"
        }
      ],
      "stateMutability": "view",
      "type": "function"
    },
    {
      "inputs": [
        {
          "internalType": "address",
          "name": "_pool",
          "type": "address"
        },
        {
          "internalType": "address",
          "name": "_user",
          "type": "address"
        }
      ],
      "name": "pendingReward",
      "outputs": [
        {
          "internalType": "uint256",
          "name": "pending_",
          "type": "uint256"
        }
      ],
      "stateMutability": "view",
      "type": "function"
    },
    {
      "inputs": [
        {
          "internalType": "address",
          "name": "_pool",
          "type": "address"
        },
        {
          "internalType": "address",
          "name": "_user",
          "type": "address"
        },
        {
          "internalType": "uint256",
          "name": "_blockNumber",
          "type": "uint256"
        }
      ],
      "name": "pendingRewardAtBlock",
      "outputs": [
        {
          "internalType": "uint256",
          "name": "pending_",
          "type": "uint256"
        }
      ],
      "stateMutability": "view",
      "type": "function"
    },
    {
      "inputs": [
        {
          "internalType": "address",
          "name": "",
          "type": "address"
        }
      ],
      "name": "poolInfo",
      "outputs": [
        {
          "internalType": "bool",
          "name": "exist",
          "type": "bool"
        },
        {
          "internalType": "uint64",
          "name": "lastRewardBlock",
          "type": "uint64"
        },
        {
          "internalType": "uint256",
          "name": "accRewardPerShare",
          "type": "uint256"
        },
        {
          "internalType": "uint256",
          "name": "rewardPerBlock",
          "type": "uint256"
        },
        {
          "internalType": "uint256",
          "name": "epoch",
          "type": "uint256"
        }
      ],
      "stateMutability": "view",
      "type": "function"
    },
    {
      "inputs": [],
      "name": "renounceOwnership",
      "outputs": [],
      "stateMutability": "nonpayable",
      "type": "function"
    },
    {
      "inputs": [],
      "name": "secondPerBlock",
      "outputs": [
        {
          "internalType": "uint256",
          "name": "",
          "type": "uint256"
        }
      ],
      "stateMutability": "view",
      "type": "function"
    },
    {
      "inputs": [
        {
          "internalType": "uint256",
          "name": "_secondPerBlock",
          "type": "uint256"
        }
      ],
      "name": "setSecondPerBlock",
      "outputs": [],
      "stateMutability": "nonpayable",
      "type": "function"
    },
    {
      "inputs": [
        {
          "internalType": "uint256",
          "name": "_stakeAmount",
          "type": "uint256"
        }
      ],
      "name": "setStakeAmount",
      "outputs": [],
      "stateMutability": "nonpayable",
      "type": "function"
    },
    {
      "inputs": [
        {
          "internalType": "uint256",
          "name": "_totalLockAmount",
          "type": "uint256"
        }
      ],
      "name": "setTotalLockAmount",
      "outputs": [],
      "stateMutability": "nonpayable",
      "type": "function"
    },
    {
      "inputs": [],
      "name": "stakeAmount",
      "outputs": [
        {
          "internalType": "uint256",
          "name": "",
          "type": "uint256"
        }
      ],
      "stateMutability": "view",
      "type": "function"
    },
    {
      "inputs": [],
      "name": "synthrStaking",
      "outputs": [
        {
          "internalType": "contract ISynthrStaking",
          "name": "",
          "type": "address"
        }
      ],
      "stateMutability": "view",
      "type": "function"
    },
    {
      "inputs": [],
      "name": "totalLockAmount",
      "outputs": [
        {
          "internalType": "uint256",
          "name": "",
          "type": "uint256"
        }
      ],
      "stateMutability": "view",
      "type": "function"
    },
    {
      "inputs": [
        {
          "internalType": "address",
          "name": "newOwner",
          "type": "address"
        }
      ],
      "name": "transferOwnership",
      "outputs": [],
      "stateMutability": "nonpayable",
      "type": "function"
    },
    {
      "inputs": [
        {
          "internalType": "address",
          "name": "_user",
          "type": "address"
        },
        {
          "internalType": "uint256",
          "name": "_rewardAmount",
          "type": "uint256"
        },
        {
          "internalType": "address[]",
          "name": "_pool",
          "type": "address[]"
        },
        {
          "internalType": "uint256[]",
          "name": "_rewardPerBlock",
          "type": "uint256[]"
        }
      ],
      "name": "updateEpoch",
      "outputs": [],
      "stateMutability": "nonpayable",
      "type": "function"
    },
    {
      "inputs": [
        {
          "internalType": "address",
          "name": "_pool",
          "type": "address"
        }
      ],
      "name": "updatePool",
      "outputs": [
        {
          "components": [
            {
              "internalType": "bool",
              "name": "exist",
              "type": "bool"
            },
            {
              "internalType": "uint64",
              "name": "lastRewardBlock",
              "type": "uint64"
            },
            {
              "internalType": "uint256",
              "name": "accRewardPerShare",
              "type": "uint256"
            },
            {
              "internalType": "uint256",
              "name": "rewardPerBlock",
              "type": "uint256"
            },
            {
              "internalType": "uint256",
              "name": "epoch",
              "type": "uint256"
            }
          ],
          "internalType": "struct NftStaking.NFTPoolInfo",
          "name": "_poolInfo",
          "type": "tuple"
        }
      ],
      "stateMutability": "nonpayable",
      "type": "function"
    },
    {
      "inputs": [
        {
          "internalType": "address",
          "name": "",
          "type": "address"
        },
        {
          "internalType": "address",
          "name": "",
          "type": "address"
        }
      ],
      "name": "userInfo",
      "outputs": [
        {
          "internalType": "uint256",
          "name": "amount",
          "type": "uint256"
        },
        {
          "internalType": "uint256",
          "name": "tokenId",
          "type": "uint256"
        },
        {
          "internalType": "int256",
          "name": "rewardDebt",
          "type": "int256"
        }
      ],
      "stateMutability": "view",
      "type": "function"
    },
    {
      "inputs": [
        {
          "internalType": "address",
          "name": "_pool",
          "type": "address"
        },
        {
          "internalType": "address",
          "name": "_user",
          "type": "address"
        }
      ],
      "name": "userRewardsDebt",
      "outputs": [
        {
          "internalType": "int256",
          "name": "",
          "type": "int256"
        }
      ],
      "stateMutability": "view",
      "type": "function"
    },
    {
      "inputs": [
        {
          "internalType": "address",
          "name": "_pool",
          "type": "address"
        }
      ],
      "name": "withdraw",
      "outputs": [],
      "stateMutability": "nonpayable",
      "type": "function"
    },
    {
      "inputs": [
        {
          "internalType": "address",
          "name": "_pool",
          "type": "address"
        },
        {
          "internalType": "address",
          "name": "_to",
          "type": "address"
        }
      ],
      "name": "withdrawAndClaim",
      "outputs": [],
      "stateMutability": "nonpayable",
      "type": "function"
    }
  ],
  "transactionHash": "0xed56699d2c0331b3d5f1a17d3e885349fdecc8a63e7c1338d14adff78e945283",
  "args": [
    "0xD2344ce2CFEaD1cBE24e33E8301411d62946A1d2",
    "0x1D2c289687a5c7f6a16Ac7801D73563B7f8d7bEe",
    "0x925089eB5cB7915F88AC10df84fBF43f39B63aB2"
  ],
  "numDeployments": 4,
  "solcInputHash": "ee2ef732c0c1907d63b25b76f46aa997",
  "bytecode": "0x60a0346200012257601f62001e4a38819003918201601f19168301916001600160401b03831184841017620001275780849260609460405283398101031262000122576200004d816200013d565b62000069604062000061602085016200013d565b93016200013d565b6001600160a01b03918216919082156200010957816000549460018060a01b03199480868816176000558260405197167f8be0079c531659141344cd1fd0a4f28419497f9722a3daafe3b4186f6b6457e0600080a3683635c9adc5dea00000600155600c6002551660805216906004541617600455611cf7908162000153823960805181818161027e0152818161068c01528181610f2a01526111a20152f35b604051631e4fbdf760e01b815260006004820152602490fd5b600080fd5b634e487b7160e01b600052604160045260246000fd5b51906001600160a01b0382168203620001225756fe608080604052600436101561001357600080fd5b600090813560e01c9081630f208beb1461125057508063150b7a02146111cd57806321c0b342146110925780632287b18014610f555780633e434e5d14610da55780633f1a7b5614610d4757806343808c5014610ce957806347e7ef2414610b3757806351cff8d9146109e957806360c7dc47146109cb5780636e7b2c26146108d0578063715018a61461085e5780637b46c54f146107fd5780638a7023f2146107aa5780638a747bf3146104275780638da5cb5b146104015780638fcdfafe146103da578063976df6bb146103aa5780639a7b5f11146103375780639ced7e7614610301578063a111bab9146102e3578063c467d559146102c5578063d1c6a231146102a2578063e1eddde31461025e578063f2fde38b146101a55763f71b22b81461013f57600080fd5b346101a25760206003193601126101a2577f5ed6e55c430fc2a42200c2d6f80a56a038dbf3ca778a54686acf00ac42f2e1a661019c60043561017f6119a6565b600381905560408051338152602081019290925290918291820190565b0390a180f35b80fd5b50346101a25760206003193601126101a2576101bf6112b2565b6101c76119a6565b6001600160a01b0380911690811561022d57600054827fffffffffffffffffffffffff0000000000000000000000000000000000000000821617600055167f8be0079c531659141344cd1fd0a4f28419497f9722a3daafe3b4186f6b6457e0600080a380f35b602483604051907f1e4fbdf70000000000000000000000000000000000000000000000000000000082526004820152fd5b50346101a257806003193601126101a25760206040516001600160a01b037f0000000000000000000000000000000000000000000000000000000000000000168152f35b50346101a257806003193601126101a2576020604051670de0b6b3a76400008152f35b50346101a257806003193601126101a2576020600254604051908152f35b50346101a257806003193601126101a2576020600354604051908152f35b50346101a25760406003193601126101a257602061032f6103206112b2565b6103286112cd565b4391611a0e565b604051908152f35b50346101a25760206003193601126101a257604060a0916001600160a01b0361035e6112b2565b168152600560205220805490600181015490600360028201549101549167ffffffffffffffff6040519460ff81161515865260081c166020850152604084015260608301526080820152f35b50346101a25760606003193601126101a257602061032f6103c96112b2565b6103d16112cd565b60443591611a0e565b50346101a257806003193601126101a25760206001600160a01b0360045416604051908152f35b50346101a257806003193601126101a2576001600160a01b036020915416604051908152f35b50346101a25760806003193601126101a2576104416112b2565b60443567ffffffffffffffff81116107a657610461903690600401611380565b6064359067ffffffffffffffff82116107a257366023830112156107a257816004013561048d81611368565b9261049b6040519485611345565b818452602084016024819360051b8301019136831161079e57602401905b82821061078e575050506104cb6119a6565b825182510361072457845b825181101561063e576001600160a01b036104f18285611448565b5116865260056020526040862061054f6040519161050e83611329565b600381549167ffffffffffffffff60ff841615159384875260081c1660208601526001810154604086015260028101546060860152015460808401526114af565b6105598286611448565b51606082015267ffffffffffffffff4316602082015260808101517fffffffffffffffffffffffffffffffffffffffffffffffffffffffffffffffff811461062a579060018093920160808201526001600160a01b036105b98387611448565b5116885260056020526003608060408a20926105e581511515859060ff60ff1983541691151516179055565b6020810151845468ffffffffffffffff00191660089190911b68ffffffffffffffff0016178455604081015186850155606081015160028501550151910155016104d6565b602488634e487b7160e01b81526011600452fd5b506040516323b872dd60e01b60208201526001600160a01b039490941660248086019190915230604486015235606480860191909152845284939092906106b09061068a608482611345565b7f0000000000000000000000000000000000000000000000000000000000000000611b40565b60206106c760405193604085526040850190611472565b91838303828501525191828152019290845b81811061070e57505050807feeed64b8fc3f300f7edc84ec3f54d79beded7fb1691c186e046c059958efb2729133930390a280f35b82518552602094850194909201916001016106d9565b608460405162461bcd60e51b815260206004820152602860248201527f4e66745374616b696e673a206c656e677468206f6620617272617920646f657360448201527f6e2774206d6163680000000000000000000000000000000000000000000000006064820152fd5b81358152602091820191016104b9565b8780fd5b8380fd5b8280fd5b50346101a25760406003193601126101a2576107c46112b2565b60406107ce6112cd565b926001600160a01b03809316815260066020522091166000526020526020600260406000200154604051908152f35b50346101a25760206003193601126101a25760a061082161081c6112b2565b61151a565b60806040519180511515835267ffffffffffffffff6020820151166020840152604081015160408401526060810151606084015201516080820152f35b50346101a257806003193601126101a2576108776119a6565b60006001600160a01b0381547fffffffffffffffffffffffff000000000000000000000000000000000000000081168355167f8be0079c531659141344cd1fd0a4f28419497f9722a3daafe3b4186f6b6457e08280a380f35b50346101a2576020806003193601126109c75767ffffffffffffffff906004358281116107a2579161090784933690600401611380565b61090f6119a6565b83914316915b8151811015610987576001906001600160a01b03806109348386611448565b51168752600590818752604088208460ff198254161790556109568386611448565b51168752855260408620805468ffffffffffffffff001916600886901b68ffffffffffffffff001617905501610915565b84827f3120197cb0bf46828731cd89ce8090a06db0ca162ee78919341272fb45817b1f60405160208152806109c133946020830190611472565b0390a280f35b5080fd5b50346101a257806003193601126101a2576020600154604051908152f35b50346101a2576020806003193601126109c757610a046112b2565b906001600160a01b03610a168361151a565b9216908184526006815260408420336000528152604060002092600260405191610a3f836112e3565b670de0b6b3a7640000610a70875480865260408560018b01549a8989019b8c520154948188019586520151906114fa565b0495610a82815197898652835161142f565b8252878152858852600685526040882033600052855260406000209351845551600184015551910155813b156107a2576040516323b872dd60e01b8152306004820152336024820152604481018490528490818160648183885af18015610b2c57610b18575b50507f9b1bfa7fa9ee420a16e124f794c35ac9f90472acc99140eb2f6447c714cad8eb906040519384523393a380f35b610b2190611315565b6107a2578338610ae8565b6040513d84823e3d90fd5b50346101a25760406003193601126101a257610b516112b2565b60243590610b5d611873565b906001600160a01b038116918285526020916006835260408620336000528352604060002060405192610b8f846112e3565b8154845260018201549260028686019385855201549360408601948552610ca5576002939291670de0b6b3a7640000610bd76040610bcf610be29561151a565b0151836114fa565b049086528351611413565b8252868152858852600685526040882033600052855260406000209351845551600184015551910155813b156107a2576040517f42842e0e000000000000000000000000000000000000000000000000000000008152336004820152306024820152604481018490528490818160648183885af18015610b2c57610c91575b50507f5548c837ab068cf56a2c2479df0882a4922fd203edb7517321831d95078c5f62906040519384523393a380f35b610c9a90611315565b6107a2578338610c61565b6064866040519062461bcd60e51b82526004820152601960248201527f4e66745374616b696e673a20616c7265616479206578697374000000000000006044820152fd5b50346101a25760206003193601126101a2577f9ebcfad0fd447195381cabc8e99bd2c8d6f050ffbbc10538f729030481e564af61019c600435610d2a6119a6565b600181905560408051338152602081019290925290918291820190565b50346101a25760206003193601126101a257610d616119a6565b6004356002556003546040805133815260208101929092527f5ed6e55c430fc2a42200c2d6f80a56a038dbf3ca778a54686acf00ac42f2e1a691908190810161019c565b50346101a25760406003193601126101a257610dbf6112b2565b610dc76112cd565b6001600160a01b03610dd88361151a565b92169081845260209060068252604085203386528252610e4d6040862094604051610e02816112e3565b6060610e408854808452670de0b6b3a7640000610e3a600260018d01549c8b88019d8e520154928360408801526040880151906114fa565b0461142f565b91519201514292336116ba565b935190838652600683526040862033875283528560026040822082815582600182015501558480610f24575b505084833b156101a2576040516323b872dd60e01b815230600482015233602482015260448101929092528160648183875af18015610f1957610ee6575b507f7bb2f81fe27ec9003020db5e0d207b11ff9f4f7aad1380050355dfdb72967564906040519384523393a380f35b93610f127f7bb2f81fe27ec9003020db5e0d207b11ff9f4f7aad1380050355dfdb729675649295611315565b9390610eb7565b6040513d87823e3d90fd5b610f4e917f00000000000000000000000000000000000000000000000000000000000000006117c8565b3884610e79565b50346101a2576020806003193601126109c757610f706112b2565b610f78611873565b916001600160a01b0382169182855260068252604085203386528252604085209060405191610fa6836112e3565b80548352600181015491600285850192848452015492604085019384521561104e579160029161101e610ffb7f73b16f71cf3c4e1e462af5a372769931a4bb28cd70ef6791b41c16cacc89e88897969561151a565b98670de0b6b3a7640000610bd760406110158951856113f0565b9c01518c6114fa565b82528689526006855260408920338a5285526040892093518455516001840155519101556040519384523393a380f35b6064856040519062461bcd60e51b82526004820152601d60248201527f4e66745374616b696e673a20746f6b656e206e6f74206465706f7369740000006044820152fd5b50346101a25760406003193601126101a2576110ac6112b2565b6110b46112cd565b907ff7a40077ff7a04c7e61f6f26fb13774259ddf1b6bce9ecf26a8276cdd39926836001600160a01b036110e78361151a565b9216928385526020906006825260408620338752825260408620600260405191611110836112e3565b80549081845261116283600183015492888701938452015498611153670de0b6b3a764000061114b60408901968d88526040850151906114fa565b049a8b61142f565b606087519201514292336116ba565b978252888a526006865260408a20338b52865260408a209351845551600184015551910155838061119c575b50506040519283523392a380f35b6111c6917f00000000000000000000000000000000000000000000000000000000000000006117c8565b388361118e565b50346101a25760806003193601126101a2576111e76112b2565b506111f06112cd565b5060643567ffffffffffffffff8082116107a657366023830112156107a65781600401359081116107a657369101602401116101a25760206040517f150b7a02000000000000000000000000000000000000000000000000000000008152f35b9050346109c75760406003193601126109c75760406060926112706112b2565b6112786112cd565b906001600160a01b038091168352600660205283832091168252602052208054906002600182015491015491835260208301526040820152f35b600435906001600160a01b03821682036112c857565b600080fd5b602435906001600160a01b03821682036112c857565b6060810190811067ffffffffffffffff8211176112ff57604052565b634e487b7160e01b600052604160045260246000fd5b67ffffffffffffffff81116112ff57604052565b60a0810190811067ffffffffffffffff8211176112ff57604052565b90601f601f19910116810190811067ffffffffffffffff8211176112ff57604052565b67ffffffffffffffff81116112ff5760051b60200190565b9080601f830112156112c857602090823561139a81611368565b936113a86040519586611345565b81855260208086019260051b8201019283116112c857602001905b8282106113d1575050505090565b81356001600160a01b03811681036112c85781529083019083016113c3565b919082039182116113fd57565b634e487b7160e01b600052601160045260246000fd5b919091600083820193841291129080158216911516176113fd57565b818103929160001380158285131691841216176113fd57565b805182101561145c5760209160051b010190565b634e487b7160e01b600052603260045260246000fd5b90815180825260208080930193019160005b828110611492575050505090565b83516001600160a01b031685529381019392810192600101611484565b156114b657565b606460405162461bcd60e51b815260206004820152601a60248201527f4e66745374616b696e673a20706f6f6c206e6f742065786973740000000000006044820152fd5b818102929181159184041417156113fd57565b919082018092116113fd57565b906080916001600160a01b03604091825161153481611329565b600095818780935282602082015282868201528260608201520152169081845260056020528084209080519461156986611329565b82549260ff841615159687815267ffffffffffffffff9283602083019660081c168652600183015493858301948552600360028501549460608501958652015490608084019182526115bb849b6114af565b6003549781815116988943116115d9575b5050505050505050505050565b88600395827f4884fdd3ca611190740fbfd998257f953e9e90cb530f233718a74e5b702051cb9c61163094611689575b505084431684528c815260056020522095511515869060ff60ff1983541691151516179055565b51169461165c86859068ffffffffffffffff001968ffffffffffffffff0083549260081b169116179055565b51938460018501555160028401555191015582519182526020820152a238808080808080808080806115cc565b6116b1916116a561169d6116aa93436113f0565b8d51906114fa565b6119ea565b8b5161150d565b8a523880611609565b929391909160009360806001600160a01b03602481600454169360405194859384927f1959a0020000000000000000000000000000000000000000000000000000000084521660048301525afa80156117bc5760409160009161178d575b50015190818111611743575b5050505080821015611737575050600090565b611740916113f0565b90565b670de0b6b3a76400009450611783939261176f61176661177d94611774946113f0565b60025490611986565b6114fa565b600354906119ea565b906114fa565b0438808080611724565b6117af915060803d6080116117b5575b6117a78183611345565b810190611824565b38611718565b503d61179d565b6040513d6000823e3d90fd5b6040517fa9059cbb0000000000000000000000000000000000000000000000000000000060208201526001600160a01b039290921660248301526044808301939093529181526118229161181d606483611345565b611b40565b565b908160809103126112c85760405190608082019082821067ffffffffffffffff8311176112ff576060916040528051835260208101516020840152604081015160408401520151606082015290565b602460806001600160a01b0360045416604051928380927f1959a0020000000000000000000000000000000000000000000000000000000082523360048301525afa9081156117bc57600091611967575b508051600154116119235760408101514210156118df575190565b606460405162461bcd60e51b815260206004820152601d60248201527f4e66745374616b696e673a206c6f636b2074696d6520657870697265640000006044820152fd5b606460405162461bcd60e51b815260206004820152601d60248201527f4e66745374616b696e673a206c6f7720616d6f756e74207374616b65640000006044820152fd5b611980915060803d6080116117b5576117a78183611345565b386118c4565b8115611990570490565b634e487b7160e01b600052601260045260246000fd5b6001600160a01b036000541633036119ba57565b60246040517f118cdaa7000000000000000000000000000000000000000000000000000000008152336004820152fd5b90670de0b6b3a7640000918281029281840414901517156113fd5761174091611986565b91600354916001600160a01b03809416600093818552600560205260408086209281805197611a3c89611329565b85549960ff8b1615158a5267ffffffffffffffff938460208c019c60081c168c5260018801549a8481019b8c5260028901549860608201998a526003015490608001528252600660205282822090881682526020522096825197611a9f896112e3565b80548952600181015460208a01526002015492880192835251975116908582811161174099611b0295611af895670de0b6b3a76400009484611aef95611b37575b611b0c575b50505089516114fa565b0490519061142f565b93600254906114fa565b93519051916116ba565b916116a5611b21611b2993611b2f96956113f0565b8b51906114fa565b9061150d565b38808a611ae5565b50821515611ae0565b6001600160a01b031690600080826020829451910182865af13d15611c22573d9067ffffffffffffffff8211611c0e5790611b9d9160405191611b8d6020601f19601f8401160184611345565b82523d84602084013e5b84611c2e565b908151918215159283611be6575b505050611bb55750565b602490604051907f5274afe70000000000000000000000000000000000000000000000000000000082526004820152fd5b8192935090602091810103126109c75760200151908115918215036101a25750388080611bab565b602483634e487b7160e01b81526041600452fd5b611b9d90606090611b97565b90611c6d5750805115611c4357805190602001fd5b60046040517f1425ea42000000000000000000000000000000000000000000000000000000008152fd5b81511580611cb8575b611c7e575090565b6024906001600160a01b03604051917f9996b315000000000000000000000000000000000000000000000000000000008352166004820152fd5b50803b15611c7656fea2646970667358221220377ce631b73cab710caccf5e959992c57a1e460a0377969af23272b8c777ff6964736f6c63430008180033",
  "devdoc": {
    "errors": {
      "AddressEmptyCode(address)": [
        {
          "details": "There's no code at `target` (it is not a contract)."
        }
      ],
      "AddressInsufficientBalance(address)": [
        {
          "details": "The ETH balance of the account is not enough to perform the operation."
        }
      ],
      "FailedInnerCall()": [
        {
          "details": "A call to an address target failed. The target may have reverted."
        }
      ],
      "OwnableInvalidOwner(address)": [
        {
          "details": "The owner is not a valid owner account. (eg. `address(0)`)"
        }
      ],
      "OwnableUnauthorizedAccount(address)": [
        {
          "details": "The caller account is not authorized to perform an operation."
        }
      ],
      "SafeERC20FailedOperation(address)": [
        {
          "details": "An operation with an ERC20 token failed."
        }
      ]
    },
    "kind": "dev",
    "methods": {
      "claim(address,address)": {
        "params": {
          "_pool": "The address of the pool. See `NFTPoolInfo`.",
          "_to": "Receiver rewards."
        }
      },
      "deposit(address,uint256)": {
        "params": {
          "_pool": "The address of the pool. See `NFTPoolInfo`."
        }
      },
      "owner()": {
        "details": "Returns the address of the current owner."
      },
      "pendingReward(address,address)": {
        "params": {
          "_pool": "The address of the pool. See `poolInfo`.",
          "_user": "Address of user."
        },
        "returns": {
          "pending_": "reward for a given user."
        }
      },
      "pendingRewardAtBlock(address,address,uint256)": {
        "params": {
          "_pool": "The address of the pool. See `poolInfo`.",
          "_user": "Address of user."
        },
        "returns": {
          "pending_": "reward for a given user."
        }
      },
      "renounceOwnership()": {
        "details": "Leaves the contract without owner. It will not be possible to call `onlyOwner` functions. Can only be called by the current owner. NOTE: Renouncing ownership will leave the contract without an owner, thereby disabling any functionality that is only available to the owner."
      },
      "transferOwnership(address)": {
        "details": "Transfers ownership of the contract to a new account (`newOwner`). Can only be called by the current owner."
      },
      "updateEpoch(address,uint256,address[],uint256[])": {
        "params": {
          "_pool": "addresses of pool to be updated.",
          "_rewardPerBlock": "array of rewardPerBlock"
        }
      },
      "updatePool(address)": {
        "params": {
          "_pool": "The address of the pool. See `NFTPoolInfo`."
        },
        "returns": {
          "_poolInfo": "Returns the pool that was updated."
        }
      },
      "userRewardsDebt(address,address)": {
        "details": "retuen user reward debt",
        "params": {
          "_pool": "address of pool",
          "_user": "address of user"
        }
      },
      "withdrawAndClaim(address,address)": {
        "params": {
          "_pool": "address of the pool. See `NFTPoolInfo`.",
          "_to": "Receiver of the LP tokens and syUSD rewards."
        }
      }
    },
    "version": 1
  },
  "userdoc": {
    "kind": "user",
    "methods": {
      "SYNTH()": {
        "notice": "Address of reward token contract."
      },
      "addPool(address[])": {
        "notice": "Add a new NFT pool. Can only be called by the owner."
      },
      "claim(address,address)": {
        "notice": "Claim proceeds for transaction sender to `to`."
      },
      "deposit(address,uint256)": {
        "notice": "Deposit NFT token."
      },
      "pendingReward(address,address)": {
        "notice": "View function to see pending reward of user in pool at current block."
      },
      "pendingRewardAtBlock(address,address,uint256)": {
        "notice": "View function to see pending reward of user in pool at future block."
      },
      "poolInfo(address)": {
        "notice": "Info of each pool."
      },
      "setTotalLockAmount(uint256)": {
        "notice": "set total locked token for lpSupply"
      },
      "synthrStaking()": {
        "notice": "synthr staking instance"
      },
      "totalLockAmount()": {
        "notice": "Total lock amount of users in VotingEscrow"
      },
      "updateEpoch(address,uint256,address[],uint256[])": {
        "notice": "update epoch of pool"
      },
      "updatePool(address)": {
        "notice": "Update reward variables of the given pool."
      },
      "userInfo(address,address)": {
        "notice": "Info of each user that stakes LP tokens."
      },
      "withdrawAndClaim(address,address)": {
        "notice": "Withdraw NFT token from pool and claim proceeds for transaction sender to `to`."
      }
    },
    "version": 1
  },
  "storageLayout": {
    "storage": [
      {
        "astId": 8,
        "contract": "contracts/NFT-Staking/NftStaking.sol:NftStaking",
        "label": "_owner",
        "offset": 0,
        "slot": "0",
        "type": "t_address"
      },
      {
        "astId": 899,
        "contract": "contracts/NFT-Staking/NftStaking.sol:NftStaking",
        "label": "stakeAmount",
        "offset": 0,
        "slot": "1",
        "type": "t_uint256"
      },
      {
        "astId": 902,
        "contract": "contracts/NFT-Staking/NftStaking.sol:NftStaking",
        "label": "secondPerBlock",
        "offset": 0,
        "slot": "2",
        "type": "t_uint256"
      },
      {
        "astId": 905,
        "contract": "contracts/NFT-Staking/NftStaking.sol:NftStaking",
        "label": "totalLockAmount",
        "offset": 0,
        "slot": "3",
        "type": "t_uint256"
      },
      {
        "astId": 909,
        "contract": "contracts/NFT-Staking/NftStaking.sol:NftStaking",
        "label": "synthrStaking",
        "offset": 0,
        "slot": "4",
        "type": "t_contract(ISynthrStaking)2210"
      },
      {
        "astId": 915,
        "contract": "contracts/NFT-Staking/NftStaking.sol:NftStaking",
        "label": "poolInfo",
        "offset": 0,
        "slot": "5",
        "type": "t_mapping(t_address,t_struct(NFTPoolInfo)894_storage)"
      },
      {
        "astId": 923,
        "contract": "contracts/NFT-Staking/NftStaking.sol:NftStaking",
        "label": "userInfo",
        "offset": 0,
        "slot": "6",
        "type": "t_mapping(t_address,t_mapping(t_address,t_struct(UserInfo)882_storage))"
      }
    ],
    "types": {
      "t_address": {
        "encoding": "inplace",
        "label": "address",
        "numberOfBytes": "20"
      },
      "t_bool": {
        "encoding": "inplace",
        "label": "bool",
        "numberOfBytes": "1"
      },
      "t_contract(ISynthrStaking)2210": {
        "encoding": "inplace",
        "label": "contract ISynthrStaking",
        "numberOfBytes": "20"
      },
      "t_int256": {
        "encoding": "inplace",
        "label": "int256",
        "numberOfBytes": "32"
      },
      "t_mapping(t_address,t_mapping(t_address,t_struct(UserInfo)882_storage))": {
        "encoding": "mapping",
        "key": "t_address",
        "label": "mapping(address => mapping(address => struct NftStaking.UserInfo))",
        "numberOfBytes": "32",
        "value": "t_mapping(t_address,t_struct(UserInfo)882_storage)"
      },
      "t_mapping(t_address,t_struct(NFTPoolInfo)894_storage)": {
        "encoding": "mapping",
        "key": "t_address",
        "label": "mapping(address => struct NftStaking.NFTPoolInfo)",
        "numberOfBytes": "32",
        "value": "t_struct(NFTPoolInfo)894_storage"
      },
      "t_mapping(t_address,t_struct(UserInfo)882_storage)": {
        "encoding": "mapping",
        "key": "t_address",
        "label": "mapping(address => struct NftStaking.UserInfo)",
        "numberOfBytes": "32",
        "value": "t_struct(UserInfo)882_storage"
      },
      "t_struct(NFTPoolInfo)894_storage": {
        "encoding": "inplace",
        "label": "struct NftStaking.NFTPoolInfo",
        "members": [
          {
            "astId": 885,
            "contract": "contracts/NFT-Staking/NftStaking.sol:NftStaking",
            "label": "exist",
            "offset": 0,
            "slot": "0",
            "type": "t_bool"
          },
          {
            "astId": 887,
            "contract": "contracts/NFT-Staking/NftStaking.sol:NftStaking",
            "label": "lastRewardBlock",
            "offset": 1,
            "slot": "0",
            "type": "t_uint64"
          },
          {
            "astId": 889,
            "contract": "contracts/NFT-Staking/NftStaking.sol:NftStaking",
            "label": "accRewardPerShare",
            "offset": 0,
            "slot": "1",
            "type": "t_uint256"
          },
          {
            "astId": 891,
            "contract": "contracts/NFT-Staking/NftStaking.sol:NftStaking",
            "label": "rewardPerBlock",
            "offset": 0,
            "slot": "2",
            "type": "t_uint256"
          },
          {
            "astId": 893,
            "contract": "contracts/NFT-Staking/NftStaking.sol:NftStaking",
            "label": "epoch",
            "offset": 0,
            "slot": "3",
            "type": "t_uint256"
          }
        ],
        "numberOfBytes": "128"
      },
      "t_struct(UserInfo)882_storage": {
        "encoding": "inplace",
        "label": "struct NftStaking.UserInfo",
        "members": [
          {
            "astId": 877,
            "contract": "contracts/NFT-Staking/NftStaking.sol:NftStaking",
            "label": "amount",
            "offset": 0,
            "slot": "0",
            "type": "t_uint256"
          },
          {
            "astId": 879,
            "contract": "contracts/NFT-Staking/NftStaking.sol:NftStaking",
            "label": "tokenId",
            "offset": 0,
            "slot": "1",
            "type": "t_uint256"
          },
          {
            "astId": 881,
            "contract": "contracts/NFT-Staking/NftStaking.sol:NftStaking",
            "label": "rewardDebt",
            "offset": 0,
            "slot": "2",
            "type": "t_int256"
          }
        ],
        "numberOfBytes": "96"
      },
      "t_uint256": {
        "encoding": "inplace",
        "label": "uint256",
        "numberOfBytes": "32"
      },
      "t_uint64": {
        "encoding": "inplace",
        "label": "uint64",
        "numberOfBytes": "8"
      }
    }
  }
}