{
  "address": "0x4B3B8820E56ceD5ab371EffDdcAd0C128eB93668",
  "abi": [
    {
      "inputs": [
        {
          "internalType": "address",
          "name": "_admin",
          "type": "address"
        },
        {
          "internalType": "address",
          "name": "_rewardToken",
          "type": "address"
        },
        {
          "internalType": "address",
          "name": "_synthrStaking",
          "type": "address"
        }
      ],
      "stateMutability": "nonpayable",
      "type": "constructor"
    },
    {
      "inputs": [
        {
          "internalType": "address",
          "name": "target",
          "type": "address"
        }
      ],
      "name": "AddressEmptyCode",
      "type": "error"
    },
    {
      "inputs": [
        {
          "internalType": "address",
          "name": "account",
          "type": "address"
        }
      ],
      "name": "AddressInsufficientBalance",
      "type": "error"
    },
    {
      "inputs": [],
      "name": "FailedInnerCall",
      "type": "error"
    },
    {
      "inputs": [
        {
          "internalType": "address",
          "name": "owner",
          "type": "address"
        }
      ],
      "name": "OwnableInvalidOwner",
      "type": "error"
    },
    {
      "inputs": [
        {
          "internalType": "address",
          "name": "account",
          "type": "address"
        }
      ],
      "name": "OwnableUnauthorizedAccount",
      "type": "error"
    },
    {
      "inputs": [
        {
          "internalType": "address",
          "name": "token",
          "type": "address"
        }
      ],
      "name": "SafeERC20FailedOperation",
      "type": "error"
    },
    {
      "anonymous": false,
      "inputs": [
        {
          "indexed": true,
          "internalType": "address",
          "name": "pool",
          "type": "address"
        },
        {
          "indexed": true,
          "internalType": "address",
          "name": "user",
          "type": "address"
        },
        {
          "indexed": false,
          "internalType": "uint256",
          "name": "pendingRewardAmount",
          "type": "uint256"
        }
      ],
      "name": "Claimed",
      "type": "event"
    },
    {
      "anonymous": false,
      "inputs": [
        {
          "indexed": true,
          "internalType": "address",
          "name": "pool",
          "type": "address"
        },
        {
          "indexed": true,
          "internalType": "address",
          "name": "user",
          "type": "address"
        },
        {
          "indexed": false,
          "internalType": "uint256",
          "name": "tokenId",
          "type": "uint256"
        }
      ],
      "name": "Deposit",
      "type": "event"
    },
    {
      "anonymous": false,
      "inputs": [
        {
          "indexed": true,
          "internalType": "address",
          "name": "owner",
          "type": "address"
        },
        {
          "indexed": false,
          "internalType": "address[]",
          "name": "pool",
          "type": "address[]"
        },
        {
          "indexed": false,
          "internalType": "uint256[]",
          "name": "rewardPerBlock",
          "type": "uint256[]"
        }
      ],
      "name": "EpochUpdated",
      "type": "event"
    },
    {
      "anonymous": false,
      "inputs": [
        {
          "indexed": true,
          "internalType": "address",
          "name": "pool",
          "type": "address"
        },
        {
          "indexed": true,
          "internalType": "address",
          "name": "user",
          "type": "address"
        },
        {
          "indexed": false,
          "internalType": "uint256",
          "name": "amount",
          "type": "uint256"
        }
      ],
      "name": "IncreaseDeposit",
      "type": "event"
    },
    {
      "anonymous": false,
      "inputs": [
        {
          "indexed": true,
          "internalType": "address",
          "name": "owner",
          "type": "address"
        },
        {
          "indexed": false,
          "internalType": "address[]",
          "name": "pool",
          "type": "address[]"
        }
      ],
      "name": "LogPoolAddition",
      "type": "event"
    },
    {
      "anonymous": false,
      "inputs": [
        {
          "indexed": true,
          "internalType": "address",
          "name": "pool",
          "type": "address"
        },
        {
          "indexed": false,
          "internalType": "uint64",
          "name": "lastRewardBlock",
          "type": "uint64"
        },
        {
          "indexed": false,
          "internalType": "uint256",
          "name": "accRewardPerShare",
          "type": "uint256"
        }
      ],
      "name": "LogUpdatePool",
      "type": "event"
    },
    {
      "anonymous": false,
      "inputs": [
        {
          "indexed": false,
          "internalType": "address",
          "name": "owner",
          "type": "address"
        },
        {
          "indexed": false,
          "internalType": "uint256",
          "name": "stakeAmount",
          "type": "uint256"
        }
      ],
      "name": "LogUpdatedStakeAmount",
      "type": "event"
    },
    {
      "anonymous": false,
      "inputs": [
        {
          "indexed": true,
          "internalType": "address",
          "name": "previousOwner",
          "type": "address"
        },
        {
          "indexed": true,
          "internalType": "address",
          "name": "newOwner",
          "type": "address"
        }
      ],
      "name": "OwnershipTransferred",
      "type": "event"
    },
    {
      "anonymous": false,
      "inputs": [
        {
          "indexed": true,
          "internalType": "address",
          "name": "pool",
          "type": "address"
        },
        {
          "indexed": true,
          "internalType": "address",
          "name": "user",
          "type": "address"
        },
        {
          "indexed": false,
          "internalType": "uint256",
          "name": "tokenId",
          "type": "uint256"
        }
      ],
      "name": "Withdraw",
      "type": "event"
    },
    {
      "anonymous": false,
      "inputs": [
        {
          "indexed": true,
          "internalType": "address",
          "name": "pool",
          "type": "address"
        },
        {
          "indexed": true,
          "internalType": "address",
          "name": "user",
          "type": "address"
        },
        {
          "indexed": false,
          "internalType": "uint256",
          "name": "pendingRewardAmount",
          "type": "uint256"
        }
      ],
      "name": "WithdrawAndClaim",
      "type": "event"
    },
    {
      "anonymous": false,
      "inputs": [
        {
          "indexed": true,
          "internalType": "address",
          "name": "pool",
          "type": "address"
        },
        {
          "indexed": true,
          "internalType": "address",
          "name": "user",
          "type": "address"
        },
        {
          "indexed": false,
          "internalType": "uint256",
          "name": "pendingRewardAmount",
          "type": "uint256"
        }
      ],
      "name": "WithdrawPendingRewardAmount",
      "type": "event"
    },
    {
      "anonymous": false,
      "inputs": [
        {
          "indexed": false,
          "internalType": "address",
          "name": "owner",
          "type": "address"
        },
        {
          "indexed": false,
          "internalType": "uint256",
          "name": "totalLockAmount",
          "type": "uint256"
        }
      ],
      "name": "totalLockAmountUpdated",
      "type": "event"
    },
    {
      "inputs": [],
      "name": "ACC_REWARD_PRECISION",
      "outputs": [
        {
          "internalType": "uint256",
          "name": "",
          "type": "uint256"
        }
      ],
      "stateMutability": "view",
      "type": "function"
    },
    {
      "inputs": [],
      "name": "REWARD_TOKEN",
      "outputs": [
        {
          "internalType": "contract IERC20",
          "name": "",
          "type": "address"
        }
      ],
      "stateMutability": "view",
      "type": "function"
    },
    {
      "inputs": [
        {
          "internalType": "address[]",
          "name": "_pool",
          "type": "address[]"
        }
      ],
      "name": "addPool",
      "outputs": [],
      "stateMutability": "nonpayable",
      "type": "function"
    },
    {
      "inputs": [
        {
          "internalType": "address",
          "name": "_pool",
          "type": "address"
        },
        {
          "internalType": "address",
          "name": "_to",
          "type": "address"
        }
      ],
      "name": "claim",
      "outputs": [],
      "stateMutability": "nonpayable",
      "type": "function"
    },
    {
      "inputs": [
        {
          "internalType": "address",
          "name": "_pool",
          "type": "address"
        },
        {
          "internalType": "uint256",
          "name": "_tokenId",
          "type": "uint256"
        }
      ],
      "name": "deposit",
      "outputs": [],
      "stateMutability": "nonpayable",
      "type": "function"
    },
    {
      "inputs": [
        {
          "internalType": "address",
          "name": "_pool",
          "type": "address"
        }
      ],
      "name": "increaseDeposit",
      "outputs": [],
      "stateMutability": "nonpayable",
      "type": "function"
    },
    {
      "inputs": [
        {
          "internalType": "address",
          "name": "",
          "type": "address"
        },
        {
          "internalType": "address",
          "name": "",
          "type": "address"
        },
        {
          "internalType": "uint256",
          "name": "",
          "type": "uint256"
        },
        {
          "internalType": "bytes",
          "name": "",
          "type": "bytes"
        }
      ],
      "name": "onERC721Received",
      "outputs": [
        {
          "internalType": "bytes4",
          "name": "",
          "type": "bytes4"
        }
      ],
      "stateMutability": "nonpayable",
      "type": "function"
    },
    {
      "inputs": [],
      "name": "owner",
      "outputs": [
        {
          "internalType": "address",
          "name": "",
          "type": "address"
        }
      ],
      "stateMutability": "view",
      "type": "function"
    },
    {
      "inputs": [
        {
          "internalType": "address",
          "name": "_pool",
          "type": "address"
        },
        {
          "internalType": "address",
          "name": "_user",
          "type": "address"
        }
      ],
      "name": "pendingReward",
      "outputs": [
        {
          "internalType": "uint256",
          "name": "pending_",
          "type": "uint256"
        }
      ],
      "stateMutability": "view",
      "type": "function"
    },
    {
      "inputs": [
        {
          "internalType": "address",
          "name": "_pool",
          "type": "address"
        },
        {
          "internalType": "address",
          "name": "_user",
          "type": "address"
        },
        {
          "internalType": "uint256",
          "name": "_blockNumber",
          "type": "uint256"
        }
      ],
      "name": "pendingRewardAtBlock",
      "outputs": [
        {
          "internalType": "uint256",
          "name": "pending_",
          "type": "uint256"
        }
      ],
      "stateMutability": "view",
      "type": "function"
    },
    {
      "inputs": [
        {
          "internalType": "address",
          "name": "",
          "type": "address"
        }
      ],
      "name": "poolInfo",
      "outputs": [
        {
          "internalType": "bool",
          "name": "exist",
          "type": "bool"
        },
        {
          "internalType": "uint64",
          "name": "lastRewardBlock",
          "type": "uint64"
        },
        {
          "internalType": "uint256",
          "name": "accRewardPerShare",
          "type": "uint256"
        },
        {
          "internalType": "uint256",
          "name": "rewardPerBlock",
          "type": "uint256"
        },
        {
          "internalType": "uint256",
          "name": "currentEpoch",
          "type": "uint256"
        },
        {
          "internalType": "uint256",
          "name": "epoch",
          "type": "uint256"
        }
      ],
      "stateMutability": "view",
      "type": "function"
    },
    {
      "inputs": [],
      "name": "renounceOwnership",
      "outputs": [],
      "stateMutability": "nonpayable",
      "type": "function"
    },
    {
      "inputs": [],
      "name": "secondPerBlock",
      "outputs": [
        {
          "internalType": "uint256",
          "name": "",
          "type": "uint256"
        }
      ],
      "stateMutability": "view",
      "type": "function"
    },
    {
      "inputs": [
        {
          "internalType": "uint256",
          "name": "_secondPerBlock",
          "type": "uint256"
        }
      ],
      "name": "setSecondPerBlock",
      "outputs": [],
      "stateMutability": "nonpayable",
      "type": "function"
    },
    {
      "inputs": [
        {
          "internalType": "uint256",
          "name": "_stakeAmount",
          "type": "uint256"
        }
      ],
      "name": "setStakeAmount",
      "outputs": [],
      "stateMutability": "nonpayable",
      "type": "function"
    },
    {
      "inputs": [
        {
          "internalType": "uint256",
          "name": "_totalLockAmount",
          "type": "uint256"
        }
      ],
      "name": "setTotalLockAmount",
      "outputs": [],
      "stateMutability": "nonpayable",
      "type": "function"
    },
    {
      "inputs": [],
      "name": "stakeAmount",
      "outputs": [
        {
          "internalType": "uint256",
          "name": "",
          "type": "uint256"
        }
      ],
      "stateMutability": "view",
      "type": "function"
    },
    {
      "inputs": [],
      "name": "synthrStaking",
      "outputs": [
        {
          "internalType": "contract ISynthrStaking",
          "name": "",
          "type": "address"
        }
      ],
      "stateMutability": "view",
      "type": "function"
    },
    {
      "inputs": [],
      "name": "totalLockAmount",
      "outputs": [
        {
          "internalType": "uint256",
          "name": "",
          "type": "uint256"
        }
      ],
      "stateMutability": "view",
      "type": "function"
    },
    {
      "inputs": [
        {
          "internalType": "address",
          "name": "newOwner",
          "type": "address"
        }
      ],
      "name": "transferOwnership",
      "outputs": [],
      "stateMutability": "nonpayable",
      "type": "function"
    },
    {
      "inputs": [
        {
          "internalType": "address",
          "name": "_user",
          "type": "address"
        },
        {
          "internalType": "uint256",
          "name": "_rewardAmount",
          "type": "uint256"
        },
        {
          "internalType": "address[]",
          "name": "_pool",
          "type": "address[]"
        },
        {
          "internalType": "uint256[]",
          "name": "_rewardPerBlock",
          "type": "uint256[]"
        }
      ],
      "name": "updateEpoch",
      "outputs": [],
      "stateMutability": "nonpayable",
      "type": "function"
    },
    {
      "inputs": [
        {
          "internalType": "address",
          "name": "_pool",
          "type": "address"
        }
      ],
      "name": "updatePool",
      "outputs": [
        {
          "components": [
            {
              "internalType": "bool",
              "name": "exist",
              "type": "bool"
            },
            {
              "internalType": "uint64",
              "name": "lastRewardBlock",
              "type": "uint64"
            },
            {
              "internalType": "uint256",
              "name": "accRewardPerShare",
              "type": "uint256"
            },
            {
              "internalType": "uint256",
              "name": "rewardPerBlock",
              "type": "uint256"
            },
            {
              "internalType": "uint256",
              "name": "currentEpoch",
              "type": "uint256"
            },
            {
              "internalType": "uint256",
              "name": "epoch",
              "type": "uint256"
            }
          ],
          "internalType": "struct NftStaking.NFTPoolInfo",
          "name": "_poolInfo",
          "type": "tuple"
        }
      ],
      "stateMutability": "nonpayable",
      "type": "function"
    },
    {
      "inputs": [
        {
          "internalType": "address",
          "name": "",
          "type": "address"
        },
        {
          "internalType": "address",
          "name": "",
          "type": "address"
        }
      ],
      "name": "userInfo",
      "outputs": [
        {
          "internalType": "uint256",
          "name": "amount",
          "type": "uint256"
        },
        {
          "internalType": "uint256",
          "name": "tokenId",
          "type": "uint256"
        },
        {
          "internalType": "int256",
          "name": "rewardDebt",
          "type": "int256"
        }
      ],
      "stateMutability": "view",
      "type": "function"
    },
    {
      "inputs": [
        {
          "internalType": "address",
          "name": "_pool",
          "type": "address"
        },
        {
          "internalType": "address",
          "name": "_user",
          "type": "address"
        }
      ],
      "name": "userRewardsDebt",
      "outputs": [
        {
          "internalType": "int256",
          "name": "",
          "type": "int256"
        }
      ],
      "stateMutability": "view",
      "type": "function"
    },
    {
      "inputs": [
        {
          "internalType": "address",
          "name": "_pool",
          "type": "address"
        }
      ],
      "name": "withdraw",
      "outputs": [],
      "stateMutability": "nonpayable",
      "type": "function"
    },
    {
      "inputs": [
        {
          "internalType": "address",
          "name": "_pool",
          "type": "address"
        },
        {
          "internalType": "address",
          "name": "_to",
          "type": "address"
        }
      ],
      "name": "withdrawAndClaim",
      "outputs": [],
      "stateMutability": "nonpayable",
      "type": "function"
    }
  ],
  "transactionHash": "0x90babc4b735db96974d9d305b12b606506b339c6b2a5d3e770a51ca5e0d2f9c4",
  "args": [
    "0xD2344ce2CFEaD1cBE24e33E8301411d62946A1d2",
    "0x172160B1C9BD74D683e1EbaE0EdD96a6fEA9A6Eb",
    "0x478454A6FC7b71e006d59D018032CBb0799672D9"
  ],
  "numDeployments": 3,
  "solcInputHash": "df4369db29fe8779edc7cdbba1822334",
  "bytecode": "0x60a0346200012257601f62001e9738819003918201601f19168301916001600160401b03831184841017620001275780849260609460405283398101031262000122576200004d816200013d565b62000069604062000061602085016200013d565b93016200013d565b6001600160a01b03918216919082156200010957816000549460018060a01b03199480868816176000558260405197167f8be0079c531659141344cd1fd0a4f28419497f9722a3daafe3b4186f6b6457e0600080a3683635c9adc5dea00000600155600c6002551660805216906004541617600455611d449081620001538239608051818181610390015281816106b701528181610f5f01526111d70152f35b604051631e4fbdf760e01b815260006004820152602490fd5b600080fd5b634e487b7160e01b600052604160045260246000fd5b51906001600160a01b0382168203620001225756fe608080604052600436101561001357600080fd5b600090813560e01c9081630f208beb1461128957508063150b7a021461120257806321c0b342146110c75780632287b18014610f8a5780633e434e5d14610dda5780633f1a7b5614610d7c57806343808c5014610d1e57806347e7ef2414610b6c57806351cff8d914610a1e57806360c7dc4714610a005780636e7b2c2614610905578063715018a6146108935780637b46c54f146108285780638a7023f2146107d55780638a747bf3146104315780638da5cb5b1461040b5780638fcdfafe146103e4578063976df6bb146103b457806399248ea7146103705780639a7b5f11146102f35780639ced7e76146102bd578063a111bab91461029f578063c467d55914610281578063d1c6a2311461025e578063f2fde38b146101a55763f71b22b81461013f57600080fd5b346101a25760206003193601126101a2577f5ed6e55c430fc2a42200c2d6f80a56a038dbf3ca778a54686acf00ac42f2e1a661019c60043561017f6119f5565b600381905560408051338152602081019290925290918291820190565b0390a180f35b80fd5b50346101a25760206003193601126101a2576101bf6112eb565b6101c76119f5565b6001600160a01b0380911690811561022d57600054827fffffffffffffffffffffffff0000000000000000000000000000000000000000821617600055167f8be0079c531659141344cd1fd0a4f28419497f9722a3daafe3b4186f6b6457e0600080a380f35b602483604051907f1e4fbdf70000000000000000000000000000000000000000000000000000000082526004820152fd5b50346101a257806003193601126101a2576020604051670de0b6b3a76400008152f35b50346101a257806003193601126101a2576020600254604051908152f35b50346101a257806003193601126101a2576020600354604051908152f35b50346101a25760406003193601126101a25760206102eb6102dc6112eb565b6102e4611306565b4391611a5d565b604051908152f35b50346101a25760206003193601126101a257604060c0916001600160a01b0361031a6112eb565b1681526005602052208054906001810154906002810154600460038301549201549267ffffffffffffffff6040519560ff81161515875260081c16602086015260408501526060840152608083015260a0820152f35b50346101a257806003193601126101a25760206040516001600160a01b037f0000000000000000000000000000000000000000000000000000000000000000168152f35b50346101a25760606003193601126101a25760206102eb6103d36112eb565b6103db611306565b60443591611a5d565b50346101a257806003193601126101a25760206001600160a01b0360045416604051908152f35b50346101a257806003193601126101a2576001600160a01b036020915416604051908152f35b50346101a25760806003193601126101a25761044b6112eb565b602460443567ffffffffffffffff81116107d15761046d9036906004016113b9565b6064359167ffffffffffffffff83116107cd57366023840112156107cd578260040135610499816113a1565b936104a7604051958661137e565b8185526020850183819360051b830101913683116107c9578401905b8282106107b9575050506104d56119f5565b835183510361074f57855b835181101561065b576001600160a01b036104fb8286611481565b511687526005602052604087206105636040519161051883611362565b600481549167ffffffffffffffff60ff841615159384875260081c166020860152600181015460408601526002810154606086015260038101546080860152015460a08401526114e8565b61056d8287611481565b51606082015267ffffffffffffffff4316602082015260a08101517fffffffffffffffffffffffffffffffffffffffffffffffffffffffffffffffff8114610648579060018093920160a08201526001600160a01b036105cd8388611481565b511689526005602052600460a060408b20926105f981511515859060ff60ff1983541691151516179055565b6020810151845468ffffffffffffffff00191660089190911b68ffffffffffffffff001617845560408101518685015560608101516002850155608081015160038501550151910155016104e0565b8489634e487b7160e01b81526011600452fd5b50936106b56106db929493946106a76040519384926323b872dd60e01b6020850152803591309185016040919493929460608201956001600160a01b0380921683521660208201520152565b03601f19810183528261137e565b7f0000000000000000000000000000000000000000000000000000000000000000611b8d565b60206106f2604051936040855260408501906114ab565b91838303828501525191828152019290845b81811061073957505050807feeed64b8fc3f300f7edc84ec3f54d79beded7fb1691c186e046c059958efb2729133930390a280f35b8251855260209485019490920191600101610704565b60848260286040519162461bcd60e51b8352602060048401528201527f4e66745374616b696e673a206c656e677468206f6620617272617920646f657360448201527f6e2774206d6163680000000000000000000000000000000000000000000000006064820152fd5b81358152602091820191016104c3565b8880fd5b8480fd5b8380fd5b50346101a25760406003193601126101a2576107ef6112eb565b60406107f9611306565b926001600160a01b03809316815260066020522091166000526020526020600260406000200154604051908152f35b50346101a25760206003193601126101a25760c061084c6108476112eb565b611553565b60a06040519180511515835267ffffffffffffffff6020820151166020840152604081015160408401526060810151606084015260808101516080840152015160a0820152f35b50346101a257806003193601126101a2576108ac6119f5565b60006001600160a01b0381547fffffffffffffffffffffffff000000000000000000000000000000000000000081168355167f8be0079c531659141344cd1fd0a4f28419497f9722a3daafe3b4186f6b6457e08280a380f35b50346101a2576020806003193601126109fc5767ffffffffffffffff906004358281116107d1579161093c849336906004016113b9565b6109446119f5565b83914316915b81518110156109bc576001906001600160a01b03806109698386611481565b51168752600590818752604088208460ff1982541617905561098b8386611481565b51168752855260408620805468ffffffffffffffff001916600886901b68ffffffffffffffff00161790550161094a565b84827f3120197cb0bf46828731cd89ce8090a06db0ca162ee78919341272fb45817b1f60405160208152806109f6339460208301906114ab565b0390a280f35b5080fd5b50346101a257806003193601126101a2576020600154604051908152f35b50346101a2576020806003193601126109fc57610a396112eb565b906001600160a01b03610a4b83611553565b9216908184526006815260408420336000528152604060002092600260405191610a748361131c565b670de0b6b3a7640000610aa5875480865260408560018b01549a8989019b8c52015494818801958652015190611533565b0495610ab78151978986528351611468565b8252878152858852600685526040882033600052855260406000209351845551600184015551910155813b156107d1576040516323b872dd60e01b8152306004820152336024820152604481018490528490818160648183885af18015610b6157610b4d575b50507f9b1bfa7fa9ee420a16e124f794c35ac9f90472acc99140eb2f6447c714cad8eb906040519384523393a380f35b610b569061134e565b6107d1578338610b1d565b6040513d84823e3d90fd5b50346101a25760406003193601126101a257610b866112eb565b60243590610b926118c2565b906001600160a01b038116918285526020916006835260408620336000528352604060002060405192610bc48461131c565b8154845260018201549260028686019385855201549360408601948552610cda576002939291670de0b6b3a7640000610c0c6040610c04610c1795611553565b015183611533565b04908652835161144c565b8252868152858852600685526040882033600052855260406000209351845551600184015551910155813b156107d1576040517f42842e0e000000000000000000000000000000000000000000000000000000008152336004820152306024820152604481018490528490818160648183885af18015610b6157610cc6575b50507f5548c837ab068cf56a2c2479df0882a4922fd203edb7517321831d95078c5f62906040519384523393a380f35b610ccf9061134e565b6107d1578338610c96565b6064866040519062461bcd60e51b82526004820152601960248201527f4e66745374616b696e673a20616c7265616479206578697374000000000000006044820152fd5b50346101a25760206003193601126101a2577f9ebcfad0fd447195381cabc8e99bd2c8d6f050ffbbc10538f729030481e564af61019c600435610d5f6119f5565b600181905560408051338152602081019290925290918291820190565b50346101a25760206003193601126101a257610d966119f5565b6004356002556003546040805133815260208101929092527f5ed6e55c430fc2a42200c2d6f80a56a038dbf3ca778a54686acf00ac42f2e1a691908190810161019c565b50346101a25760406003193601126101a257610df46112eb565b610dfc611306565b6001600160a01b03610e0d83611553565b92169081845260209060068252604085203386528252610e82604086209460405190610e388261131c565b6060610e768854808552670de0b6b3a7640000610e70600260018d01549c8b89019d8e52015492836040890152604087015190611533565b04611468565b92519101519033611710565b935190838652600683526040862033875283528560026040822082815582600182015501558480610f59575b505084833b156101a2576040516323b872dd60e01b815230600482015233602482015260448101929092528160648183875af18015610f4e57610f1b575b507f7bb2f81fe27ec9003020db5e0d207b11ff9f4f7aad1380050355dfdb72967564906040519384523393a380f35b93610f477f7bb2f81fe27ec9003020db5e0d207b11ff9f4f7aad1380050355dfdb72967564929561134e565b9390610eec565b6040513d87823e3d90fd5b610f83917f0000000000000000000000000000000000000000000000000000000000000000611817565b3884610eae565b50346101a2576020806003193601126109fc57610fa56112eb565b610fad6118c2565b916001600160a01b0382169182855260068252604085203386528252604085209060405191610fdb8361131c565b80548352600181015491600285850192848452015492604085019384521561108357916002916110536110307f73b16f71cf3c4e1e462af5a372769931a4bb28cd70ef6791b41c16cacc89e888979695611553565b98670de0b6b3a7640000610c0c604061104a895185611429565b9c01518c611533565b82528689526006855260408920338a5285526040892093518455516001840155519101556040519384523393a380f35b6064856040519062461bcd60e51b82526004820152601d60248201527f4e66745374616b696e673a20746f6b656e206e6f74206465706f7369740000006044820152fd5b50346101a25760406003193601126101a2576110e16112eb565b6110e9611306565b907ff7a40077ff7a04c7e61f6f26fb13774259ddf1b6bce9ecf26a8276cdd39926836001600160a01b0361111c83611553565b92169283855260209060068252604086203387528252604086206002604051916111458361131c565b80549081845261119783600183015492888701938452015498611188670de0b6b3a764000061118060408901968d8852604085015190611533565b049a8b611468565b90606087519101519033611710565b978252888a526006865260408a20338b52865260408a20935184555160018401555191015583806111d1575b50506040519283523392a380f35b6111fb917f0000000000000000000000000000000000000000000000000000000000000000611817565b38836111c3565b50346101a25760806003193601126101a25761121c6112eb565b50611225611306565b5060643567ffffffffffffffff808211611285573660238301121561128557816004013590811161128557369101602401116101a25760206040517f150b7a02000000000000000000000000000000000000000000000000000000008152f35b8280fd5b9050346109fc5760406003193601126109fc5760406060926112a96112eb565b6112b1611306565b906001600160a01b038091168352600660205283832091168252602052208054906002600182015491015491835260208301526040820152f35b600435906001600160a01b038216820361130157565b600080fd5b602435906001600160a01b038216820361130157565b6060810190811067ffffffffffffffff82111761133857604052565b634e487b7160e01b600052604160045260246000fd5b67ffffffffffffffff811161133857604052565b60c0810190811067ffffffffffffffff82111761133857604052565b90601f601f19910116810190811067ffffffffffffffff82111761133857604052565b67ffffffffffffffff81116113385760051b60200190565b9080601f830112156113015760209082356113d3816113a1565b936113e1604051958661137e565b81855260208086019260051b82010192831161130157602001905b82821061140a575050505090565b81356001600160a01b03811681036113015781529083019083016113fc565b9190820391821161143657565b634e487b7160e01b600052601160045260246000fd5b9190916000838201938412911290801582169115161761143657565b8181039291600013801582851316918412161761143657565b80518210156114955760209160051b010190565b634e487b7160e01b600052603260045260246000fd5b90815180825260208080930193019160005b8281106114cb575050505090565b83516001600160a01b0316855293810193928101926001016114bd565b156114ef57565b606460405162461bcd60e51b815260206004820152601a60248201527f4e66745374616b696e673a20706f6f6c206e6f742065786973740000000000006044820152fd5b8181029291811591840414171561143657565b9190820180921161143657565b9060a0916001600160a01b03604091825161156d81611362565b60009581878093528260208201528286820152826060820152826080820152015216908184526005602052808420908051946115a886611362565b82549260ff841615159687815267ffffffffffffffff9283602083019660081c1686526001830154938583019485526002840154936060840194855260046003820154916080860192835201549160a08501928352611607859c6114e8565b6003549881815116804311611625575b505050505050505050505050565b8960049661167e928a8e7f4884fdd3ca611190740fbfd998257f953e9e90cb530f233718a74e5b702051cb9f6116de575b50505084431684528d815260056020522096511515879060ff60ff1983541691151516179055565b5116956116aa87869068ffffffffffffffff001968ffffffffffffffff0083549260081b169116179055565b51948560018601555160028501555160038401555191015582519182526020820152a2388080808080808080808080611617565b6116fa6116ff926116f26117069543611429565b905190611533565b611a39565b8c51611546565b8b52388a81611656565b9160009260806001600160a01b03602481600454169360405194859384927f1959a0020000000000000000000000000000000000000000000000000000000084521660048301525afa801561180b576040916000916117dc575b500151804211611793575b50505080821015611787575050600090565b61179091611429565b90565b670de0b6b3a764000093506117c46117d393926117bf6117b66117cd9442611429565b600254906119d5565b611533565b60035490611a39565b90611533565b04388080611775565b6117fe915060803d608011611804575b6117f6818361137e565b810190611873565b3861176a565b503d6117ec565b6040513d6000823e3d90fd5b6040517fa9059cbb0000000000000000000000000000000000000000000000000000000060208201526001600160a01b039290921660248301526044808301939093529181526118719161186c60648361137e565b611b8d565b565b908160809103126113015760405190608082019082821067ffffffffffffffff831117611338576060916040528051835260208101516020840152604081015160408401520151606082015290565b602460806001600160a01b0360045416604051928380927f1959a0020000000000000000000000000000000000000000000000000000000082523360048301525afa90811561180b576000916119b6575b5080516001541161197257604081015142101561192e575190565b606460405162461bcd60e51b815260206004820152601d60248201527f4e66745374616b696e673a206c6f636b2074696d6520657870697265640000006044820152fd5b606460405162461bcd60e51b815260206004820152601d60248201527f4e66745374616b696e673a206c6f7720616d6f756e74207374616b65640000006044820152fd5b6119cf915060803d608011611804576117f6818361137e565b38611913565b81156119df570490565b634e487b7160e01b600052601260045260246000fd5b6001600160a01b03600054163303611a0957565b60246040517f118cdaa7000000000000000000000000000000000000000000000000000000008152336004820152fd5b90670de0b6b3a76400009182810292818404149015171561143657611790916119d5565b91906003546001600160a01b038094169060009382855260056020526040908186209382805197611a8d89611362565b86549960ff8b1615158a5267ffffffffffffffff938460208c019c60081c168c5260018901549a8481019b8c5260028a015499606082019a8b5260038101546080830152600401549060a001528252600660205282822090891682526020522096835197611afa8961131c565b80548952600181015460208a015260020154938801938452519751169081811197611b4f94670de0b6b3a764000093611b46938b6117909c611b84575b611b59575b5050508751611533565b04905190611468565b9251905191611710565b916116fa611b6e611b7693611b7c9695611429565b8a5190611533565b90611546565b388080611b3c565b50821515611b37565b6001600160a01b031690600080826020829451910182865af13d15611c6f573d9067ffffffffffffffff8211611c5b5790611bea9160405191611bda6020601f19601f840116018461137e565b82523d84602084013e5b84611c7b565b908151918215159283611c33575b505050611c025750565b602490604051907f5274afe70000000000000000000000000000000000000000000000000000000082526004820152fd5b8192935090602091810103126109fc5760200151908115918215036101a25750388080611bf8565b602483634e487b7160e01b81526041600452fd5b611bea90606090611be4565b90611cba5750805115611c9057805190602001fd5b60046040517f1425ea42000000000000000000000000000000000000000000000000000000008152fd5b81511580611d05575b611ccb575090565b6024906001600160a01b03604051917f9996b315000000000000000000000000000000000000000000000000000000008352166004820152fd5b50803b15611cc356fea26469706673582212204506ab8b8802753645aa02cd73d4113c35cab33064e374baba010c7f051778bc64736f6c63430008180033",
  "devdoc": {
    "errors": {
      "AddressEmptyCode(address)": [
        {
          "details": "There's no code at `target` (it is not a contract)."
        }
      ],
      "AddressInsufficientBalance(address)": [
        {
          "details": "The ETH balance of the account is not enough to perform the operation."
        }
      ],
      "FailedInnerCall()": [
        {
          "details": "A call to an address target failed. The target may have reverted."
        }
      ],
      "OwnableInvalidOwner(address)": [
        {
          "details": "The owner is not a valid owner account. (eg. `address(0)`)"
        }
      ],
      "OwnableUnauthorizedAccount(address)": [
        {
          "details": "The caller account is not authorized to perform an operation."
        }
      ],
      "SafeERC20FailedOperation(address)": [
        {
          "details": "An operation with an ERC20 token failed."
        }
      ]
    },
    "kind": "dev",
    "methods": {
      "claim(address,address)": {
        "params": {
          "_pool": "The address of the pool. See `NFTPoolInfo`.",
          "_to": "Receiver rewards."
        }
      },
      "deposit(address,uint256)": {
        "params": {
          "_pool": "The address of the pool. See `NFTPoolInfo`."
        }
      },
      "owner()": {
        "details": "Returns the address of the current owner."
      },
      "pendingReward(address,address)": {
        "params": {
          "_pool": "The address of the pool. See `poolInfo`.",
          "_user": "Address of user."
        },
        "returns": {
          "pending_": "reward for a given user."
        }
      },
      "pendingRewardAtBlock(address,address,uint256)": {
        "params": {
          "_pool": "The address of the pool. See `poolInfo`.",
          "_user": "Address of user."
        },
        "returns": {
          "pending_": "reward for a given user."
        }
      },
      "renounceOwnership()": {
        "details": "Leaves the contract without owner. It will not be possible to call `onlyOwner` functions. Can only be called by the current owner. NOTE: Renouncing ownership will leave the contract without an owner, thereby disabling any functionality that is only available to the owner."
      },
      "transferOwnership(address)": {
        "details": "Transfers ownership of the contract to a new account (`newOwner`). Can only be called by the current owner."
      },
      "updateEpoch(address,uint256,address[],uint256[])": {
        "params": {
          "_pool": "addresses of pool to be updated.",
          "_rewardPerBlock": "array of rewardPerBlock"
        }
      },
      "updatePool(address)": {
        "params": {
          "_pool": "The address of the pool. See `NFTPoolInfo`."
        },
        "returns": {
          "_poolInfo": "Returns the pool that was updated."
        }
      },
      "userRewardsDebt(address,address)": {
        "details": "retuen user reward debt",
        "params": {
          "_pool": "address of pool",
          "_user": "address of user"
        }
      },
      "withdrawAndClaim(address,address)": {
        "params": {
          "_pool": "address of the pool. See `NFTPoolInfo`.",
          "_to": "Receiver of the LP tokens and syUSD rewards."
        }
      }
    },
    "version": 1
  },
  "userdoc": {
    "kind": "user",
    "methods": {
      "REWARD_TOKEN()": {
        "notice": "Address of reward token contract."
      },
      "addPool(address[])": {
        "notice": "Add a new NFT pool. Can only be called by the owner."
      },
      "claim(address,address)": {
        "notice": "Claim proceeds for transaction sender to `to`."
      },
      "deposit(address,uint256)": {
        "notice": "Deposit NFT token."
      },
      "pendingReward(address,address)": {
        "notice": "View function to see pending reward of user in pool at current block."
      },
      "pendingRewardAtBlock(address,address,uint256)": {
        "notice": "View function to see pending reward of user in pool at future block."
      },
      "poolInfo(address)": {
        "notice": "Info of each pool."
      },
      "setTotalLockAmount(uint256)": {
        "notice": "set total locked token for lpSupply"
      },
      "synthrStaking()": {
        "notice": "synthr staking instance"
      },
      "totalLockAmount()": {
        "notice": "Total lock amount of users in VotingEscrow"
      },
      "updateEpoch(address,uint256,address[],uint256[])": {
        "notice": "update epoch of pool"
      },
      "updatePool(address)": {
        "notice": "Update reward variables of the given pool."
      },
      "userInfo(address,address)": {
        "notice": "Info of each user that stakes LP tokens."
      },
      "withdrawAndClaim(address,address)": {
        "notice": "Withdraw NFT token from pool and claim proceeds for transaction sender to `to`."
      }
    },
    "version": 1
  },
  "storageLayout": {
    "storage": [
      {
        "astId": 8,
        "contract": "contracts/NFT-Staking/NftStaking.sol:NftStaking",
        "label": "_owner",
        "offset": 0,
        "slot": "0",
        "type": "t_address"
      },
      {
        "astId": 901,
        "contract": "contracts/NFT-Staking/NftStaking.sol:NftStaking",
        "label": "stakeAmount",
        "offset": 0,
        "slot": "1",
        "type": "t_uint256"
      },
      {
        "astId": 904,
        "contract": "contracts/NFT-Staking/NftStaking.sol:NftStaking",
        "label": "secondPerBlock",
        "offset": 0,
        "slot": "2",
        "type": "t_uint256"
      },
      {
        "astId": 907,
        "contract": "contracts/NFT-Staking/NftStaking.sol:NftStaking",
        "label": "totalLockAmount",
        "offset": 0,
        "slot": "3",
        "type": "t_uint256"
      },
      {
        "astId": 911,
        "contract": "contracts/NFT-Staking/NftStaking.sol:NftStaking",
        "label": "synthrStaking",
        "offset": 0,
        "slot": "4",
        "type": "t_contract(ISynthrStaking)2198"
      },
      {
        "astId": 917,
        "contract": "contracts/NFT-Staking/NftStaking.sol:NftStaking",
        "label": "poolInfo",
        "offset": 0,
        "slot": "5",
        "type": "t_mapping(t_address,t_struct(NFTPoolInfo)896_storage)"
      },
      {
        "astId": 925,
        "contract": "contracts/NFT-Staking/NftStaking.sol:NftStaking",
        "label": "userInfo",
        "offset": 0,
        "slot": "6",
        "type": "t_mapping(t_address,t_mapping(t_address,t_struct(UserInfo)882_storage))"
      }
    ],
    "types": {
      "t_address": {
        "encoding": "inplace",
        "label": "address",
        "numberOfBytes": "20"
      },
      "t_bool": {
        "encoding": "inplace",
        "label": "bool",
        "numberOfBytes": "1"
      },
      "t_contract(ISynthrStaking)2198": {
        "encoding": "inplace",
        "label": "contract ISynthrStaking",
        "numberOfBytes": "20"
      },
      "t_int256": {
        "encoding": "inplace",
        "label": "int256",
        "numberOfBytes": "32"
      },
      "t_mapping(t_address,t_mapping(t_address,t_struct(UserInfo)882_storage))": {
        "encoding": "mapping",
        "key": "t_address",
        "label": "mapping(address => mapping(address => struct NftStaking.UserInfo))",
        "numberOfBytes": "32",
        "value": "t_mapping(t_address,t_struct(UserInfo)882_storage)"
      },
      "t_mapping(t_address,t_struct(NFTPoolInfo)896_storage)": {
        "encoding": "mapping",
        "key": "t_address",
        "label": "mapping(address => struct NftStaking.NFTPoolInfo)",
        "numberOfBytes": "32",
        "value": "t_struct(NFTPoolInfo)896_storage"
      },
      "t_mapping(t_address,t_struct(UserInfo)882_storage)": {
        "encoding": "mapping",
        "key": "t_address",
        "label": "mapping(address => struct NftStaking.UserInfo)",
        "numberOfBytes": "32",
        "value": "t_struct(UserInfo)882_storage"
      },
      "t_struct(NFTPoolInfo)896_storage": {
        "encoding": "inplace",
        "label": "struct NftStaking.NFTPoolInfo",
        "members": [
          {
            "astId": 885,
            "contract": "contracts/NFT-Staking/NftStaking.sol:NftStaking",
            "label": "exist",
            "offset": 0,
            "slot": "0",
            "type": "t_bool"
          },
          {
            "astId": 887,
            "contract": "contracts/NFT-Staking/NftStaking.sol:NftStaking",
            "label": "lastRewardBlock",
            "offset": 1,
            "slot": "0",
            "type": "t_uint64"
          },
          {
            "astId": 889,
            "contract": "contracts/NFT-Staking/NftStaking.sol:NftStaking",
            "label": "accRewardPerShare",
            "offset": 0,
            "slot": "1",
            "type": "t_uint256"
          },
          {
            "astId": 891,
            "contract": "contracts/NFT-Staking/NftStaking.sol:NftStaking",
            "label": "rewardPerBlock",
            "offset": 0,
            "slot": "2",
            "type": "t_uint256"
          },
          {
            "astId": 893,
            "contract": "contracts/NFT-Staking/NftStaking.sol:NftStaking",
            "label": "currentEpoch",
            "offset": 0,
            "slot": "3",
            "type": "t_uint256"
          },
          {
            "astId": 895,
            "contract": "contracts/NFT-Staking/NftStaking.sol:NftStaking",
            "label": "epoch",
            "offset": 0,
            "slot": "4",
            "type": "t_uint256"
          }
        ],
        "numberOfBytes": "160"
      },
      "t_struct(UserInfo)882_storage": {
        "encoding": "inplace",
        "label": "struct NftStaking.UserInfo",
        "members": [
          {
            "astId": 877,
            "contract": "contracts/NFT-Staking/NftStaking.sol:NftStaking",
            "label": "amount",
            "offset": 0,
            "slot": "0",
            "type": "t_uint256"
          },
          {
            "astId": 879,
            "contract": "contracts/NFT-Staking/NftStaking.sol:NftStaking",
            "label": "tokenId",
            "offset": 0,
            "slot": "1",
            "type": "t_uint256"
          },
          {
            "astId": 881,
            "contract": "contracts/NFT-Staking/NftStaking.sol:NftStaking",
            "label": "rewardDebt",
            "offset": 0,
            "slot": "2",
            "type": "t_int256"
          }
        ],
        "numberOfBytes": "96"
      },
      "t_uint256": {
        "encoding": "inplace",
        "label": "uint256",
        "numberOfBytes": "32"
      },
      "t_uint64": {
        "encoding": "inplace",
        "label": "uint64",
        "numberOfBytes": "8"
      }
    }
  }
}