{
  "address": "0x925089eB5cB7915F88AC10df84fBF43f39B63aB2",
  "abi": [
    {
      "inputs": [
        {
          "internalType": "address",
          "name": "_admin",
          "type": "address"
        },
        {
          "internalType": "address",
          "name": "_SYNTH",
          "type": "address"
        },
        {
          "internalType": "uint256[]",
          "name": "_lockType",
          "type": "uint256[]"
        },
        {
          "components": [
            {
              "internalType": "bool",
              "name": "exist",
              "type": "bool"
            },
            {
              "internalType": "uint64",
              "name": "lastRewardBlock",
              "type": "uint64"
            },
            {
              "internalType": "uint256",
              "name": "maxPoolSize",
              "type": "uint256"
            },
            {
              "internalType": "uint256",
              "name": "penalty",
              "type": "uint256"
            },
            {
              "internalType": "uint256",
              "name": "coolDownPeriod",
              "type": "uint256"
            },
            {
              "internalType": "uint256",
              "name": "totalStaked",
              "type": "uint256"
            },
            {
              "internalType": "uint256",
              "name": "rewardPerBlock",
              "type": "uint256"
            },
            {
              "internalType": "uint256",
              "name": "accRewardPerShare",
              "type": "uint256"
            },
            {
              "internalType": "uint256",
              "name": "epoch",
              "type": "uint256"
            }
          ],
          "internalType": "struct SynthrStaking.LockInfo[]",
          "name": "_lockInfo",
          "type": "tuple[]"
        }
      ],
      "stateMutability": "nonpayable",
      "type": "constructor"
    },
    {
      "inputs": [
        {
          "internalType": "address",
          "name": "target",
          "type": "address"
        }
      ],
      "name": "AddressEmptyCode",
      "type": "error"
    },
    {
      "inputs": [
        {
          "internalType": "address",
          "name": "account",
          "type": "address"
        }
      ],
      "name": "AddressInsufficientBalance",
      "type": "error"
    },
    {
      "inputs": [],
      "name": "EnforcedPause",
      "type": "error"
    },
    {
      "inputs": [],
      "name": "ExpectedPause",
      "type": "error"
    },
    {
      "inputs": [],
      "name": "FailedInnerCall",
      "type": "error"
    },
    {
      "inputs": [
        {
          "internalType": "address",
          "name": "owner",
          "type": "address"
        }
      ],
      "name": "OwnableInvalidOwner",
      "type": "error"
    },
    {
      "inputs": [
        {
          "internalType": "address",
          "name": "account",
          "type": "address"
        }
      ],
      "name": "OwnableUnauthorizedAccount",
      "type": "error"
    },
    {
      "inputs": [
        {
          "internalType": "address",
          "name": "token",
          "type": "address"
        }
      ],
      "name": "SafeERC20FailedOperation",
      "type": "error"
    },
    {
      "anonymous": false,
      "inputs": [
        {
          "indexed": true,
          "internalType": "address",
          "name": "user",
          "type": "address"
        },
        {
          "indexed": false,
          "internalType": "uint256",
          "name": "pendingRewardAmount",
          "type": "uint256"
        }
      ],
      "name": "Claimed",
      "type": "event"
    },
    {
      "anonymous": false,
      "inputs": [
        {
          "indexed": true,
          "internalType": "address",
          "name": "user",
          "type": "address"
        },
        {
          "indexed": false,
          "internalType": "uint256",
          "name": "tokenId",
          "type": "uint256"
        }
      ],
      "name": "Deposit",
      "type": "event"
    },
    {
      "anonymous": false,
      "inputs": [
        {
          "indexed": true,
          "internalType": "address",
          "name": "user",
          "type": "address"
        },
        {
          "indexed": false,
          "internalType": "uint256",
          "name": "amount",
          "type": "uint256"
        }
      ],
      "name": "EmergencyWithdraw",
      "type": "event"
    },
    {
      "anonymous": false,
      "inputs": [
        {
          "indexed": true,
          "internalType": "address",
          "name": "owner",
          "type": "address"
        },
        {
          "indexed": false,
          "internalType": "uint256[]",
          "name": "lockType",
          "type": "uint256[]"
        },
        {
          "indexed": false,
          "internalType": "uint256[]",
          "name": "rewardPerBlock",
          "type": "uint256[]"
        }
      ],
      "name": "EpochUpdated",
      "type": "event"
    },
    {
      "anonymous": false,
      "inputs": [
        {
          "indexed": true,
          "internalType": "address",
          "name": "owner",
          "type": "address"
        },
        {
          "indexed": false,
          "internalType": "bool",
          "name": "_killed",
          "type": "bool"
        }
      ],
      "name": "KillPool",
      "type": "event"
    },
    {
      "anonymous": false,
      "inputs": [
        {
          "indexed": false,
          "internalType": "uint64",
          "name": "lastRewardBlock",
          "type": "uint64"
        },
        {
          "indexed": false,
          "internalType": "uint256",
          "name": "accRewardPerShare",
          "type": "uint256"
        }
      ],
      "name": "LogUpdatePool",
      "type": "event"
    },
    {
      "anonymous": false,
      "inputs": [
        {
          "indexed": true,
          "internalType": "address",
          "name": "previousOwner",
          "type": "address"
        },
        {
          "indexed": true,
          "internalType": "address",
          "name": "newOwner",
          "type": "address"
        }
      ],
      "name": "OwnershipTransferred",
      "type": "event"
    },
    {
      "anonymous": false,
      "inputs": [
        {
          "indexed": false,
          "internalType": "address",
          "name": "account",
          "type": "address"
        }
      ],
      "name": "Paused",
      "type": "event"
    },
    {
      "anonymous": false,
      "inputs": [
        {
          "indexed": true,
          "internalType": "address",
          "name": "owner",
          "type": "address"
        },
        {
          "indexed": false,
          "internalType": "bool",
          "name": "_alive",
          "type": "bool"
        }
      ],
      "name": "PoolAlived",
      "type": "event"
    },
    {
      "anonymous": false,
      "inputs": [
        {
          "indexed": true,
          "internalType": "address",
          "name": "owner",
          "type": "address"
        },
        {
          "indexed": true,
          "internalType": "address",
          "name": "token",
          "type": "address"
        },
        {
          "indexed": false,
          "internalType": "uint256",
          "name": "amount",
          "type": "uint256"
        }
      ],
      "name": "RecoveredToken",
      "type": "event"
    },
    {
      "anonymous": false,
      "inputs": [
        {
          "indexed": true,
          "internalType": "address",
          "name": "owner",
          "type": "address"
        },
        {
          "indexed": false,
          "internalType": "bool",
          "name": "emergencyWithdrawAllowed",
          "type": "bool"
        }
      ],
      "name": "ToggleEmergencyWithdraw",
      "type": "event"
    },
    {
      "anonymous": false,
      "inputs": [
        {
          "indexed": false,
          "internalType": "address",
          "name": "account",
          "type": "address"
        }
      ],
      "name": "Unpaused",
      "type": "event"
    },
    {
      "anonymous": false,
      "inputs": [
        {
          "indexed": true,
          "internalType": "address",
          "name": "user",
          "type": "address"
        },
        {
          "indexed": false,
          "internalType": "uint256",
          "name": "tokenId",
          "type": "uint256"
        }
      ],
      "name": "Withdraw",
      "type": "event"
    },
    {
      "anonymous": false,
      "inputs": [
        {
          "indexed": true,
          "internalType": "address",
          "name": "owner",
          "type": "address"
        },
        {
          "indexed": true,
          "internalType": "address",
          "name": "to",
          "type": "address"
        },
        {
          "indexed": false,
          "internalType": "uint256",
          "name": "penaltyAmount",
          "type": "uint256"
        }
      ],
      "name": "WithdrawPenalty",
      "type": "event"
    },
    {
      "inputs": [],
      "name": "ACC_REWARD_PRECISION",
      "outputs": [
        {
          "internalType": "uint256",
          "name": "",
          "type": "uint256"
        }
      ],
      "stateMutability": "view",
      "type": "function"
    },
    {
      "inputs": [],
      "name": "SYNTH",
      "outputs": [
        {
          "internalType": "contract IERC20",
          "name": "",
          "type": "address"
        }
      ],
      "stateMutability": "view",
      "type": "function"
    },
    {
      "inputs": [
        {
          "internalType": "address",
          "name": "_to",
          "type": "address"
        }
      ],
      "name": "claim",
      "outputs": [],
      "stateMutability": "nonpayable",
      "type": "function"
    },
    {
      "inputs": [
        {
          "internalType": "address",
          "name": "",
          "type": "address"
        }
      ],
      "name": "coolDownPeriod",
      "outputs": [
        {
          "internalType": "uint256",
          "name": "",
          "type": "uint256"
        }
      ],
      "stateMutability": "view",
      "type": "function"
    },
    {
      "inputs": [
        {
          "internalType": "uint256",
          "name": "_amount",
          "type": "uint256"
        },
        {
          "internalType": "uint256",
          "name": "_lockType",
          "type": "uint256"
        }
      ],
      "name": "deposit",
      "outputs": [],
      "stateMutability": "nonpayable",
      "type": "function"
    },
    {
      "inputs": [],
      "name": "emergencyWithdraw",
      "outputs": [],
      "stateMutability": "nonpayable",
      "type": "function"
    },
    {
      "inputs": [],
      "name": "emergencyWithdrawAllowed",
      "outputs": [
        {
          "internalType": "bool",
          "name": "",
          "type": "bool"
        }
      ],
      "stateMutability": "view",
      "type": "function"
    },
    {
      "inputs": [],
      "name": "killPool",
      "outputs": [],
      "stateMutability": "nonpayable",
      "type": "function"
    },
    {
      "inputs": [],
      "name": "killed",
      "outputs": [
        {
          "internalType": "bool",
          "name": "",
          "type": "bool"
        }
      ],
      "stateMutability": "view",
      "type": "function"
    },
    {
      "inputs": [
        {
          "internalType": "uint256",
          "name": "",
          "type": "uint256"
        }
      ],
      "name": "lockInfo",
      "outputs": [
        {
          "internalType": "bool",
          "name": "exist",
          "type": "bool"
        },
        {
          "internalType": "uint64",
          "name": "lastRewardBlock",
          "type": "uint64"
        },
        {
          "internalType": "uint256",
          "name": "maxPoolSize",
          "type": "uint256"
        },
        {
          "internalType": "uint256",
          "name": "penalty",
          "type": "uint256"
        },
        {
          "internalType": "uint256",
          "name": "coolDownPeriod",
          "type": "uint256"
        },
        {
          "internalType": "uint256",
          "name": "totalStaked",
          "type": "uint256"
        },
        {
          "internalType": "uint256",
          "name": "rewardPerBlock",
          "type": "uint256"
        },
        {
          "internalType": "uint256",
          "name": "accRewardPerShare",
          "type": "uint256"
        },
        {
          "internalType": "uint256",
          "name": "epoch",
          "type": "uint256"
        }
      ],
      "stateMutability": "view",
      "type": "function"
    },
    {
      "inputs": [],
      "name": "lockTime",
      "outputs": [
        {
          "internalType": "uint256",
          "name": "",
          "type": "uint256"
        }
      ],
      "stateMutability": "view",
      "type": "function"
    },
    {
      "inputs": [],
      "name": "owner",
      "outputs": [
        {
          "internalType": "address",
          "name": "",
          "type": "address"
        }
      ],
      "stateMutability": "view",
      "type": "function"
    },
    {
      "inputs": [],
      "name": "pausePool",
      "outputs": [],
      "stateMutability": "nonpayable",
      "type": "function"
    },
    {
      "inputs": [],
      "name": "paused",
      "outputs": [
        {
          "internalType": "bool",
          "name": "",
          "type": "bool"
        }
      ],
      "stateMutability": "view",
      "type": "function"
    },
    {
      "inputs": [],
      "name": "penaltyAmount",
      "outputs": [
        {
          "internalType": "uint256",
          "name": "",
          "type": "uint256"
        }
      ],
      "stateMutability": "view",
      "type": "function"
    },
    {
      "inputs": [
        {
          "internalType": "address",
          "name": "_user",
          "type": "address"
        }
      ],
      "name": "pendingReward",
      "outputs": [
        {
          "internalType": "uint256",
          "name": "pending_",
          "type": "uint256"
        }
      ],
      "stateMutability": "view",
      "type": "function"
    },
    {
      "inputs": [
        {
          "internalType": "address",
          "name": "_user",
          "type": "address"
        },
        {
          "internalType": "uint256",
          "name": "_blockNumber",
          "type": "uint256"
        }
      ],
      "name": "pendingRewardAtBlock",
      "outputs": [
        {
          "internalType": "uint256",
          "name": "pending_",
          "type": "uint256"
        }
      ],
      "stateMutability": "view",
      "type": "function"
    },
    {
      "inputs": [
        {
          "internalType": "address",
          "name": "_token",
          "type": "address"
        },
        {
          "internalType": "address",
          "name": "_to",
          "type": "address"
        },
        {
          "internalType": "uint256",
          "name": "_amount",
          "type": "uint256"
        }
      ],
      "name": "recoverToken",
      "outputs": [],
      "stateMutability": "nonpayable",
      "type": "function"
    },
    {
      "inputs": [],
      "name": "renounceOwnership",
      "outputs": [],
      "stateMutability": "nonpayable",
      "type": "function"
    },
    {
      "inputs": [],
      "name": "revivePool",
      "outputs": [],
      "stateMutability": "nonpayable",
      "type": "function"
    },
    {
      "inputs": [
        {
          "internalType": "uint256",
          "name": "_lockType",
          "type": "uint256"
        },
        {
          "internalType": "uint256",
          "name": "_maxPoolSize",
          "type": "uint256"
        },
        {
          "internalType": "uint256",
          "name": "_penalty",
          "type": "uint256"
        },
        {
          "internalType": "uint256",
          "name": "_coolDownPeriod",
          "type": "uint256"
        }
      ],
      "name": "setLockInfo",
      "outputs": [],
      "stateMutability": "nonpayable",
      "type": "function"
    },
    {
      "inputs": [],
      "name": "toggleEmergencyWithdraw",
      "outputs": [],
      "stateMutability": "nonpayable",
      "type": "function"
    },
    {
      "inputs": [],
      "name": "totalSupply",
      "outputs": [
        {
          "internalType": "uint256",
          "name": "",
          "type": "uint256"
        }
      ],
      "stateMutability": "view",
      "type": "function"
    },
    {
      "inputs": [
        {
          "internalType": "address",
          "name": "newOwner",
          "type": "address"
        }
      ],
      "name": "transferOwnership",
      "outputs": [],
      "stateMutability": "nonpayable",
      "type": "function"
    },
    {
      "inputs": [],
      "name": "unpausePool",
      "outputs": [],
      "stateMutability": "nonpayable",
      "type": "function"
    },
    {
      "inputs": [
        {
          "internalType": "address",
          "name": "_user",
          "type": "address"
        },
        {
          "internalType": "uint256",
          "name": "_rewardAmount",
          "type": "uint256"
        },
        {
          "internalType": "uint256[]",
          "name": "_rewardPerBlock",
          "type": "uint256[]"
        },
        {
          "internalType": "uint256[]",
          "name": "_lockType",
          "type": "uint256[]"
        }
      ],
      "name": "updateEpoch",
      "outputs": [],
      "stateMutability": "nonpayable",
      "type": "function"
    },
    {
      "inputs": [
        {
          "internalType": "uint256",
          "name": "_lockType",
          "type": "uint256"
        }
      ],
      "name": "updatePool",
      "outputs": [
        {
          "components": [
            {
              "internalType": "bool",
              "name": "exist",
              "type": "bool"
            },
            {
              "internalType": "uint64",
              "name": "lastRewardBlock",
              "type": "uint64"
            },
            {
              "internalType": "uint256",
              "name": "maxPoolSize",
              "type": "uint256"
            },
            {
              "internalType": "uint256",
              "name": "penalty",
              "type": "uint256"
            },
            {
              "internalType": "uint256",
              "name": "coolDownPeriod",
              "type": "uint256"
            },
            {
              "internalType": "uint256",
              "name": "totalStaked",
              "type": "uint256"
            },
            {
              "internalType": "uint256",
              "name": "rewardPerBlock",
              "type": "uint256"
            },
            {
              "internalType": "uint256",
              "name": "accRewardPerShare",
              "type": "uint256"
            },
            {
              "internalType": "uint256",
              "name": "epoch",
              "type": "uint256"
            }
          ],
          "internalType": "struct SynthrStaking.LockInfo",
          "name": "_lockInfo",
          "type": "tuple"
        }
      ],
      "stateMutability": "nonpayable",
      "type": "function"
    },
    {
      "inputs": [
        {
          "internalType": "address",
          "name": "",
          "type": "address"
        }
      ],
      "name": "userInfo",
      "outputs": [
        {
          "internalType": "uint256",
          "name": "amount",
          "type": "uint256"
        },
        {
          "internalType": "uint256",
          "name": "lockType",
          "type": "uint256"
        },
        {
          "internalType": "uint256",
          "name": "unlockEnd",
          "type": "uint256"
        },
        {
          "internalType": "int256",
          "name": "rewardDebt",
          "type": "int256"
        }
      ],
      "stateMutability": "view",
      "type": "function"
    },
    {
      "inputs": [
        {
          "internalType": "address",
          "name": "_user",
          "type": "address"
        }
      ],
      "name": "userRewardsDebt",
      "outputs": [
        {
          "internalType": "int256",
          "name": "",
          "type": "int256"
        }
      ],
      "stateMutability": "view",
      "type": "function"
    },
    {
      "inputs": [
        {
          "internalType": "address",
          "name": "_to",
          "type": "address"
        }
      ],
      "name": "withdraw",
      "outputs": [],
      "stateMutability": "nonpayable",
      "type": "function"
    },
    {
      "inputs": [
        {
          "internalType": "address",
          "name": "_to",
          "type": "address"
        }
      ],
      "name": "withdrawPenalty",
      "outputs": [],
      "stateMutability": "nonpayable",
      "type": "function"
    },
    {
      "inputs": [],
      "name": "withdrawRequest",
      "outputs": [],
      "stateMutability": "nonpayable",
      "type": "function"
    }
  ],
  "transactionHash": "0xc2628bb12283a2c706882be1c3fecd67b17ef4c222abc62eef696db95223cae3",
  "args": [
    "0xD2344ce2CFEaD1cBE24e33E8301411d62946A1d2",
    "0x1D2c289687a5c7f6a16Ac7801D73563B7f8d7bEe",
    [
      15552000,
      23328000,
      31104000,
      46656000
    ],
    [
      {
        "maxPoolSize": "2000000000000000000000000",
        "penalty": 40,
        "coolDownPeriod": 1296000,
        "totalStaked": 0,
        "exist": true,
        "lastRewardBlock": 0,
        "rewardPerBlock": "33333000000000000000000",
        "accRewardPerShare": 0,
        "epoch": 1
      },
      {
        "maxPoolSize": "3000000000000000000000000",
        "penalty": 35,
        "coolDownPeriod": 1036800,
        "totalStaked": 0,
        "exist": true,
        "lastRewardBlock": 0,
        "rewardPerBlock": "112500000000000000000000",
        "accRewardPerShare": 0,
        "epoch": 1
      },
      {
        "maxPoolSize": "4000000000000000000000000",
        "penalty": 30,
        "coolDownPeriod": 777600,
        "totalStaked": 0,
        "exist": true,
        "lastRewardBlock": 0,
        "rewardPerBlock": "666667000000000000000000",
        "accRewardPerShare": 0,
        "epoch": 1
      },
      {
        "maxPoolSize": "5000000000000000000000000",
        "penalty": 25,
        "coolDownPeriod": 518400,
        "totalStaked": 0,
        "exist": true,
        "lastRewardBlock": 0,
        "rewardPerBlock": "1250000000000000000000000",
        "accRewardPerShare": 0,
        "epoch": 1
      }
    ]
  ],
  "numDeployments": 4,
  "solcInputHash": "f063bb022b609c6b0051e9730fc20d43",
  "bytecode": "0x604060a08152346200034e57620026be90813803806200001f8162000379565b93843982019160809283828203126200034e576200003d82620003b5565b926020926200004e848201620003b5565b818301516001600160401b0396919391908781116200034e5783019480601f870112156200034e578551956200008e6200008888620003ca565b62000379565b96888089838152019160051b830101918383116200034e5789809101915b8383106200036857505050506060936060810151908982116200034e570181601f820112156200034e57805191620000e86200008884620003ca565b99898b85815201918a610120809602850101938185116200034e578b01925b848410620002bc575050506001600160a01b039384169692505085159050620002a457600094855490845191818582167f8be0079c531659141344cd1fd0a4f28419497f9722a3daafe3b4186f6b6457e08a80a36001600160a81b0319161786558851875103620002625750168752825b84518110156200021a57806200019160019289620003e2565b516200019e8288620003e2565b5186526007610100600692838b5286892093815115158c60ff875491868b60481b039086015160081b16921690898060481b0319161717855587820151878601558882015160028601558d820151600386015560a0820151600486015560c0820151600586015560e08201519085015501519101550162000178565b8782516122b091826200040e8339518181816104790152818161061901528181610807015281816109b401528181610fd9015281816113d90152818161149e01526117b10152f35b62461bcd60e51b815260048101889052601f60248201527f53796e7468725374616b696e673a206c656e677468206e6f7420657175616c006044820152606490fd5b8251631e4fbdf760e01b815260006004820152602490fd5b85848303126200034e578751908682018281108582111762000353578952845180151581036200034e5782528c8501519084821682036200034e578f9288938f93848301528b8801518c8301528c8801518d830152808801519082015260a0808801519082015260c0808801519082015260e08088015190820152610100808801519082015281520193019262000107565b600080fd5b60246000634e487b7160e01b81526041600452fd5b82518152918101918a9101620000ac565b6040519190601f01601f191682016001600160401b038111838210176200039f57604052565b634e487b7160e01b600052604160045260246000fd5b51906001600160a01b03821682036200034e57565b6001600160401b0381116200039f5760051b60200190565b8051821015620003f75760209160051b010190565b634e487b7160e01b600052603260045260246000fdfe6080604052600436101561001257600080fd5b60003560e01c8063068cc514146119f3578063093cf18f146119555780630d66808714611937578063132611f0146118fd57806316689954146118c057806318160ddd146118a25780631959a002146118465780631e83409a1461162d5780631f3a0e4114611607578063213fed14146114fe5780632b6a72211461146c5780632f2c8a50146111b4578063380e687a1461115b57806351cff8d914610e1257806351eb05a614610d8c5780635b1a4c2414610cfa5780635c975abb14610cd45780636611a38914610cad5780636775541514610c3d578063715018a614610bcc5780637a39b8d814610b445780638da5cb5b14610b1d578063a7229fd91461096a578063aa09d5b7146108de578063aceda7f9146108b8578063d1c6a23114610895578063db2e21bc1461063d578063e1eddde3146105f9578063e2bbb15814610283578063f218f48c14610265578063f2fde38b146101ae5763f40f0f521461017c57600080fd5b346101a95760206003193601126101a95760206101a161019a611a96565b4390611fba565b604051908152f35b600080fd5b346101a95760206003193601126101a9576101c7611a96565b6101cf611e26565b6001600160a01b0380911690811561023457600054827fffffffffffffffffffffffff0000000000000000000000000000000000000000821617600055167f8be0079c531659141344cd1fd0a4f28419497f9722a3daafe3b4186f6b6457e0600080a3005b60246040517f1e4fbdf700000000000000000000000000000000000000000000000000000000815260006004820152fd5b346101a95760006003193601126101a9576020600354604051908152f35b346101a95760406003193601126101a957602460043581356102a3611e6a565b6102b560ff60005460a81c1615611b85565b6102be81611c5b565b9260a08401906102cf848351611c2e565b91604086019283511061058f5733600052602093600485526040600020604051906102f982611aac565b8054825260018101549087830191825260028101549160036040850192848452015492606085019384528015908115610585575b501561051d578051858115918215610513575b5050156104d05760e08b0196670de0b6b3a764000061036089518d611c48565b04908551156104bc575b6103758c8751611c2e565b86528451600083820193841291129080158216911516176104a85750837fe1fffcc4923d04b559f4d29a8bfc6cda04eb5b0d3c460751c2402c5c5cc9109c9b9c969360079996936003936101009a97523360005260048d52604060002094518555516001850155516002840155519101556103f28a600254611c2e565b6002556104008a8351611c2e565b82526000526006875260406000209583511515875468ffffffffffffffffff1960ff68ffffffffffffffff008c89015160081b169316911617178755516001870155606083015160028701556080830151600387015551600486015560c08201516005860155516006850155015191015561049d8330337f0000000000000000000000000000000000000000000000000000000000000000611f11565b6040519283523392a2005b634e487b7160e01b60005260116004526000fd5b6104c68742611c2e565b845286835261036a565b606489601f896040519262461bcd60e51b845260048401528201527f53796e7468725374616b696e673a206c6f636b207479706520646966666572006044820152fd5b149050858d610340565b608489886040519162461bcd60e51b83526004830152808201527f53796e7468725374616b696e673a207769746864726177206c6f636b6564207460448201527f6f6b656e000000000000000000000000000000000000000000000000000000006064820152fd5b905042108c61032d565b60848260266040519162461bcd60e51b8352602060048401528201527f53796e7468725374616b696e673a206d617820616d6f756e74206c696d69742060448201527f65786365656400000000000000000000000000000000000000000000000000006064820152fd5b346101a95760006003193601126101a95760206040516001600160a01b037f0000000000000000000000000000000000000000000000000000000000000000168152f35b346101a95760006003193601126101a957610656611e6a565b60ff60005460b01c161561082b57336000526020600481527f5fafa99d0643513820be26656b45130b01e1c03062e1266bf36f88cbd3bd9695604060002091604051926106a284611aac565b8054938481526001820154906060600385830194848652600281015460408501520154910152600052600682526007846040600020926040518094819382936106ea84611ade565b825460ff81161515855267ffffffffffffffff8a86019160081c16815260018401549060408601918252600285015492606087019384526107666003870154956080890196875260048801546101008d60a08c019a838c5260c060058201549d019c8d5260e060068201549e019d8e5201549c019b8c52611c3b565b86525160005260068b526040600020995115159068ffffffffffffffffff1960ff68ffffffffffffffff008d54935160081b1693169116171789555160018901555160028801555160038701555160048601555160058501555160068401555191015533600052600481526107f1604060002060036000918281558260018201558260028201550155565b6107fd83600254611c3b565b60025561049d83337f0000000000000000000000000000000000000000000000000000000000000000611ebc565b608460405162461bcd60e51b815260206004820152602d60248201527f53796e7468725374616b696e673a20656d657267656e6379207769746864726160448201527f77206e6f7420616c6c6f776564000000000000000000000000000000000000006064820152fd5b346101a95760006003193601126101a9576020604051670de0b6b3a76400008152f35b346101a95760006003193601126101a957602060ff60005460b01c166040519015158152f35b346101a95760006003193601126101a9576108f7611e26565b6108ff611e6a565b740100000000000000000000000000000000000000007fffffffffffffffffffffff00ffffffffffffffffffffffffffffffffffffffff60005416176000557f62e78cea01bee320cd4e420270b5ea74000d11b0c9f74754ebdbfc544b05a2586020604051338152a1005b346101a95760606003193601126101a957610983611a96565b6001600160a01b039060243582811681036101a95782916044359283916109a8611e26565b6109b0611e6a565b16937f0000000000000000000000000000000000000000000000000000000000000000168414610a13575b6109e59184611ebc565b6040519081527f76fb5f9555be8170fef33d7b413bcbe740a6a96cd162b1234b602329b0c84e3260203392a3005b506040517f70a08231000000000000000000000000000000000000000000000000000000008152306004820152602081602481875afa8015610b11578390600090610adb575b610a639250611c3b565b60025411610a7157816109db565b608460405162461bcd60e51b815260206004820152602a60248201527f53796e7468725374616b696e673a2063616e206e6f742077697468647261772060448201527f7573657220746f6b656e000000000000000000000000000000000000000000006064820152fd5b50506020813d602011610b09575b81610af660209383611afb565b810103126101a95782610a639151610a59565b3d9150610ae9565b6040513d6000823e3d90fd5b346101a95760006003193601126101a95760206001600160a01b0360005416604051908152f35b346101a95760006003193601126101a957610b5d611e26565b75010000000000000000000000000000000000000000007fffffffffffffffffffff00ffffffffffffffffffffffffffffffffffffffffff6000541617600055604051600181527f7c952f2e528aa25b4eaf8b6c07af29184b27ce591295e543ced0a27b167dc79460203392a2005b346101a95760006003193601126101a957610be5611e26565b60006001600160a01b0381547fffffffffffffffffffffffff000000000000000000000000000000000000000081168355167f8be0079c531659141344cd1fd0a4f28419497f9722a3daafe3b4186f6b6457e08280a3005b346101a95760006003193601126101a957610c56611e26565b7fffffffffffffffffffff00ffffffffffffffffffffffffffffffffffffffffff60005416600055604051600081527f77337fcf1b48e6e024b256962b66c49de98c9f606b2cd9937cc0edbc7a0fb70960203392a2005b346101a95760406003193601126101a95760206101a1610ccb611a96565b60243590611fba565b346101a95760006003193601126101a957602060ff60005460a01c166040519015158152f35b346101a95760206003193601126101a9576004356000526006602052610120604060002080549060018101549060028101546003820154600483015490600584015492600760068601549501549567ffffffffffffffff6040519860ff811615158a5260081c16602089015260408801526060870152608086015260a085015260c084015260e0830152610100820152f35b346101a95760206003193601126101a957610120610dab600435611c5b565b6040519080511515825267ffffffffffffffff602082015116602083015260408101516040830152606081015160608301526080810151608083015260a081015160a083015260c081015160c083015260e081015160e08301526101008091015190820152f35b346101a9576020806003193601126101a957610e2c611a96565b610e34611e6a565b336000526005825260406000205480156110f1574211156110ae573360005260048252604060002060405191610e6983611aac565b8154835260018201549184840192808452610e9b60036002840154936040880194855201549160608701928352611c5b565b90610ec260e0830191670de0b6b3a7640000610ebc84518a51935193611c48565b04611ea3565b94865196610ed288600254611c3b565b60025560a0840194610ee5898751611c3b565b86524290511161100e575b50926007610100610ffd947f884edad9ce6fa2440d8a54cc123490eb96d2768479d49ff9c7366125a942436499979461100299975160005260068c52604060002094825115158d68ffffffffffffffffff1960ff68ffffffffffffffff008a549388015160081b16931691161717865560408301516001870155606083015160028701556080830151600387015551600486015560c0820151600586015551600685015501519101553360005260048752610fc1604060002060036000918281558260018201558260028201550155565b6005875260006040812055610fd68484611c2e565b907f0000000000000000000000000000000000000000000000000000000000000000611ebc565b611c2e565b916040519283523392a2005b949195939092968351600052600689526002604060002001546064039060648211611098577f884edad9ce6fa2440d8a54cc123490eb96d2768479d49ff9c7366125a94243649861100298610ffd9661108561107d606461107460079861010098611c48565b04809c51611c3b565b600354611c2e565b6003559497995094979950945050610ef0565b634e487b7160e01b600052601160045260246000fd5b6064826040519062461bcd60e51b825280600483015260248201527f53796e7468725374616b696e673a206c6f636b2074696d65206e6f7420656e646044820152fd5b6084836040519062461bcd60e51b82526004820152602360248201527f53796e7468725374616b696e673a207265717565737420666f7220776974686460448201527f72617700000000000000000000000000000000000000000000000000000000006064820152fd5b346101a95760006003193601126101a957611174611e6a565b33600052600460205260016040600020015460005260066020526111a060036040600020015442611c2e565b336000526005602052604060002055600080f35b346101a95760806003193601126101a9576111cd611a96565b60443567ffffffffffffffff81116101a9576111ed903690600401611b1e565b9060643567ffffffffffffffff81116101a95761120e903690600401611b1e565b91611217611e6a565b61122960ff60005460a81c1615611b85565b611231611e26565b80518351036114285760005b81518110156113a9576112508185611bd0565b51600052600660205260406000209060076040519261126e84611ade565b67ffffffffffffffff815460ff81161515865260081c166020850152600181015460408501526002810154606085015260038101546080850152600481015460a0850152600581015460c0850152600681015460e085015201546101008301526112d88184611bd0565b5160c0830152610100820151917fffffffffffffffffffffffffffffffffffffffffffffffffffffffffffffffff83146110985760018093016101008201526113218287611bd0565b516000526006602052600761010060406000209280511515845468ffffffffffffffffff1960ff68ffffffffffffffff00602086015160081b169316911617178455604081015186850155606081015160028501556080810151600385015560a0810151600485015560c0810151600585015560e0810151600685015501519101550161123d565b507f1762287875469c878ab6651d1ec276953f5f0ef1777bc29cf75ecd623a40bce2611414846113fd60243530877f0000000000000000000000000000000000000000000000000000000000000000611f11565b611423604051928392604084526040840190611bfa565b82810360208401523395611bfa565b0390a2005b606460405162461bcd60e51b815260206004820152601f60248201527f53796e7468725374616b696e673a206c656e677468206e6f7420657175616c006044820152fd5b346101a95760206003193601126101a957611485611a96565b61148d611e26565b611495611e6a565b6114c2600354827f0000000000000000000000000000000000000000000000000000000000000000611ebc565b6001600160a01b036003549160405192835216907f16af3e69b2cf2824289274389004b89c1da6d33361d7379ad0631f14b9869e8160203392a3005b346101a95760806003193601126101a95760043561151a611e26565b80600052600660205260076040600020916040519261153884611ade565b805467ffffffffffffffff602086019160081c1681526040850160608601608087019060048501549260a0890193845260058601549460c08a019586528860068801549760e08c019889520154976101008b0198895260643585526024358352604435845260018b5260005260066020526040600020995115159068ffffffffffffffffff1960ff68ffffffffffffffff008d54935160081b16931691161717895551600189015551600288015551600387015551600486015551600585015551600684015551910155600080f35b346101a95760006003193601126101a957602060ff60005460a81c166040519015158152f35b346101a9576020806003193601126101a957611647611a96565b61164f611e6a565b33600052600482526040600020916040519161166a83611aac565b8354835260018401549282810193845260028501549460036040830191878352015495606083019687524211156117dc5784956003916116cb7fd8138f8a3f377c5259ca548e70e4c2de94f129f5a11036a15b69513cba2b426a9751611c5b565b9760e0890180519060076101006116fa670de0b6b3a76400006116f28b51968a5197611c48565b049485611ea3565b9c855160005260068c52604060002093815115158d68ffffffffffffffffff1960ff68ffffffffffffffff0089549387015160081b169316911617178555604082015160018601556060820151600286015560808201518a86015560a0820151600486015560c082015160058601555160068501550151910155835233600052600487526040600020945185555160018501555160028401555191015583806117ab575b50506040519283523392a2005b6117d5917f0000000000000000000000000000000000000000000000000000000000000000611ebc565b838361179e565b6084846040519062461bcd60e51b82526004820152602360248201527f53796e7468725374616b696e673a20636c61696d206166746572206c6f636b2060448201527f656e6400000000000000000000000000000000000000000000000000000000006064820152fd5b346101a95760206003193601126101a9576001600160a01b03611867611a96565b166000526004602052608060406000208054906001810154906003600282015491015491604051938452602084015260408301526060820152f35b346101a95760006003193601126101a9576020600254604051908152f35b346101a95760206003193601126101a9576001600160a01b036118e1611a96565b1660005260046020526020600360406000200154604051908152f35b346101a95760206003193601126101a9576001600160a01b0361191e611a96565b1660005260056020526020604060002054604051908152f35b346101a95760006003193601126101a9576020600154604051908152f35b346101a95760006003193601126101a95761196e611e26565b6000547fffffffffffffffffff00ffffffffffffffffffffffffffffffffffffffffffff76ff0000000000000000000000000000000000000000000060ff8360b01c161560b01b169116178060005560ff6040519160b01c16151581527f492bd43563eee0c236005121ea0ff9fc5c6ab4942b84402d67fac942013cdbb160203392a2005b346101a95760006003193601126101a957611a0c611e26565b60005460ff8160a01c1615611a6c577fffffffffffffffffffffff00ffffffffffffffffffffffffffffffffffffffff166000557f5db9ee0a495bf2e6ff9c91a7834c1ba4fdd244a5e8aa4e537bd38aeae4b073aa6020604051338152a1005b60046040517f8dfc202b000000000000000000000000000000000000000000000000000000008152fd5b600435906001600160a01b03821682036101a957565b6080810190811067ffffffffffffffff821117611ac857604052565b634e487b7160e01b600052604160045260246000fd5b610120810190811067ffffffffffffffff821117611ac857604052565b90601f601f19910116810190811067ffffffffffffffff821117611ac857604052565b81601f820112156101a95780359160209167ffffffffffffffff8411611ac8578360051b9060405194611b5385840187611afb565b855283808601928201019283116101a9578301905b828210611b76575050505090565b81358152908301908301611b68565b15611b8c57565b606460405162461bcd60e51b815260206004820152601d60248201527f53796e7468725374616b696e673a20706f6f6c206973206b696c6c65640000006044820152fd5b8051821015611be45760209160051b010190565b634e487b7160e01b600052603260045260246000fd5b90815180825260208080930193019160005b828110611c1a575050505090565b835185529381019392810192600101611c0c565b9190820180921161109857565b9190820391821161109857565b8181029291811591840414171561109857565b9060409182805191611c6c83611ade565b60009081845281602085015281838501528160608501528160808501528160a08501528160c08501528160e08501528161010080950152815260066020522092805193611cb885611ade565b80549060ff821615958615815267ffffffffffffffff9081602082019460081c1684526001830154858201526002830154606082015260038301546080820152600483015460a082015260058301549560c08201968752600760068501549460e0840195865201549082015296611dbd57600254948184511690814311611d43575b50505050505050565b867ff7425522fc94826010fa0fd4e6e2777d8d7e42dcfe5534d29eaef7c25faba85197611d8b575b50505043168092525182519182526020820152a138808080808080611d3a565b611da7611dac92611d9f611db39543611c3b565b905190611c48565b611f80565b8351611c2e565b8252388080611d6b565b6084845162461bcd60e51b815260206004820152602260248201527f53796e7468725374616b696e673a206c6f636b2074797065206e6f742065786960448201527f73740000000000000000000000000000000000000000000000000000000000006064820152fd5b6001600160a01b03600054163303611e3a57565b60246040517f118cdaa7000000000000000000000000000000000000000000000000000000008152336004820152fd5b60ff60005460a01c16611e7957565b60046040517fd93c0665000000000000000000000000000000000000000000000000000000008152fd5b8181039291600013801582851316918412161761109857565b611f0f926001600160a01b03604051937fa9059cbb000000000000000000000000000000000000000000000000000000006020860152166024840152604483015260448252611f0a82611aac565b6120f2565b565b9290604051927f23b872dd0000000000000000000000000000000000000000000000000000000060208501526001600160a01b03809216602485015216604483015260648201526064815260a081019181831067ffffffffffffffff841117611ac857611f0f926040526120f2565b670de0b6b3a764000090818102918183041490151715611098578115611fa4570490565b634e487b7160e01b600052601260045260246000fd5b670de0b6b3a76400006120b46120bd936001600160a01b03600254941660005260046020526040938460002094805191611ff383611aac565b865483526003600188015497886020860152600281015484860152015496606084019788526000526006602052816000209180519061203182611ade565b67ffffffffffffffff845460ff81161515845260081c16908160208401526001850154908301526002840154606083015260038401546080830152600484015460a083015260058401549160c0810192835261010060076006870154968760e085015201549101528395818111806120e9575b6120c0575b505050505051611c48565b04905190611ea3565b90565b6120de95965091611d9f611da7926120d89594611c3b565b90611c2e565b9038808080806120a9565b508315156120a4565b6001600160a01b031690600080826020829451910182865af13d156121db573d9067ffffffffffffffff82116121c7579061214f916040519161213f6020601f19601f8401160184611afb565b82523d84602084013e5b846121e7565b908151918215159283612198575b5050506121675750565b602490604051907f5274afe70000000000000000000000000000000000000000000000000000000082526004820152fd5b8192935090602091810103126121c35760200151908115918215036121c0575038808061215d565b80fd5b5080fd5b602483634e487b7160e01b81526041600452fd5b61214f90606090612149565b9061222657508051156121fc57805190602001fd5b60046040517f1425ea42000000000000000000000000000000000000000000000000000000008152fd5b81511580612271575b612237575090565b6024906001600160a01b03604051917f9996b315000000000000000000000000000000000000000000000000000000008352166004820152fd5b50803b1561222f56fea2646970667358221220707535045dd45d0d888f9431fa026481a9e563ea8c594235ad9b555011b3fba864736f6c63430008180033",
  "devdoc": {
    "errors": {
      "AddressEmptyCode(address)": [
        {
          "details": "There's no code at `target` (it is not a contract)."
        }
      ],
      "AddressInsufficientBalance(address)": [
        {
          "details": "The ETH balance of the account is not enough to perform the operation."
        }
      ],
      "EnforcedPause()": [
        {
          "details": "The operation failed because the contract is paused."
        }
      ],
      "ExpectedPause()": [
        {
          "details": "The operation failed because the contract is not paused."
        }
      ],
      "FailedInnerCall()": [
        {
          "details": "A call to an address target failed. The target may have reverted."
        }
      ],
      "OwnableInvalidOwner(address)": [
        {
          "details": "The owner is not a valid owner account. (eg. `address(0)`)"
        }
      ],
      "OwnableUnauthorizedAccount(address)": [
        {
          "details": "The caller account is not authorized to perform an operation."
        }
      ],
      "SafeERC20FailedOperation(address)": [
        {
          "details": "An operation with an ERC20 token failed."
        }
      ]
    },
    "events": {
      "Paused(address)": {
        "details": "Emitted when the pause is triggered by `account`."
      },
      "Unpaused(address)": {
        "details": "Emitted when the pause is lifted by `account`."
      }
    },
    "kind": "dev",
    "methods": {
      "claim(address)": {
        "params": {
          "_to": "Receiver rewards."
        }
      },
      "killPool()": {
        "details": "kill pool to restrict pool functionality, can only by called by admin"
      },
      "owner()": {
        "details": "Returns the address of the current owner."
      },
      "pausePool()": {
        "details": "pause pool to restrict pool functionality, can only by called by admin"
      },
      "paused()": {
        "details": "Returns true if the contract is paused, and false otherwise."
      },
      "pendingReward(address)": {
        "params": {
          "_user": "Address of user."
        },
        "returns": {
          "pending_": "reward for a given user."
        }
      },
      "pendingRewardAtBlock(address,uint256)": {
        "params": {
          "_user": "Address of user."
        },
        "returns": {
          "pending_": "reward for a given user."
        }
      },
      "renounceOwnership()": {
        "details": "Leaves the contract without owner. It will not be possible to call `onlyOwner` functions. Can only be called by the current owner. NOTE: Renouncing ownership will leave the contract without an owner, thereby disabling any functionality that is only available to the owner."
      },
      "revivePool()": {
        "details": "revive pool, can only by called by admin "
      },
      "transferOwnership(address)": {
        "details": "Transfers ownership of the contract to a new account (`newOwner`). Can only be called by the current owner."
      },
      "unpausePool()": {
        "details": "unpause pool, can only by called by admin "
      },
      "userRewardsDebt(address)": {
        "details": "retuen user reward debt",
        "params": {
          "_user": "address of user"
        }
      },
      "withdraw(address)": {
        "params": {
          "_to": "Receiver of the LP tokens and syUSD rewards."
        }
      }
    },
    "version": 1
  },
  "userdoc": {
    "kind": "user",
    "methods": {
      "SYNTH()": {
        "notice": "Address of reward token contract."
      },
      "claim(address)": {
        "notice": "Claim proceeds for transaction sender to `to`."
      },
      "deposit(uint256,uint256)": {
        "notice": "Deposit token."
      },
      "pendingReward(address)": {
        "notice": "View function to see pending reward of user in pool at current block."
      },
      "pendingRewardAtBlock(address,uint256)": {
        "notice": "View function to see pending reward of user at future block."
      },
      "totalSupply()": {
        "notice": "Total lock amount of users"
      },
      "updateEpoch(address,uint256,uint256[],uint256[])": {
        "notice": "update epoch of pool"
      },
      "updatePool(uint256)": {
        "notice": "Update reward variables of the pool."
      },
      "userInfo(address)": {
        "notice": "Info of each user that stakes LP tokens."
      },
      "withdraw(address)": {
        "notice": "Withdraw  token from pool and claim proceeds for transaction sender to `to`."
      }
    },
    "version": 1
  },
  "storageLayout": {
    "storage": [
      {
        "astId": 8,
        "contract": "contracts/SynthrStaking.sol:SynthrStaking",
        "label": "_owner",
        "offset": 0,
        "slot": "0",
        "type": "t_address"
      },
      {
        "astId": 843,
        "contract": "contracts/SynthrStaking.sol:SynthrStaking",
        "label": "_paused",
        "offset": 20,
        "slot": "0",
        "type": "t_bool"
      },
      {
        "astId": 1002,
        "contract": "contracts/SynthrStaking.sol:SynthrStaking",
        "label": "killed",
        "offset": 21,
        "slot": "0",
        "type": "t_bool"
      },
      {
        "astId": 1004,
        "contract": "contracts/SynthrStaking.sol:SynthrStaking",
        "label": "emergencyWithdrawAllowed",
        "offset": 22,
        "slot": "0",
        "type": "t_bool"
      },
      {
        "astId": 1006,
        "contract": "contracts/SynthrStaking.sol:SynthrStaking",
        "label": "lockTime",
        "offset": 0,
        "slot": "1",
        "type": "t_uint256"
      },
      {
        "astId": 1009,
        "contract": "contracts/SynthrStaking.sol:SynthrStaking",
        "label": "totalSupply",
        "offset": 0,
        "slot": "2",
        "type": "t_uint256"
      },
      {
        "astId": 1011,
        "contract": "contracts/SynthrStaking.sol:SynthrStaking",
        "label": "penaltyAmount",
        "offset": 0,
        "slot": "3",
        "type": "t_uint256"
      },
      {
        "astId": 1017,
        "contract": "contracts/SynthrStaking.sol:SynthrStaking",
        "label": "userInfo",
        "offset": 0,
        "slot": "4",
        "type": "t_mapping(t_address,t_struct(UserInfo)981_storage)"
      },
      {
        "astId": 1021,
        "contract": "contracts/SynthrStaking.sol:SynthrStaking",
        "label": "coolDownPeriod",
        "offset": 0,
        "slot": "5",
        "type": "t_mapping(t_address,t_uint256)"
      },
      {
        "astId": 1026,
        "contract": "contracts/SynthrStaking.sol:SynthrStaking",
        "label": "lockInfo",
        "offset": 0,
        "slot": "6",
        "type": "t_mapping(t_uint256,t_struct(LockInfo)1000_storage)"
      }
    ],
    "types": {
      "t_address": {
        "encoding": "inplace",
        "label": "address",
        "numberOfBytes": "20"
      },
      "t_bool": {
        "encoding": "inplace",
        "label": "bool",
        "numberOfBytes": "1"
      },
      "t_int256": {
        "encoding": "inplace",
        "label": "int256",
        "numberOfBytes": "32"
      },
      "t_mapping(t_address,t_struct(UserInfo)981_storage)": {
        "encoding": "mapping",
        "key": "t_address",
        "label": "mapping(address => struct SynthrStaking.UserInfo)",
        "numberOfBytes": "32",
        "value": "t_struct(UserInfo)981_storage"
      },
      "t_mapping(t_address,t_uint256)": {
        "encoding": "mapping",
        "key": "t_address",
        "label": "mapping(address => uint256)",
        "numberOfBytes": "32",
        "value": "t_uint256"
      },
      "t_mapping(t_uint256,t_struct(LockInfo)1000_storage)": {
        "encoding": "mapping",
        "key": "t_uint256",
        "label": "mapping(uint256 => struct SynthrStaking.LockInfo)",
        "numberOfBytes": "32",
        "value": "t_struct(LockInfo)1000_storage"
      },
      "t_struct(LockInfo)1000_storage": {
        "encoding": "inplace",
        "label": "struct SynthrStaking.LockInfo",
        "members": [
          {
            "astId": 983,
            "contract": "contracts/SynthrStaking.sol:SynthrStaking",
            "label": "exist",
            "offset": 0,
            "slot": "0",
            "type": "t_bool"
          },
          {
            "astId": 985,
            "contract": "contracts/SynthrStaking.sol:SynthrStaking",
            "label": "lastRewardBlock",
            "offset": 1,
            "slot": "0",
            "type": "t_uint64"
          },
          {
            "astId": 987,
            "contract": "contracts/SynthrStaking.sol:SynthrStaking",
            "label": "maxPoolSize",
            "offset": 0,
            "slot": "1",
            "type": "t_uint256"
          },
          {
            "astId": 989,
            "contract": "contracts/SynthrStaking.sol:SynthrStaking",
            "label": "penalty",
            "offset": 0,
            "slot": "2",
            "type": "t_uint256"
          },
          {
            "astId": 991,
            "contract": "contracts/SynthrStaking.sol:SynthrStaking",
            "label": "coolDownPeriod",
            "offset": 0,
            "slot": "3",
            "type": "t_uint256"
          },
          {
            "astId": 993,
            "contract": "contracts/SynthrStaking.sol:SynthrStaking",
            "label": "totalStaked",
            "offset": 0,
            "slot": "4",
            "type": "t_uint256"
          },
          {
            "astId": 995,
            "contract": "contracts/SynthrStaking.sol:SynthrStaking",
            "label": "rewardPerBlock",
            "offset": 0,
            "slot": "5",
            "type": "t_uint256"
          },
          {
            "astId": 997,
            "contract": "contracts/SynthrStaking.sol:SynthrStaking",
            "label": "accRewardPerShare",
            "offset": 0,
            "slot": "6",
            "type": "t_uint256"
          },
          {
            "astId": 999,
            "contract": "contracts/SynthrStaking.sol:SynthrStaking",
            "label": "epoch",
            "offset": 0,
            "slot": "7",
            "type": "t_uint256"
          }
        ],
        "numberOfBytes": "256"
      },
      "t_struct(UserInfo)981_storage": {
        "encoding": "inplace",
        "label": "struct SynthrStaking.UserInfo",
        "members": [
          {
            "astId": 974,
            "contract": "contracts/SynthrStaking.sol:SynthrStaking",
            "label": "amount",
            "offset": 0,
            "slot": "0",
            "type": "t_uint256"
          },
          {
            "astId": 976,
            "contract": "contracts/SynthrStaking.sol:SynthrStaking",
            "label": "lockType",
            "offset": 0,
            "slot": "1",
            "type": "t_uint256"
          },
          {
            "astId": 978,
            "contract": "contracts/SynthrStaking.sol:SynthrStaking",
            "label": "unlockEnd",
            "offset": 0,
            "slot": "2",
            "type": "t_uint256"
          },
          {
            "astId": 980,
            "contract": "contracts/SynthrStaking.sol:SynthrStaking",
            "label": "rewardDebt",
            "offset": 0,
            "slot": "3",
            "type": "t_int256"
          }
        ],
        "numberOfBytes": "128"
      },
      "t_uint256": {
        "encoding": "inplace",
        "label": "uint256",
        "numberOfBytes": "32"
      },
      "t_uint64": {
        "encoding": "inplace",
        "label": "uint64",
        "numberOfBytes": "8"
      }
    }
  }
}