{
  "address": "0x478454A6FC7b71e006d59D018032CBb0799672D9",
  "abi": [
    {
      "inputs": [
        {
          "internalType": "address",
          "name": "_admin",
          "type": "address"
        },
        {
          "internalType": "address",
          "name": "_rewardToken",
          "type": "address"
        },
        {
          "internalType": "uint256[]",
          "name": "_lockType",
          "type": "uint256[]"
        },
        {
          "components": [
            {
              "internalType": "bool",
              "name": "exist",
              "type": "bool"
            },
            {
              "internalType": "uint64",
              "name": "lastRewardBlock",
              "type": "uint64"
            },
            {
              "internalType": "uint256",
              "name": "maxPoolSize",
              "type": "uint256"
            },
            {
              "internalType": "uint256",
              "name": "penalty",
              "type": "uint256"
            },
            {
              "internalType": "uint256",
              "name": "coolDownPeriod",
              "type": "uint256"
            },
            {
              "internalType": "uint256",
              "name": "totalStaked",
              "type": "uint256"
            },
            {
              "internalType": "uint256",
              "name": "rewardPerBlock",
              "type": "uint256"
            },
            {
              "internalType": "uint256",
              "name": "accRewardPerShare",
              "type": "uint256"
            },
            {
              "internalType": "uint256",
              "name": "epoch",
              "type": "uint256"
            }
          ],
          "internalType": "struct SynthrStaking.LockInfo[]",
          "name": "_lockInfo",
          "type": "tuple[]"
        }
      ],
      "stateMutability": "nonpayable",
      "type": "constructor"
    },
    {
      "inputs": [
        {
          "internalType": "address",
          "name": "target",
          "type": "address"
        }
      ],
      "name": "AddressEmptyCode",
      "type": "error"
    },
    {
      "inputs": [
        {
          "internalType": "address",
          "name": "account",
          "type": "address"
        }
      ],
      "name": "AddressInsufficientBalance",
      "type": "error"
    },
    {
      "inputs": [],
      "name": "EnforcedPause",
      "type": "error"
    },
    {
      "inputs": [],
      "name": "ExpectedPause",
      "type": "error"
    },
    {
      "inputs": [],
      "name": "FailedInnerCall",
      "type": "error"
    },
    {
      "inputs": [
        {
          "internalType": "address",
          "name": "owner",
          "type": "address"
        }
      ],
      "name": "OwnableInvalidOwner",
      "type": "error"
    },
    {
      "inputs": [
        {
          "internalType": "address",
          "name": "account",
          "type": "address"
        }
      ],
      "name": "OwnableUnauthorizedAccount",
      "type": "error"
    },
    {
      "inputs": [
        {
          "internalType": "address",
          "name": "token",
          "type": "address"
        }
      ],
      "name": "SafeERC20FailedOperation",
      "type": "error"
    },
    {
      "anonymous": false,
      "inputs": [
        {
          "indexed": true,
          "internalType": "address",
          "name": "user",
          "type": "address"
        },
        {
          "indexed": false,
          "internalType": "uint256",
          "name": "pendingRewardAmount",
          "type": "uint256"
        }
      ],
      "name": "Claimed",
      "type": "event"
    },
    {
      "anonymous": false,
      "inputs": [
        {
          "indexed": true,
          "internalType": "address",
          "name": "user",
          "type": "address"
        },
        {
          "indexed": false,
          "internalType": "uint256",
          "name": "tokenId",
          "type": "uint256"
        }
      ],
      "name": "Deposit",
      "type": "event"
    },
    {
      "anonymous": false,
      "inputs": [
        {
          "indexed": true,
          "internalType": "address",
          "name": "user",
          "type": "address"
        },
        {
          "indexed": false,
          "internalType": "uint256",
          "name": "amount",
          "type": "uint256"
        }
      ],
      "name": "EmergencyWithdraw",
      "type": "event"
    },
    {
      "anonymous": false,
      "inputs": [
        {
          "indexed": true,
          "internalType": "address",
          "name": "owner",
          "type": "address"
        },
        {
          "indexed": false,
          "internalType": "uint256[]",
          "name": "lockType",
          "type": "uint256[]"
        },
        {
          "indexed": false,
          "internalType": "uint256[]",
          "name": "rewardPerBlock",
          "type": "uint256[]"
        }
      ],
      "name": "EpochUpdated",
      "type": "event"
    },
    {
      "anonymous": false,
      "inputs": [
        {
          "indexed": true,
          "internalType": "address",
          "name": "owner",
          "type": "address"
        },
        {
          "indexed": false,
          "internalType": "bool",
          "name": "_killed",
          "type": "bool"
        }
      ],
      "name": "KillPool",
      "type": "event"
    },
    {
      "anonymous": false,
      "inputs": [
        {
          "indexed": false,
          "internalType": "uint64",
          "name": "lastRewardBlock",
          "type": "uint64"
        },
        {
          "indexed": false,
          "internalType": "uint256",
          "name": "accRewardPerShare",
          "type": "uint256"
        }
      ],
      "name": "LogUpdatePool",
      "type": "event"
    },
    {
      "anonymous": false,
      "inputs": [
        {
          "indexed": true,
          "internalType": "address",
          "name": "previousOwner",
          "type": "address"
        },
        {
          "indexed": true,
          "internalType": "address",
          "name": "newOwner",
          "type": "address"
        }
      ],
      "name": "OwnershipTransferred",
      "type": "event"
    },
    {
      "anonymous": false,
      "inputs": [
        {
          "indexed": false,
          "internalType": "address",
          "name": "account",
          "type": "address"
        }
      ],
      "name": "Paused",
      "type": "event"
    },
    {
      "anonymous": false,
      "inputs": [
        {
          "indexed": true,
          "internalType": "address",
          "name": "owner",
          "type": "address"
        },
        {
          "indexed": false,
          "internalType": "bool",
          "name": "_alive",
          "type": "bool"
        }
      ],
      "name": "PoolAlived",
      "type": "event"
    },
    {
      "anonymous": false,
      "inputs": [
        {
          "indexed": true,
          "internalType": "address",
          "name": "owner",
          "type": "address"
        },
        {
          "indexed": true,
          "internalType": "address",
          "name": "token",
          "type": "address"
        },
        {
          "indexed": false,
          "internalType": "uint256",
          "name": "amount",
          "type": "uint256"
        }
      ],
      "name": "RecoveredToken",
      "type": "event"
    },
    {
      "anonymous": false,
      "inputs": [
        {
          "indexed": true,
          "internalType": "address",
          "name": "owner",
          "type": "address"
        },
        {
          "indexed": false,
          "internalType": "bool",
          "name": "emergencyWithdrawAllowed",
          "type": "bool"
        }
      ],
      "name": "ToggleEmergencyWithdraw",
      "type": "event"
    },
    {
      "anonymous": false,
      "inputs": [
        {
          "indexed": false,
          "internalType": "address",
          "name": "account",
          "type": "address"
        }
      ],
      "name": "Unpaused",
      "type": "event"
    },
    {
      "anonymous": false,
      "inputs": [
        {
          "indexed": true,
          "internalType": "address",
          "name": "user",
          "type": "address"
        },
        {
          "indexed": false,
          "internalType": "uint256",
          "name": "tokenId",
          "type": "uint256"
        }
      ],
      "name": "Withdraw",
      "type": "event"
    },
    {
      "anonymous": false,
      "inputs": [
        {
          "indexed": true,
          "internalType": "address",
          "name": "owner",
          "type": "address"
        },
        {
          "indexed": true,
          "internalType": "address",
          "name": "to",
          "type": "address"
        },
        {
          "indexed": false,
          "internalType": "uint256",
          "name": "penaltyAmount",
          "type": "uint256"
        }
      ],
      "name": "WithdrawPenalty",
      "type": "event"
    },
    {
      "inputs": [],
      "name": "ACC_REWARD_PRECISION",
      "outputs": [
        {
          "internalType": "uint256",
          "name": "",
          "type": "uint256"
        }
      ],
      "stateMutability": "view",
      "type": "function"
    },
    {
      "inputs": [],
      "name": "REWARD_TOKEN",
      "outputs": [
        {
          "internalType": "contract IERC20",
          "name": "",
          "type": "address"
        }
      ],
      "stateMutability": "view",
      "type": "function"
    },
    {
      "inputs": [
        {
          "internalType": "address",
          "name": "_to",
          "type": "address"
        }
      ],
      "name": "claim",
      "outputs": [],
      "stateMutability": "nonpayable",
      "type": "function"
    },
    {
      "inputs": [
        {
          "internalType": "address",
          "name": "",
          "type": "address"
        }
      ],
      "name": "coolDownPeriod",
      "outputs": [
        {
          "internalType": "uint256",
          "name": "",
          "type": "uint256"
        }
      ],
      "stateMutability": "view",
      "type": "function"
    },
    {
      "inputs": [
        {
          "internalType": "uint256",
          "name": "_amount",
          "type": "uint256"
        },
        {
          "internalType": "uint256",
          "name": "_lockType",
          "type": "uint256"
        }
      ],
      "name": "deposit",
      "outputs": [],
      "stateMutability": "nonpayable",
      "type": "function"
    },
    {
      "inputs": [],
      "name": "emergencyWithdraw",
      "outputs": [],
      "stateMutability": "nonpayable",
      "type": "function"
    },
    {
      "inputs": [],
      "name": "emergencyWithdrawAllowed",
      "outputs": [
        {
          "internalType": "bool",
          "name": "",
          "type": "bool"
        }
      ],
      "stateMutability": "view",
      "type": "function"
    },
    {
      "inputs": [],
      "name": "killPool",
      "outputs": [],
      "stateMutability": "nonpayable",
      "type": "function"
    },
    {
      "inputs": [],
      "name": "killed",
      "outputs": [
        {
          "internalType": "bool",
          "name": "",
          "type": "bool"
        }
      ],
      "stateMutability": "view",
      "type": "function"
    },
    {
      "inputs": [
        {
          "internalType": "uint256",
          "name": "",
          "type": "uint256"
        }
      ],
      "name": "lockInfo",
      "outputs": [
        {
          "internalType": "bool",
          "name": "exist",
          "type": "bool"
        },
        {
          "internalType": "uint64",
          "name": "lastRewardBlock",
          "type": "uint64"
        },
        {
          "internalType": "uint256",
          "name": "maxPoolSize",
          "type": "uint256"
        },
        {
          "internalType": "uint256",
          "name": "penalty",
          "type": "uint256"
        },
        {
          "internalType": "uint256",
          "name": "coolDownPeriod",
          "type": "uint256"
        },
        {
          "internalType": "uint256",
          "name": "totalStaked",
          "type": "uint256"
        },
        {
          "internalType": "uint256",
          "name": "rewardPerBlock",
          "type": "uint256"
        },
        {
          "internalType": "uint256",
          "name": "accRewardPerShare",
          "type": "uint256"
        },
        {
          "internalType": "uint256",
          "name": "epoch",
          "type": "uint256"
        }
      ],
      "stateMutability": "view",
      "type": "function"
    },
    {
      "inputs": [],
      "name": "lockTime",
      "outputs": [
        {
          "internalType": "uint256",
          "name": "",
          "type": "uint256"
        }
      ],
      "stateMutability": "view",
      "type": "function"
    },
    {
      "inputs": [],
      "name": "owner",
      "outputs": [
        {
          "internalType": "address",
          "name": "",
          "type": "address"
        }
      ],
      "stateMutability": "view",
      "type": "function"
    },
    {
      "inputs": [],
      "name": "pausePool",
      "outputs": [],
      "stateMutability": "nonpayable",
      "type": "function"
    },
    {
      "inputs": [],
      "name": "paused",
      "outputs": [
        {
          "internalType": "bool",
          "name": "",
          "type": "bool"
        }
      ],
      "stateMutability": "view",
      "type": "function"
    },
    {
      "inputs": [],
      "name": "penaltyAmount",
      "outputs": [
        {
          "internalType": "uint256",
          "name": "",
          "type": "uint256"
        }
      ],
      "stateMutability": "view",
      "type": "function"
    },
    {
      "inputs": [
        {
          "internalType": "address",
          "name": "_user",
          "type": "address"
        }
      ],
      "name": "pendingReward",
      "outputs": [
        {
          "internalType": "uint256",
          "name": "pending_",
          "type": "uint256"
        }
      ],
      "stateMutability": "view",
      "type": "function"
    },
    {
      "inputs": [
        {
          "internalType": "address",
          "name": "_user",
          "type": "address"
        },
        {
          "internalType": "uint256",
          "name": "_blockNumber",
          "type": "uint256"
        }
      ],
      "name": "pendingRewardAtBlock",
      "outputs": [
        {
          "internalType": "uint256",
          "name": "pending_",
          "type": "uint256"
        }
      ],
      "stateMutability": "view",
      "type": "function"
    },
    {
      "inputs": [
        {
          "internalType": "address",
          "name": "_token",
          "type": "address"
        },
        {
          "internalType": "address",
          "name": "_to",
          "type": "address"
        },
        {
          "internalType": "uint256",
          "name": "_amount",
          "type": "uint256"
        }
      ],
      "name": "recoverToken",
      "outputs": [],
      "stateMutability": "nonpayable",
      "type": "function"
    },
    {
      "inputs": [],
      "name": "renounceOwnership",
      "outputs": [],
      "stateMutability": "nonpayable",
      "type": "function"
    },
    {
      "inputs": [],
      "name": "revivePool",
      "outputs": [],
      "stateMutability": "nonpayable",
      "type": "function"
    },
    {
      "inputs": [
        {
          "internalType": "uint256",
          "name": "_lockType",
          "type": "uint256"
        },
        {
          "internalType": "uint256",
          "name": "_maxPoolSize",
          "type": "uint256"
        },
        {
          "internalType": "uint256",
          "name": "_penalty",
          "type": "uint256"
        },
        {
          "internalType": "uint256",
          "name": "_coolDownPeriod",
          "type": "uint256"
        }
      ],
      "name": "setLockInfo",
      "outputs": [],
      "stateMutability": "nonpayable",
      "type": "function"
    },
    {
      "inputs": [],
      "name": "toggleEmergencyWithdraw",
      "outputs": [],
      "stateMutability": "nonpayable",
      "type": "function"
    },
    {
      "inputs": [],
      "name": "totalSupply",
      "outputs": [
        {
          "internalType": "uint256",
          "name": "",
          "type": "uint256"
        }
      ],
      "stateMutability": "view",
      "type": "function"
    },
    {
      "inputs": [
        {
          "internalType": "address",
          "name": "newOwner",
          "type": "address"
        }
      ],
      "name": "transferOwnership",
      "outputs": [],
      "stateMutability": "nonpayable",
      "type": "function"
    },
    {
      "inputs": [],
      "name": "unpausePool",
      "outputs": [],
      "stateMutability": "nonpayable",
      "type": "function"
    },
    {
      "inputs": [
        {
          "internalType": "address",
          "name": "_user",
          "type": "address"
        },
        {
          "internalType": "uint256",
          "name": "_rewardAmount",
          "type": "uint256"
        },
        {
          "internalType": "uint256[]",
          "name": "_rewardPerBlock",
          "type": "uint256[]"
        },
        {
          "internalType": "uint256[]",
          "name": "_lockType",
          "type": "uint256[]"
        }
      ],
      "name": "updateEpoch",
      "outputs": [],
      "stateMutability": "nonpayable",
      "type": "function"
    },
    {
      "inputs": [
        {
          "internalType": "uint256",
          "name": "_lockType",
          "type": "uint256"
        }
      ],
      "name": "updatePool",
      "outputs": [
        {
          "components": [
            {
              "internalType": "bool",
              "name": "exist",
              "type": "bool"
            },
            {
              "internalType": "uint64",
              "name": "lastRewardBlock",
              "type": "uint64"
            },
            {
              "internalType": "uint256",
              "name": "maxPoolSize",
              "type": "uint256"
            },
            {
              "internalType": "uint256",
              "name": "penalty",
              "type": "uint256"
            },
            {
              "internalType": "uint256",
              "name": "coolDownPeriod",
              "type": "uint256"
            },
            {
              "internalType": "uint256",
              "name": "totalStaked",
              "type": "uint256"
            },
            {
              "internalType": "uint256",
              "name": "rewardPerBlock",
              "type": "uint256"
            },
            {
              "internalType": "uint256",
              "name": "accRewardPerShare",
              "type": "uint256"
            },
            {
              "internalType": "uint256",
              "name": "epoch",
              "type": "uint256"
            }
          ],
          "internalType": "struct SynthrStaking.LockInfo",
          "name": "_lockInfo",
          "type": "tuple"
        }
      ],
      "stateMutability": "nonpayable",
      "type": "function"
    },
    {
      "inputs": [
        {
          "internalType": "address",
          "name": "",
          "type": "address"
        }
      ],
      "name": "userInfo",
      "outputs": [
        {
          "internalType": "uint256",
          "name": "amount",
          "type": "uint256"
        },
        {
          "internalType": "uint256",
          "name": "lockType",
          "type": "uint256"
        },
        {
          "internalType": "uint256",
          "name": "unlockEnd",
          "type": "uint256"
        },
        {
          "internalType": "int256",
          "name": "rewardDebt",
          "type": "int256"
        }
      ],
      "stateMutability": "view",
      "type": "function"
    },
    {
      "inputs": [
        {
          "internalType": "address",
          "name": "_user",
          "type": "address"
        }
      ],
      "name": "userRewardsDebt",
      "outputs": [
        {
          "internalType": "int256",
          "name": "",
          "type": "int256"
        }
      ],
      "stateMutability": "view",
      "type": "function"
    },
    {
      "inputs": [
        {
          "internalType": "address",
          "name": "_to",
          "type": "address"
        }
      ],
      "name": "withdraw",
      "outputs": [],
      "stateMutability": "nonpayable",
      "type": "function"
    },
    {
      "inputs": [
        {
          "internalType": "address",
          "name": "_to",
          "type": "address"
        }
      ],
      "name": "withdrawPenalty",
      "outputs": [],
      "stateMutability": "nonpayable",
      "type": "function"
    },
    {
      "inputs": [],
      "name": "withdrawRequest",
      "outputs": [],
      "stateMutability": "nonpayable",
      "type": "function"
    }
  ],
  "transactionHash": "0x62b5746c1a1c53eaddd7cd03e7756384a8432d9a47cac255da3701acc511f26f",
  "args": [
    "0xD2344ce2CFEaD1cBE24e33E8301411d62946A1d2",
    "0x172160B1C9BD74D683e1EbaE0EdD96a6fEA9A6Eb",
    [
      15552000,
      23328000,
      31104000,
      46656000
    ],
    [
      {
        "maxPoolSize": "2000000000000000000000000",
        "penalty": 40,
        "coolDownPeriod": 1296000,
        "totalStaked": 0,
        "exist": true,
        "lastRewardBlock": 0,
        "rewardPerBlock": "33333000000000000000000",
        "accRewardPerShare": 0,
        "epoch": 1
      },
      {
        "maxPoolSize": "3000000000000000000000000",
        "penalty": 35,
        "coolDownPeriod": 1036800,
        "totalStaked": 0,
        "exist": true,
        "lastRewardBlock": 0,
        "rewardPerBlock": "112500000000000000000000",
        "accRewardPerShare": 0,
        "epoch": 1
      },
      {
        "maxPoolSize": "4000000000000000000000000",
        "penalty": 30,
        "coolDownPeriod": 777600,
        "totalStaked": 0,
        "exist": true,
        "lastRewardBlock": 0,
        "rewardPerBlock": "666667000000000000000000",
        "accRewardPerShare": 0,
        "epoch": 1
      },
      {
        "maxPoolSize": "5000000000000000000000000",
        "penalty": 25,
        "coolDownPeriod": 518400,
        "totalStaked": 0,
        "exist": true,
        "lastRewardBlock": 0,
        "rewardPerBlock": "1250000000000000000000000",
        "accRewardPerShare": 0,
        "epoch": 1
      }
    ]
  ],
  "numDeployments": 2,
  "solcInputHash": "0f0c3c497f4b4a1830ce76fe1a37d118",
  "bytecode": "0x604060a08152346200034e576200253890813803806200001f8162000379565b93843982019160809283828203126200034e576200003d82620003b5565b926020926200004e848201620003b5565b818301516001600160401b0396919391908781116200034e5783019480601f870112156200034e578551956200008e6200008888620003ca565b62000379565b96888089838152019160051b830101918383116200034e5789809101915b8383106200036857505050506060936060810151908982116200034e570181601f820112156200034e57805191620000e86200008884620003ca565b99898b85815201918a610120809602850101938185116200034e578b01925b848410620002bc575050506001600160a01b039384169692505085159050620002a457600094855490845191818582167f8be0079c531659141344cd1fd0a4f28419497f9722a3daafe3b4186f6b6457e08a80a36001600160a81b0319161786558851875103620002625750168752825b84518110156200021a57806200019160019289620003e2565b516200019e8288620003e2565b5186526007610100600692838b5286892093815115158c60ff875491868b60481b039086015160081b16921690898060481b0319161717855587820151878601558882015160028601558d820151600386015560a0820151600486015560c0820151600586015560e08201519085015501519101550162000178565b87825161212a91826200040e8339518181816104790152818161069c0152818161087701528181610a0001528181610ed0015281816112cb0152818161139001526116950152f35b62461bcd60e51b815260048101889052601f60248201527f53796e7468725374616b696e673a206c656e677468206e6f7420657175616c006044820152606490fd5b8251631e4fbdf760e01b815260006004820152602490fd5b85848303126200034e578751908682018281108582111762000353578952845180151581036200034e5782528c8501519084821682036200034e578f9288938f93848301528b8801518c8301528c8801518d830152808801519082015260a0808801519082015260c0808801519082015260e08088015190820152610100808801519082015281520193019262000107565b600080fd5b60246000634e487b7160e01b81526041600452fd5b82518152918101918a9101620000ac565b6040519190601f01601f191682016001600160401b038111838210176200039f57604052565b634e487b7160e01b600052604160045260246000fd5b51906001600160a01b03821682036200034e57565b6001600160401b0381116200039f5760051b60200190565b8051821015620003f75760209160051b010190565b634e487b7160e01b600052603260045260246000fdfe6080604052600436101561001257600080fd5b60003560e01c8063068cc5141461186d578063093cf18f146117cf5780630d668087146117b1578063132611f014611777578063166899541461173a57806318160ddd1461171c5780631959a002146116c05780631e83409a1461151f5780631f3a0e41146114f9578063213fed14146113f05780632b6a72211461135e5780632f2c8a50146110a6578063380e687a1461104d57806351cff8d914610d1957806351eb05a614610c935780635b1a4c2414610c015780635c975abb14610bdb5780636611a38914610bb45780636775541514610b44578063715018a614610ad35780637a39b8d814610a4b5780638da5cb5b14610a2457806399248ea7146109e0578063a7229fd91461082d578063aa09d5b7146107a1578063aceda7f91461077b578063d1c6a23114610758578063db2e21bc146105f9578063e2bbb15814610283578063f218f48c14610265578063f2fde38b146101ae5763f40f0f521461017c57600080fd5b346101a95760206003193601126101a95760206101a161019a611910565b4390611e34565b604051908152f35b600080fd5b346101a95760206003193601126101a9576101c7611910565b6101cf611ca0565b6001600160a01b0380911690811561023457600054827fffffffffffffffffffffffff0000000000000000000000000000000000000000821617600055167f8be0079c531659141344cd1fd0a4f28419497f9722a3daafe3b4186f6b6457e0600080a3005b60246040517f1e4fbdf700000000000000000000000000000000000000000000000000000000815260006004820152fd5b346101a95760006003193601126101a9576020600354604051908152f35b346101a95760406003193601126101a957602460043581356102a3611ce4565b6102b560ff60005460a81c16156119ff565b6102be81611ad5565b9260a08401906102cf848351611aa8565b91604086019283511061058f5733600052602093600485526040600020604051906102f982611926565b8054825260018101549087830191825260028101549160036040850192848452015492606085019384528015908115610585575b501561051d578051858115918215610513575b5050156104d05760e08b0196670de0b6b3a764000061036089518d611ac2565b04908551156104bc575b6103758c8751611aa8565b86528451600083820193841291129080158216911516176104a85750837fe1fffcc4923d04b559f4d29a8bfc6cda04eb5b0d3c460751c2402c5c5cc9109c9b9c969360079996936003936101009a97523360005260048d52604060002094518555516001850155516002840155519101556103f28a600254611aa8565b6002556104008a8351611aa8565b82526000526006875260406000209583511515875468ffffffffffffffffff1960ff68ffffffffffffffff008c89015160081b169316911617178755516001870155606083015160028701556080830151600387015551600486015560c08201516005860155516006850155015191015561049d8330337f0000000000000000000000000000000000000000000000000000000000000000611d8b565b6040519283523392a2005b634e487b7160e01b60005260116004526000fd5b6104c68742611aa8565b845286835261036a565b606489601f896040519262461bcd60e51b845260048401528201527f53796e7468725374616b696e673a206c6f636b207479706520646966666572006044820152fd5b149050858d610340565b608489886040519162461bcd60e51b83526004830152808201527f53796e7468725374616b696e673a207769746864726177206c6f636b6564207460448201527f6f6b656e000000000000000000000000000000000000000000000000000000006064820152fd5b905042108c61032d565b60848260266040519162461bcd60e51b8352602060048401528201527f53796e7468725374616b696e673a206d617820616d6f756e74206c696d69742060448201527f65786365656400000000000000000000000000000000000000000000000000006064820152fd5b346101a95760006003193601126101a957610612611ce4565b60ff60005460b01c16156106ee57336000526004602052604060002060405161063a81611926565b6060600383549384845260018101546020850152600281015460408501520154910152336000526004602052610686604060002060036000918281558260018201558260028201550155565b61069281600254611ab5565b6002556106c081337f0000000000000000000000000000000000000000000000000000000000000000611d36565b6040519081527f5fafa99d0643513820be26656b45130b01e1c03062e1266bf36f88cbd3bd969560203392a2005b608460405162461bcd60e51b815260206004820152602d60248201527f53796e7468725374616b696e673a20656d657267656e6379207769746864726160448201527f77206e6f7420616c6c6f776564000000000000000000000000000000000000006064820152fd5b346101a95760006003193601126101a9576020604051670de0b6b3a76400008152f35b346101a95760006003193601126101a957602060ff60005460b01c166040519015158152f35b346101a95760006003193601126101a9576107ba611ca0565b6107c2611ce4565b740100000000000000000000000000000000000000007fffffffffffffffffffffff00ffffffffffffffffffffffffffffffffffffffff60005416176000557f62e78cea01bee320cd4e420270b5ea74000d11b0c9f74754ebdbfc544b05a2586020604051338152a1005b346101a95760606003193601126101a957610846611910565b6001600160a01b039060243582811681036101a957829160443592839161086b611ca0565b610873611ce4565b16937f00000000000000000000000000000000000000000000000000000000000000001684146108d6575b6108a89184611d36565b6040519081527f76fb5f9555be8170fef33d7b413bcbe740a6a96cd162b1234b602329b0c84e3260203392a3005b506040517f70a08231000000000000000000000000000000000000000000000000000000008152306004820152602081602481875afa80156109d457839060009061099e575b6109269250611ab5565b60025411610934578161089e565b608460405162461bcd60e51b815260206004820152602a60248201527f53796e7468725374616b696e673a2063616e206e6f742077697468647261772060448201527f7573657220746f6b656e000000000000000000000000000000000000000000006064820152fd5b50506020813d6020116109cc575b816109b960209383611975565b810103126101a95782610926915161091c565b3d91506109ac565b6040513d6000823e3d90fd5b346101a95760006003193601126101a95760206040516001600160a01b037f0000000000000000000000000000000000000000000000000000000000000000168152f35b346101a95760006003193601126101a95760206001600160a01b0360005416604051908152f35b346101a95760006003193601126101a957610a64611ca0565b75010000000000000000000000000000000000000000007fffffffffffffffffffff00ffffffffffffffffffffffffffffffffffffffffff6000541617600055604051600181527f7c952f2e528aa25b4eaf8b6c07af29184b27ce591295e543ced0a27b167dc79460203392a2005b346101a95760006003193601126101a957610aec611ca0565b60006001600160a01b0381547fffffffffffffffffffffffff000000000000000000000000000000000000000081168355167f8be0079c531659141344cd1fd0a4f28419497f9722a3daafe3b4186f6b6457e08280a3005b346101a95760006003193601126101a957610b5d611ca0565b7fffffffffffffffffffff00ffffffffffffffffffffffffffffffffffffffffff60005416600055604051600081527f77337fcf1b48e6e024b256962b66c49de98c9f606b2cd9937cc0edbc7a0fb70960203392a2005b346101a95760406003193601126101a95760206101a1610bd2611910565b60243590611e34565b346101a95760006003193601126101a957602060ff60005460a01c166040519015158152f35b346101a95760206003193601126101a9576004356000526006602052610120604060002080549060018101549060028101546003820154600483015490600584015492600760068601549501549567ffffffffffffffff6040519860ff811615158a5260081c16602089015260408801526060870152608086015260a085015260c084015260e0830152610100820152f35b346101a95760206003193601126101a957610120610cb2600435611ad5565b6040519080511515825267ffffffffffffffff602082015116602083015260408101516040830152606081015160608301526080810151608083015260a081015160a083015260c081015160c083015260e081015160e08301526101008091015190820152f35b346101a9576020806003193601126101a957610d33611910565b610d3b611ce4565b33600052600582526040600020548015610fe357421115610fa057336000526004825260406000209060405190610d7182611926565b825482526001830154848301818152610da160036002870154966040870197885201549260608601938452611ad5565b90610dc860e0830193670de0b6b3a7640000610dc286518951935193611ac2565b04611d1d565b94805196610dd888600254611ab5565b60025542905111610f05575b5092610ef994926007610100610ef4947f884edad9ce6fa2440d8a54cc123490eb96d2768479d49ff9c7366125a942436499975160005260068b52604060002093815115158c68ffffffffffffffffff1960ff68ffffffffffffffff0089549387015160081b16931691161717855560408201516001860155606082015160028601556080820151600386015560a0820151600486015560c0820151600586015551600685015501519101553360005260048752610eb8604060002060036000918281558260018201558260028201550155565b6005875260006040812055610ecd8484611aa8565b907f0000000000000000000000000000000000000000000000000000000000000000611d36565b611aa8565b916040519283523392a2005b939091949282516000526006885260026040600020015460640360648111610f8a57610100610ef997610ef495610f78610f706064610f676007977f884edad9ce6fa2440d8a54cc123490eb96d2768479d49ff9c7366125a94243649f611ac2565b04809b51611ab5565b600354611aa8565b60035594979950945050509294610de4565b634e487b7160e01b600052601160045260246000fd5b6064826040519062461bcd60e51b825280600483015260248201527f53796e7468725374616b696e673a206c6f636b2074696d65206e6f7420656e646044820152fd5b6084836040519062461bcd60e51b82526004820152602360248201527f53796e7468725374616b696e673a207265717565737420666f7220776974686460448201527f72617700000000000000000000000000000000000000000000000000000000006064820152fd5b346101a95760006003193601126101a957611066611ce4565b336000526004602052600160406000200154600052600660205261109260036040600020015442611aa8565b336000526005602052604060002055600080f35b346101a95760806003193601126101a9576110bf611910565b60443567ffffffffffffffff81116101a9576110df903690600401611998565b9060643567ffffffffffffffff81116101a957611100903690600401611998565b91611109611ce4565b61111b60ff60005460a81c16156119ff565b611123611ca0565b805183510361131a5760005b815181101561129b576111428185611a4a565b51600052600660205260406000209060076040519261116084611958565b67ffffffffffffffff815460ff81161515865260081c166020850152600181015460408501526002810154606085015260038101546080850152600481015460a0850152600581015460c0850152600681015460e085015201546101008301526111ca8184611a4a565b5160c0830152610100820151917fffffffffffffffffffffffffffffffffffffffffffffffffffffffffffffffff8314610f8a5760018093016101008201526112138287611a4a565b516000526006602052600761010060406000209280511515845468ffffffffffffffffff1960ff68ffffffffffffffff00602086015160081b169316911617178455604081015186850155606081015160028501556080810151600385015560a0810151600485015560c0810151600585015560e0810151600685015501519101550161112f565b507f1762287875469c878ab6651d1ec276953f5f0ef1777bc29cf75ecd623a40bce2611306846112ef60243530877f0000000000000000000000000000000000000000000000000000000000000000611d8b565b611315604051928392604084526040840190611a74565b82810360208401523395611a74565b0390a2005b606460405162461bcd60e51b815260206004820152601f60248201527f53796e7468725374616b696e673a206c656e677468206e6f7420657175616c006044820152fd5b346101a95760206003193601126101a957611377611910565b61137f611ca0565b611387611ce4565b6113b4600354827f0000000000000000000000000000000000000000000000000000000000000000611d36565b6001600160a01b036003549160405192835216907f16af3e69b2cf2824289274389004b89c1da6d33361d7379ad0631f14b9869e8160203392a3005b346101a95760806003193601126101a95760043561140c611ca0565b80600052600660205260076040600020916040519261142a84611958565b805467ffffffffffffffff602086019160081c1681526040850160608601608087019060048501549260a0890193845260058601549460c08a019586528860068801549760e08c019889520154976101008b0198895260643585526024358352604435845260018b5260005260066020526040600020995115159068ffffffffffffffffff1960ff68ffffffffffffffff008d54935160081b16931691161717895551600189015551600288015551600387015551600486015551600585015551600684015551910155600080f35b346101a95760006003193601126101a957602060ff60005460a81c166040519015158152f35b346101a9576020806003193601126101a9577fd8138f8a3f377c5259ca548e70e4c2de94f129f5a11036a15b69513cba2b426a61155a611910565b91611563611ce4565b336000526004815260406000209260405161157d81611926565b8454815260036001860154848301968188526115af836002830154926040870193845201549260608601938452611ad5565b9760e0890180519060076101006115de670de0b6b3a76400006115d68b51968a5197611ac2565b049485611d1d565b9c855160005260068c52604060002093815115158d68ffffffffffffffffff1960ff68ffffffffffffffff0089549387015160081b169316911617178555604082015160018601556060820151600286015560808201518a86015560a0820151600486015560c0820151600586015551600685015501519101558352336000526004875260406000209451855551600185015551600284015551910155838061168f575b50506040519283523392a2005b6116b9917f0000000000000000000000000000000000000000000000000000000000000000611d36565b8383611682565b346101a95760206003193601126101a9576001600160a01b036116e1611910565b166000526004602052608060406000208054906001810154906003600282015491015491604051938452602084015260408301526060820152f35b346101a95760006003193601126101a9576020600254604051908152f35b346101a95760206003193601126101a9576001600160a01b0361175b611910565b1660005260046020526020600360406000200154604051908152f35b346101a95760206003193601126101a9576001600160a01b03611798611910565b1660005260056020526020604060002054604051908152f35b346101a95760006003193601126101a9576020600154604051908152f35b346101a95760006003193601126101a9576117e8611ca0565b6000547fffffffffffffffffff00ffffffffffffffffffffffffffffffffffffffffffff76ff0000000000000000000000000000000000000000000060ff8360b01c161560b01b169116178060005560ff6040519160b01c16151581527f492bd43563eee0c236005121ea0ff9fc5c6ab4942b84402d67fac942013cdbb160203392a2005b346101a95760006003193601126101a957611886611ca0565b60005460ff8160a01c16156118e6577fffffffffffffffffffffff00ffffffffffffffffffffffffffffffffffffffff166000557f5db9ee0a495bf2e6ff9c91a7834c1ba4fdd244a5e8aa4e537bd38aeae4b073aa6020604051338152a1005b60046040517f8dfc202b000000000000000000000000000000000000000000000000000000008152fd5b600435906001600160a01b03821682036101a957565b6080810190811067ffffffffffffffff82111761194257604052565b634e487b7160e01b600052604160045260246000fd5b610120810190811067ffffffffffffffff82111761194257604052565b90601f601f19910116810190811067ffffffffffffffff82111761194257604052565b81601f820112156101a95780359160209167ffffffffffffffff8411611942578360051b90604051946119cd85840187611975565b855283808601928201019283116101a9578301905b8282106119f0575050505090565b813581529083019083016119e2565b15611a0657565b606460405162461bcd60e51b815260206004820152601d60248201527f53796e7468725374616b696e673a20706f6f6c206973206b696c6c65640000006044820152fd5b8051821015611a5e5760209160051b010190565b634e487b7160e01b600052603260045260246000fd5b90815180825260208080930193019160005b828110611a94575050505090565b835185529381019392810192600101611a86565b91908201809211610f8a57565b91908203918211610f8a57565b81810292918115918404141715610f8a57565b9060409182805191611ae683611958565b60009081845281602085015281838501528160608501528160808501528160a08501528160c08501528160e08501528161010080950152815260066020522092805193611b3285611958565b80549060ff821615958615815267ffffffffffffffff9081602082019460081c1684526001830154858201526002830154606082015260038301546080820152600483015460a082015260058301549560c08201968752600760068501549460e0840195865201549082015296611c3757600254948184511690814311611bbd575b50505050505050565b867ff7425522fc94826010fa0fd4e6e2777d8d7e42dcfe5534d29eaef7c25faba85197611c05575b50505043168092525182519182526020820152a138808080808080611bb4565b611c21611c2692611c19611c2d9543611ab5565b905190611ac2565b611dfa565b8351611aa8565b8252388080611be5565b6084845162461bcd60e51b815260206004820152602260248201527f53796e7468725374616b696e673a206c6f636b2074797065206e6f742065786960448201527f73740000000000000000000000000000000000000000000000000000000000006064820152fd5b6001600160a01b03600054163303611cb457565b60246040517f118cdaa7000000000000000000000000000000000000000000000000000000008152336004820152fd5b60ff60005460a01c16611cf357565b60046040517fd93c0665000000000000000000000000000000000000000000000000000000008152fd5b81810392916000138015828513169184121617610f8a57565b611d89926001600160a01b03604051937fa9059cbb000000000000000000000000000000000000000000000000000000006020860152166024840152604483015260448252611d8482611926565b611f6c565b565b9290604051927f23b872dd0000000000000000000000000000000000000000000000000000000060208501526001600160a01b03809216602485015216604483015260648201526064815260a081019181831067ffffffffffffffff84111761194257611d8992604052611f6c565b670de0b6b3a764000090818102918183041490151715610f8a578115611e1e570490565b634e487b7160e01b600052601260045260246000fd5b670de0b6b3a7640000611f2e611f37936001600160a01b03600254941660005260046020526040938460002094805191611e6d83611926565b8654835260036001880154978860208601526002810154848601520154966060840197885260005260066020528160002091805190611eab82611958565b67ffffffffffffffff845460ff81161515845260081c16908160208401526001850154908301526002840154606083015260038401546080830152600484015460a083015260058401549160c0810192835261010060076006870154968760e08501520154910152839581811180611f63575b611f3a575b505050505051611ac2565b04905190611d1d565b90565b611f5895965091611c19611c2192611f529594611ab5565b90611aa8565b903880808080611f23565b50831515611f1e565b6001600160a01b031690600080826020829451910182865af13d15612055573d9067ffffffffffffffff82116120415790611fc99160405191611fb96020601f19601f8401160184611975565b82523d84602084013e5b84612061565b908151918215159283612012575b505050611fe15750565b602490604051907f5274afe70000000000000000000000000000000000000000000000000000000082526004820152fd5b81929350906020918101031261203d57602001519081159182150361203a5750388080611fd7565b80fd5b5080fd5b602483634e487b7160e01b81526041600452fd5b611fc990606090611fc3565b906120a0575080511561207657805190602001fd5b60046040517f1425ea42000000000000000000000000000000000000000000000000000000008152fd5b815115806120eb575b6120b1575090565b6024906001600160a01b03604051917f9996b315000000000000000000000000000000000000000000000000000000008352166004820152fd5b50803b156120a956fea26469706673582212203507b25e6283f19083a08f58f67f6880faa93836ceaf13a41e4765d5d90f32f464736f6c63430008180033",
  "devdoc": {
    "errors": {
      "AddressEmptyCode(address)": [
        {
          "details": "There's no code at `target` (it is not a contract)."
        }
      ],
      "AddressInsufficientBalance(address)": [
        {
          "details": "The ETH balance of the account is not enough to perform the operation."
        }
      ],
      "EnforcedPause()": [
        {
          "details": "The operation failed because the contract is paused."
        }
      ],
      "ExpectedPause()": [
        {
          "details": "The operation failed because the contract is not paused."
        }
      ],
      "FailedInnerCall()": [
        {
          "details": "A call to an address target failed. The target may have reverted."
        }
      ],
      "OwnableInvalidOwner(address)": [
        {
          "details": "The owner is not a valid owner account. (eg. `address(0)`)"
        }
      ],
      "OwnableUnauthorizedAccount(address)": [
        {
          "details": "The caller account is not authorized to perform an operation."
        }
      ],
      "SafeERC20FailedOperation(address)": [
        {
          "details": "An operation with an ERC20 token failed."
        }
      ]
    },
    "events": {
      "Paused(address)": {
        "details": "Emitted when the pause is triggered by `account`."
      },
      "Unpaused(address)": {
        "details": "Emitted when the pause is lifted by `account`."
      }
    },
    "kind": "dev",
    "methods": {
      "claim(address)": {
        "params": {
          "_to": "Receiver rewards."
        }
      },
      "killPool()": {
        "details": "kill pool to restrict pool functionality, can only by called by admin"
      },
      "owner()": {
        "details": "Returns the address of the current owner."
      },
      "pausePool()": {
        "details": "pause pool to restrict pool functionality, can only by called by admin"
      },
      "paused()": {
        "details": "Returns true if the contract is paused, and false otherwise."
      },
      "pendingReward(address)": {
        "params": {
          "_user": "Address of user."
        },
        "returns": {
          "pending_": "reward for a given user."
        }
      },
      "pendingRewardAtBlock(address,uint256)": {
        "params": {
          "_user": "Address of user."
        },
        "returns": {
          "pending_": "reward for a given user."
        }
      },
      "renounceOwnership()": {
        "details": "Leaves the contract without owner. It will not be possible to call `onlyOwner` functions. Can only be called by the current owner. NOTE: Renouncing ownership will leave the contract without an owner, thereby disabling any functionality that is only available to the owner."
      },
      "revivePool()": {
        "details": "revive pool, can only by called by admin "
      },
      "transferOwnership(address)": {
        "details": "Transfers ownership of the contract to a new account (`newOwner`). Can only be called by the current owner."
      },
      "unpausePool()": {
        "details": "unpause pool, can only by called by admin "
      },
      "userRewardsDebt(address)": {
        "details": "retuen user reward debt",
        "params": {
          "_user": "address of user"
        }
      },
      "withdraw(address)": {
        "params": {
          "_to": "Receiver of the LP tokens and syUSD rewards."
        }
      }
    },
    "version": 1
  },
  "userdoc": {
    "kind": "user",
    "methods": {
      "REWARD_TOKEN()": {
        "notice": "Address of reward token contract."
      },
      "claim(address)": {
        "notice": "Claim proceeds for transaction sender to `to`."
      },
      "deposit(uint256,uint256)": {
        "notice": "Deposit token."
      },
      "pendingReward(address)": {
        "notice": "View function to see pending reward of user in pool at current block."
      },
      "pendingRewardAtBlock(address,uint256)": {
        "notice": "View function to see pending reward of user at future block."
      },
      "totalSupply()": {
        "notice": "Total lock amount of users"
      },
      "updateEpoch(address,uint256,uint256[],uint256[])": {
        "notice": "update epoch of pool"
      },
      "updatePool(uint256)": {
        "notice": "Update reward variables of the pool."
      },
      "userInfo(address)": {
        "notice": "Info of each user that stakes LP tokens."
      },
      "withdraw(address)": {
        "notice": "Withdraw  token from pool and claim proceeds for transaction sender to `to`."
      }
    },
    "version": 1
  },
  "storageLayout": {
    "storage": [
      {
        "astId": 8,
        "contract": "contracts/SynthrStaking.sol:SynthrStaking",
        "label": "_owner",
        "offset": 0,
        "slot": "0",
        "type": "t_address"
      },
      {
        "astId": 843,
        "contract": "contracts/SynthrStaking.sol:SynthrStaking",
        "label": "_paused",
        "offset": 20,
        "slot": "0",
        "type": "t_bool"
      },
      {
        "astId": 1002,
        "contract": "contracts/SynthrStaking.sol:SynthrStaking",
        "label": "killed",
        "offset": 21,
        "slot": "0",
        "type": "t_bool"
      },
      {
        "astId": 1004,
        "contract": "contracts/SynthrStaking.sol:SynthrStaking",
        "label": "emergencyWithdrawAllowed",
        "offset": 22,
        "slot": "0",
        "type": "t_bool"
      },
      {
        "astId": 1006,
        "contract": "contracts/SynthrStaking.sol:SynthrStaking",
        "label": "lockTime",
        "offset": 0,
        "slot": "1",
        "type": "t_uint256"
      },
      {
        "astId": 1009,
        "contract": "contracts/SynthrStaking.sol:SynthrStaking",
        "label": "totalSupply",
        "offset": 0,
        "slot": "2",
        "type": "t_uint256"
      },
      {
        "astId": 1011,
        "contract": "contracts/SynthrStaking.sol:SynthrStaking",
        "label": "penaltyAmount",
        "offset": 0,
        "slot": "3",
        "type": "t_uint256"
      },
      {
        "astId": 1017,
        "contract": "contracts/SynthrStaking.sol:SynthrStaking",
        "label": "userInfo",
        "offset": 0,
        "slot": "4",
        "type": "t_mapping(t_address,t_struct(UserInfo)981_storage)"
      },
      {
        "astId": 1021,
        "contract": "contracts/SynthrStaking.sol:SynthrStaking",
        "label": "coolDownPeriod",
        "offset": 0,
        "slot": "5",
        "type": "t_mapping(t_address,t_uint256)"
      },
      {
        "astId": 1026,
        "contract": "contracts/SynthrStaking.sol:SynthrStaking",
        "label": "lockInfo",
        "offset": 0,
        "slot": "6",
        "type": "t_mapping(t_uint256,t_struct(LockInfo)1000_storage)"
      }
    ],
    "types": {
      "t_address": {
        "encoding": "inplace",
        "label": "address",
        "numberOfBytes": "20"
      },
      "t_bool": {
        "encoding": "inplace",
        "label": "bool",
        "numberOfBytes": "1"
      },
      "t_int256": {
        "encoding": "inplace",
        "label": "int256",
        "numberOfBytes": "32"
      },
      "t_mapping(t_address,t_struct(UserInfo)981_storage)": {
        "encoding": "mapping",
        "key": "t_address",
        "label": "mapping(address => struct SynthrStaking.UserInfo)",
        "numberOfBytes": "32",
        "value": "t_struct(UserInfo)981_storage"
      },
      "t_mapping(t_address,t_uint256)": {
        "encoding": "mapping",
        "key": "t_address",
        "label": "mapping(address => uint256)",
        "numberOfBytes": "32",
        "value": "t_uint256"
      },
      "t_mapping(t_uint256,t_struct(LockInfo)1000_storage)": {
        "encoding": "mapping",
        "key": "t_uint256",
        "label": "mapping(uint256 => struct SynthrStaking.LockInfo)",
        "numberOfBytes": "32",
        "value": "t_struct(LockInfo)1000_storage"
      },
      "t_struct(LockInfo)1000_storage": {
        "encoding": "inplace",
        "label": "struct SynthrStaking.LockInfo",
        "members": [
          {
            "astId": 983,
            "contract": "contracts/SynthrStaking.sol:SynthrStaking",
            "label": "exist",
            "offset": 0,
            "slot": "0",
            "type": "t_bool"
          },
          {
            "astId": 985,
            "contract": "contracts/SynthrStaking.sol:SynthrStaking",
            "label": "lastRewardBlock",
            "offset": 1,
            "slot": "0",
            "type": "t_uint64"
          },
          {
            "astId": 987,
            "contract": "contracts/SynthrStaking.sol:SynthrStaking",
            "label": "maxPoolSize",
            "offset": 0,
            "slot": "1",
            "type": "t_uint256"
          },
          {
            "astId": 989,
            "contract": "contracts/SynthrStaking.sol:SynthrStaking",
            "label": "penalty",
            "offset": 0,
            "slot": "2",
            "type": "t_uint256"
          },
          {
            "astId": 991,
            "contract": "contracts/SynthrStaking.sol:SynthrStaking",
            "label": "coolDownPeriod",
            "offset": 0,
            "slot": "3",
            "type": "t_uint256"
          },
          {
            "astId": 993,
            "contract": "contracts/SynthrStaking.sol:SynthrStaking",
            "label": "totalStaked",
            "offset": 0,
            "slot": "4",
            "type": "t_uint256"
          },
          {
            "astId": 995,
            "contract": "contracts/SynthrStaking.sol:SynthrStaking",
            "label": "rewardPerBlock",
            "offset": 0,
            "slot": "5",
            "type": "t_uint256"
          },
          {
            "astId": 997,
            "contract": "contracts/SynthrStaking.sol:SynthrStaking",
            "label": "accRewardPerShare",
            "offset": 0,
            "slot": "6",
            "type": "t_uint256"
          },
          {
            "astId": 999,
            "contract": "contracts/SynthrStaking.sol:SynthrStaking",
            "label": "epoch",
            "offset": 0,
            "slot": "7",
            "type": "t_uint256"
          }
        ],
        "numberOfBytes": "256"
      },
      "t_struct(UserInfo)981_storage": {
        "encoding": "inplace",
        "label": "struct SynthrStaking.UserInfo",
        "members": [
          {
            "astId": 974,
            "contract": "contracts/SynthrStaking.sol:SynthrStaking",
            "label": "amount",
            "offset": 0,
            "slot": "0",
            "type": "t_uint256"
          },
          {
            "astId": 976,
            "contract": "contracts/SynthrStaking.sol:SynthrStaking",
            "label": "lockType",
            "offset": 0,
            "slot": "1",
            "type": "t_uint256"
          },
          {
            "astId": 978,
            "contract": "contracts/SynthrStaking.sol:SynthrStaking",
            "label": "unlockEnd",
            "offset": 0,
            "slot": "2",
            "type": "t_uint256"
          },
          {
            "astId": 980,
            "contract": "contracts/SynthrStaking.sol:SynthrStaking",
            "label": "rewardDebt",
            "offset": 0,
            "slot": "3",
            "type": "t_int256"
          }
        ],
        "numberOfBytes": "128"
      },
      "t_uint256": {
        "encoding": "inplace",
        "label": "uint256",
        "numberOfBytes": "32"
      },
      "t_uint64": {
        "encoding": "inplace",
        "label": "uint64",
        "numberOfBytes": "8"
      }
    }
  }
}