{
  "address": "0xfe5233E21E43dAD6F9FE36bcE900B061FF8D4780",
  "abi": [
    {
      "inputs": [
        {
          "internalType": "address",
          "name": "_owner",
          "type": "address"
        },
        {
          "internalType": "address",
          "name": "_emittedToken",
          "type": "address"
        },
        {
          "internalType": "address",
          "name": "_timelockAddress",
          "type": "address"
        },
        {
          "internalType": "address",
          "name": "_ve",
          "type": "address"
        }
      ],
      "stateMutability": "nonpayable",
      "type": "constructor"
    },
    {
      "inputs": [
        {
          "internalType": "address",
          "name": "target",
          "type": "address"
        }
      ],
      "name": "AddressEmptyCode",
      "type": "error"
    },
    {
      "inputs": [
        {
          "internalType": "address",
          "name": "account",
          "type": "address"
        }
      ],
      "name": "AddressInsufficientBalance",
      "type": "error"
    },
    {
      "inputs": [],
      "name": "FailedInnerCall",
      "type": "error"
    },
    {
      "inputs": [
        {
          "internalType": "address",
          "name": "owner",
          "type": "address"
        }
      ],
      "name": "OwnableInvalidOwner",
      "type": "error"
    },
    {
      "inputs": [
        {
          "internalType": "address",
          "name": "account",
          "type": "address"
        }
      ],
      "name": "OwnableUnauthorizedAccount",
      "type": "error"
    },
    {
      "inputs": [],
      "name": "ReentrancyGuardReentrantCall",
      "type": "error"
    },
    {
      "inputs": [
        {
          "internalType": "address",
          "name": "token",
          "type": "address"
        }
      ],
      "name": "SafeERC20FailedOperation",
      "type": "error"
    },
    {
      "anonymous": false,
      "inputs": [],
      "name": "DefaultInitialization",
      "type": "event"
    },
    {
      "anonymous": false,
      "inputs": [
        {
          "indexed": true,
          "internalType": "address",
          "name": "user",
          "type": "address"
        },
        {
          "indexed": false,
          "internalType": "uint256",
          "name": "yield",
          "type": "uint256"
        },
        {
          "indexed": false,
          "internalType": "address",
          "name": "token_address",
          "type": "address"
        }
      ],
      "name": "OldYieldCollected",
      "type": "event"
    },
    {
      "anonymous": false,
      "inputs": [
        {
          "indexed": true,
          "internalType": "address",
          "name": "previousOwner",
          "type": "address"
        },
        {
          "indexed": true,
          "internalType": "address",
          "name": "newOwner",
          "type": "address"
        }
      ],
      "name": "OwnershipTransferStarted",
      "type": "event"
    },
    {
      "anonymous": false,
      "inputs": [
        {
          "indexed": true,
          "internalType": "address",
          "name": "previousOwner",
          "type": "address"
        },
        {
          "indexed": true,
          "internalType": "address",
          "name": "newOwner",
          "type": "address"
        }
      ],
      "name": "OwnershipTransferred",
      "type": "event"
    },
    {
      "anonymous": false,
      "inputs": [
        {
          "indexed": false,
          "internalType": "address",
          "name": "token",
          "type": "address"
        },
        {
          "indexed": false,
          "internalType": "uint256",
          "name": "amount",
          "type": "uint256"
        }
      ],
      "name": "RecoveredERC20",
      "type": "event"
    },
    {
      "anonymous": false,
      "inputs": [
        {
          "indexed": false,
          "internalType": "uint256",
          "name": "reward",
          "type": "uint256"
        },
        {
          "indexed": false,
          "internalType": "uint256",
          "name": "yieldRate",
          "type": "uint256"
        }
      ],
      "name": "RewardAdded",
      "type": "event"
    },
    {
      "anonymous": false,
      "inputs": [
        {
          "indexed": true,
          "internalType": "address",
          "name": "user",
          "type": "address"
        },
        {
          "indexed": false,
          "internalType": "uint256",
          "name": "yield",
          "type": "uint256"
        },
        {
          "indexed": false,
          "internalType": "address",
          "name": "token_address",
          "type": "address"
        }
      ],
      "name": "YieldCollected",
      "type": "event"
    },
    {
      "anonymous": false,
      "inputs": [
        {
          "indexed": false,
          "internalType": "uint256",
          "name": "newDuration",
          "type": "uint256"
        }
      ],
      "name": "YieldDurationUpdated",
      "type": "event"
    },
    {
      "anonymous": false,
      "inputs": [
        {
          "indexed": false,
          "internalType": "address",
          "name": "token",
          "type": "address"
        },
        {
          "indexed": false,
          "internalType": "uint256",
          "name": "yieldRate",
          "type": "uint256"
        }
      ],
      "name": "YieldPeriodRenewed",
      "type": "event"
    },
    {
      "inputs": [],
      "name": "acceptOwnership",
      "outputs": [],
      "stateMutability": "nonpayable",
      "type": "function"
    },
    {
      "inputs": [],
      "name": "checkpoint",
      "outputs": [],
      "stateMutability": "nonpayable",
      "type": "function"
    },
    {
      "inputs": [
        {
          "internalType": "address",
          "name": "user_addr",
          "type": "address"
        }
      ],
      "name": "checkpointOtherUser",
      "outputs": [],
      "stateMutability": "nonpayable",
      "type": "function"
    },
    {
      "inputs": [
        {
          "internalType": "address",
          "name": "account",
          "type": "address"
        }
      ],
      "name": "earned",
      "outputs": [
        {
          "internalType": "uint256",
          "name": "",
          "type": "uint256"
        }
      ],
      "stateMutability": "view",
      "type": "function"
    },
    {
      "inputs": [
        {
          "internalType": "address",
          "name": "account",
          "type": "address"
        }
      ],
      "name": "eligibleCurrentVe",
      "outputs": [
        {
          "internalType": "uint256",
          "name": "eligibleVeBal",
          "type": "uint256"
        },
        {
          "internalType": "uint256",
          "name": "storedEndingTimestamp",
          "type": "uint256"
        }
      ],
      "stateMutability": "view",
      "type": "function"
    },
    {
      "inputs": [],
      "name": "emittedToken",
      "outputs": [
        {
          "internalType": "contract ERC20",
          "name": "",
          "type": "address"
        }
      ],
      "stateMutability": "view",
      "type": "function"
    },
    {
      "inputs": [],
      "name": "emittedTokenAddress",
      "outputs": [
        {
          "internalType": "address",
          "name": "",
          "type": "address"
        }
      ],
      "stateMutability": "view",
      "type": "function"
    },
    {
      "inputs": [],
      "name": "fractionParticipating",
      "outputs": [
        {
          "internalType": "uint256",
          "name": "",
          "type": "uint256"
        }
      ],
      "stateMutability": "view",
      "type": "function"
    },
    {
      "inputs": [],
      "name": "getYield",
      "outputs": [
        {
          "internalType": "uint256",
          "name": "yield0",
          "type": "uint256"
        }
      ],
      "stateMutability": "nonpayable",
      "type": "function"
    },
    {
      "inputs": [],
      "name": "getYieldForDuration",
      "outputs": [
        {
          "internalType": "uint256",
          "name": "",
          "type": "uint256"
        }
      ],
      "stateMutability": "view",
      "type": "function"
    },
    {
      "inputs": [
        {
          "internalType": "address",
          "name": "",
          "type": "address"
        }
      ],
      "name": "greylist",
      "outputs": [
        {
          "internalType": "bool",
          "name": "",
          "type": "bool"
        }
      ],
      "stateMutability": "view",
      "type": "function"
    },
    {
      "inputs": [
        {
          "internalType": "address",
          "name": "_address",
          "type": "address"
        }
      ],
      "name": "greylistAddress",
      "outputs": [],
      "stateMutability": "nonpayable",
      "type": "function"
    },
    {
      "inputs": [],
      "name": "lastTimeYieldApplicable",
      "outputs": [
        {
          "internalType": "uint256",
          "name": "",
          "type": "uint256"
        }
      ],
      "stateMutability": "view",
      "type": "function"
    },
    {
      "inputs": [],
      "name": "lastUpdateTime",
      "outputs": [
        {
          "internalType": "uint256",
          "name": "",
          "type": "uint256"
        }
      ],
      "stateMutability": "view",
      "type": "function"
    },
    {
      "inputs": [
        {
          "internalType": "uint256",
          "name": "amount",
          "type": "uint256"
        }
      ],
      "name": "notifyRewardAmount",
      "outputs": [],
      "stateMutability": "nonpayable",
      "type": "function"
    },
    {
      "inputs": [],
      "name": "owner",
      "outputs": [
        {
          "internalType": "address",
          "name": "",
          "type": "address"
        }
      ],
      "stateMutability": "view",
      "type": "function"
    },
    {
      "inputs": [],
      "name": "pendingOwner",
      "outputs": [
        {
          "internalType": "address",
          "name": "",
          "type": "address"
        }
      ],
      "stateMutability": "view",
      "type": "function"
    },
    {
      "inputs": [],
      "name": "periodFinish",
      "outputs": [
        {
          "internalType": "uint256",
          "name": "",
          "type": "uint256"
        }
      ],
      "stateMutability": "view",
      "type": "function"
    },
    {
      "inputs": [
        {
          "internalType": "address",
          "name": "tokenAddress",
          "type": "address"
        },
        {
          "internalType": "uint256",
          "name": "tokenAmount",
          "type": "uint256"
        }
      ],
      "name": "recoverERC20",
      "outputs": [],
      "stateMutability": "nonpayable",
      "type": "function"
    },
    {
      "inputs": [],
      "name": "renounceOwnership",
      "outputs": [],
      "stateMutability": "nonpayable",
      "type": "function"
    },
    {
      "inputs": [
        {
          "internalType": "address",
          "name": "",
          "type": "address"
        }
      ],
      "name": "rewardNotifiers",
      "outputs": [
        {
          "internalType": "bool",
          "name": "",
          "type": "bool"
        }
      ],
      "stateMutability": "view",
      "type": "function"
    },
    {
      "inputs": [
        {
          "internalType": "bool",
          "name": "_yieldCollectionPaused",
          "type": "bool"
        }
      ],
      "name": "setPauses",
      "outputs": [],
      "stateMutability": "nonpayable",
      "type": "function"
    },
    {
      "inputs": [
        {
          "internalType": "address",
          "name": "_timelockAddress",
          "type": "address"
        }
      ],
      "name": "setTimelock",
      "outputs": [],
      "stateMutability": "nonpayable",
      "type": "function"
    },
    {
      "inputs": [
        {
          "internalType": "uint256",
          "name": "_yieldDuration",
          "type": "uint256"
        }
      ],
      "name": "setYieldDuration",
      "outputs": [],
      "stateMutability": "nonpayable",
      "type": "function"
    },
    {
      "inputs": [
        {
          "internalType": "uint256",
          "name": "_new_rate0",
          "type": "uint256"
        },
        {
          "internalType": "bool",
          "name": "sync_too",
          "type": "bool"
        }
      ],
      "name": "setYieldRate",
      "outputs": [],
      "stateMutability": "nonpayable",
      "type": "function"
    },
    {
      "inputs": [],
      "name": "sync",
      "outputs": [],
      "stateMutability": "nonpayable",
      "type": "function"
    },
    {
      "inputs": [],
      "name": "timelockAddress",
      "outputs": [
        {
          "internalType": "address",
          "name": "",
          "type": "address"
        }
      ],
      "stateMutability": "view",
      "type": "function"
    },
    {
      "inputs": [
        {
          "internalType": "address",
          "name": "notifier_addr",
          "type": "address"
        }
      ],
      "name": "toggleRewardNotifier",
      "outputs": [],
      "stateMutability": "nonpayable",
      "type": "function"
    },
    {
      "inputs": [],
      "name": "totalVeParticipating",
      "outputs": [
        {
          "internalType": "uint256",
          "name": "",
          "type": "uint256"
        }
      ],
      "stateMutability": "view",
      "type": "function"
    },
    {
      "inputs": [],
      "name": "totalVeSupplyStored",
      "outputs": [
        {
          "internalType": "uint256",
          "name": "",
          "type": "uint256"
        }
      ],
      "stateMutability": "view",
      "type": "function"
    },
    {
      "inputs": [
        {
          "internalType": "address",
          "name": "newOwner",
          "type": "address"
        }
      ],
      "name": "transferOwnership",
      "outputs": [],
      "stateMutability": "nonpayable",
      "type": "function"
    },
    {
      "inputs": [
        {
          "internalType": "address",
          "name": "",
          "type": "address"
        }
      ],
      "name": "userIsInitialized",
      "outputs": [
        {
          "internalType": "bool",
          "name": "",
          "type": "bool"
        }
      ],
      "stateMutability": "view",
      "type": "function"
    },
    {
      "inputs": [
        {
          "internalType": "address",
          "name": "",
          "type": "address"
        }
      ],
      "name": "userVeCheckpointed",
      "outputs": [
        {
          "internalType": "uint256",
          "name": "",
          "type": "uint256"
        }
      ],
      "stateMutability": "view",
      "type": "function"
    },
    {
      "inputs": [
        {
          "internalType": "address",
          "name": "",
          "type": "address"
        }
      ],
      "name": "userVeEndpointCheckpointed",
      "outputs": [
        {
          "internalType": "uint256",
          "name": "",
          "type": "uint256"
        }
      ],
      "stateMutability": "view",
      "type": "function"
    },
    {
      "inputs": [
        {
          "internalType": "address",
          "name": "",
          "type": "address"
        }
      ],
      "name": "userYieldPerTokenPaid",
      "outputs": [
        {
          "internalType": "uint256",
          "name": "",
          "type": "uint256"
        }
      ],
      "stateMutability": "view",
      "type": "function"
    },
    {
      "inputs": [],
      "name": "yieldCollectionPaused",
      "outputs": [
        {
          "internalType": "bool",
          "name": "",
          "type": "bool"
        }
      ],
      "stateMutability": "view",
      "type": "function"
    },
    {
      "inputs": [],
      "name": "yieldDuration",
      "outputs": [
        {
          "internalType": "uint256",
          "name": "",
          "type": "uint256"
        }
      ],
      "stateMutability": "view",
      "type": "function"
    },
    {
      "inputs": [],
      "name": "yieldPerVe",
      "outputs": [
        {
          "internalType": "uint256",
          "name": "",
          "type": "uint256"
        }
      ],
      "stateMutability": "view",
      "type": "function"
    },
    {
      "inputs": [],
      "name": "yieldPerVeStored",
      "outputs": [
        {
          "internalType": "uint256",
          "name": "",
          "type": "uint256"
        }
      ],
      "stateMutability": "view",
      "type": "function"
    },
    {
      "inputs": [],
      "name": "yieldRate",
      "outputs": [
        {
          "internalType": "uint256",
          "name": "",
          "type": "uint256"
        }
      ],
      "stateMutability": "view",
      "type": "function"
    },
    {
      "inputs": [
        {
          "internalType": "address",
          "name": "",
          "type": "address"
        }
      ],
      "name": "yields",
      "outputs": [
        {
          "internalType": "uint256",
          "name": "",
          "type": "uint256"
        }
      ],
      "stateMutability": "view",
      "type": "function"
    }
  ],
  "transactionHash": "0x3ead43dd3a23c89fb4ce604f8a806d8e8476e80e6337f46baf20c1c762ef4f91",
  "args": [
    "0xD2344ce2CFEaD1cBE24e33E8301411d62946A1d2",
    "0x172160B1C9BD74D683e1EbaE0EdD96a6fEA9A6Eb",
    "0xD2344ce2CFEaD1cBE24e33E8301411d62946A1d2",
    "0x3335951873CdDEA5d7e38AD37Ca864c9Aaf6BdAA"
  ],
  "numDeployments": 1,
  "solcInputHash": "b1bfa7984c307657d2c593bbfce3b174",
  "bytecode": "0x6080346200015e57601f6200198a38819003918201601f19168301916001600160401b0383118484101762000163578084926080946040528339810103126200015e576200004d8162000179565b906200005c6020820162000179565b90620000796060620000716040840162000179565b920162000179565b926001600160a01b039081169182156200014557600192604092848060a01b0319908186541686556000938185549985858c16178755858289519c167f8be0079c531659141344cd1fd0a4f28419497f9722a3daafe3b4186f6b6457e08980a38860025562093a80600a5586600c5586600f55866010558160ff199a8b6016541660165516808660055416176005558560045416176004551683600354161760035542600855169060065416176006558152600b60205220918254161790556117fb90816200018f8239f35b604051631e4fbdf760e01b815260006004820152602490fd5b600080fd5b634e487b7160e01b600052604160045260246000fd5b51906001600160a01b03821682036200015e5756fe6040608081526004908136101561001557600080fd5b600091823560e01c9182628cc26214610f2157826314b3053714610ee557826319aec6d214610ec157826331ca208c14610e855782633c6b16ab14610c8a5782633e34177314610c6b57826342c92f6e14610c0257826346c7126d14610bcb5782634bc66f3214610ba357826350fe98ac14610b6c578263543f587114610b3d57826356d9fff314610b205782636999ac9314610b01578263715018a614610a9257826374ea0b981461098057826379ba5097146108d55782637c262871146107625782637e2e44371461072b5782638980f11f1461068a5782638da5cb5b1461066457826391519bda14610602578263941d9f6514610599578263948e25a21461053c5782639f8a835a1461051a578263a875f472146104e3578263ad1148cb146104bf578263bdacb30314610457578263c2c4c5c11461043d578263c7da8baa1461041e578263c8f33c91146103ff578263d15166ff146103c3578263e172cf21146103a4578263e30c39781461037c578263e9218ff614610356578263ebe2b12b14610337578263f2fde38b146102c0578263f43ae1c714610298578263fb59c5dd1461027b578263fbe3ad7014610258578263fc939bb11461020457505063fff6cae9146101e657600080fd5b346102015780600319360112610201576101fe6112ec565b80f35b80fd5b8334610201578060031936011261020157600f5492620f4240938481029481860414901517156102455760208361023e8660105490610f98565b9051908152f35b906011602492634e487b7160e01b835252fd5b8390346102775781600319360112610277576020906010549051908152f35b5080fd5b83903461027757816003193601126102775760209061023e611296565b8390346102775781600319360112610277576020906001600160a01b03600554169051908152f35b8334610201576020600319360112610201576102da610f47565b6102e2611385565b6001600160a01b03809116908173ffffffffffffffffffffffffffffffffffffffff1960015416176001558254167f38d16b8cac22d99fc7c124b9cd0de2d3fa1faef420bfe791d8c362d765e227008380a380f35b8390346102775781600319360112610277576020906007549051908152f35b8334610201578060031936011261020157506001600160a01b0360209254169051908152f35b8390346102775781600319360112610277576020906001600160a01b03600154169051908152f35b839034610277578160031936011261027757602090600a549051908152f35b8390346102775760206003193601126102775760ff816020936001600160a01b036103ec610f47565b168152600b855220541690519015158152f35b8390346102775781600319360112610277576020906008549051908152f35b839034610277578160031936011261027757602090600f549051908152f35b83346102015780600319360112610201576101fe336113c9565b833461020157602060031936011261020157610471610f47565b6001600160a01b039081835416331480156104b2575b6104909061112c565b1673ffffffffffffffffffffffffffffffffffffffff19600654161760065580f35b5060065482163314610487565b83903461027757816003193601126102775760209060ff6016541690519015158152f35b83903461027757602060031936011261027757806020926001600160a01b0361050a610f47565b168152600d845220549051908152f35b8334610201576020600319360112610201576101fe610537610f47565b6113c9565b8382346102775760206003193601126102775735801515809103610277576105796001600160a01b0380845416331490811561058b575b5061112c565b60ff60ff196016541691161760165580f35b905060065416331484610573565b839034610277576020600319360112610277576101fe906105b8610f47565b6001600160a01b039081855416331480156105f5575b6105d79061112c565b16835260156020528220805460ff818116151660ff19909116179055565b50600654821633146105ce565b9091503461066057600319360112610277576024359081151582036106605761063f6001600160a01b03808554163314908115610652575061112c565b3560095561064a5780f35b6101fe6112ec565b905060065416331438610573565b8280fd5b8390346102775781600319360112610277576001600160a01b0360209254169051908152f35b8390346102775780600319360112610277577f55350610fe57096d8c0ffa30beede987326bccfcb0b4415804164d0dd50ce8b1906106c6610f47565b610717602435926106f7846001600160a01b036106f1818a54169182331490811561071d575061112c565b8561164a565b5192839283602090939291936001600160a01b0360408201951681520152565b0390a180f35b90506006541633148b610573565b83903461027757602060031936011261027757806020926001600160a01b03610752610f47565b1681526012845220549051908152f35b83903461027757816003193601126102775760028054146108ad576002805560ff6016541661086b57610794336113c9565b3382526020926015845260ff828420541661082a5750338252600e83528082209180835493846107d8575b5050338152601484528142912055600160025551908152f35b556001600160a01b036107f08433836005541661164a565b60055416825190848252858201527f3998039806f6db7e5d83a5371638cc47dd2e9ae500d5d561d95ec6381f53e3cd833392a280856107bf565b83606492519162461bcd60e51b8352820152601b60248201527f4164647265737320686173206265656e20677265796c697374656400000000006044820152fd5b5162461bcd60e51b8152602081840152601a60248201527f5969656c6420636f6c6c656374696f6e206973207061757365640000000000006044820152606490fd5b9050517f3ee5aeb5000000000000000000000000000000000000000000000000000000008152fd5b90915034610660578260031936011261066057600154916001600160a01b0391338385160361095057505073ffffffffffffffffffffffffffffffffffffffff19809216600155825491339083161783553391167f8be0079c531659141344cd1fd0a4f28419497f9722a3daafe3b4186f6b6457e08380a380f35b6024925051907f118cdaa70000000000000000000000000000000000000000000000000000000082523390820152fd5b90915034610660576020600319360112610660578135916109b56001600160a01b03808654163314908115610652575061112c565b6007548015908115610a88575b50156109fa5750816020917fce653f06b9044b00e7d9d01b9b4228e84812092cb6a38371889bef19370d21f793600a5551908152a180f35b602060a492519162461bcd60e51b8352820152605660248201527f50726576696f7573207969656c6420706572696f64206d75737420626520636f60448201527f6d706c657465206265666f7265206368616e67696e672074686520647572617460648201527f696f6e20666f7220746865206e657720706572696f64000000000000000000006084820152fd5b90504211386109c2565b8334610201578060031936011261020157610aab611385565b806001600160a01b0373ffffffffffffffffffffffffffffffffffffffff19806001541660015582549081168355167f8be0079c531659141344cd1fd0a4f28419497f9722a3daafe3b4186f6b6457e08280a380f35b8390346102775781600319360112610277576020906009549051908152f35b83903461027757816003193601126102775760209061023e611284565b83346102015760206003193601126102015750610b60610b5b610f47565b6111b0565b82519182526020820152f35b83903461027757602060031936011261027757806020926001600160a01b03610b93610f47565b168152600e845220549051908152f35b8390346102775781600319360112610277576020906001600160a01b03600654169051908152f35b83903461027757602060031936011261027757806020926001600160a01b03610bf2610f47565b1681526013845220549051908152f35b839034610277576020600319360112610277576101fe90610c21610f47565b6001600160a01b03908185541633148015610c5e575b610c409061112c565b168352600b6020528220805460ff818116151660ff19909116179055565b5060065482163314610c37565b839034610277578160031936011261027757602090600c549051908152f35b8390346102775760208060031936011261066057833590338452600b815260ff838520541615610e43576001600160a01b03855416948351828101907f23b872dd0000000000000000000000000000000000000000000000000000000082523360248201523060448201528460648201526064815260a0810181811067ffffffffffffffff821117610e3057865251610d349187918291828b5af1610d2d6115f2565b9088611732565b805190838215159283610e17575b505050610de857507f6c07ee05dcf262f13abf9d87b846ee789d2f90fe991d495acd7d7fc109ee1f55939450610d766112ec565b600754428111610db45750610d8d600a5483610f98565b6009555b42600855610da1600a5442610fb8565b600755600954908351928352820152a180f35b610dd7610dd1610dc8610de0934290610f62565b60095490610f85565b84610fb8565b600a5490610f98565b600955610d91565b602490868551917f5274afe7000000000000000000000000000000000000000000000000000000008352820152fd5b610e279350820181019101611632565b15878381610d42565b602488604186634e487b7160e01b835252fd5b8460649184519162461bcd60e51b8352820152601660248201527f53656e646572206e6f742077686974656c6973746564000000000000000000006044820152fd5b8390346102775760206003193601126102775760ff816020936001600160a01b03610eae610f47565b1681526015855220541690519015158152f35b83903461027757816003193601126102775760209061023e600954600a5490610f85565b8390346102775760206003193601126102775760ff816020936001600160a01b03610f0e610f47565b1681526011855220541690519015158152f35b8390346102775760206003193601126102775760209061023e610f42610f47565b610fc5565b600435906001600160a01b0382168203610f5d57565b600080fd5b91908203918211610f6f57565b634e487b7160e01b600052601160045260246000fd5b81810292918115918404141715610f6f57565b8115610fa2570490565b634e487b7160e01b600052601260045260246000fd5b91908201809211610f6f57565b906001600160a01b03821660009281845260206011815260409160ff83872054161561112657610ff4906111b0565b620f42409082156110a7575b506110519061104c670de0b6b3a764000093878a5260128652868a20549081811160001461109557505b611046611035611296565b898c52600d8852888c205490610f62565b90610f85565b610f85565b0492620f4240840293808504620f42401490151715611081578591600e9161107e96975252205490610fb8565b90565b602486634e487b7160e01b81526011600452fd5b9061109f91610fb8565b60011c61102a565b8588526014845284882054908082106110c35750505050505050565b906110cd91610f62565b90858852601484526110e28589205442610f62565b9180820291820403611112579161104c61110861105193670de0b6b3a764000095610f98565b9193505090611000565b602488634e487b7160e01b81526011600452fd5b50505050565b1561113357565b606460405162461bcd60e51b815260206004820152601560248201527f4e6f74206f776e6572206f722074696d656c6f636b00000000000000000000006044820152fd5b90601f601f19910116810190811067ffffffffffffffff82111761119a57604052565b634e487b7160e01b600052604160045260246000fd5b6001600160a01b039060208260035416916024604051809581937f70a0823100000000000000000000000000000000000000000000000000000000835216948560048301525afa91821561127857600092611244575b506000526013602052604060002054908115158061123a575b1561122a5750600091565b4282116112375750600091565b91565b508142101561121f565b9091506020813d602011611270575b8161126060209383611177565b81010312610f5d57519038611206565b3d9150611253565b6040513d6000823e3d90fd5b60075480421060001461107e57504290565b601054806112a55750600c5490565b600c546112bf610dc86112b6611284565b60085490610f62565b670de0b6b3a764000090818102918183041490151715610f6f5761107e926112e691610f98565b90610fb8565b6112f4611296565b600c55600460206001600160a01b0360035416604051928380927f18160ddd0000000000000000000000000000000000000000000000000000000082525afa90811561127857600091611353575b5060105561134e611284565b600855565b90506020813d60201161137d575b8161136e60209383611177565b81010312610f5d575138611342565b3d9150611361565b6001600160a01b0360005416330361139957565b60246040517f118cdaa7000000000000000000000000000000000000000000000000000000008152336004820152fd5b6113d16112ec565b6001600160a01b0380821691826115c6575b5060009180835260209060128252604092838520549060248482600354168751928380927f70a082310000000000000000000000000000000000000000000000000000000082528860048301525afa90811561158b5786908892611595575b50602491928589526012875283828a2055600354168151928380927fcbf9fe5f0000000000000000000000000000000000000000000000000000000082528860048301525afa90811561158b57908591889161151d575b5001518387526013855285872055818110611500576114c3916114bb91610f62565b600f54610fb8565b600f555b8352601181528183209081549160ff8316156114e5575b5050505050565b600160ff1960149416179055524291205538808080806114de565b61150d9061151592610f62565b600f54610f62565b600f556114c7565b809250878092503d8311611584575b6115368183611177565b810103126115805785519086820182811067ffffffffffffffff82111761156c5787528051825285015181860152849038611499565b602489634e487b7160e01b81526041600452fd5b8680fd5b503d61152c565b86513d89823e3d90fd5b809250868092503d83116115bf575b6115ae8183611177565b810103126115805751856024611442565b503d6115a4565b6115cf90610fc5565b82600052600e602052604060002055600c54600d602052604060002055386113e3565b3d1561162d573d9067ffffffffffffffff821161119a57604051916116216020601f19601f8401160184611177565b82523d6000602084013e565b606090565b90816020910312610f5d57518015158103610f5d5790565b6040517fa9059cbb00000000000000000000000000000000000000000000000000000000602082019081526001600160a01b0393909316602482015260448082019490945292835260009283929083906116a5606482611177565b51925af16116b16115f2565b81611703575b50156116bf57565b606460405162461bcd60e51b815260206004820152601f60248201527f5472616e7366657248656c7065723a205452414e534645525f4641494c4544006044820152fd5b8051801592508215611718575b5050386116b7565b61172b9250602080918301019101611632565b3880611710565b90611771575080511561174757805190602001fd5b60046040517f1425ea42000000000000000000000000000000000000000000000000000000008152fd5b815115806117bc575b611782575090565b6024906001600160a01b03604051917f9996b315000000000000000000000000000000000000000000000000000000008352166004820152fd5b50803b1561177a56fea2646970667358221220933c70da999cca4eb05f2995c546a0d9910e88debd2ece6eeca61e11e0a5935f64736f6c63430008180033",
  "devdoc": {
    "errors": {
      "AddressEmptyCode(address)": [
        {
          "details": "There's no code at `target` (it is not a contract)."
        }
      ],
      "AddressInsufficientBalance(address)": [
        {
          "details": "The ETH balance of the account is not enough to perform the operation."
        }
      ],
      "FailedInnerCall()": [
        {
          "details": "A call to an address target failed. The target may have reverted."
        }
      ],
      "OwnableInvalidOwner(address)": [
        {
          "details": "The owner is not a valid owner account. (eg. `address(0)`)"
        }
      ],
      "OwnableUnauthorizedAccount(address)": [
        {
          "details": "The caller account is not authorized to perform an operation."
        }
      ],
      "ReentrancyGuardReentrantCall()": [
        {
          "details": "Unauthorized reentrant call."
        }
      ],
      "SafeERC20FailedOperation(address)": [
        {
          "details": "An operation with an ERC20 token failed."
        }
      ]
    },
    "kind": "dev",
    "methods": {
      "acceptOwnership()": {
        "details": "The new owner accepts the ownership transfer."
      },
      "owner()": {
        "details": "Returns the address of the current owner."
      },
      "pendingOwner()": {
        "details": "Returns the address of the pending owner."
      },
      "renounceOwnership()": {
        "details": "Leaves the contract without owner. It will not be possible to call `onlyOwner` functions. Can only be called by the current owner. NOTE: Renouncing ownership will leave the contract without an owner, thereby disabling any functionality that is only available to the owner."
      },
      "transferOwnership(address)": {
        "details": "Starts the ownership transfer of the contract to a new account. Replaces the pending transfer if there is one. Can only be called by the current owner."
      }
    },
    "version": 1
  },
  "userdoc": {
    "kind": "user",
    "methods": {},
    "version": 1
  },
  "storageLayout": {
    "storage": [
      {
        "astId": 8,
        "contract": "contracts/controller/VeYieldDistributor.sol:VeYieldDistributor",
        "label": "_owner",
        "offset": 0,
        "slot": "0",
        "type": "t_address"
      },
      {
        "astId": 156,
        "contract": "contracts/controller/VeYieldDistributor.sol:VeYieldDistributor",
        "label": "_pendingOwner",
        "offset": 0,
        "slot": "1",
        "type": "t_address"
      },
      {
        "astId": 1609,
        "contract": "contracts/controller/VeYieldDistributor.sol:VeYieldDistributor",
        "label": "_status",
        "offset": 0,
        "slot": "2",
        "type": "t_uint256"
      },
      {
        "astId": 1690,
        "contract": "contracts/controller/VeYieldDistributor.sol:VeYieldDistributor",
        "label": "ve",
        "offset": 0,
        "slot": "3",
        "type": "t_contract(IVotingEscrow)2627"
      },
      {
        "astId": 1693,
        "contract": "contracts/controller/VeYieldDistributor.sol:VeYieldDistributor",
        "label": "emittedToken",
        "offset": 0,
        "slot": "4",
        "type": "t_contract(ERC20)885"
      },
      {
        "astId": 1695,
        "contract": "contracts/controller/VeYieldDistributor.sol:VeYieldDistributor",
        "label": "emittedTokenAddress",
        "offset": 0,
        "slot": "5",
        "type": "t_address"
      },
      {
        "astId": 1697,
        "contract": "contracts/controller/VeYieldDistributor.sol:VeYieldDistributor",
        "label": "timelockAddress",
        "offset": 0,
        "slot": "6",
        "type": "t_address"
      },
      {
        "astId": 1699,
        "contract": "contracts/controller/VeYieldDistributor.sol:VeYieldDistributor",
        "label": "periodFinish",
        "offset": 0,
        "slot": "7",
        "type": "t_uint256"
      },
      {
        "astId": 1701,
        "contract": "contracts/controller/VeYieldDistributor.sol:VeYieldDistributor",
        "label": "lastUpdateTime",
        "offset": 0,
        "slot": "8",
        "type": "t_uint256"
      },
      {
        "astId": 1703,
        "contract": "contracts/controller/VeYieldDistributor.sol:VeYieldDistributor",
        "label": "yieldRate",
        "offset": 0,
        "slot": "9",
        "type": "t_uint256"
      },
      {
        "astId": 1706,
        "contract": "contracts/controller/VeYieldDistributor.sol:VeYieldDistributor",
        "label": "yieldDuration",
        "offset": 0,
        "slot": "10",
        "type": "t_uint256"
      },
      {
        "astId": 1710,
        "contract": "contracts/controller/VeYieldDistributor.sol:VeYieldDistributor",
        "label": "rewardNotifiers",
        "offset": 0,
        "slot": "11",
        "type": "t_mapping(t_address,t_bool)"
      },
      {
        "astId": 1713,
        "contract": "contracts/controller/VeYieldDistributor.sol:VeYieldDistributor",
        "label": "yieldPerVeStored",
        "offset": 0,
        "slot": "12",
        "type": "t_uint256"
      },
      {
        "astId": 1717,
        "contract": "contracts/controller/VeYieldDistributor.sol:VeYieldDistributor",
        "label": "userYieldPerTokenPaid",
        "offset": 0,
        "slot": "13",
        "type": "t_mapping(t_address,t_uint256)"
      },
      {
        "astId": 1721,
        "contract": "contracts/controller/VeYieldDistributor.sol:VeYieldDistributor",
        "label": "yields",
        "offset": 0,
        "slot": "14",
        "type": "t_mapping(t_address,t_uint256)"
      },
      {
        "astId": 1724,
        "contract": "contracts/controller/VeYieldDistributor.sol:VeYieldDistributor",
        "label": "totalVeParticipating",
        "offset": 0,
        "slot": "15",
        "type": "t_uint256"
      },
      {
        "astId": 1727,
        "contract": "contracts/controller/VeYieldDistributor.sol:VeYieldDistributor",
        "label": "totalVeSupplyStored",
        "offset": 0,
        "slot": "16",
        "type": "t_uint256"
      },
      {
        "astId": 1731,
        "contract": "contracts/controller/VeYieldDistributor.sol:VeYieldDistributor",
        "label": "userIsInitialized",
        "offset": 0,
        "slot": "17",
        "type": "t_mapping(t_address,t_bool)"
      },
      {
        "astId": 1735,
        "contract": "contracts/controller/VeYieldDistributor.sol:VeYieldDistributor",
        "label": "userVeCheckpointed",
        "offset": 0,
        "slot": "18",
        "type": "t_mapping(t_address,t_uint256)"
      },
      {
        "astId": 1739,
        "contract": "contracts/controller/VeYieldDistributor.sol:VeYieldDistributor",
        "label": "userVeEndpointCheckpointed",
        "offset": 0,
        "slot": "19",
        "type": "t_mapping(t_address,t_uint256)"
      },
      {
        "astId": 1743,
        "contract": "contracts/controller/VeYieldDistributor.sol:VeYieldDistributor",
        "label": "lastRewardClaimTime",
        "offset": 0,
        "slot": "20",
        "type": "t_mapping(t_address,t_uint256)"
      },
      {
        "astId": 1747,
        "contract": "contracts/controller/VeYieldDistributor.sol:VeYieldDistributor",
        "label": "greylist",
        "offset": 0,
        "slot": "21",
        "type": "t_mapping(t_address,t_bool)"
      },
      {
        "astId": 1750,
        "contract": "contracts/controller/VeYieldDistributor.sol:VeYieldDistributor",
        "label": "yieldCollectionPaused",
        "offset": 0,
        "slot": "22",
        "type": "t_bool"
      }
    ],
    "types": {
      "t_address": {
        "encoding": "inplace",
        "label": "address",
        "numberOfBytes": "20"
      },
      "t_bool": {
        "encoding": "inplace",
        "label": "bool",
        "numberOfBytes": "1"
      },
      "t_contract(ERC20)885": {
        "encoding": "inplace",
        "label": "contract ERC20",
        "numberOfBytes": "20"
      },
      "t_contract(IVotingEscrow)2627": {
        "encoding": "inplace",
        "label": "contract IVotingEscrow",
        "numberOfBytes": "20"
      },
      "t_mapping(t_address,t_bool)": {
        "encoding": "mapping",
        "key": "t_address",
        "label": "mapping(address => bool)",
        "numberOfBytes": "32",
        "value": "t_bool"
      },
      "t_mapping(t_address,t_uint256)": {
        "encoding": "mapping",
        "key": "t_address",
        "label": "mapping(address => uint256)",
        "numberOfBytes": "32",
        "value": "t_uint256"
      },
      "t_uint256": {
        "encoding": "inplace",
        "label": "uint256",
        "numberOfBytes": "32"
      }
    }
  }
}