{
  "address": "0x3335951873CdDEA5d7e38AD37Ca864c9Aaf6BdAA",
  "abi": [
    {
      "inputs": [
        {
          "internalType": "address",
          "name": "_tokenAddr",
          "type": "address"
        },
        {
          "internalType": "string",
          "name": "_name",
          "type": "string"
        },
        {
          "internalType": "string",
          "name": "_symbol",
          "type": "string"
        },
        {
          "internalType": "string",
          "name": "_version",
          "type": "string"
        }
      ],
      "stateMutability": "nonpayable",
      "type": "constructor"
    },
    {
      "inputs": [],
      "name": "AccessControlBadConfirmation",
      "type": "error"
    },
    {
      "inputs": [
        {
          "internalType": "address",
          "name": "account",
          "type": "address"
        },
        {
          "internalType": "bytes32",
          "name": "neededRole",
          "type": "bytes32"
        }
      ],
      "name": "AccessControlUnauthorizedAccount",
      "type": "error"
    },
    {
      "inputs": [
        {
          "internalType": "address",
          "name": "target",
          "type": "address"
        }
      ],
      "name": "AddressEmptyCode",
      "type": "error"
    },
    {
      "inputs": [
        {
          "internalType": "address",
          "name": "account",
          "type": "address"
        }
      ],
      "name": "AddressInsufficientBalance",
      "type": "error"
    },
    {
      "inputs": [],
      "name": "FailedInnerCall",
      "type": "error"
    },
    {
      "inputs": [],
      "name": "ReentrancyGuardReentrantCall",
      "type": "error"
    },
    {
      "inputs": [
        {
          "internalType": "address",
          "name": "token",
          "type": "address"
        }
      ],
      "name": "SafeERC20FailedOperation",
      "type": "error"
    },
    {
      "anonymous": false,
      "inputs": [
        {
          "indexed": true,
          "internalType": "address",
          "name": "prevController",
          "type": "address"
        },
        {
          "indexed": true,
          "internalType": "address",
          "name": "newController",
          "type": "address"
        }
      ],
      "name": "ControllerChanged",
      "type": "event"
    },
    {
      "anonymous": false,
      "inputs": [
        {
          "indexed": true,
          "internalType": "address",
          "name": "provider",
          "type": "address"
        },
        {
          "indexed": false,
          "internalType": "uint256",
          "name": "value",
          "type": "uint256"
        },
        {
          "indexed": true,
          "internalType": "uint256",
          "name": "locktime",
          "type": "uint256"
        },
        {
          "indexed": false,
          "internalType": "uint256",
          "name": "_type",
          "type": "uint256"
        },
        {
          "indexed": false,
          "internalType": "uint256",
          "name": "ts",
          "type": "uint256"
        }
      ],
      "name": "Deposited",
      "type": "event"
    },
    {
      "anonymous": false,
      "inputs": [
        {
          "indexed": false,
          "internalType": "address",
          "name": "admin",
          "type": "address"
        }
      ],
      "name": "OwnershipApplied",
      "type": "event"
    },
    {
      "anonymous": false,
      "inputs": [
        {
          "indexed": false,
          "internalType": "address",
          "name": "admin",
          "type": "address"
        }
      ],
      "name": "OwnershipCommited",
      "type": "event"
    },
    {
      "anonymous": false,
      "inputs": [
        {
          "indexed": true,
          "internalType": "bytes32",
          "name": "role",
          "type": "bytes32"
        },
        {
          "indexed": true,
          "internalType": "bytes32",
          "name": "previousAdminRole",
          "type": "bytes32"
        },
        {
          "indexed": true,
          "internalType": "bytes32",
          "name": "newAdminRole",
          "type": "bytes32"
        }
      ],
      "name": "RoleAdminChanged",
      "type": "event"
    },
    {
      "anonymous": false,
      "inputs": [
        {
          "indexed": true,
          "internalType": "bytes32",
          "name": "role",
          "type": "bytes32"
        },
        {
          "indexed": true,
          "internalType": "address",
          "name": "account",
          "type": "address"
        },
        {
          "indexed": true,
          "internalType": "address",
          "name": "sender",
          "type": "address"
        }
      ],
      "name": "RoleGranted",
      "type": "event"
    },
    {
      "anonymous": false,
      "inputs": [
        {
          "indexed": true,
          "internalType": "bytes32",
          "name": "role",
          "type": "bytes32"
        },
        {
          "indexed": true,
          "internalType": "address",
          "name": "account",
          "type": "address"
        },
        {
          "indexed": true,
          "internalType": "address",
          "name": "sender",
          "type": "address"
        }
      ],
      "name": "RoleRevoked",
      "type": "event"
    },
    {
      "anonymous": false,
      "inputs": [
        {
          "indexed": false,
          "internalType": "uint256",
          "name": "prevSupply",
          "type": "uint256"
        },
        {
          "indexed": false,
          "internalType": "uint256",
          "name": "supply",
          "type": "uint256"
        }
      ],
      "name": "Supply",
      "type": "event"
    },
    {
      "anonymous": false,
      "inputs": [
        {
          "indexed": false,
          "internalType": "address",
          "name": "newSmartWalletChecker",
          "type": "address"
        }
      ],
      "name": "WalletCommited",
      "type": "event"
    },
    {
      "anonymous": false,
      "inputs": [
        {
          "indexed": true,
          "internalType": "address",
          "name": "provider",
          "type": "address"
        },
        {
          "indexed": false,
          "internalType": "uint256",
          "name": "value",
          "type": "uint256"
        },
        {
          "indexed": false,
          "internalType": "uint256",
          "name": "timeStamp",
          "type": "uint256"
        }
      ],
      "name": "Withdrew",
      "type": "event"
    },
    {
      "inputs": [],
      "name": "CONTROLLER_ROLE",
      "outputs": [
        {
          "internalType": "bytes32",
          "name": "",
          "type": "bytes32"
        }
      ],
      "stateMutability": "view",
      "type": "function"
    },
    {
      "inputs": [],
      "name": "CREATE_LOCK_TYPE",
      "outputs": [
        {
          "internalType": "uint256",
          "name": "",
          "type": "uint256"
        }
      ],
      "stateMutability": "view",
      "type": "function"
    },
    {
      "inputs": [],
      "name": "DEFAULT_ADMIN_ROLE",
      "outputs": [
        {
          "internalType": "bytes32",
          "name": "",
          "type": "bytes32"
        }
      ],
      "stateMutability": "view",
      "type": "function"
    },
    {
      "inputs": [],
      "name": "DEPOSIT_FOR_TYPE",
      "outputs": [
        {
          "internalType": "uint256",
          "name": "",
          "type": "uint256"
        }
      ],
      "stateMutability": "view",
      "type": "function"
    },
    {
      "inputs": [],
      "name": "INCREASE_LOCK_AMOUNT",
      "outputs": [
        {
          "internalType": "uint256",
          "name": "",
          "type": "uint256"
        }
      ],
      "stateMutability": "view",
      "type": "function"
    },
    {
      "inputs": [],
      "name": "INCREASE_UNLOCK_TIME",
      "outputs": [
        {
          "internalType": "uint256",
          "name": "",
          "type": "uint256"
        }
      ],
      "stateMutability": "view",
      "type": "function"
    },
    {
      "inputs": [],
      "name": "INCREASE_UNLOCK_TIME_AND_LOCK_AMOUNT",
      "outputs": [
        {
          "internalType": "uint256",
          "name": "",
          "type": "uint256"
        }
      ],
      "stateMutability": "view",
      "type": "function"
    },
    {
      "inputs": [],
      "name": "MAXTIME",
      "outputs": [
        {
          "internalType": "uint256",
          "name": "",
          "type": "uint256"
        }
      ],
      "stateMutability": "view",
      "type": "function"
    },
    {
      "inputs": [],
      "name": "MULTIPLIER",
      "outputs": [
        {
          "internalType": "uint256",
          "name": "",
          "type": "uint256"
        }
      ],
      "stateMutability": "view",
      "type": "function"
    },
    {
      "inputs": [],
      "name": "WEEK",
      "outputs": [
        {
          "internalType": "uint256",
          "name": "",
          "type": "uint256"
        }
      ],
      "stateMutability": "view",
      "type": "function"
    },
    {
      "inputs": [],
      "name": "admin",
      "outputs": [
        {
          "internalType": "address",
          "name": "",
          "type": "address"
        }
      ],
      "stateMutability": "view",
      "type": "function"
    },
    {
      "inputs": [],
      "name": "applySmartWalletChecker",
      "outputs": [],
      "stateMutability": "nonpayable",
      "type": "function"
    },
    {
      "inputs": [],
      "name": "applyTransferOwnership",
      "outputs": [],
      "stateMutability": "nonpayable",
      "type": "function"
    },
    {
      "inputs": [
        {
          "internalType": "address",
          "name": "_user",
          "type": "address"
        }
      ],
      "name": "balanceOf",
      "outputs": [
        {
          "internalType": "uint256",
          "name": "",
          "type": "uint256"
        }
      ],
      "stateMutability": "view",
      "type": "function"
    },
    {
      "inputs": [
        {
          "internalType": "address",
          "name": "_user",
          "type": "address"
        },
        {
          "internalType": "uint256",
          "name": "_block",
          "type": "uint256"
        }
      ],
      "name": "balanceOfAtBlock",
      "outputs": [
        {
          "internalType": "uint256",
          "name": "",
          "type": "uint256"
        }
      ],
      "stateMutability": "view",
      "type": "function"
    },
    {
      "inputs": [
        {
          "internalType": "address",
          "name": "_user",
          "type": "address"
        },
        {
          "internalType": "uint256",
          "name": "_t",
          "type": "uint256"
        }
      ],
      "name": "balanceOfAtTime",
      "outputs": [
        {
          "internalType": "uint256",
          "name": "",
          "type": "uint256"
        }
      ],
      "stateMutability": "view",
      "type": "function"
    },
    {
      "inputs": [
        {
          "internalType": "address",
          "name": "_newController",
          "type": "address"
        }
      ],
      "name": "changeController",
      "outputs": [],
      "stateMutability": "nonpayable",
      "type": "function"
    },
    {
      "inputs": [],
      "name": "checkpoint",
      "outputs": [],
      "stateMutability": "nonpayable",
      "type": "function"
    },
    {
      "inputs": [
        {
          "internalType": "address",
          "name": "_user",
          "type": "address"
        }
      ],
      "name": "commitSmartWalletChecker",
      "outputs": [],
      "stateMutability": "nonpayable",
      "type": "function"
    },
    {
      "inputs": [
        {
          "internalType": "address",
          "name": "_user",
          "type": "address"
        }
      ],
      "name": "commitTransferOwnership",
      "outputs": [],
      "stateMutability": "nonpayable",
      "type": "function"
    },
    {
      "inputs": [],
      "name": "controller",
      "outputs": [
        {
          "internalType": "address",
          "name": "",
          "type": "address"
        }
      ],
      "stateMutability": "view",
      "type": "function"
    },
    {
      "inputs": [
        {
          "internalType": "uint256",
          "name": "_value",
          "type": "uint256"
        },
        {
          "internalType": "uint256",
          "name": "_unlockTime",
          "type": "uint256"
        }
      ],
      "name": "createLock",
      "outputs": [],
      "stateMutability": "nonpayable",
      "type": "function"
    },
    {
      "inputs": [
        {
          "internalType": "address",
          "name": "",
          "type": "address"
        }
      ],
      "name": "createLockTs",
      "outputs": [
        {
          "internalType": "uint256",
          "name": "",
          "type": "uint256"
        }
      ],
      "stateMutability": "view",
      "type": "function"
    },
    {
      "inputs": [],
      "name": "decimals",
      "outputs": [
        {
          "internalType": "uint256",
          "name": "",
          "type": "uint256"
        }
      ],
      "stateMutability": "view",
      "type": "function"
    },
    {
      "inputs": [
        {
          "internalType": "address",
          "name": "_user",
          "type": "address"
        },
        {
          "internalType": "uint256",
          "name": "_value",
          "type": "uint256"
        }
      ],
      "name": "depositFor",
      "outputs": [],
      "stateMutability": "nonpayable",
      "type": "function"
    },
    {
      "inputs": [],
      "name": "epoch",
      "outputs": [
        {
          "internalType": "uint256",
          "name": "",
          "type": "uint256"
        }
      ],
      "stateMutability": "view",
      "type": "function"
    },
    {
      "inputs": [],
      "name": "futureAdmin",
      "outputs": [
        {
          "internalType": "address",
          "name": "",
          "type": "address"
        }
      ],
      "stateMutability": "view",
      "type": "function"
    },
    {
      "inputs": [],
      "name": "futureSmartWalletChecker",
      "outputs": [
        {
          "internalType": "address",
          "name": "",
          "type": "address"
        }
      ],
      "stateMutability": "view",
      "type": "function"
    },
    {
      "inputs": [
        {
          "internalType": "address",
          "name": "_user",
          "type": "address"
        }
      ],
      "name": "getLastUserSlope",
      "outputs": [
        {
          "internalType": "int256",
          "name": "",
          "type": "int256"
        }
      ],
      "stateMutability": "view",
      "type": "function"
    },
    {
      "inputs": [
        {
          "internalType": "bytes32",
          "name": "role",
          "type": "bytes32"
        }
      ],
      "name": "getRoleAdmin",
      "outputs": [
        {
          "internalType": "bytes32",
          "name": "",
          "type": "bytes32"
        }
      ],
      "stateMutability": "view",
      "type": "function"
    },
    {
      "inputs": [
        {
          "internalType": "bytes32",
          "name": "role",
          "type": "bytes32"
        },
        {
          "internalType": "address",
          "name": "account",
          "type": "address"
        }
      ],
      "name": "grantRole",
      "outputs": [],
      "stateMutability": "nonpayable",
      "type": "function"
    },
    {
      "inputs": [
        {
          "internalType": "bytes32",
          "name": "role",
          "type": "bytes32"
        },
        {
          "internalType": "address",
          "name": "account",
          "type": "address"
        }
      ],
      "name": "hasRole",
      "outputs": [
        {
          "internalType": "bool",
          "name": "",
          "type": "bool"
        }
      ],
      "stateMutability": "view",
      "type": "function"
    },
    {
      "inputs": [
        {
          "internalType": "uint256",
          "name": "_value",
          "type": "uint256"
        }
      ],
      "name": "increaseAmount",
      "outputs": [],
      "stateMutability": "nonpayable",
      "type": "function"
    },
    {
      "inputs": [
        {
          "internalType": "uint256",
          "name": "_value",
          "type": "uint256"
        },
        {
          "internalType": "uint256",
          "name": "_unlockTime",
          "type": "uint256"
        }
      ],
      "name": "increaseAmountAndUnlockTime",
      "outputs": [],
      "stateMutability": "nonpayable",
      "type": "function"
    },
    {
      "inputs": [
        {
          "internalType": "uint256",
          "name": "_unlockTime",
          "type": "uint256"
        }
      ],
      "name": "increaseUnlockTime",
      "outputs": [],
      "stateMutability": "nonpayable",
      "type": "function"
    },
    {
      "inputs": [
        {
          "internalType": "address",
          "name": "",
          "type": "address"
        }
      ],
      "name": "locked",
      "outputs": [
        {
          "internalType": "int256",
          "name": "amount",
          "type": "int256"
        },
        {
          "internalType": "uint256",
          "name": "end",
          "type": "uint256"
        }
      ],
      "stateMutability": "view",
      "type": "function"
    },
    {
      "inputs": [
        {
          "internalType": "address",
          "name": "_user",
          "type": "address"
        }
      ],
      "name": "lockedEnd",
      "outputs": [
        {
          "internalType": "uint256",
          "name": "",
          "type": "uint256"
        }
      ],
      "stateMutability": "view",
      "type": "function"
    },
    {
      "inputs": [],
      "name": "name",
      "outputs": [
        {
          "internalType": "string",
          "name": "",
          "type": "string"
        }
      ],
      "stateMutability": "view",
      "type": "function"
    },
    {
      "inputs": [
        {
          "internalType": "uint256",
          "name": "",
          "type": "uint256"
        }
      ],
      "name": "pointHistory",
      "outputs": [
        {
          "internalType": "int256",
          "name": "bias",
          "type": "int256"
        },
        {
          "internalType": "int256",
          "name": "slope",
          "type": "int256"
        },
        {
          "internalType": "uint256",
          "name": "timeStamp",
          "type": "uint256"
        },
        {
          "internalType": "uint256",
          "name": "blockNumber",
          "type": "uint256"
        }
      ],
      "stateMutability": "view",
      "type": "function"
    },
    {
      "inputs": [
        {
          "internalType": "bytes32",
          "name": "role",
          "type": "bytes32"
        },
        {
          "internalType": "address",
          "name": "callerConfirmation",
          "type": "address"
        }
      ],
      "name": "renounceRole",
      "outputs": [],
      "stateMutability": "nonpayable",
      "type": "function"
    },
    {
      "inputs": [
        {
          "internalType": "bytes32",
          "name": "role",
          "type": "bytes32"
        },
        {
          "internalType": "address",
          "name": "account",
          "type": "address"
        }
      ],
      "name": "revokeRole",
      "outputs": [],
      "stateMutability": "nonpayable",
      "type": "function"
    },
    {
      "inputs": [
        {
          "internalType": "uint256",
          "name": "",
          "type": "uint256"
        }
      ],
      "name": "slopeChanges",
      "outputs": [
        {
          "internalType": "uint256",
          "name": "",
          "type": "uint256"
        }
      ],
      "stateMutability": "view",
      "type": "function"
    },
    {
      "inputs": [],
      "name": "smartWalletChecker",
      "outputs": [
        {
          "internalType": "address",
          "name": "",
          "type": "address"
        }
      ],
      "stateMutability": "view",
      "type": "function"
    },
    {
      "inputs": [],
      "name": "supply",
      "outputs": [
        {
          "internalType": "uint256",
          "name": "",
          "type": "uint256"
        }
      ],
      "stateMutability": "view",
      "type": "function"
    },
    {
      "inputs": [
        {
          "internalType": "bytes4",
          "name": "interfaceId",
          "type": "bytes4"
        }
      ],
      "name": "supportsInterface",
      "outputs": [
        {
          "internalType": "bool",
          "name": "",
          "type": "bool"
        }
      ],
      "stateMutability": "view",
      "type": "function"
    },
    {
      "inputs": [],
      "name": "symbol",
      "outputs": [
        {
          "internalType": "string",
          "name": "",
          "type": "string"
        }
      ],
      "stateMutability": "view",
      "type": "function"
    },
    {
      "inputs": [],
      "name": "token",
      "outputs": [
        {
          "internalType": "address",
          "name": "",
          "type": "address"
        }
      ],
      "stateMutability": "view",
      "type": "function"
    },
    {
      "inputs": [],
      "name": "totalSupply",
      "outputs": [
        {
          "internalType": "uint256",
          "name": "",
          "type": "uint256"
        }
      ],
      "stateMutability": "view",
      "type": "function"
    },
    {
      "inputs": [
        {
          "internalType": "uint256",
          "name": "_block",
          "type": "uint256"
        }
      ],
      "name": "totalSupplyAtBlock",
      "outputs": [
        {
          "internalType": "uint256",
          "name": "",
          "type": "uint256"
        }
      ],
      "stateMutability": "view",
      "type": "function"
    },
    {
      "inputs": [
        {
          "internalType": "uint256",
          "name": "_t",
          "type": "uint256"
        }
      ],
      "name": "totalSupplyAtTime",
      "outputs": [
        {
          "internalType": "uint256",
          "name": "",
          "type": "uint256"
        }
      ],
      "stateMutability": "view",
      "type": "function"
    },
    {
      "inputs": [],
      "name": "transfersEnabled",
      "outputs": [
        {
          "internalType": "bool",
          "name": "",
          "type": "bool"
        }
      ],
      "stateMutability": "view",
      "type": "function"
    },
    {
      "inputs": [
        {
          "internalType": "address",
          "name": "",
          "type": "address"
        }
      ],
      "name": "userPointEpoch",
      "outputs": [
        {
          "internalType": "uint256",
          "name": "",
          "type": "uint256"
        }
      ],
      "stateMutability": "view",
      "type": "function"
    },
    {
      "inputs": [
        {
          "internalType": "address",
          "name": "",
          "type": "address"
        },
        {
          "internalType": "uint256",
          "name": "",
          "type": "uint256"
        }
      ],
      "name": "userPointHistory",
      "outputs": [
        {
          "internalType": "int256",
          "name": "bias",
          "type": "int256"
        },
        {
          "internalType": "int256",
          "name": "slope",
          "type": "int256"
        },
        {
          "internalType": "uint256",
          "name": "timeStamp",
          "type": "uint256"
        },
        {
          "internalType": "uint256",
          "name": "blockNumber",
          "type": "uint256"
        }
      ],
      "stateMutability": "view",
      "type": "function"
    },
    {
      "inputs": [
        {
          "internalType": "address",
          "name": "_user",
          "type": "address"
        },
        {
          "internalType": "uint256",
          "name": "_idx",
          "type": "uint256"
        }
      ],
      "name": "userPointHistoryTs",
      "outputs": [
        {
          "internalType": "uint256",
          "name": "",
          "type": "uint256"
        }
      ],
      "stateMutability": "view",
      "type": "function"
    },
    {
      "inputs": [],
      "name": "version",
      "outputs": [
        {
          "internalType": "string",
          "name": "",
          "type": "string"
        }
      ],
      "stateMutability": "view",
      "type": "function"
    },
    {
      "inputs": [],
      "name": "withdraw",
      "outputs": [],
      "stateMutability": "nonpayable",
      "type": "function"
    }
  ],
  "transactionHash": "0xe44ef2c483a0321d911138621a541fe92cb571fab56964bb2f3b9bbce4b4fefd",
  "args": [
    "0x172160B1C9BD74D683e1EbaE0EdD96a6fEA9A6Eb",
    "Vote Escrowed SYNTH",
    "veSYNTH",
    "1"
  ],
  "numDeployments": 1,
  "solcInputHash": "f58dc2b4ef153854f03218d27f7038b6",
  "bytecode": "0x60808060405234620005525762003dc48038038091620000208285620005a9565b8339810190608081830312620005525780516001600160a01b0381169190829003620005525760208181015190936001600160401b039290918381116200055257826200006f918301620005e3565b9060408101518481116200055257836200008b918301620005e3565b9260608201518581116200055257620000a59201620005e3565b6001808055600a80546001600160a01b031990811633908117909255600c8054909116881790554360115542601055600d80546001600160a81b03191660ff60a01b1990921691909117600160a01b17905560405163313ce56760e01b81526004979196829082908a9082905afa9081156200059d5760009162000557575b5060ff1660ff81116200055257600590815583518681116200045257600254948886811c9616801562000547575b8487101462000532578190601f96878111620004dd575b508490878311600114620004735760009262000467575b5050600019600383901b1c191690881b176002555b8451868111620004525760039586548981811c9116801562000447575b858210146200043257908187849311620003de575b50849087831160011462000377576000926200036b575b505060001982881b1c191690881b1785555b825195861162000356578754908782811c921680156200034b575b838310146200033657848211620002ed575b5050809285116001146200027f575093839491849260009562000273575b50501b92600019911b1c19161790555b620002563362000659565b506200026233620006d9565b5060405161362890816200077c8239f35b0151935038806200023b565b92919084601f1981168860005285600020956000905b89838310620002d25750505010620002b7575b50505050811b0190556200024b565b01519060f884600019921b161c1916905538808080620002a8565b85870151895590970196948501948893509081019062000295565b88600052826000209085808901821c830193858a106200032c575b01901c019087905b8281106200031f57506200021d565b6000815501879062000310565b9350829362000308565b602289634e487b7160e01b6000525260246000fd5b91607f16916200020b565b604188634e487b7160e01b6000525260246000fd5b015190503880620001de565b908a9350601f1983169189600052866000209260005b88828210620003c75750508411620003ae575b505050811b018555620001f0565b0151600019838a1b60f8161c19169055388080620003a0565b8385015186558e979095019493840193016200038d565b909150876000528460002087808501861c82019287861062000428575b918c918695949301871c01915b82811062000418575050620001c7565b600081558594508c910162000408565b92508192620003fb565b60228b634e487b7160e01b6000525260246000fd5b90607f1690620001b2565b604189634e487b7160e01b6000525260246000fd5b01519050388062000180565b908a9350601f198316916002600052866000209260005b88828210620004c65750508411620004ac575b505050811b0160025562000195565b015160001960f88460031b161c191690553880806200049d565b8385015186558e979095019493840193016200048a565b90915060026000528460002087808501861c82019287861062000528575b918c918695949301871c01915b8281106200051857505062000169565b600081558594508c910162000508565b92508192620004fb565b60228a634e487b7160e01b6000525260246000fd5b95607f169562000152565b600080fd5b8281813d831162000595575b6200056f8183620005a9565b810103126200059157519060ff821682036200058e575060ff62000124565b80fd5b5080fd5b503d62000563565b6040513d6000823e3d90fd5b601f909101601f19168101906001600160401b03821190821017620005cd57604052565b634e487b7160e01b600052604160045260246000fd5b919080601f84011215620005525782516001600160401b038111620005cd57602090604051926200061e83601f19601f8501160185620005a9565b818452828287010111620005525760005b8181106200064557508260009394955001015290565b85810183015184820184015282016200062f565b6001600160a01b031660008181527fad3228b676f7d3cd4284a5443f17f1962b36e491b30a40b2405849e597ba5fb5602052604081205490919060ff16620006d557818052816020526040822081835260205260408220600160ff19825416179055339160008051602062003da48339815191528180a4600190565b5090565b6001600160a01b031660008181527fd4b1ef424fcb83dce82b8e6790fbd9bbcd76978bd34427cec18daa7ab216754360205260408120549091907f7b765e0e932d348852a6f810bfa1ab891e259123f02db8cdcde614c5702233579060ff166200077657808352826020526040832082845260205260408320600160ff1982541617905560008051602062003da4833981519152339380a4600190565b50509056fe60c060408181526004918236101561001657600080fd5b600092833560e01c91826301ffc9a7146120e257508163047fc9aa146120c3578163059f8b16146120a057816306fdde0314611fdf5781630840578814611fc2578163092c5b3b14611f8757816315456eba14611e1d578163155bcbbd14611df557816318160ddd14611dd7578163248a9ca314611dad5781632f2ff15d14611d835781632f4f21e214611ba25781633037408d14611b79578163313ce56714611b5a57816334d901a414611ad157816336568abe14611a725781633a0af6bf14611a565781633ccfd60b146118a35781633cebb823146117a25781634cb654af1461177a5781634d144a011461113e5781634deafcae1461173457816354fd4d501461163d578163701b40631461161457816370a08231146115ec5781637b39ecd5146115d05781637c616fe6146113db5781637df14854146113b357816381fc83bb146113705781638ad4c44714611305578163900cf0cf146112e657816391d14854146112a15781639586900d1461125e57816395d89b4114611159578163a217fddf1461113e578163b52c05fe14610e9b578163bb65e8db14610cb4578163bef97c8714610c8d578163c2c4c5c114610956578163cbf9fe5f14610909578163d28d5944146108ed578163d2dcd933146108cd578163d3006d8e146106da578163d4cfd62714610653578163d547741f14610614578163df0ab9d314610540578163e1cebf0b146104b3578163eac6a6671461046b578163ee00ef3a1461044c578163f0818583146103bf578163f3a6d6081461035b578163f4359ce51461033d578163f52a36f71461030557508063f77c4791146102de578063f851a440146102b75763fc0c546a1461028d57600080fd5b346102b357816003193601126102b3576020906001600160a01b03600c54169051908152f35b5080fd5b50346102b357816003193601126102b3576020906001600160a01b03600a54169051908152f35b50346102b357816003193601126102b3576020906001600160a01b03600d54169051908152f35b9050346103395760206003193601126103395760209282913581526c050c783eb9b5c85f2a80000012845220549051908152f35b8280fd5b5050346102b357816003193601126102b3576020905162093a808152f35b5050346102b35760206003193601126102b35760016103b56020936001600160a01b03610386612270565b1681526c050c783eb9b5c85f2a8000001185528380822054916c050c783eb9b5c85f2a80000010875220612286565b5001549051908152f35b5050346102b35760206003193601126102b35760207fd51f14a3b8bff946e1ff30178457f3a775892d9abfcbff540a5c225dffb0e9dd916001600160a01b03610406612270565b858052858452828620338752845261042360ff8488205416612862565b16908173ffffffffffffffffffffffffffffffffffffffff19600854161760085551908152a180f35b5050346102b357816003193601126102b35760209051630784ce008152f35b5050346102b357806003193601126102b35760026103b56020936001600160a01b03610495612270565b1681526c050c783eb9b5c85f2a800000108552836024359120612286565b5050346102b35760206003193601126102b35760207fa3240ed8b91b2b9b457d36eea99b631317688960891cf3efa12666ce6a8e4252916001600160a01b036104fa612270565b858052858452828620338752845261051760ff8488205416612862565b16908173ffffffffffffffffffffffffffffffffffffffff19600b541617600b5551908152a180f35b919050346103395782600319360112610339578280528260205280832033845260205261057260ff8285205416612862565b6001600160a01b03600b54169182156105d25750816020917fe15d3667144affcc7767a528cb267dc271fe6bcc6bd1237f826d4c71a7834d809373ffffffffffffffffffffffffffffffffffffffff19600a541617600a5551908152a180f35b6020606492519162461bcd60e51b8352820152601b60248201527f566f74696e67457363726f773a2041646d696e206e6f742073657400000000006044820152fd5b9190503461033957806003193601126103395761064f913561064a6001610639612255565b938387528660205286200154612a7b565b612d44565b5080f35b5050346102b357816003193601126102b35760207fd51f14a3b8bff946e1ff30178457f3a775892d9abfcbff540a5c225dffb0e9dd9183805283825280842033855282526106a660ff8286205416612862565b6001600160a01b0360085416908173ffffffffffffffffffffffffffffffffffffffff19600954161760095551908152a180f35b8284346108ca5760206003193601126108ca57823543811161086157600754906107048282613305565b6c01431e0fae6d7217caa000000093848210156107e15761072a8260021b600e01612489565b948194831060001461080757600183018093116107f4578210156107e15750602095509161078b91610765610791959460021b600e01612489565b6060850190878251606083019485518203610798575b5050505050505b8483015161245c565b906133ac565b9051908152f35b6107d696506107c6926107b36107d09695936107c093612439565b9201518b8a015190612439565b906124bb565b9251905190612439565b90612469565b86808087818061077b565b80603288634e487b7160e01b6024945252fd5b60248260118a634e487b7160e01b835252fd5b50505060209450829161078b91606061079195019081519043820361082f575b505050610782565b61085993506108446107d09261085192612439565b6107c08988015142612439565b915143612439565b868080610827565b608484602085519162461bcd60e51b8352820152602260248201527f566f74696e67457363726f773a20496e76616c696420426c6f636b204e756d6260448201527f65720000000000000000000000000000000000000000000000000000000000006064820152fd5b80fd5b8284346108ca5760206003193601126108ca575061079160209235612a3a565b5050346102b357816003193601126102b3576020905160018152f35b5050346102b35760206003193601126102b35780916001600160a01b0361092e612270565b1681526c050c783eb9b5c85f2a8000000e602052206001815491015482519182526020820152f35b8383346102b357816003193601126102b357805161097381612180565b82815282602080920152826020835161098b81612180565b8281520152610998612dba565b506109a1612dba565b50600754908251906109b2826121b2565b84825284602083015242848301526060914360608201529383610c4e575b808501918251928793804211610c01575b949392919062093a809283808804028a975b60ff8910610a64575b505050505050505050806007556c01431e0fae6d7217caa0000000811015610a515790610a4e9160021b600e019060606003918051845560208101516001850155604081015160028501550151910155565b80f35b602483603286634e487b7160e01b835252fd5b858201809211610bee578b90828293428111600014610bca575050818c81610ab542965b610aac8451610aa68d870198610aa08a51918d612439565b906124ce565b9061250d565b84528551612a1e565b9182855281815112610bc2575b505012610bba575b50508091818452878b0198610afd8a51670de0b6b3a7640000610af6610af08780612439565b8c6124bb565b049061245c565b8a52600190818c01809c11610ba5578b428503610b305750505050505050505050504390528480808080808080806109fc565b909192939495969798999a506c01431e0fae6d7217caa0000000811015610b90578c610b819160021b600e019060606003918051845560208101516001850155604081015160028501550151910155565b019796959493929091906109f3565b505060248c60328f634e487b7160e01b835252fd5b505060248c60118f634e487b7160e01b835252fd5b528a8d610aca565b52818e610ac2565b90935082526c050c783eb9b5c85f2a800000128652818c81610ab587822054610a88565b60248c60118f634e487b7160e01b835252fd5b9350610c11606088015143612439565b670de0b6b3a76400009080820291820403610c3b57610c35906107d0835142612439565b936109e1565b60248960118c634e487b7160e01b835252fd5b93506c01431e0fae6d7217caa0000000831015610c7a57610c748360021b600e01612489565b936109d0565b602485603288634e487b7160e01b835252fd5b5050346102b357816003193601126102b35760209060ff600d5460a01c1690519015158152f35b8383346102b357610cc4366122b3565b90610ccd6128ad565b610cd633612900565b3384526c050c783eb9b5c85f2a8000000e9060209180835284862062093a80809504858102958187041490151715610e885782151590610d15826122c9565b610d218882541361233a565b610d3b6001820154610d344282116123aa565b8711612780565b630784ce004201804211610c3b5791610d87610e26959492610d827f5e2aa66efd74cce82b21852e317e5490d9ecc9e6bb953ae24d90851258cc2f5c9b9c958a11156127f1565b61241b565b9160065497610d96868a61245c565b600655610db96fffffffffffffffffffffffffffffffff8716600f0b8551612a1e565b845280610e7e575b50338b528652610de4888b20928051845587810193600185519101558033612ddf565b610e37575b51908651908382528582015242878201527fe3b53cd1a44fbf11535e145d80b8ef1ed6d57a73bf5daa7e939b6b01657d654960603392a38361245c565b908351928352820152a16001805580f35b610e796001600160a01b03600c54168851906323b872dd60e01b8883015233602483015230604483015285606483015260648252610e74826121ce565b61347f565b610de9565b878401528b610dc1565b60248760118a634e487b7160e01b835252fd5b8383346102b357610eab366122b3565b90610eb46128ad565b610ebd33612900565b62093a8080920482810292818404149015171561112b573384526c050c783eb9b5c85f2a8000000e9060209180835284862082151590610efc826122c9565b80546110c3574286111561105b57630784ce00428101809111610c3b577f5e2aa66efd74cce82b21852e317e5490d9ecc9e6bb953ae24d90851258cc2f5c989950610e2694939291610f53610f70928911156127f1565b338b526c050c783eb9b5c85f2a8000000f875242898c205561241b565b9160065496610f7f858961245c565b600655610fa26fffffffffffffffffffffffffffffffff8616600f0b8551612a1e565b845280611051575b50338a528552610fcd878a20928051845586810193600185519101558033612ddf565b61100f575b51855182815260018582015242878201527fe3b53cd1a44fbf11535e145d80b8ef1ed6d57a73bf5daa7e939b6b01657d654960603392a38361245c565b61104c6001600160a01b03600c54168751906323b872dd60e01b8783015233602483015230604483015284606483015260648252610e74826121ce565b610fd2565b868401528a610faa565b6084898689519162461bcd60e51b8352820152603660248201527f566f74696e67457363726f773a2043616e206f6e6c79206c6f636b20756e746960448201527f6c20612074696d6520696e2074686520667574757265000000000000000000006064820152fd5b6084898689519162461bcd60e51b8352820152602760248201527f566f74696e67457363726f773a205769746864726177206f6c6420746f6b656e60448201527f73206669727374000000000000000000000000000000000000000000000000006064820152fd5b602484601187634e487b7160e01b835252fd5b5050346102b357816003193601126102b35751908152602090f35b9190503461033957826003193601126103395780519183600354906001908260011c92600181168015611254575b6020958686108214611241575084885290811561121f57506001146111c6575b6111c286866111b8828b03836121ea565b519182918261220d565b0390f35b929550600383527fc2575a0e9e593c00f959f8c92f12db2869c3395a3b0502d05e2516446f71f85b5b82841061120c57505050826111c2946111b89282010194386111a7565b80548685018801529286019281016111ef565b60ff191687860152505050151560051b83010192506111b8826111c2386111a7565b836022602492634e487b7160e01b835252fd5b93607f1693611187565b5050346102b35760206003193601126102b357806020926001600160a01b03611285612270565b1681526c050c783eb9b5c85f2a8000000f845220549051908152f35b9050346103395781600319360112610339578160209360ff926112c2612255565b903582528186526001600160a01b0383832091168252855220541690519015158152f35b5050346102b357816003193601126102b3576020906007549051908152f35b839150346102b35760206003193601126102b35735906c01431e0fae6d7217caa00000008210156108ca575060021b906111c282600e015491600f84015493601160108201549101549151948594859094939260609260808301968352602083015260408201520152565b5050346102b35760206003193601126102b357806020926001600160a01b03611397612270565b1681526c050c783eb9b5c85f2a80000011845220549051908152f35b5050346102b357816003193601126102b3576020906001600160a01b03600954169051908152f35b8383346102b357602080600319360112610339576113f76128ad565b61140033612900565b3383526c050c783eb9b5c85f2a8000000e8082528284209062093a8091828735048381029381850414901517156115bd5760018101544281111561157b57868254131561153957611452908411612780565b630784ce004201804211610e885790610d82611470928511156127f1565b6006548151909391929190878112801516611526577f5e2aa66efd74cce82b21852e317e5490d9ecc9e6bb953ae24d90851258cc2f5c97985083528061151c575b5033875283526114d4848720918051835584810192600184519101558033612ddf565b51835186815260038482015242858201527fe3b53cd1a44fbf11535e145d80b8ef1ed6d57a73bf5daa7e939b6b01657d654960603392a3825191818352820152a16001805580f35b84830152876114b1565b60248860118b634e487b7160e01b835252fd5b6064888688519162461bcd60e51b8352820152601f60248201527f566f74696e67457363726f773a204e6f7468696e67206973206c6f636b6564006044820152fd5b6064888688519162461bcd60e51b8352820152601a60248201527f566f74696e67457363726f773a204c6f636b20657870697265640000000000006044820152fd5b602486601189634e487b7160e01b835252fd5b5050346102b357816003193601126102b3576020905160038152f35b5050346102b35760206003193601126102b35760209061079161160d612270565b4290612c04565b5050346102b357806003193601126102b357602090610791611634612270565b60243590612526565b8383346102b357816003193601126102b35780519180938054916001908360011c926001851694851561172a575b6020958686108114611717578589529081156116f3575060011461169b575b6111c287876111b8828c03836121ea565b81529295507f8a35acfbc15ff81a39ae7d344fd709f28e8600b4aa8c65c6b64bfe7fe36bd19b5b8284106116e057505050826111c2946111b89282010194868061168a565b80548685018801529286019281016116c2565b60ff19168887015250505050151560051b83010192506111b8826111c2868061168a565b602484602285634e487b7160e01b835252fd5b93607f169361166b565b5050346102b35760206003193601126102b3576001816020936001600160a01b0361175d612270565b1681526c050c783eb9b5c85f2a8000000e85522001549051908152f35b5050346102b357816003193601126102b3576020906001600160a01b03600b54169051908152f35b905034610339576020600319360112610339576117bd612270565b917f7b765e0e932d348852a6f810bfa1ab891e259123f02db8cdcde614c57022335784528360205280842033855260205260ff81852054161561186057836001600160a01b038461180d33612c99565b5061181781612ad8565b50168073ffffffffffffffffffffffffffffffffffffffff19600d541617600d55337f6aef1fb5b23d0e109fc7f2b0601019e1edbacd177e31a441ec8548e8dd14f0f78380a380f35b906020606492519162461bcd60e51b8352820152601c60248201527f566f74696e67457363726f773a20496e76616c69642043616c6c6572000000006044820152fd5b8383346102b357816003193601126102b3576118bd6128ad565b33825260206c050c783eb9b5c85f2a8000000e8152818320936001850190815442106119ef575061193a85857f5e2aa66efd74cce82b21852e317e5490d9ecc9e6bb953ae24d90851258cc2f5c969754935586815561191e83600654612439565b60065561193361192d8261241b565b9161241b565b9033612ddf565b61198a6001600160a01b03600c54168451907fa9059cbb000000000000000000000000000000000000000000000000000000008583015233602483015283604483015260448252610e74826121b2565b3385526c050c783eb9b5c85f2a8000000f82528483812055825181815242838201527fadec52fcd1408589179b85e44b434374db078b4eaf793e7d1a1bb0ae4ecfeee5843392a26119de600654918261245c565b918351928352820152a16001805580f35b6084908385519162461bcd60e51b83528201526024808201527f566f74696e67457363726f773a20546865206c6f636b206469646e277420657860448201527f70697265000000000000000000000000000000000000000000000000000000006064820152fd5b5050346102b357816003193601126102b3576020905160028152f35b8383346102b357806003193601126102b357611a8c612255565b90336001600160a01b03831603611aa9575061064f919235612d44565b8390517f6697b232000000000000000000000000000000000000000000000000000000008152fd5b5050346102b357806003193601126102b357611aeb612270565b6001600160a01b03602435911683526c050c783eb9b5c85f2a80000010602052818320633b9aca00821015611b565790611b2491612286565b508054600182015460028301546003909301549351918252602082015260408101919091526060810191909152608090f35b8380fd5b5050346102b357816003193601126102b3576020906005549051908152f35b5050346102b357806003193601126102b357602090610791611b99612270565b60243590612c04565b8383346102b357806003193601126102b357611bbc612270565b60243590611bc86128ad565b6001600160a01b0390818116918286526c050c783eb9b5c85f2a8000000e602097818952611bf787892061241b565b908615611d1b575092611ce08693611cae8a8c9895611c4c829e8a7f5e2aa66efd74cce82b21852e317e5490d9ecc9e6bb953ae24d90851258cc2f5c9f611c4390610e269d511361233a565b015142106123aa565b868252808a528b611c5e81842061241b565b928392611c6e6006549e8f61245c565b600655611c916fffffffffffffffffffffffffffffffff8c16600f0b8551612a1e565b84528982528c522095815187558a82019660018851910155612ddf565b600c54168851906323b872dd60e01b8883015284602483015230604483015285606483015260648252610e74826121ce565b51907fe3b53cd1a44fbf11535e145d80b8ef1ed6d57a73bf5daa7e939b6b01657d6549606088518581528b88820152428a820152a38361245c565b6084908a89519162461bcd60e51b8352820152602160248201527f566f74696e67457363726f773a204e656564206e6f6e2d7a65726f2076616c7560448201527f65000000000000000000000000000000000000000000000000000000000000006064820152fd5b9190503461033957806003193601126103395761064f9135611da86001610639612255565b612b8a565b90503461033957602060031936011261033957816020936001923581528085522001549051908152f35b5050346102b357816003193601126102b35760209061079142612a3a565b5050346102b357816003193601126102b3576020906001600160a01b03600854169051908152f35b9190503461033957602080600319360112611b56577f5e2aa66efd74cce82b21852e317e5490d9ecc9e6bb953ae24d90851258cc2f5c923590611e5e6128ad565b611e6733612900565b338552610e266c050c783eb9b5c85f2a8000000e92838352848720611ead82151591611e92836122c9565b611e9e8a82541361233a565b610d82600182015442106123aa565b9060065495611ebc848861245c565b600655611edf6fffffffffffffffffffffffffffffffff8516600f0b8451612a1e565b8352338a528552611f03878a20928051845586810193600185519101558033612ddf565b611f45575b51855182815260028582015242878201527fe3b53cd1a44fbf11535e145d80b8ef1ed6d57a73bf5daa7e939b6b01657d654960603392a38361245c565b611f826001600160a01b03600c54168751906323b872dd60e01b8783015233602483015230604483015284606483015260648252610e74826121ce565b611f08565b5050346102b357816003193601126102b357602090517f7b765e0e932d348852a6f810bfa1ab891e259123f02db8cdcde614c5702233578152f35b919050346103395782600319360112610339576020925051908152f35b9190503461033957826003193601126103395780519183600254906001908260011c92600181168015612096575b6020958686108214611241575084885290811561121f575060011461203d576111c286866111b8828b03836121ea565b929550600283527f405787fa12a823e0f2b7631cc41b3ba8828b3321ca811111fa75cd3aa3bb5ace5b82841061208357505050826111c2946111b89282010194386111a7565b8054868501880152928601928101612066565b93607f169361200d565b5050346102b357816003193601126102b35760209051670de0b6b3a76400008152f35b5050346102b357816003193601126102b3576020906006549051908152f35b84913461033957602060031936011261033957357fffffffff00000000000000000000000000000000000000000000000000000000811680910361033957602092507f7965db0b000000000000000000000000000000000000000000000000000000008114908115612156575b5015158152f35b7f01ffc9a7000000000000000000000000000000000000000000000000000000009150148361214f565b6040810190811067ffffffffffffffff82111761219c57604052565b634e487b7160e01b600052604160045260246000fd5b6080810190811067ffffffffffffffff82111761219c57604052565b60a0810190811067ffffffffffffffff82111761219c57604052565b90601f601f19910116810190811067ffffffffffffffff82111761219c57604052565b60208082528251818301819052939260005b85811061224157505050601f19601f8460006040809697860101520116010190565b81810183015184820160400152820161221f565b602435906001600160a01b038216820361226b57565b600080fd5b600435906001600160a01b038216820361226b57565b90633b9aca0081101561229d5760021b0190600090565b634e487b7160e01b600052603260045260246000fd5b600319604091011261226b576004359060243590565b156122d057565b608460405162461bcd60e51b815260206004820152602160248201527f566f74696e67457363726f773a206e656564206e6f6e2d7a65726f2076616c7560448201527f65000000000000000000000000000000000000000000000000000000000000006064820152fd5b1561234157565b608460405162461bcd60e51b8152602060048201526024808201527f566f74696e67457363726f773a204e6f206578697374696e67206c6f636b206660448201527f6f756e64000000000000000000000000000000000000000000000000000000006064820152fd5b156123b157565b608460405162461bcd60e51b815260206004820152603560248201527f566f74696e67457363726f773a2043616e6e6f742061646420746f20616e206560448201527f787069726564206c6f636b2e20576974686472617700000000000000000000006064820152fd5b9060405161242881612180565b602060018294805484520154910152565b9190820391821161244657565b634e487b7160e01b600052601160045260246000fd5b9190820180921161244657565b8115612473570490565b634e487b7160e01b600052601260045260246000fd5b90604051612496816121b2565b6060600382948054845260018101546020850152600281015460408501520154910152565b8181029291811591840414171561244657565b8181029291600082127f800000000000000000000000000000000000000000000000000000000000000082141661244657818405149015171561244657565b8181039291600013801582851316918412161761244657565b43821161273c576001600160a01b031660008181526c050c783eb9b5c85f2a80000011602090815260408083205490939183915b608083106126c1575b5050506125919161258b916000526c050c783eb9b5c85f2a8000001060205283600020612286565b50612489565b91600754916125a08383613305565b6c01431e0fae6d7217caa00000008082101561229d576125c58260021b600e01612489565b9482101561269257600182018092116124465781101561229d5761264e93612647936125f961263e9360021b600e01612489565b9061261e856126116060850151606087015190612439565b9301518685015190612439565b905b858401519383612663575b5050505060208601519286015190612439565b600f0b906124ce565b825161250d565b908190526000811261265d5790565b50600090565b612683926107c0612689969593606061267e94015190612439565b612469565b9061245c565b3880808061262b565b505061263e83612647936126ad606061264e97015143612439565b906126bb8584015142612439565b90612620565b90919381811015612736576126d6828261245c565b6001808201809211612446571c90846000526c050c783eb9b5c85f2a800000108452876003612708848a600020612286565b5001541161271e5750600190945b01919061255a565b94915060001981019081116124465760019091612716565b93612563565b606460405162461bcd60e51b815260206004820152601d60248201527f566f74696e67457363726f773a2057726f6e6720636f6e646974696f6e0000006044820152fd5b1561278757565b608460405162461bcd60e51b815260206004820152602d60248201527f566f74696e67457363726f773a2043616e206f6e6c7920696e6372656173652060448201527f6c6f636b206475726174696f6e000000000000000000000000000000000000006064820152fd5b156127f857565b608460405162461bcd60e51b815260206004820152602c60248201527f566f74696e67457363726f773a20566f74696e67206c6f636b2063616e20626560448201527f2034207965617273206d617800000000000000000000000000000000000000006064820152fd5b1561286957565b606460405162461bcd60e51b815260206004820152601860248201527f566f74696e67457363726f773a2061646d696e206f6e6c7900000000000000006044820152fd5b6002600154146128be576002600155565b60046040517f3ee5aeb5000000000000000000000000000000000000000000000000000000008152fd5b9081602091031261226b5751801515810361226b5790565b6001600160a01b0380911690328203612917575050565b60095416908161298c575b608460405162461bcd60e51b815260206004820152603360248201527f566f74696e67457363726f773a20536d61727420636f6e74726163742064657060448201527f6f7369746f7273206e6f7420616c6c6f776564000000000000000000000000006064820152fd5b600091602460209260405194859384927fc23697a800000000000000000000000000000000000000000000000000000000845260048401525af1908115612a12576000916129e3575b506129e1578080612922565b565b612a05915060203d602011612a0b575b6129fd81836121ea565b8101906128e8565b386129d5565b503d6129f3565b6040513d6000823e3d90fd5b9190916000838201938412911290801582169115161761244657565b8015612a74575b600754906c01431e0fae6d7217caa000000082101561229d57612a6c612a719260021b600e01612489565b6133ac565b90565b5042612a41565b80600052600060205260406000203360005260205260ff6040600020541615612aa15750565b604490604051907fe2517d3f0000000000000000000000000000000000000000000000000000000082523360048301526024820152fd5b6001600160a01b031660008181527fd4b1ef424fcb83dce82b8e6790fbd9bbcd76978bd34427cec18daa7ab216754360205260408120549091907f7b765e0e932d348852a6f810bfa1ab891e259123f02db8cdcde614c5702233579060ff16612b8557808352826020526040832082845260205260408320600160ff198254161790557f2f8788117e7eff1d82e926ec794901d17c78024a50270940304540a733656f0d339380a4600190565b505090565b90600091808352826020526001600160a01b036040842092169182845260205260ff60408420541615600014612b8557808352826020526040832082845260205260408320600160ff198254161790557f2f8788117e7eff1d82e926ec794901d17c78024a50270940304540a733656f0d339380a4600190565b8115612c91575b6001600160a01b031660009081526c050c783eb9b5c85f2a80000011602052604081205480612c3a5750905090565b612c7e612c77612c6261258b85946c050c783eb9b5c85f2a8000001060205260408620612286565b94610aa0602087015191604088015190612439565b845161250d565b80845212612c8b57505190565b81525190565b429150612c0b565b6001600160a01b031660008181527fd4b1ef424fcb83dce82b8e6790fbd9bbcd76978bd34427cec18daa7ab216754360205260408120549091907f7b765e0e932d348852a6f810bfa1ab891e259123f02db8cdcde614c5702233579060ff1615612b855780835282602052604083208284526020526040832060ff1981541690557ff6391f5c32d9c69d2a47ea670b442974b53935d1edc7fd64eb21e047a839171b339380a4600190565b90600091808352826020526001600160a01b036040842092169182845260205260ff604084205416600014612b855780835282602052604083208284526020526040832060ff1981541690557ff6391f5c32d9c69d2a47ea670b442974b53935d1edc7fd64eb21e047a839171b339380a4600190565b60405190612dc7826121b2565b60006060838281528260208201528260408201520152565b9091612de9612dba565b612df1612dba565b60805260009182916001600160a01b0360075495169586151580613232575b6040968751612e1e816121b2565b60008152602060a052600060a051820152428982015243606082015281613208575b8881018051906000908242116131ce575b9062093a8080808504026000945b60ff861061308e575b5050505050508282600755613024575b6c01431e0fae6d7217caa000000082101561229d57612ebc9160021b600e019060606003918051845560208101516001850155604081015160028501550151910155565b612eca575b50505050505050565b60a051019342855111612fce575b505060a0510191825190428211612f8c575b50505050816000526c050c783eb9b5c85f2a8000001160a05152612f43816000206001815401809155826080510192428452606060805101944386526000526c050c783eb9b5c85f2a8000001060a05152600020612286565b929092612f765760039160805151845560a051608051015160018501555160028401555191015538808080808080612ec1565b634e487b7160e01b600052600060045260246000fd5b5110612f9a575b8080612eea565b60a0516080510151612fab9161250d565b90516000526c050c783eb9b5c85f2a8000001260a0515281600020553880612f93565b612fdd9160a051015190612a1e565b60a05182015184511461300e575b83516000526c050c783eb9b5c85f2a8000001260a0515284600020553880612ed8565b60a051608051015161301f9161250d565b612feb565b600061303d60a051608051015160a0518801519061250d565b61304d60a0518401918251612a1e565b81526130686130616080515189519061250d565b8451612a1e565b9081845282815112613085575b501215612e785760008152612e78565b82905238613075565b828201809211612446576000918f81428111156131aa5750505060006130d342935b6130ca8a51610aa660a0518d0196610aa08851918a612439565b8a528351612a1e565b808352818951126131a2575b12613198575b50809381815260608701956131118751670de0b6b3a7640000610af661310b8780612439565b896124bb565b8752600190818a01809a11612446578942850361313e575050505050505050439052388080808080612e68565b9091929394959697506c01431e0fae6d7217caa000000081101561229d578861318c9160021b600e019060606003918051845560208101516001850155604081015160028501550151910155565b01929190939294612e5f565b60009052386130e5565b8189526130df565b90846130d39260009496526c050c783eb9b5c85f2a8000001260a0515220546130b0565b90506131de606084015143612439565b670de0b6b3a7640000908082029182040361244657613202906107d0835142612439565b90612e51565b506c01431e0fae6d7217caa000000081101561229d5761322d8160021b600e01612489565b612e40565b6020820180514210806132fb575b6132d8575b6040602086019742895111806132ce575b6132a7575b825181526c050c783eb9b5c85f2a80000012602052205496519081613282575b5050612e10565b51919550908103613298575084935b388061327b565b60005260406000205493613291565b6132c5630784ce008851058060206080510152610aa0428c51612439565b6080515261325b565b5080875113613256565b6132f4630784ce00845105806020870152610aa0428451612439565b8452613245565b5086835113613240565b600091906000915b6080831061331c575b50505090565b909192818110156133a657613331828261245c565b906001918281018091116124465780831c926c01431e0fae6d7217caa000000084101561229d571b600319166011908101548510613378575050600190935b01919061330d565b909492506000198201918211613392575060019091613370565b634e487b7160e01b60005260045260246000fd5b92613316565b906040906040830162093a8091828251048381029080820485149015171561244657936000945b60ff86106133f7575b50505050505060008151126133ef575190565b600081525190565b84810180911161244657600090808481111561345c57505082955b602088016134306134298251610aa089518c612439565b8a5161250d565b895284881461345557613449600193600f0b8251612a1e565b905286855201946133d3565b50506133dc565b918391979281526c050c783eb9b5c85f2a800000126020522054600f0b90613412565b6001600160a01b031690600080826020829451910182865af13d15613552573d67ffffffffffffffff811161353e576040516134dc9392916134cb601f8201601f1916602001836121ea565b8152809260203d92013e5b8361355f565b8051908115159182613523575b50506134f25750565b602490604051907f5274afe70000000000000000000000000000000000000000000000000000000082526004820152fd5b61353692506020809183010191016128e8565b1538806134e9565b602483634e487b7160e01b81526041600452fd5b6134dc91506060906134d6565b9061359e575080511561357457805190602001fd5b60046040517f1425ea42000000000000000000000000000000000000000000000000000000008152fd5b815115806135e9575b6135af575090565b6024906001600160a01b03604051917f9996b315000000000000000000000000000000000000000000000000000000008352166004820152fd5b50803b156135a756fea26469706673582212207c5145567eac1ba3789a37f9e9c156dc29b4acac940515281b22f868dc805af564736f6c634300081800332f8788117e7eff1d82e926ec794901d17c78024a50270940304540a733656f0d",
  "devdoc": {
    "errors": {
      "AccessControlBadConfirmation()": [
        {
          "details": "The caller of a function is not the expected one. NOTE: Don't confuse with {AccessControlUnauthorizedAccount}."
        }
      ],
      "AccessControlUnauthorizedAccount(address,bytes32)": [
        {
          "details": "The `account` is missing a role."
        }
      ],
      "AddressEmptyCode(address)": [
        {
          "details": "There's no code at `target` (it is not a contract)."
        }
      ],
      "AddressInsufficientBalance(address)": [
        {
          "details": "The ETH balance of the account is not enough to perform the operation."
        }
      ],
      "FailedInnerCall()": [
        {
          "details": "A call to an address target failed. The target may have reverted."
        }
      ],
      "ReentrancyGuardReentrantCall()": [
        {
          "details": "Unauthorized reentrant call."
        }
      ],
      "SafeERC20FailedOperation(address)": [
        {
          "details": "An operation with an ERC20 token failed."
        }
      ]
    },
    "events": {
      "RoleAdminChanged(bytes32,bytes32,bytes32)": {
        "details": "Emitted when `newAdminRole` is set as ``role``'s admin role, replacing `previousAdminRole` `DEFAULT_ADMIN_ROLE` is the starting admin for all roles, despite {RoleAdminChanged} not being emitted signaling this."
      },
      "RoleGranted(bytes32,address,address)": {
        "details": "Emitted when `account` is granted `role`. `sender` is the account that originated the contract call, an admin role bearer except when using {AccessControl-_setupRole}."
      },
      "RoleRevoked(bytes32,address,address)": {
        "details": "Emitted when `account` is revoked `role`. `sender` is the account that originated the contract call:   - if using `revokeRole`, it is the admin role bearer   - if using `renounceRole`, it is the role bearer (i.e. `account`)"
      }
    },
    "kind": "dev",
    "methods": {
      "getRoleAdmin(bytes32)": {
        "details": "Returns the admin role that controls `role`. See {grantRole} and {revokeRole}. To change a role's admin, use {_setRoleAdmin}."
      },
      "grantRole(bytes32,address)": {
        "details": "Grants `role` to `account`. If `account` had not been already granted `role`, emits a {RoleGranted} event. Requirements: - the caller must have ``role``'s admin role. May emit a {RoleGranted} event."
      },
      "hasRole(bytes32,address)": {
        "details": "Returns `true` if `account` has been granted `role`."
      },
      "renounceRole(bytes32,address)": {
        "details": "Revokes `role` from the calling account. Roles are often managed via {grantRole} and {revokeRole}: this function's purpose is to provide a mechanism for accounts to lose their privileges if they are compromised (such as when a trusted device is misplaced). If the calling account had been revoked `role`, emits a {RoleRevoked} event. Requirements: - the caller must be `callerConfirmation`. May emit a {RoleRevoked} event."
      },
      "revokeRole(bytes32,address)": {
        "details": "Revokes `role` from `account`. If `account` had been granted `role`, emits a {RoleRevoked} event. Requirements: - the caller must have ``role``'s admin role. May emit a {RoleRevoked} event."
      },
      "supportsInterface(bytes4)": {
        "details": "See {IERC165-supportsInterface}."
      }
    },
    "version": 1
  },
  "userdoc": {
    "kind": "user",
    "methods": {},
    "version": 1
  },
  "storageLayout": {
    "storage": [
      {
        "astId": 26,
        "contract": "contracts/VotingEscrow.sol:VotingEscrow",
        "label": "_roles",
        "offset": 0,
        "slot": "0",
        "type": "t_mapping(t_bytes32,t_struct(RoleData)21_storage)"
      },
      {
        "astId": 1754,
        "contract": "contracts/VotingEscrow.sol:VotingEscrow",
        "label": "_status",
        "offset": 0,
        "slot": "1",
        "type": "t_uint256"
      },
      {
        "astId": 1916,
        "contract": "contracts/VotingEscrow.sol:VotingEscrow",
        "label": "name",
        "offset": 0,
        "slot": "2",
        "type": "t_string_storage"
      },
      {
        "astId": 1918,
        "contract": "contracts/VotingEscrow.sol:VotingEscrow",
        "label": "symbol",
        "offset": 0,
        "slot": "3",
        "type": "t_string_storage"
      },
      {
        "astId": 1920,
        "contract": "contracts/VotingEscrow.sol:VotingEscrow",
        "label": "version",
        "offset": 0,
        "slot": "4",
        "type": "t_string_storage"
      },
      {
        "astId": 1922,
        "contract": "contracts/VotingEscrow.sol:VotingEscrow",
        "label": "decimals",
        "offset": 0,
        "slot": "5",
        "type": "t_uint256"
      },
      {
        "astId": 1924,
        "contract": "contracts/VotingEscrow.sol:VotingEscrow",
        "label": "supply",
        "offset": 0,
        "slot": "6",
        "type": "t_uint256"
      },
      {
        "astId": 1926,
        "contract": "contracts/VotingEscrow.sol:VotingEscrow",
        "label": "epoch",
        "offset": 0,
        "slot": "7",
        "type": "t_uint256"
      },
      {
        "astId": 1928,
        "contract": "contracts/VotingEscrow.sol:VotingEscrow",
        "label": "futureSmartWalletChecker",
        "offset": 0,
        "slot": "8",
        "type": "t_address"
      },
      {
        "astId": 1930,
        "contract": "contracts/VotingEscrow.sol:VotingEscrow",
        "label": "smartWalletChecker",
        "offset": 0,
        "slot": "9",
        "type": "t_address"
      },
      {
        "astId": 1932,
        "contract": "contracts/VotingEscrow.sol:VotingEscrow",
        "label": "admin",
        "offset": 0,
        "slot": "10",
        "type": "t_address"
      },
      {
        "astId": 1934,
        "contract": "contracts/VotingEscrow.sol:VotingEscrow",
        "label": "futureAdmin",
        "offset": 0,
        "slot": "11",
        "type": "t_address"
      },
      {
        "astId": 1936,
        "contract": "contracts/VotingEscrow.sol:VotingEscrow",
        "label": "token",
        "offset": 0,
        "slot": "12",
        "type": "t_address"
      },
      {
        "astId": 1938,
        "contract": "contracts/VotingEscrow.sol:VotingEscrow",
        "label": "controller",
        "offset": 0,
        "slot": "13",
        "type": "t_address"
      },
      {
        "astId": 1940,
        "contract": "contracts/VotingEscrow.sol:VotingEscrow",
        "label": "transfersEnabled",
        "offset": 20,
        "slot": "13",
        "type": "t_bool"
      },
      {
        "astId": 1945,
        "contract": "contracts/VotingEscrow.sol:VotingEscrow",
        "label": "pointHistory",
        "offset": 0,
        "slot": "14",
        "type": "t_array(t_struct(Point)1909_storage)100000000000000000000000000000_storage"
      },
      {
        "astId": 1950,
        "contract": "contracts/VotingEscrow.sol:VotingEscrow",
        "label": "locked",
        "offset": 0,
        "slot": "400000000000000000000000000014",
        "type": "t_mapping(t_address,t_struct(LockedBalance)1914_storage)"
      },
      {
        "astId": 1954,
        "contract": "contracts/VotingEscrow.sol:VotingEscrow",
        "label": "createLockTs",
        "offset": 0,
        "slot": "400000000000000000000000000015",
        "type": "t_mapping(t_address,t_uint256)"
      },
      {
        "astId": 1961,
        "contract": "contracts/VotingEscrow.sol:VotingEscrow",
        "label": "userPointHistory",
        "offset": 0,
        "slot": "400000000000000000000000000016",
        "type": "t_mapping(t_address,t_array(t_struct(Point)1909_storage)1000000000_storage)"
      },
      {
        "astId": 1965,
        "contract": "contracts/VotingEscrow.sol:VotingEscrow",
        "label": "userPointEpoch",
        "offset": 0,
        "slot": "400000000000000000000000000017",
        "type": "t_mapping(t_address,t_uint256)"
      },
      {
        "astId": 1969,
        "contract": "contracts/VotingEscrow.sol:VotingEscrow",
        "label": "slopeChanges",
        "offset": 0,
        "slot": "400000000000000000000000000018",
        "type": "t_mapping(t_uint256,t_uint256)"
      }
    ],
    "types": {
      "t_address": {
        "encoding": "inplace",
        "label": "address",
        "numberOfBytes": "20"
      },
      "t_array(t_struct(Point)1909_storage)100000000000000000000000000000_storage": {
        "base": "t_struct(Point)1909_storage",
        "encoding": "inplace",
        "label": "struct VotingEscrow.Point[100000000000000000000000000000]",
        "numberOfBytes": "12800000000000000000000000000000"
      },
      "t_array(t_struct(Point)1909_storage)1000000000_storage": {
        "base": "t_struct(Point)1909_storage",
        "encoding": "inplace",
        "label": "struct VotingEscrow.Point[1000000000]",
        "numberOfBytes": "128000000000"
      },
      "t_bool": {
        "encoding": "inplace",
        "label": "bool",
        "numberOfBytes": "1"
      },
      "t_bytes32": {
        "encoding": "inplace",
        "label": "bytes32",
        "numberOfBytes": "32"
      },
      "t_int256": {
        "encoding": "inplace",
        "label": "int256",
        "numberOfBytes": "32"
      },
      "t_mapping(t_address,t_array(t_struct(Point)1909_storage)1000000000_storage)": {
        "encoding": "mapping",
        "key": "t_address",
        "label": "mapping(address => struct VotingEscrow.Point[1000000000])",
        "numberOfBytes": "32",
        "value": "t_array(t_struct(Point)1909_storage)1000000000_storage"
      },
      "t_mapping(t_address,t_bool)": {
        "encoding": "mapping",
        "key": "t_address",
        "label": "mapping(address => bool)",
        "numberOfBytes": "32",
        "value": "t_bool"
      },
      "t_mapping(t_address,t_struct(LockedBalance)1914_storage)": {
        "encoding": "mapping",
        "key": "t_address",
        "label": "mapping(address => struct VotingEscrow.LockedBalance)",
        "numberOfBytes": "32",
        "value": "t_struct(LockedBalance)1914_storage"
      },
      "t_mapping(t_address,t_uint256)": {
        "encoding": "mapping",
        "key": "t_address",
        "label": "mapping(address => uint256)",
        "numberOfBytes": "32",
        "value": "t_uint256"
      },
      "t_mapping(t_bytes32,t_struct(RoleData)21_storage)": {
        "encoding": "mapping",
        "key": "t_bytes32",
        "label": "mapping(bytes32 => struct AccessControl.RoleData)",
        "numberOfBytes": "32",
        "value": "t_struct(RoleData)21_storage"
      },
      "t_mapping(t_uint256,t_uint256)": {
        "encoding": "mapping",
        "key": "t_uint256",
        "label": "mapping(uint256 => uint256)",
        "numberOfBytes": "32",
        "value": "t_uint256"
      },
      "t_string_storage": {
        "encoding": "bytes",
        "label": "string",
        "numberOfBytes": "32"
      },
      "t_struct(LockedBalance)1914_storage": {
        "encoding": "inplace",
        "label": "struct VotingEscrow.LockedBalance",
        "members": [
          {
            "astId": 1911,
            "contract": "contracts/VotingEscrow.sol:VotingEscrow",
            "label": "amount",
            "offset": 0,
            "slot": "0",
            "type": "t_int256"
          },
          {
            "astId": 1913,
            "contract": "contracts/VotingEscrow.sol:VotingEscrow",
            "label": "end",
            "offset": 0,
            "slot": "1",
            "type": "t_uint256"
          }
        ],
        "numberOfBytes": "64"
      },
      "t_struct(Point)1909_storage": {
        "encoding": "inplace",
        "label": "struct VotingEscrow.Point",
        "members": [
          {
            "astId": 1902,
            "contract": "contracts/VotingEscrow.sol:VotingEscrow",
            "label": "bias",
            "offset": 0,
            "slot": "0",
            "type": "t_int256"
          },
          {
            "astId": 1904,
            "contract": "contracts/VotingEscrow.sol:VotingEscrow",
            "label": "slope",
            "offset": 0,
            "slot": "1",
            "type": "t_int256"
          },
          {
            "astId": 1906,
            "contract": "contracts/VotingEscrow.sol:VotingEscrow",
            "label": "timeStamp",
            "offset": 0,
            "slot": "2",
            "type": "t_uint256"
          },
          {
            "astId": 1908,
            "contract": "contracts/VotingEscrow.sol:VotingEscrow",
            "label": "blockNumber",
            "offset": 0,
            "slot": "3",
            "type": "t_uint256"
          }
        ],
        "numberOfBytes": "128"
      },
      "t_struct(RoleData)21_storage": {
        "encoding": "inplace",
        "label": "struct AccessControl.RoleData",
        "members": [
          {
            "astId": 18,
            "contract": "contracts/VotingEscrow.sol:VotingEscrow",
            "label": "hasRole",
            "offset": 0,
            "slot": "0",
            "type": "t_mapping(t_address,t_bool)"
          },
          {
            "astId": 20,
            "contract": "contracts/VotingEscrow.sol:VotingEscrow",
            "label": "adminRole",
            "offset": 0,
            "slot": "1",
            "type": "t_bytes32"
          }
        ],
        "numberOfBytes": "64"
      },
      "t_uint256": {
        "encoding": "inplace",
        "label": "uint256",
        "numberOfBytes": "32"
      }
    }
  }
}