{
  "address": "0xa2669806DFd1057e277Df54aC65F5DFf53CF2EBa",
  "abi": [
    {
      "inputs": [
        {
          "internalType": "address",
          "name": "_tokenAddr",
          "type": "address"
        },
        {
          "internalType": "address",
          "name": "_gaugeController",
          "type": "address"
        },
        {
          "internalType": "string",
          "name": "_name",
          "type": "string"
        },
        {
          "internalType": "string",
          "name": "_symbol",
          "type": "string"
        },
        {
          "internalType": "string",
          "name": "_version",
          "type": "string"
        }
      ],
      "stateMutability": "nonpayable",
      "type": "constructor"
    },
    {
      "inputs": [],
      "name": "AccessControlBadConfirmation",
      "type": "error"
    },
    {
      "inputs": [
        {
          "internalType": "address",
          "name": "account",
          "type": "address"
        },
        {
          "internalType": "bytes32",
          "name": "neededRole",
          "type": "bytes32"
        }
      ],
      "name": "AccessControlUnauthorizedAccount",
      "type": "error"
    },
    {
      "inputs": [
        {
          "internalType": "address",
          "name": "target",
          "type": "address"
        }
      ],
      "name": "AddressEmptyCode",
      "type": "error"
    },
    {
      "inputs": [
        {
          "internalType": "address",
          "name": "account",
          "type": "address"
        }
      ],
      "name": "AddressInsufficientBalance",
      "type": "error"
    },
    {
      "inputs": [],
      "name": "FailedInnerCall",
      "type": "error"
    },
    {
      "inputs": [],
      "name": "ReentrancyGuardReentrantCall",
      "type": "error"
    },
    {
      "inputs": [
        {
          "internalType": "address",
          "name": "token",
          "type": "address"
        }
      ],
      "name": "SafeERC20FailedOperation",
      "type": "error"
    },
    {
      "anonymous": false,
      "inputs": [
        {
          "indexed": true,
          "internalType": "address",
          "name": "prevController",
          "type": "address"
        },
        {
          "indexed": true,
          "internalType": "address",
          "name": "newController",
          "type": "address"
        }
      ],
      "name": "ControllerChanged",
      "type": "event"
    },
    {
      "anonymous": false,
      "inputs": [
        {
          "indexed": true,
          "internalType": "address",
          "name": "provider",
          "type": "address"
        },
        {
          "indexed": false,
          "internalType": "uint256",
          "name": "value",
          "type": "uint256"
        },
        {
          "indexed": true,
          "internalType": "uint256",
          "name": "locktime",
          "type": "uint256"
        },
        {
          "indexed": false,
          "internalType": "uint256",
          "name": "_type",
          "type": "uint256"
        },
        {
          "indexed": false,
          "internalType": "uint256",
          "name": "ts",
          "type": "uint256"
        }
      ],
      "name": "Deposited",
      "type": "event"
    },
    {
      "anonymous": false,
      "inputs": [
        {
          "indexed": true,
          "internalType": "address",
          "name": "newGauge",
          "type": "address"
        }
      ],
      "name": "GaugeUpdated",
      "type": "event"
    },
    {
      "anonymous": false,
      "inputs": [
        {
          "indexed": false,
          "internalType": "address",
          "name": "admin",
          "type": "address"
        }
      ],
      "name": "OwnershipApplied",
      "type": "event"
    },
    {
      "anonymous": false,
      "inputs": [
        {
          "indexed": false,
          "internalType": "address",
          "name": "admin",
          "type": "address"
        }
      ],
      "name": "OwnershipCommited",
      "type": "event"
    },
    {
      "anonymous": false,
      "inputs": [
        {
          "indexed": true,
          "internalType": "bytes32",
          "name": "role",
          "type": "bytes32"
        },
        {
          "indexed": true,
          "internalType": "bytes32",
          "name": "previousAdminRole",
          "type": "bytes32"
        },
        {
          "indexed": true,
          "internalType": "bytes32",
          "name": "newAdminRole",
          "type": "bytes32"
        }
      ],
      "name": "RoleAdminChanged",
      "type": "event"
    },
    {
      "anonymous": false,
      "inputs": [
        {
          "indexed": true,
          "internalType": "bytes32",
          "name": "role",
          "type": "bytes32"
        },
        {
          "indexed": true,
          "internalType": "address",
          "name": "account",
          "type": "address"
        },
        {
          "indexed": true,
          "internalType": "address",
          "name": "sender",
          "type": "address"
        }
      ],
      "name": "RoleGranted",
      "type": "event"
    },
    {
      "anonymous": false,
      "inputs": [
        {
          "indexed": true,
          "internalType": "bytes32",
          "name": "role",
          "type": "bytes32"
        },
        {
          "indexed": true,
          "internalType": "address",
          "name": "account",
          "type": "address"
        },
        {
          "indexed": true,
          "internalType": "address",
          "name": "sender",
          "type": "address"
        }
      ],
      "name": "RoleRevoked",
      "type": "event"
    },
    {
      "anonymous": false,
      "inputs": [
        {
          "indexed": false,
          "internalType": "uint256",
          "name": "prevSupply",
          "type": "uint256"
        },
        {
          "indexed": false,
          "internalType": "uint256",
          "name": "supply",
          "type": "uint256"
        }
      ],
      "name": "Supply",
      "type": "event"
    },
    {
      "anonymous": false,
      "inputs": [
        {
          "indexed": false,
          "internalType": "address",
          "name": "newSmartWalletChecker",
          "type": "address"
        }
      ],
      "name": "WalletCommited",
      "type": "event"
    },
    {
      "anonymous": false,
      "inputs": [
        {
          "indexed": true,
          "internalType": "address",
          "name": "provider",
          "type": "address"
        },
        {
          "indexed": false,
          "internalType": "uint256",
          "name": "value",
          "type": "uint256"
        },
        {
          "indexed": false,
          "internalType": "uint256",
          "name": "timeStamp",
          "type": "uint256"
        }
      ],
      "name": "Withdrew",
      "type": "event"
    },
    {
      "inputs": [],
      "name": "CONTROLLER_ROLE",
      "outputs": [
        {
          "internalType": "bytes32",
          "name": "",
          "type": "bytes32"
        }
      ],
      "stateMutability": "view",
      "type": "function"
    },
    {
      "inputs": [],
      "name": "CREATE_LOCK_TYPE",
      "outputs": [
        {
          "internalType": "uint256",
          "name": "",
          "type": "uint256"
        }
      ],
      "stateMutability": "view",
      "type": "function"
    },
    {
      "inputs": [],
      "name": "DEFAULT_ADMIN_ROLE",
      "outputs": [
        {
          "internalType": "bytes32",
          "name": "",
          "type": "bytes32"
        }
      ],
      "stateMutability": "view",
      "type": "function"
    },
    {
      "inputs": [],
      "name": "DEPOSIT_FOR_TYPE",
      "outputs": [
        {
          "internalType": "uint256",
          "name": "",
          "type": "uint256"
        }
      ],
      "stateMutability": "view",
      "type": "function"
    },
    {
      "inputs": [],
      "name": "INCREASE_LOCK_AMOUNT",
      "outputs": [
        {
          "internalType": "uint256",
          "name": "",
          "type": "uint256"
        }
      ],
      "stateMutability": "view",
      "type": "function"
    },
    {
      "inputs": [],
      "name": "INCREASE_UNLOCK_TIME",
      "outputs": [
        {
          "internalType": "uint256",
          "name": "",
          "type": "uint256"
        }
      ],
      "stateMutability": "view",
      "type": "function"
    },
    {
      "inputs": [],
      "name": "INCREASE_UNLOCK_TIME_AND_LOCK_AMOUNT",
      "outputs": [
        {
          "internalType": "uint256",
          "name": "",
          "type": "uint256"
        }
      ],
      "stateMutability": "view",
      "type": "function"
    },
    {
      "inputs": [],
      "name": "MAXTIME",
      "outputs": [
        {
          "internalType": "uint256",
          "name": "",
          "type": "uint256"
        }
      ],
      "stateMutability": "view",
      "type": "function"
    },
    {
      "inputs": [],
      "name": "MULTIPLIER",
      "outputs": [
        {
          "internalType": "uint256",
          "name": "",
          "type": "uint256"
        }
      ],
      "stateMutability": "view",
      "type": "function"
    },
    {
      "inputs": [],
      "name": "WEEK",
      "outputs": [
        {
          "internalType": "uint256",
          "name": "",
          "type": "uint256"
        }
      ],
      "stateMutability": "view",
      "type": "function"
    },
    {
      "inputs": [],
      "name": "admin",
      "outputs": [
        {
          "internalType": "address",
          "name": "",
          "type": "address"
        }
      ],
      "stateMutability": "view",
      "type": "function"
    },
    {
      "inputs": [],
      "name": "applySmartWalletChecker",
      "outputs": [],
      "stateMutability": "nonpayable",
      "type": "function"
    },
    {
      "inputs": [],
      "name": "applyTransferOwnership",
      "outputs": [],
      "stateMutability": "nonpayable",
      "type": "function"
    },
    {
      "inputs": [
        {
          "internalType": "address",
          "name": "_user",
          "type": "address"
        },
        {
          "internalType": "uint256",
          "name": "_t",
          "type": "uint256"
        }
      ],
      "name": "balanceOf",
      "outputs": [
        {
          "internalType": "uint256",
          "name": "",
          "type": "uint256"
        }
      ],
      "stateMutability": "view",
      "type": "function"
    },
    {
      "inputs": [
        {
          "internalType": "address",
          "name": "_user",
          "type": "address"
        },
        {
          "internalType": "uint256",
          "name": "_block",
          "type": "uint256"
        }
      ],
      "name": "balanceOfAt",
      "outputs": [
        {
          "internalType": "uint256",
          "name": "",
          "type": "uint256"
        }
      ],
      "stateMutability": "view",
      "type": "function"
    },
    {
      "inputs": [
        {
          "internalType": "address",
          "name": "_newController",
          "type": "address"
        }
      ],
      "name": "changeController",
      "outputs": [],
      "stateMutability": "nonpayable",
      "type": "function"
    },
    {
      "inputs": [],
      "name": "checkpoint",
      "outputs": [],
      "stateMutability": "nonpayable",
      "type": "function"
    },
    {
      "inputs": [
        {
          "internalType": "address",
          "name": "_user",
          "type": "address"
        }
      ],
      "name": "commitSmartWalletChecker",
      "outputs": [],
      "stateMutability": "nonpayable",
      "type": "function"
    },
    {
      "inputs": [
        {
          "internalType": "address",
          "name": "_user",
          "type": "address"
        }
      ],
      "name": "commitTransferOwnership",
      "outputs": [],
      "stateMutability": "nonpayable",
      "type": "function"
    },
    {
      "inputs": [],
      "name": "controller",
      "outputs": [
        {
          "internalType": "address",
          "name": "",
          "type": "address"
        }
      ],
      "stateMutability": "view",
      "type": "function"
    },
    {
      "inputs": [
        {
          "internalType": "uint256",
          "name": "_value",
          "type": "uint256"
        },
        {
          "internalType": "uint256",
          "name": "_unlockTime",
          "type": "uint256"
        }
      ],
      "name": "createLock",
      "outputs": [],
      "stateMutability": "nonpayable",
      "type": "function"
    },
    {
      "inputs": [
        {
          "internalType": "address",
          "name": "",
          "type": "address"
        }
      ],
      "name": "createLockTs",
      "outputs": [
        {
          "internalType": "uint256",
          "name": "",
          "type": "uint256"
        }
      ],
      "stateMutability": "view",
      "type": "function"
    },
    {
      "inputs": [],
      "name": "decimals",
      "outputs": [
        {
          "internalType": "uint256",
          "name": "",
          "type": "uint256"
        }
      ],
      "stateMutability": "view",
      "type": "function"
    },
    {
      "inputs": [
        {
          "internalType": "address",
          "name": "_user",
          "type": "address"
        },
        {
          "internalType": "uint256",
          "name": "_value",
          "type": "uint256"
        }
      ],
      "name": "depositFor",
      "outputs": [],
      "stateMutability": "nonpayable",
      "type": "function"
    },
    {
      "inputs": [],
      "name": "epoch",
      "outputs": [
        {
          "internalType": "uint256",
          "name": "",
          "type": "uint256"
        }
      ],
      "stateMutability": "view",
      "type": "function"
    },
    {
      "inputs": [],
      "name": "futureAdmin",
      "outputs": [
        {
          "internalType": "address",
          "name": "",
          "type": "address"
        }
      ],
      "stateMutability": "view",
      "type": "function"
    },
    {
      "inputs": [],
      "name": "futureSmartWalletChecker",
      "outputs": [
        {
          "internalType": "address",
          "name": "",
          "type": "address"
        }
      ],
      "stateMutability": "view",
      "type": "function"
    },
    {
      "inputs": [],
      "name": "gaugeController",
      "outputs": [
        {
          "internalType": "address",
          "name": "",
          "type": "address"
        }
      ],
      "stateMutability": "view",
      "type": "function"
    },
    {
      "inputs": [
        {
          "internalType": "address",
          "name": "_user",
          "type": "address"
        }
      ],
      "name": "getLastUserSlope",
      "outputs": [
        {
          "internalType": "int256",
          "name": "",
          "type": "int256"
        }
      ],
      "stateMutability": "view",
      "type": "function"
    },
    {
      "inputs": [
        {
          "internalType": "bytes32",
          "name": "role",
          "type": "bytes32"
        }
      ],
      "name": "getRoleAdmin",
      "outputs": [
        {
          "internalType": "bytes32",
          "name": "",
          "type": "bytes32"
        }
      ],
      "stateMutability": "view",
      "type": "function"
    },
    {
      "inputs": [
        {
          "internalType": "bytes32",
          "name": "role",
          "type": "bytes32"
        },
        {
          "internalType": "address",
          "name": "account",
          "type": "address"
        }
      ],
      "name": "grantRole",
      "outputs": [],
      "stateMutability": "nonpayable",
      "type": "function"
    },
    {
      "inputs": [
        {
          "internalType": "bytes32",
          "name": "role",
          "type": "bytes32"
        },
        {
          "internalType": "address",
          "name": "account",
          "type": "address"
        }
      ],
      "name": "hasRole",
      "outputs": [
        {
          "internalType": "bool",
          "name": "",
          "type": "bool"
        }
      ],
      "stateMutability": "view",
      "type": "function"
    },
    {
      "inputs": [
        {
          "internalType": "uint256",
          "name": "_value",
          "type": "uint256"
        }
      ],
      "name": "increaseAmount",
      "outputs": [],
      "stateMutability": "nonpayable",
      "type": "function"
    },
    {
      "inputs": [
        {
          "internalType": "uint256",
          "name": "_value",
          "type": "uint256"
        },
        {
          "internalType": "uint256",
          "name": "_unlockTime",
          "type": "uint256"
        }
      ],
      "name": "increaseAmountAndUnlockTime",
      "outputs": [],
      "stateMutability": "nonpayable",
      "type": "function"
    },
    {
      "inputs": [
        {
          "internalType": "uint256",
          "name": "_unlockTime",
          "type": "uint256"
        }
      ],
      "name": "increaseUnlockTime",
      "outputs": [],
      "stateMutability": "nonpayable",
      "type": "function"
    },
    {
      "inputs": [
        {
          "internalType": "address",
          "name": "",
          "type": "address"
        }
      ],
      "name": "locked",
      "outputs": [
        {
          "internalType": "int256",
          "name": "amount",
          "type": "int256"
        },
        {
          "internalType": "uint256",
          "name": "end",
          "type": "uint256"
        }
      ],
      "stateMutability": "view",
      "type": "function"
    },
    {
      "inputs": [
        {
          "internalType": "address",
          "name": "_user",
          "type": "address"
        }
      ],
      "name": "lockedEnd",
      "outputs": [
        {
          "internalType": "uint256",
          "name": "",
          "type": "uint256"
        }
      ],
      "stateMutability": "view",
      "type": "function"
    },
    {
      "inputs": [],
      "name": "name",
      "outputs": [
        {
          "internalType": "string",
          "name": "",
          "type": "string"
        }
      ],
      "stateMutability": "view",
      "type": "function"
    },
    {
      "inputs": [
        {
          "internalType": "uint256",
          "name": "",
          "type": "uint256"
        }
      ],
      "name": "pointHistory",
      "outputs": [
        {
          "internalType": "int256",
          "name": "bias",
          "type": "int256"
        },
        {
          "internalType": "int256",
          "name": "slope",
          "type": "int256"
        },
        {
          "internalType": "uint256",
          "name": "timeStamp",
          "type": "uint256"
        },
        {
          "internalType": "uint256",
          "name": "blockNumber",
          "type": "uint256"
        }
      ],
      "stateMutability": "view",
      "type": "function"
    },
    {
      "inputs": [
        {
          "internalType": "bytes32",
          "name": "role",
          "type": "bytes32"
        },
        {
          "internalType": "address",
          "name": "callerConfirmation",
          "type": "address"
        }
      ],
      "name": "renounceRole",
      "outputs": [],
      "stateMutability": "nonpayable",
      "type": "function"
    },
    {
      "inputs": [
        {
          "internalType": "bytes32",
          "name": "role",
          "type": "bytes32"
        },
        {
          "internalType": "address",
          "name": "account",
          "type": "address"
        }
      ],
      "name": "revokeRole",
      "outputs": [],
      "stateMutability": "nonpayable",
      "type": "function"
    },
    {
      "inputs": [
        {
          "internalType": "address",
          "name": "_newController",
          "type": "address"
        }
      ],
      "name": "setGaugeController",
      "outputs": [],
      "stateMutability": "nonpayable",
      "type": "function"
    },
    {
      "inputs": [
        {
          "internalType": "uint256",
          "name": "",
          "type": "uint256"
        }
      ],
      "name": "slopeChanges",
      "outputs": [
        {
          "internalType": "uint256",
          "name": "",
          "type": "uint256"
        }
      ],
      "stateMutability": "view",
      "type": "function"
    },
    {
      "inputs": [],
      "name": "smartWalletChecker",
      "outputs": [
        {
          "internalType": "address",
          "name": "",
          "type": "address"
        }
      ],
      "stateMutability": "view",
      "type": "function"
    },
    {
      "inputs": [],
      "name": "supply",
      "outputs": [
        {
          "internalType": "uint256",
          "name": "",
          "type": "uint256"
        }
      ],
      "stateMutability": "view",
      "type": "function"
    },
    {
      "inputs": [
        {
          "internalType": "bytes4",
          "name": "interfaceId",
          "type": "bytes4"
        }
      ],
      "name": "supportsInterface",
      "outputs": [
        {
          "internalType": "bool",
          "name": "",
          "type": "bool"
        }
      ],
      "stateMutability": "view",
      "type": "function"
    },
    {
      "inputs": [],
      "name": "symbol",
      "outputs": [
        {
          "internalType": "string",
          "name": "",
          "type": "string"
        }
      ],
      "stateMutability": "view",
      "type": "function"
    },
    {
      "inputs": [],
      "name": "token",
      "outputs": [
        {
          "internalType": "address",
          "name": "",
          "type": "address"
        }
      ],
      "stateMutability": "view",
      "type": "function"
    },
    {
      "inputs": [
        {
          "internalType": "uint256",
          "name": "_t",
          "type": "uint256"
        }
      ],
      "name": "totalSupply",
      "outputs": [
        {
          "internalType": "uint256",
          "name": "",
          "type": "uint256"
        }
      ],
      "stateMutability": "view",
      "type": "function"
    },
    {
      "inputs": [
        {
          "internalType": "uint256",
          "name": "_block",
          "type": "uint256"
        }
      ],
      "name": "totalSupplyAt",
      "outputs": [
        {
          "internalType": "uint256",
          "name": "",
          "type": "uint256"
        }
      ],
      "stateMutability": "view",
      "type": "function"
    },
    {
      "inputs": [],
      "name": "transfersEnabled",
      "outputs": [
        {
          "internalType": "bool",
          "name": "",
          "type": "bool"
        }
      ],
      "stateMutability": "view",
      "type": "function"
    },
    {
      "inputs": [
        {
          "internalType": "address",
          "name": "",
          "type": "address"
        }
      ],
      "name": "userPointEpoch",
      "outputs": [
        {
          "internalType": "uint256",
          "name": "",
          "type": "uint256"
        }
      ],
      "stateMutability": "view",
      "type": "function"
    },
    {
      "inputs": [
        {
          "internalType": "address",
          "name": "",
          "type": "address"
        },
        {
          "internalType": "uint256",
          "name": "",
          "type": "uint256"
        }
      ],
      "name": "userPointHistory",
      "outputs": [
        {
          "internalType": "int256",
          "name": "bias",
          "type": "int256"
        },
        {
          "internalType": "int256",
          "name": "slope",
          "type": "int256"
        },
        {
          "internalType": "uint256",
          "name": "timeStamp",
          "type": "uint256"
        },
        {
          "internalType": "uint256",
          "name": "blockNumber",
          "type": "uint256"
        }
      ],
      "stateMutability": "view",
      "type": "function"
    },
    {
      "inputs": [
        {
          "internalType": "address",
          "name": "_user",
          "type": "address"
        },
        {
          "internalType": "uint256",
          "name": "_idx",
          "type": "uint256"
        }
      ],
      "name": "userPointHistoryTs",
      "outputs": [
        {
          "internalType": "uint256",
          "name": "",
          "type": "uint256"
        }
      ],
      "stateMutability": "view",
      "type": "function"
    },
    {
      "inputs": [],
      "name": "version",
      "outputs": [
        {
          "internalType": "string",
          "name": "",
          "type": "string"
        }
      ],
      "stateMutability": "view",
      "type": "function"
    },
    {
      "inputs": [],
      "name": "withdraw",
      "outputs": [],
      "stateMutability": "nonpayable",
      "type": "function"
    }
  ],
  "transactionHash": "0x29b69a8641101784083d827704069b57c3c72ae9ca85d1fc7aade53737b3623e",
  "args": [
    "0x172160B1C9BD74D683e1EbaE0EdD96a6fEA9A6Eb",
    "0xb29Fa09BBd3e083839082611a8a9eE16b4150855",
    "Vote Escrowed SYNTH",
    "veSYNTH",
    "1"
  ],
  "numDeployments": 1,
  "solcInputHash": "6b67800a0edba0eb546cc144245ebead",
  "bytecode": "0x608080604052346200055c57620041748038038091620000208285620005b3565b8339810160a0828203126200055c576200003a82620005ed565b6020926200004a848201620005ed565b604082015190936001600160401b039390918481116200055c57826200007291850162000602565b9160608401518581116200055c57816200008e91860162000602565b936080810151918683116200055c578892620000ab920162000602565b9160019687805560018060a01b03193381600a541617600a5560018060a01b03809316928382600c541617600c55600e549143601255426011553390600d541617600d55600160a01b92169060018060a81b0319161717600e556040519788809263313ce56760e01b825260049a8b915afa908115620005a75760009162000561575b5060ff1660ff81116200055c57600590815583518681116200045c57600254948886811c9616801562000551575b848710146200053c578190601f96878111620004e7575b5084908783116001146200047d5760009262000471575b5050600019600383901b1c191690881b176002555b84518681116200045c5760039586548981811c9116801562000451575b858210146200043c57908187849311620003e8575b508490878311600114620003815760009262000375575b505060001982881b1c191690881b1785555b825195861162000360578754908782811c9216801562000355575b838310146200034057848211620002f7575b5050809285116001146200028957509383949184926000956200027d575b50501b92600019911b1c19161790555b620002603362000678565b506200026c33620006f8565b506040516139b990816200079b8239f35b01519350388062000245565b92919084601f1981168860005285600020956000905b89838310620002dc5750505010620002c1575b50505050811b01905562000255565b01519060f884600019921b161c1916905538808080620002b2565b8587015189559097019694850194889350908101906200029f565b88600052826000209085808901821c830193858a1062000336575b01901c019087905b82811062000329575062000227565b600081550187906200031a565b9350829362000312565b602289634e487b7160e01b6000525260246000fd5b91607f169162000215565b604188634e487b7160e01b6000525260246000fd5b015190503880620001e8565b908a9350601f1983169189600052866000209260005b88828210620003d15750508411620003b8575b505050811b018555620001fa565b0151600019838a1b60f8161c19169055388080620003aa565b8385015186558e9790950194938401930162000397565b909150876000528460002087808501861c82019287861062000432575b918c918695949301871c01915b82811062000422575050620001d1565b600081558594508c910162000412565b9250819262000405565b60228b634e487b7160e01b6000525260246000fd5b90607f1690620001bc565b604189634e487b7160e01b6000525260246000fd5b0151905038806200018a565b908a9350601f198316916002600052866000209260005b88828210620004d05750508411620004b6575b505050811b016002556200019f565b015160001960f88460031b161c19169055388080620004a7565b8385015186558e9790950194938401930162000494565b90915060026000528460002087808501861c82019287861062000532575b918c918695949301871c01915b8281106200052257505062000173565b600081558594508c910162000512565b9250819262000505565b60228a634e487b7160e01b6000525260246000fd5b95607f16956200015c565b600080fd5b8281813d83116200059f575b620005798183620005b3565b810103126200059b57519060ff8216820362000598575060ff6200012e565b80fd5b5080fd5b503d6200056d565b6040513d6000823e3d90fd5b601f909101601f19168101906001600160401b03821190821017620005d757604052565b634e487b7160e01b600052604160045260246000fd5b51906001600160a01b03821682036200055c57565b919080601f840112156200055c5782516001600160401b038111620005d757602090604051926200063d83601f19601f8501160185620005b3565b8184528282870101116200055c5760005b8181106200066457508260009394955001015290565b85810183015184820184015282016200064e565b6001600160a01b031660008181527fad3228b676f7d3cd4284a5443f17f1962b36e491b30a40b2405849e597ba5fb5602052604081205490919060ff16620006f457818052816020526040822081835260205260408220600160ff198254161790553391600080516020620041548339815191528180a4600190565b5090565b6001600160a01b031660008181527fd4b1ef424fcb83dce82b8e6790fbd9bbcd76978bd34427cec18daa7ab216754360205260408120549091907f7b765e0e932d348852a6f810bfa1ab891e259123f02db8cdcde614c5702233579060ff166200079557808352826020526040832082845260205260408320600160ff1982541617905560008051602062004154833981519152339380a4600190565b50509056fe604060c081526004908136101561001557600080fd5b600091823560e01c90816291d2b814612502578162fdd58e146124d957816301ffc9a714612438578163047fc9aa14612419578163059f8b16146123f657816306fdde031461230057816308405788146122e3578163092c5b3b146122a857816315456eba146120a4578163155bcbbd1461207c578163248a9ca3146120525781632f2ff15d146120285781632f4f21e214611dcf578163313ce56714611db057816334d901a414611d2757816336568abe14611cc85781633a0af6bf14611cac5781633ccfd60b14611a6e5781633cebb8231461196b5781634cb654af146119435781634d144a01146111085781634deafcae146118fd5781634ee2cd7e146118d457816354fd4d50146117dc5781637b39ecd5146117c05781637c616fe6146115b25781637df148541461158a57816381fc83bb146115475781638ad4c447146114dc578163900cf0cf146114bd57816391d14854146114775781639586900d1461143457816395d89b411461132e578163981b24d01461114b57816399eecb3b14611123578163a217fddf14611108578163b52c05fe14610db9578163bb65e8db14610b1a578163bd85b03914610ab4578163bef97c8714610a8d578163c2c4c5c114610747578163cbf9fe5f146106fa578163d28d5944146106de578163d4cfd62714610655578163d547741f14610616578163df0ab9d314610540578163e1cebf0b146104b1578163eac6a66714610469578163ee00ef3a1461044a578163f0818583146103bb578163f3a6d60814610357578163f4359ce514610339578163f52a36f71461030157508063f77c4791146102da578063f851a440146102b35763fc0c546a1461028957600080fd5b346102af57816003193601126102af576020906001600160a01b03600c54169051908152f35b5080fd5b50346102af57816003193601126102af576020906001600160a01b03600a54169051908152f35b50346102af57816003193601126102af576020906001600160a01b03600d54169051908152f35b9050346103355760206003193601126103355760209282913581526c050c783eb9b5c85f2a80000013845220549051908152f35b8280fd5b5050346102af57816003193601126102af576020905162093a808152f35b5050346102af5760206003193601126102af5760016103b16020936001600160a01b0361038261256b565b1681526c050c783eb9b5c85f2a8000001285528380822054916c050c783eb9b5c85f2a80000011875220612680565b5001549051908152f35b5050346102af5760206003193601126102af5760207fd51f14a3b8bff946e1ff30178457f3a775892d9abfcbff540a5c225dffb0e9dd916001600160a01b0361040261256b565b85805285845282862033600052845261042160ff846000205416612ce2565b16908173ffffffffffffffffffffffffffffffffffffffff19600854161760085551908152a180f35b5050346102af57816003193601126102af5760209051630784ce008152f35b5050346102af57806003193601126102af5760026103b16020936001600160a01b0361049361256b565b1681526c050c783eb9b5c85f2a800000118552836024359120612680565b5050346102af5760206003193601126102af5760207fa3240ed8b91b2b9b457d36eea99b631317688960891cf3efa12666ce6a8e4252916001600160a01b036104f861256b565b85805285845282862033600052845261051760ff846000205416612ce2565b16908173ffffffffffffffffffffffffffffffffffffffff19600b541617600b5551908152a180f35b91905034610335578260031936011261033557828052826020528083203360005260205261057460ff826000205416612ce2565b6001600160a01b03600b54169182156105d45750816020917fe15d3667144affcc7767a528cb267dc271fe6bcc6bd1237f826d4c71a7834d809373ffffffffffffffffffffffffffffffffffffffff19600a541617600a5551908152a180f35b6020606492519162461bcd60e51b8352820152601b60248201527f566f74696e67457363726f773a2041646d696e206e6f742073657400000000006044820152fd5b91905034610335578060031936011261033557610651913561064c600161063b612581565b938387528660205286200154612eba565b6130ee565b5080f35b5050346102af57816003193601126102af5760207fd51f14a3b8bff946e1ff30178457f3a775892d9abfcbff540a5c225dffb0e9dd918380528382528084203360005282526106aa60ff826000205416612ce2565b6001600160a01b0360085416908173ffffffffffffffffffffffffffffffffffffffff19600954161760095551908152a180f35b5050346102af57816003193601126102af576020905160018152f35b5050346102af5760206003193601126102af5780916001600160a01b0361071f61256b565b1681526c050c783eb9b5c85f2a8000000f602052206001815491015482519182526020820152f35b8383346102af57816003193601126102af578051610764816125c1565b82815282602080920152826020835161077c816125c1565b8281520152610789613164565b50610792613164565b506007549082516107a2816125dd565b600081526000602082015242848201526060904360608201529383610a4c575b808501918251936000938542116109f7575b919060009493945062093a809283808804026000975b60ff891061085d575b505050505050505050806007556c01431e0fae6d7217caa000000081101561084857906108459160021b600f019060606003918051845560208101516001850155604081015160028501550151910155565b80f35b603284634e487b7160e01b6000525260246000fd5b8582018092116109e2576000918881428111156109c05750505060006108ad42935b8d6108a4815161089e8a8401976108988951918b6126f5565b90612718565b90612757565b90528351612e9e565b808352818d51126109b8575b126109ae575b508096818352848b01986108f18a51670de0b6b3a76400006108ea6108e487806126f5565b8c612999565b049061296c565b8a52600190818c01809c11610999578b4285036109245750505050505050505050504390528480808080808080806107f3565b909192939495969798999a506c01431e0fae6d7217caa0000000811015610984578c6109759160021b600f019060606003918051845560208101516001850155604081015160028501550151910155565b019594939291909695976107ea565b60328f634e487b7160e01b6000525260246000fd5b60118f634e487b7160e01b6000525260246000fd5b600090528c6108bf565b818d526108b9565b90846108ad9260009496526c050c783eb9b5c85f2a800000138852205461087f565b60118d634e487b7160e01b6000525260246000fd5b9350610a076060880151436126f5565b670de0b6b3a76400009080820291820403610a3757610a3190610a2b8651426126f5565b90612979565b936107d4565b60118a634e487b7160e01b6000525260246000fd5b93506c01431e0fae6d7217caa0000000831015610a7857610a728360021b600f016126c3565b936107c2565b603286634e487b7160e01b6000525260246000fd5b5050346102af57816003193601126102af5760209060ff600e5460a01c1690519015158152f35b828434610b17576020600319360112610b1757600754906c01431e0fae6d7217caa0000000821015610b045750610afd90610af8602094359160021b600f016126c3565b61373d565b9051908152f35b80603285634e487b7160e01b6024945252fd5b80fd5b8383346102af57610b2a366126ad565b9093610b34612d2d565b610b3d33612d80565b3384526c050c783eb9b5c85f2a8000000f9060209180835284862062093a80809504858102958187041490151715610da65787151590610b7c826127fc565b610b888882541361286d565b610ba26001820154610b9b4282116128dd565b8711612c00565b630784ce004201804211610d935790610bc0610bc592881115612c71565b61294e565b9160065495610bd48a8861296c565b600655610bf76fffffffffffffffffffffffffffffffff8b16600f0b8551612e9e565b845280610d89575b50336000528452610c2486600020928051845585810193600185519101558033613189565b610c9f575b95610c8e917f5e2aa66efd74cce82b21852e317e5490d9ecc9e6bb953ae24d90851258cc2f5c969751908651908382528582015242878201527fe3b53cd1a44fbf11535e145d80b8ef1ed6d57a73bf5daa7e939b6b01657d654960603392a38361296c565b908351928352820152a16001805580f35b6001600160a01b03610ce281600c54168751906323b872dd60e01b878301523360248301523060448301528a606483015260648252610cdd826125f9565b613810565b600e5416803b15610d84578551630df7526560e21b815230848201908152336020820152604081018a905260016060820152909160009183919082908490829060800103925af18015610d795791610c8e93917f5e2aa66efd74cce82b21852e317e5490d9ecc9e6bb953ae24d90851258cc2f5c989993610d6a575b50919796509150610c29565b610d7390612597565b89610d5e565b86513d6000823e3d90fd5b600080fd5b8584015289610bff565b602489601187634e487b7160e01b835252fd5b602487601185634e487b7160e01b835252fd5b8383346102af57610dc9366126ad565b9093610dd3612d2d565b610ddc33612d80565b62093a808092048281029281840414901517156110f5573384526c050c783eb9b5c85f2a8000000f60209181835284862087151590610e1a826127fc565b805461108d574286111561102557630784ce004281018091116110125790610e47610e6492881115612c71565b3389526c050c783eb9b5c85f2a80000010865242888a205561294e565b9260065495610e738a8861296c565b600655610e966fffffffffffffffffffffffffffffffff8b16600f0b8651612e9e565b855280611008575b50336000528452610ec386600020938051855585810194600186519101558033613189565b610f2d575b507f5e2aa66efd74cce82b21852e317e5490d9ecc9e6bb953ae24d90851258cc2f5c9495610c8e9151855182815260018582015242878201527fe3b53cd1a44fbf11535e145d80b8ef1ed6d57a73bf5daa7e939b6b01657d654960603392a38361296c565b6001600160a01b03610f6b81600c54168751906323b872dd60e01b878301523360248301523060448301528a606483015260648252610cdd826125f9565b600e5416803b15610d84578551630df7526560e21b815230928101928352336020840152604083018990526001606084015291600091839182908490829060800103925af18015610ffd57917f5e2aa66efd74cce82b21852e317e5490d9ecc9e6bb953ae24d90851258cc2f5c969791610c8e93610fee575b5091509594610ec8565b610ff790612597565b88610fe4565b85513d6000823e3d90fd5b8585015289610e9e565b602489601186634e487b7160e01b835252fd5b6084838689519162461bcd60e51b8352820152603660248201527f566f74696e67457363726f773a2043616e206f6e6c79206c6f636b20756e746960448201527f6c20612074696d6520696e2074686520667574757265000000000000000000006064820152fd5b6084838689519162461bcd60e51b8352820152602760248201527f566f74696e67457363726f773a205769746864726177206f6c6420746f6b656e60448201527f73206669727374000000000000000000000000000000000000000000000000006064820152fd5b836011602492634e487b7160e01b835252fd5b5050346102af57816003193601126102af5751908152602090f35b5050346102af57816003193601126102af576020906001600160a01b03600e54169051908152f35b828434610b17576020600319360112610b175782354381116112c5576007549061117582826136af565b6c01431e0fae6d7217caa000000093848210156112455761119b8260021b600f016126c3565b948194831060001461126b576001830180931161125857821015611245575060209550916111fc916111d6610afd959460021b600f016126c3565b6060850190878251606083019485518203611202575b5050505050505b8483015161296c565b9061373d565b61123a96506112309261121d610a2b96959361122a936126f5565b9201518b8a0151906126f5565b90612999565b92519051906126f5565b8680808781806111ec565b80603288634e487b7160e01b6024945252fd5b60248260118a634e487b7160e01b835252fd5b5050506020945082916111fc916060610afd950190815190438203611293575b5050506111f3565b6112bd93506112a8610a2b926112b5926126f5565b61122a89880151426126f5565b9151436126f5565b86808061128b565b608484602085519162461bcd60e51b8352820152602260248201527f566f74696e67457363726f773a20496e76616c696420426c6f636b204e756d6260448201527f65720000000000000000000000000000000000000000000000000000000000006064820152fd5b828434610b175780600319360112610b17575080519060009260035460018160011c9160018116801561142a575b602094858510821461141757508387529081156113f7575060011461139c575b50505061138e82611398940383612615565b5191829182612638565b0390f35b600360009081529295507fc2575a0e9e593c00f959f8c92f12db2869c3395a3b0502d05e2516446f71f85b5b8284106113e457505050826113989461138e928201019461137c565b80548685018801529286019281016113c8565b60ff1916868501525050151560051b830101925061138e8261139861137c565b886022602492634e487b7160e01b835252fd5b92607f169261135c565b5050346102af5760206003193601126102af57806020926001600160a01b0361145b61256b565b1681526c050c783eb9b5c85f2a80000010845220549051908152f35b9050346103355781600319360112610335576001600160a01b038260209461149d612581565b93358152808652209116600052825260ff81600020541690519015158152f35b5050346102af57816003193601126102af576020906007549051908152f35b839150346102af5760206003193601126102af5735906c01431e0fae6d7217caa0000000821015610b17575060021b9061139882600f015491601084015493601260118201549101549151948594859094939260609260808301968352602083015260408201520152565b5050346102af5760206003193601126102af57806020926001600160a01b0361156e61256b565b1681526c050c783eb9b5c85f2a80000012845220549051908152f35b5050346102af57816003193601126102af576020906001600160a01b03600954169051908152f35b8383346102af57602080600319360112610335576115ce612d2d565b6115d733612d80565b3383526c050c783eb9b5c85f2a8000000f8082528284209062093a8091828735048381029381850414901517156117ad5760018101544281111561176b57868254131561172957611629908411612c00565b630784ce0042018042116117165790610bc061164792851115612c71565b600654815190939192919060008112801516611701577f5e2aa66efd74cce82b21852e317e5490d9ecc9e6bb953ae24d90851258cc2f5c9798508352806116f7575b503360005283526116ae84600020918051835584810192600184519101558033613189565b5183516000815260038482015242858201527fe3b53cd1a44fbf11535e145d80b8ef1ed6d57a73bf5daa7e939b6b01657d654960603392a3825191818352820152a16001805580f35b8483015287611689565b601189634e487b7160e01b6000525260246000fd5b60248760118a634e487b7160e01b835252fd5b6064888688519162461bcd60e51b8352820152601f60248201527f566f74696e67457363726f773a204e6f7468696e67206973206c6f636b6564006044820152fd5b6064888688519162461bcd60e51b8352820152601a60248201527f566f74696e67457363726f773a204c6f636b20657870697265640000000000006044820152fd5b602486601189634e487b7160e01b835252fd5b5050346102af57816003193601126102af576020905160038152f35b828434610b175780600319360112610b17575080519060009280549060018260011c91600184169384156118ca575b60209485851081146118b757848852908115611895575060011461183b575b611398868661138e828b0383612615565b60009081529295507f8a35acfbc15ff81a39ae7d344fd709f28e8600b4aa8c65c6b64bfe7fe36bd19b5b82841061188257505050826113989461138e92820101948661182a565b8054868501880152928601928101611865565b60ff191687860152505050151560051b830101925061138e826113988661182a565b602489602285634e487b7160e01b835252fd5b92607f169261180b565b5050346102af57806003193601126102af57602090610afd6118f461256b565b602435906129ac565b5050346102af5760206003193601126102af576001816020936001600160a01b0361192661256b565b1681526c050c783eb9b5c85f2a8000000f85522001549051908152f35b5050346102af57816003193601126102af576020906001600160a01b03600b54169051908152f35b9050346103355760206003193601126103355761198661256b565b917f7b765e0e932d348852a6f810bfa1ab891e259123f02db8cdcde614c5702233578452836020528084203360005260205260ff81600020541615611a2b57836001600160a01b03846119d833613043565b506119e281612f17565b50168073ffffffffffffffffffffffffffffffffffffffff19600d541617600d55337f6aef1fb5b23d0e109fc7f2b0601019e1edbacd177e31a441ec8548e8dd14f0f78380a380f35b906020606492519162461bcd60e51b8352820152601c60248201527f566f74696e67457363726f773a20496e76616c69642043616c6c6572000000006044820152fd5b8383346102af57816003193601126102af57611a88612d2d565b33825260206c050c783eb9b5c85f2a8000000f815281832093600185019485544210611c45578085611ae292549755858155611ac6876006546126f5565b600655611adb611ad58261294e565b9161294e565b9033613189565b6001600160a01b03611b3381600c54168551907fa9059cbb000000000000000000000000000000000000000000000000000000008683015233602483015288604483015260448252610cdd826125dd565b600e541690813b15611c415784916084839286519485938492630df7526560e21b845230908401523360248401528a60448401528160648401525af18015611c3457611c03575b507f5e2aa66efd74cce82b21852e317e5490d9ecc9e6bb953ae24d90851258cc2f5c92933385526c050c783eb9b5c85f2a8000001082528483812055825181815242838201527fadec52fcd1408589179b85e44b434374db078b4eaf793e7d1a1bb0ae4ecfeee5843392a2611bf2600654918261296c565b918351928352820152a16001805580f35b92611c2e7f5e2aa66efd74cce82b21852e317e5490d9ecc9e6bb953ae24d90851258cc2f5c94612597565b92611b7a565b50505051903d90823e3d90fd5b8480fd5b5090608492519162461bcd60e51b83528201526024808201527f566f74696e67457363726f773a20546865206c6f636b206469646e277420657860448201527f70697265000000000000000000000000000000000000000000000000000000006064820152fd5b5050346102af57816003193601126102af576020905160028152f35b8383346102af57806003193601126102af57611ce2612581565b90336001600160a01b03831603611cff57506106519192356130ee565b8390517f6697b232000000000000000000000000000000000000000000000000000000008152fd5b5050346102af57806003193601126102af57611d4161256b565b6001600160a01b03602435911683526c050c783eb9b5c85f2a80000011602052818320633b9aca00821015611dac5790611d7a91612680565b508054600182015460028301546003909301549351918252602082015260408101919091526060810191909152608090f35b8380fd5b5050346102af57816003193601126102af576020906005549051908152f35b91905034610335578060031936011261033557611dea61256b565b9160243592611df7612d2d565b6001600160a01b038082168087526c050c783eb9b5c85f2a8000000f93602093858552611e25878a2061294e565b8815611fc0578581611e3c8c611e4594511361286d565b015142106128dd565b82895285855288611e5788822061294e565b92819560065498611e688c8b61296c565b600655611e8b6fffffffffffffffffffffffffffffffff8d16600f0b8751612e9e565b86528684528852611eaf8a8420958051875589810196600188519101558086613189565b611ee581600c54168b51906323b872dd60e01b8b8301528860248301523060448301528d606483015260648252610cdd826125f9565b600e5416803b15610335578951630df7526560e21b8152309281019283526001600160a01b039094166020830152604082018b905260016060830152839182908490829060800103925af18015611fb657917f5e2aa66efd74cce82b21852e317e5490d9ecc9e6bb953ae24d90851258cc2f5c989391610c8e9593611fa2575b5060607fe3b53cd1a44fbf11535e145d80b8ef1ed6d57a73bf5daa7e939b6b01657d654991519389519086825288820152428a820152a38361296c565b611fad919350612597565b88916060611f65565b87513d8b823e3d90fd5b608483878a519162461bcd60e51b8352820152602160248201527f566f74696e67457363726f773a204e656564206e6f6e2d7a65726f2076616c7560448201527f65000000000000000000000000000000000000000000000000000000000000006064820152fd5b91905034610335578060031936011261033557610651913561204d600161063b612581565b612fc9565b90503461033557602060031936011261033557816020936001923581528085522001549051908152f35b5050346102af57816003193601126102af576020906001600160a01b03600854169051908152f35b919050346103355760209182600319360112611dac578035926120c5612d2d565b6120ce33612d80565b3385526c050c783eb9b5c85f2a8000000f9182825283862090612112861515926120f7846127fc565b6121038982541361286d565b610bc0600182015442106128dd565b9160065494612121888761296c565b6006556121446fffffffffffffffffffffffffffffffff8916600f0b8551612e9e565b84523389528452612168868920938051855585810194600186519101558033613189565b6121d1575b507f5e2aa66efd74cce82b21852e317e5490d9ecc9e6bb953ae24d90851258cc2f5c94610c8e9151855182815260028582015242878201527fe3b53cd1a44fbf11535e145d80b8ef1ed6d57a73bf5daa7e939b6b01657d654960603392a38361296c565b866001600160a01b0361221081600c54168851906323b872dd60e01b888301523360248301523060448301528a606483015260648252610cdd826125f9565b600e541691823b156102af578651630df7526560e21b815230918101918252336020830152604082018990526001606083015292839182908490829060800103925af1801561229e57917f5e2aa66efd74cce82b21852e317e5490d9ecc9e6bb953ae24d90851258cc2f5c9691610c8e9361228f575b5091509461216d565b61229890612597565b38612286565b85513d89823e3d90fd5b5050346102af57816003193601126102af57602090517f7b765e0e932d348852a6f810bfa1ab891e259123f02db8cdcde614c5702233578152f35b919050346103355782600319360112610335576020925051908152f35b9190503461033557826003193601126103355780519183600254906001908260011c926001811680156123ec575b60209586861082146123d957508488529081156123b7575060011461235e57611398868661138e828b0383612615565b929550600283527f405787fa12a823e0f2b7631cc41b3ba8828b3321ca811111fa75cd3aa3bb5ace5b8284106123a457505050826113989461138e92820101943861182a565b8054868501880152928601928101612387565b60ff191687860152505050151560051b830101925061138e826113983861182a565b836022602492634e487b7160e01b835252fd5b93607f169361232e565b5050346102af57816003193601126102af5760209051670de0b6b3a76400008152f35b5050346102af57816003193601126102af576020906006549051908152f35b9050346103355760206003193601126103355735907fffffffff00000000000000000000000000000000000000000000000000000000821680920361033557602092507f7965db0b0000000000000000000000000000000000000000000000000000000082149182156124af575b50519015158152f35b7f01ffc9a700000000000000000000000000000000000000000000000000000000149150386124a6565b5050346102af57806003193601126102af57602090610afd6124f961256b565b60243590612770565b8334610b17576020600319360112610b17576001600160a01b0361252461256b565b168073ffffffffffffffffffffffffffffffffffffffff19600e541617600e557f629d40c6cf2ac89d7ffe5746f80af769a9d19c37a5c5bd61ca861444f50c370c8280a280f35b600435906001600160a01b0382168203610d8457565b602435906001600160a01b0382168203610d8457565b67ffffffffffffffff81116125ab57604052565b634e487b7160e01b600052604160045260246000fd5b6040810190811067ffffffffffffffff8211176125ab57604052565b6080810190811067ffffffffffffffff8211176125ab57604052565b60a0810190811067ffffffffffffffff8211176125ab57604052565b90601f601f19910116810190811067ffffffffffffffff8211176125ab57604052565b60208082528251818301819052939260005b85811061266c57505050601f19601f8460006040809697860101520116010190565b81810183015184820160400152820161264a565b90633b9aca008110156126975760021b0190600090565b634e487b7160e01b600052603260045260246000fd5b6003196040910112610d84576004359060243590565b906040516126d0816125dd565b6060600382948054845260018101546020850152600281015460408501520154910152565b9190820391821161270257565b634e487b7160e01b600052601160045260246000fd5b8181029291600082127f800000000000000000000000000000000000000000000000000000000000000082141661270257818405149015171561270257565b8181039291600013801582851316918412161761270257565b6001600160a01b031660009081526c050c783eb9b5c85f2a8000001260205260408120548061279f5750905090565b6127e96127e26127cd6127c785946c050c783eb9b5c85f2a8000001160205260408620612680565b506126c3565b946108986020870151916040880151906126f5565b8451612757565b808452126127f657505190565b81525190565b1561280357565b608460405162461bcd60e51b815260206004820152602160248201527f566f74696e67457363726f773a206e656564206e6f6e2d7a65726f2076616c7560448201527f65000000000000000000000000000000000000000000000000000000000000006064820152fd5b1561287457565b608460405162461bcd60e51b8152602060048201526024808201527f566f74696e67457363726f773a204e6f206578697374696e67206c6f636b206660448201527f6f756e64000000000000000000000000000000000000000000000000000000006064820152fd5b156128e457565b608460405162461bcd60e51b815260206004820152603560248201527f566f74696e67457363726f773a2043616e6e6f742061646420746f20616e206560448201527f787069726564206c6f636b2e20576974686472617700000000000000000000006064820152fd5b9060405161295b816125c1565b602060018294805484520154910152565b9190820180921161270257565b8115612983570490565b634e487b7160e01b600052601260045260246000fd5b8181029291811591840414171561270257565b438211612bbc576001600160a01b031660008181526c050c783eb9b5c85f2a80000012602090815260408083205490939183915b60808310612b41575b505050612a11916127c7916000526c050c783eb9b5c85f2a8000001160205283600020612680565b9160075491612a2083836136af565b6c01431e0fae6d7217caa00000008082101561269757612a458260021b600f016126c3565b94821015612b1257600182018092116127025781101561269757612ace93612ac793612a79612abe9360021b600f016126c3565b90612a9e85612a9160608501516060870151906126f5565b93015186850151906126f5565b905b858401519383612ae3575b50505050602086015192860151906126f5565b600f0b90612718565b8251612757565b9081905260008112612add5790565b50600090565b612b039261122a612b099695936060612afe940151906126f5565b612979565b9061296c565b38808080612aab565b5050612abe83612ac793612b2d6060612ace970151436126f5565b90612b3b85840151426126f5565b90612aa0565b90919381811015612bb657612b56828261296c565b6001808201809211612702571c90846000526c050c783eb9b5c85f2a800000118452876003612b88848a600020612680565b50015411612b9e5750600190945b0191906129e0565b94915060001981019081116127025760019091612b96565b936129e9565b606460405162461bcd60e51b815260206004820152601d60248201527f566f74696e67457363726f773a2057726f6e6720636f6e646974696f6e0000006044820152fd5b15612c0757565b608460405162461bcd60e51b815260206004820152602d60248201527f566f74696e67457363726f773a2043616e206f6e6c7920696e6372656173652060448201527f6c6f636b206475726174696f6e000000000000000000000000000000000000006064820152fd5b15612c7857565b608460405162461bcd60e51b815260206004820152602c60248201527f566f74696e67457363726f773a20566f74696e67206c6f636b2063616e20626560448201527f2034207965617273206d617800000000000000000000000000000000000000006064820152fd5b15612ce957565b606460405162461bcd60e51b815260206004820152601860248201527f566f74696e67457363726f773a2061646d696e206f6e6c7900000000000000006044820152fd5b600260015414612d3e576002600155565b60046040517f3ee5aeb5000000000000000000000000000000000000000000000000000000008152fd5b90816020910312610d8457518015158103610d845790565b6001600160a01b0380911690328203612d97575050565b600954169081612e0c575b608460405162461bcd60e51b815260206004820152603360248201527f566f74696e67457363726f773a20536d61727420636f6e74726163742064657060448201527f6f7369746f7273206e6f7420616c6c6f776564000000000000000000000000006064820152fd5b600091602460209260405194859384927fc23697a800000000000000000000000000000000000000000000000000000000845260048401525af1908115612e9257600091612e63575b50612e61578080612da2565b565b612e85915060203d602011612e8b575b612e7d8183612615565b810190612d68565b38612e55565b503d612e73565b6040513d6000823e3d90fd5b9190916000838201938412911290801582169115161761270257565b80600052600060205260406000203360005260205260ff6040600020541615612ee05750565b604490604051907fe2517d3f0000000000000000000000000000000000000000000000000000000082523360048301526024820152fd5b6001600160a01b031660008181527fd4b1ef424fcb83dce82b8e6790fbd9bbcd76978bd34427cec18daa7ab216754360205260408120549091907f7b765e0e932d348852a6f810bfa1ab891e259123f02db8cdcde614c5702233579060ff16612fc457808352826020526040832082845260205260408320600160ff198254161790557f2f8788117e7eff1d82e926ec794901d17c78024a50270940304540a733656f0d339380a4600190565b505090565b90600091808352826020526001600160a01b036040842092169182845260205260ff60408420541615600014612fc457808352826020526040832082845260205260408320600160ff198254161790557f2f8788117e7eff1d82e926ec794901d17c78024a50270940304540a733656f0d339380a4600190565b6001600160a01b031660008181527fd4b1ef424fcb83dce82b8e6790fbd9bbcd76978bd34427cec18daa7ab216754360205260408120549091907f7b765e0e932d348852a6f810bfa1ab891e259123f02db8cdcde614c5702233579060ff1615612fc45780835282602052604083208284526020526040832060ff1981541690557ff6391f5c32d9c69d2a47ea670b442974b53935d1edc7fd64eb21e047a839171b339380a4600190565b90600091808352826020526001600160a01b036040842092169182845260205260ff604084205416600014612fc45780835282602052604083208284526020526040832060ff1981541690557ff6391f5c32d9c69d2a47ea670b442974b53935d1edc7fd64eb21e047a839171b339380a4600190565b60405190613171826125dd565b60006060838281528260208201528260408201520152565b9091613193613164565b61319b613164565b60805260009182916001600160a01b03600754951695861515806135dc575b60409687516131c8816125dd565b60008152602060a052600060a0518201524289820152436060820152816135b2575b888101805190600090824211613578575b9062093a8080808504026000945b60ff8610613438575b50505050505082826007556133ce575b6c01431e0fae6d7217caa0000000821015612697576132669160021b600f019060606003918051845560208101516001850155604081015160028501550151910155565b613274575b50505050505050565b60a051019342855111613378575b505060a0510191825190428211613336575b50505050816000526c050c783eb9b5c85f2a8000001260a051526132ed816000206001815401809155826080510192428452606060805101944386526000526c050c783eb9b5c85f2a8000001160a05152600020612680565b9290926133205760039160805151845560a05160805101516001850155516002840155519101553880808080808061326b565b634e487b7160e01b600052600060045260246000fd5b5110613344575b8080613294565b60a051608051015161335591612757565b90516000526c050c783eb9b5c85f2a8000001360a051528160002055388061333d565b6133879160a051015190612e9e565b60a0518201518451146133b8575b83516000526c050c783eb9b5c85f2a8000001360a0515284600020553880613282565b60a05160805101516133c991612757565b613395565b60006133e760a051608051015160a05188015190612757565b6133f760a0518401918251612e9e565b815261341261340b60805151895190612757565b8451612e9e565b908184528281511261342f575b5012156132225760008152613222565b8290523861341f565b828201809211612702576000918f814281111561355457505050600061347d42935b6134748a5161089e60a0518d01966108988851918a6126f5565b8a528351612e9e565b8083528189511261354c575b12613542575b50809381815260608701956134bb8751670de0b6b3a76400006108ea6134b587806126f5565b89612999565b8752600190818a01809a1161270257894285036134e8575050505050505050439052388080808080613212565b9091929394959697506c01431e0fae6d7217caa000000081101561269757886135369160021b600f019060606003918051845560208101516001850155604081015160028501550151910155565b01929190939294613209565b600090523861348f565b818952613489565b908461347d9260009496526c050c783eb9b5c85f2a8000001360a05152205461345a565b90506135886060840151436126f5565b670de0b6b3a76400009080820291820403612702576135ac90610a2b8351426126f5565b906131fb565b506c01431e0fae6d7217caa0000000811015612697576135d78160021b600f016126c3565b6131ea565b6020820180514210806136a5575b613682575b604060208601974289511180613678575b613651575b825181526c050c783eb9b5c85f2a8000001360205220549651908161362c575b50506131ba565b51919550908103613642575084935b3880613625565b6000526040600020549361363b565b61366f630784ce008851058060206080510152610898428c516126f5565b60805152613605565b5080875113613600565b61369e630784ce008451058060208701526108984284516126f5565b84526135ef565b50868351136135ea565b600091906000915b608083106136c6575b50505090565b90919281811015613737576136db828261296c565b9060018083018093116127025782811c926c01431e0fae6d7217caa000000084101561269757901b6003191660120154841061371f5750600190935b0191906136b7565b93915060001981019081116127025760019091613717565b926136c0565b906040906040830162093a8091828251048381029080820485149015171561270257936000945b60ff8610613788575b5050505050506000815112613780575190565b600081525190565b8481018091116127025760009080848111156137ed57505082955b602088016137c16137ba825161089889518c6126f5565b8a51612757565b89528488146137e6576137da600193600f0b8251612e9e565b90528685520194613764565b505061376d565b918391979281526c050c783eb9b5c85f2a800000136020522054600f0b906137a3565b6001600160a01b031690600080826020829451910182865af13d156138e3573d67ffffffffffffffff81116138cf5760405161386d93929161385c601f8201601f191660200183612615565b8152809260203d92013e5b836138f0565b80519081151591826138b4575b50506138835750565b602490604051907f5274afe70000000000000000000000000000000000000000000000000000000082526004820152fd5b6138c79250602080918301019101612d68565b15388061387a565b602483634e487b7160e01b81526041600452fd5b61386d9150606090613867565b9061392f575080511561390557805190602001fd5b60046040517f1425ea42000000000000000000000000000000000000000000000000000000008152fd5b8151158061397a575b613940575090565b6024906001600160a01b03604051917f9996b315000000000000000000000000000000000000000000000000000000008352166004820152fd5b50803b1561393856fea26469706673582212204beeaa019b4cb0afe480d286d777eda4c5c93ea421c6064fa8fedfce0d5aa55764736f6c634300081800332f8788117e7eff1d82e926ec794901d17c78024a50270940304540a733656f0d",
  "devdoc": {
    "errors": {
      "AccessControlBadConfirmation()": [
        {
          "details": "The caller of a function is not the expected one. NOTE: Don't confuse with {AccessControlUnauthorizedAccount}."
        }
      ],
      "AccessControlUnauthorizedAccount(address,bytes32)": [
        {
          "details": "The `account` is missing a role."
        }
      ],
      "AddressEmptyCode(address)": [
        {
          "details": "There's no code at `target` (it is not a contract)."
        }
      ],
      "AddressInsufficientBalance(address)": [
        {
          "details": "The ETH balance of the account is not enough to perform the operation."
        }
      ],
      "FailedInnerCall()": [
        {
          "details": "A call to an address target failed. The target may have reverted."
        }
      ],
      "ReentrancyGuardReentrantCall()": [
        {
          "details": "Unauthorized reentrant call."
        }
      ],
      "SafeERC20FailedOperation(address)": [
        {
          "details": "An operation with an ERC20 token failed."
        }
      ]
    },
    "events": {
      "RoleAdminChanged(bytes32,bytes32,bytes32)": {
        "details": "Emitted when `newAdminRole` is set as ``role``'s admin role, replacing `previousAdminRole` `DEFAULT_ADMIN_ROLE` is the starting admin for all roles, despite {RoleAdminChanged} not being emitted signaling this."
      },
      "RoleGranted(bytes32,address,address)": {
        "details": "Emitted when `account` is granted `role`. `sender` is the account that originated the contract call, an admin role bearer except when using {AccessControl-_setupRole}."
      },
      "RoleRevoked(bytes32,address,address)": {
        "details": "Emitted when `account` is revoked `role`. `sender` is the account that originated the contract call:   - if using `revokeRole`, it is the admin role bearer   - if using `renounceRole`, it is the role bearer (i.e. `account`)"
      }
    },
    "kind": "dev",
    "methods": {
      "getRoleAdmin(bytes32)": {
        "details": "Returns the admin role that controls `role`. See {grantRole} and {revokeRole}. To change a role's admin, use {_setRoleAdmin}."
      },
      "grantRole(bytes32,address)": {
        "details": "Grants `role` to `account`. If `account` had not been already granted `role`, emits a {RoleGranted} event. Requirements: - the caller must have ``role``'s admin role. May emit a {RoleGranted} event."
      },
      "hasRole(bytes32,address)": {
        "details": "Returns `true` if `account` has been granted `role`."
      },
      "renounceRole(bytes32,address)": {
        "details": "Revokes `role` from the calling account. Roles are often managed via {grantRole} and {revokeRole}: this function's purpose is to provide a mechanism for accounts to lose their privileges if they are compromised (such as when a trusted device is misplaced). If the calling account had been revoked `role`, emits a {RoleRevoked} event. Requirements: - the caller must be `callerConfirmation`. May emit a {RoleRevoked} event."
      },
      "revokeRole(bytes32,address)": {
        "details": "Revokes `role` from `account`. If `account` had been granted `role`, emits a {RoleRevoked} event. Requirements: - the caller must have ``role``'s admin role. May emit a {RoleRevoked} event."
      },
      "supportsInterface(bytes4)": {
        "details": "See {IERC165-supportsInterface}."
      }
    },
    "version": 1
  },
  "userdoc": {
    "kind": "user",
    "methods": {},
    "version": 1
  },
  "storageLayout": {
    "storage": [
      {
        "astId": 26,
        "contract": "contracts/VotingEscrow.sol:VotingEscrow",
        "label": "_roles",
        "offset": 0,
        "slot": "0",
        "type": "t_mapping(t_bytes32,t_struct(RoleData)21_storage)"
      },
      {
        "astId": 2006,
        "contract": "contracts/VotingEscrow.sol:VotingEscrow",
        "label": "_status",
        "offset": 0,
        "slot": "1",
        "type": "t_uint256"
      },
      {
        "astId": 3182,
        "contract": "contracts/VotingEscrow.sol:VotingEscrow",
        "label": "name",
        "offset": 0,
        "slot": "2",
        "type": "t_string_storage"
      },
      {
        "astId": 3184,
        "contract": "contracts/VotingEscrow.sol:VotingEscrow",
        "label": "symbol",
        "offset": 0,
        "slot": "3",
        "type": "t_string_storage"
      },
      {
        "astId": 3186,
        "contract": "contracts/VotingEscrow.sol:VotingEscrow",
        "label": "version",
        "offset": 0,
        "slot": "4",
        "type": "t_string_storage"
      },
      {
        "astId": 3188,
        "contract": "contracts/VotingEscrow.sol:VotingEscrow",
        "label": "decimals",
        "offset": 0,
        "slot": "5",
        "type": "t_uint256"
      },
      {
        "astId": 3190,
        "contract": "contracts/VotingEscrow.sol:VotingEscrow",
        "label": "supply",
        "offset": 0,
        "slot": "6",
        "type": "t_uint256"
      },
      {
        "astId": 3192,
        "contract": "contracts/VotingEscrow.sol:VotingEscrow",
        "label": "epoch",
        "offset": 0,
        "slot": "7",
        "type": "t_uint256"
      },
      {
        "astId": 3194,
        "contract": "contracts/VotingEscrow.sol:VotingEscrow",
        "label": "futureSmartWalletChecker",
        "offset": 0,
        "slot": "8",
        "type": "t_address"
      },
      {
        "astId": 3196,
        "contract": "contracts/VotingEscrow.sol:VotingEscrow",
        "label": "smartWalletChecker",
        "offset": 0,
        "slot": "9",
        "type": "t_address"
      },
      {
        "astId": 3198,
        "contract": "contracts/VotingEscrow.sol:VotingEscrow",
        "label": "admin",
        "offset": 0,
        "slot": "10",
        "type": "t_address"
      },
      {
        "astId": 3200,
        "contract": "contracts/VotingEscrow.sol:VotingEscrow",
        "label": "futureAdmin",
        "offset": 0,
        "slot": "11",
        "type": "t_address"
      },
      {
        "astId": 3202,
        "contract": "contracts/VotingEscrow.sol:VotingEscrow",
        "label": "token",
        "offset": 0,
        "slot": "12",
        "type": "t_address"
      },
      {
        "astId": 3204,
        "contract": "contracts/VotingEscrow.sol:VotingEscrow",
        "label": "controller",
        "offset": 0,
        "slot": "13",
        "type": "t_address"
      },
      {
        "astId": 3206,
        "contract": "contracts/VotingEscrow.sol:VotingEscrow",
        "label": "gaugeController",
        "offset": 0,
        "slot": "14",
        "type": "t_address"
      },
      {
        "astId": 3208,
        "contract": "contracts/VotingEscrow.sol:VotingEscrow",
        "label": "transfersEnabled",
        "offset": 20,
        "slot": "14",
        "type": "t_bool"
      },
      {
        "astId": 3213,
        "contract": "contracts/VotingEscrow.sol:VotingEscrow",
        "label": "pointHistory",
        "offset": 0,
        "slot": "15",
        "type": "t_array(t_struct(Point)3175_storage)100000000000000000000000000000_storage"
      },
      {
        "astId": 3218,
        "contract": "contracts/VotingEscrow.sol:VotingEscrow",
        "label": "locked",
        "offset": 0,
        "slot": "400000000000000000000000000015",
        "type": "t_mapping(t_address,t_struct(LockedBalance)3180_storage)"
      },
      {
        "astId": 3222,
        "contract": "contracts/VotingEscrow.sol:VotingEscrow",
        "label": "createLockTs",
        "offset": 0,
        "slot": "400000000000000000000000000016",
        "type": "t_mapping(t_address,t_uint256)"
      },
      {
        "astId": 3229,
        "contract": "contracts/VotingEscrow.sol:VotingEscrow",
        "label": "userPointHistory",
        "offset": 0,
        "slot": "400000000000000000000000000017",
        "type": "t_mapping(t_address,t_array(t_struct(Point)3175_storage)1000000000_storage)"
      },
      {
        "astId": 3233,
        "contract": "contracts/VotingEscrow.sol:VotingEscrow",
        "label": "userPointEpoch",
        "offset": 0,
        "slot": "400000000000000000000000000018",
        "type": "t_mapping(t_address,t_uint256)"
      },
      {
        "astId": 3237,
        "contract": "contracts/VotingEscrow.sol:VotingEscrow",
        "label": "slopeChanges",
        "offset": 0,
        "slot": "400000000000000000000000000019",
        "type": "t_mapping(t_uint256,t_uint256)"
      }
    ],
    "types": {
      "t_address": {
        "encoding": "inplace",
        "label": "address",
        "numberOfBytes": "20"
      },
      "t_array(t_struct(Point)3175_storage)100000000000000000000000000000_storage": {
        "base": "t_struct(Point)3175_storage",
        "encoding": "inplace",
        "label": "struct VotingEscrow.Point[100000000000000000000000000000]",
        "numberOfBytes": "12800000000000000000000000000000"
      },
      "t_array(t_struct(Point)3175_storage)1000000000_storage": {
        "base": "t_struct(Point)3175_storage",
        "encoding": "inplace",
        "label": "struct VotingEscrow.Point[1000000000]",
        "numberOfBytes": "128000000000"
      },
      "t_bool": {
        "encoding": "inplace",
        "label": "bool",
        "numberOfBytes": "1"
      },
      "t_bytes32": {
        "encoding": "inplace",
        "label": "bytes32",
        "numberOfBytes": "32"
      },
      "t_int256": {
        "encoding": "inplace",
        "label": "int256",
        "numberOfBytes": "32"
      },
      "t_mapping(t_address,t_array(t_struct(Point)3175_storage)1000000000_storage)": {
        "encoding": "mapping",
        "key": "t_address",
        "label": "mapping(address => struct VotingEscrow.Point[1000000000])",
        "numberOfBytes": "32",
        "value": "t_array(t_struct(Point)3175_storage)1000000000_storage"
      },
      "t_mapping(t_address,t_bool)": {
        "encoding": "mapping",
        "key": "t_address",
        "label": "mapping(address => bool)",
        "numberOfBytes": "32",
        "value": "t_bool"
      },
      "t_mapping(t_address,t_struct(LockedBalance)3180_storage)": {
        "encoding": "mapping",
        "key": "t_address",
        "label": "mapping(address => struct VotingEscrow.LockedBalance)",
        "numberOfBytes": "32",
        "value": "t_struct(LockedBalance)3180_storage"
      },
      "t_mapping(t_address,t_uint256)": {
        "encoding": "mapping",
        "key": "t_address",
        "label": "mapping(address => uint256)",
        "numberOfBytes": "32",
        "value": "t_uint256"
      },
      "t_mapping(t_bytes32,t_struct(RoleData)21_storage)": {
        "encoding": "mapping",
        "key": "t_bytes32",
        "label": "mapping(bytes32 => struct AccessControl.RoleData)",
        "numberOfBytes": "32",
        "value": "t_struct(RoleData)21_storage"
      },
      "t_mapping(t_uint256,t_uint256)": {
        "encoding": "mapping",
        "key": "t_uint256",
        "label": "mapping(uint256 => uint256)",
        "numberOfBytes": "32",
        "value": "t_uint256"
      },
      "t_string_storage": {
        "encoding": "bytes",
        "label": "string",
        "numberOfBytes": "32"
      },
      "t_struct(LockedBalance)3180_storage": {
        "encoding": "inplace",
        "label": "struct VotingEscrow.LockedBalance",
        "members": [
          {
            "astId": 3177,
            "contract": "contracts/VotingEscrow.sol:VotingEscrow",
            "label": "amount",
            "offset": 0,
            "slot": "0",
            "type": "t_int256"
          },
          {
            "astId": 3179,
            "contract": "contracts/VotingEscrow.sol:VotingEscrow",
            "label": "end",
            "offset": 0,
            "slot": "1",
            "type": "t_uint256"
          }
        ],
        "numberOfBytes": "64"
      },
      "t_struct(Point)3175_storage": {
        "encoding": "inplace",
        "label": "struct VotingEscrow.Point",
        "members": [
          {
            "astId": 3168,
            "contract": "contracts/VotingEscrow.sol:VotingEscrow",
            "label": "bias",
            "offset": 0,
            "slot": "0",
            "type": "t_int256"
          },
          {
            "astId": 3170,
            "contract": "contracts/VotingEscrow.sol:VotingEscrow",
            "label": "slope",
            "offset": 0,
            "slot": "1",
            "type": "t_int256"
          },
          {
            "astId": 3172,
            "contract": "contracts/VotingEscrow.sol:VotingEscrow",
            "label": "timeStamp",
            "offset": 0,
            "slot": "2",
            "type": "t_uint256"
          },
          {
            "astId": 3174,
            "contract": "contracts/VotingEscrow.sol:VotingEscrow",
            "label": "blockNumber",
            "offset": 0,
            "slot": "3",
            "type": "t_uint256"
          }
        ],
        "numberOfBytes": "128"
      },
      "t_struct(RoleData)21_storage": {
        "encoding": "inplace",
        "label": "struct AccessControl.RoleData",
        "members": [
          {
            "astId": 18,
            "contract": "contracts/VotingEscrow.sol:VotingEscrow",
            "label": "hasRole",
            "offset": 0,
            "slot": "0",
            "type": "t_mapping(t_address,t_bool)"
          },
          {
            "astId": 20,
            "contract": "contracts/VotingEscrow.sol:VotingEscrow",
            "label": "adminRole",
            "offset": 0,
            "slot": "1",
            "type": "t_bytes32"
          }
        ],
        "numberOfBytes": "64"
      },
      "t_uint256": {
        "encoding": "inplace",
        "label": "uint256",
        "numberOfBytes": "32"
      }
    }
  }
}