{
  "address": "0xF01D8821c2125f37D6a3C9f77FC277c707e9E2Eb",
  "abi": [
    {
      "inputs": [
        {
          "internalType": "address",
          "name": "_tokenAddr",
          "type": "address"
        },
        {
          "internalType": "string",
          "name": "_name",
          "type": "string"
        },
        {
          "internalType": "string",
          "name": "_symbol",
          "type": "string"
        },
        {
          "internalType": "string",
          "name": "_version",
          "type": "string"
        }
      ],
      "stateMutability": "nonpayable",
      "type": "constructor"
    },
    {
      "inputs": [],
      "name": "AccessControlBadConfirmation",
      "type": "error"
    },
    {
      "inputs": [
        {
          "internalType": "address",
          "name": "account",
          "type": "address"
        },
        {
          "internalType": "bytes32",
          "name": "neededRole",
          "type": "bytes32"
        }
      ],
      "name": "AccessControlUnauthorizedAccount",
      "type": "error"
    },
    {
      "inputs": [
        {
          "internalType": "address",
          "name": "target",
          "type": "address"
        }
      ],
      "name": "AddressEmptyCode",
      "type": "error"
    },
    {
      "inputs": [
        {
          "internalType": "address",
          "name": "account",
          "type": "address"
        }
      ],
      "name": "AddressInsufficientBalance",
      "type": "error"
    },
    {
      "inputs": [],
      "name": "FailedInnerCall",
      "type": "error"
    },
    {
      "inputs": [],
      "name": "ReentrancyGuardReentrantCall",
      "type": "error"
    },
    {
      "inputs": [
        {
          "internalType": "address",
          "name": "token",
          "type": "address"
        }
      ],
      "name": "SafeERC20FailedOperation",
      "type": "error"
    },
    {
      "anonymous": false,
      "inputs": [
        {
          "indexed": true,
          "internalType": "address",
          "name": "prevController",
          "type": "address"
        },
        {
          "indexed": true,
          "internalType": "address",
          "name": "newController",
          "type": "address"
        }
      ],
      "name": "ControllerChanged",
      "type": "event"
    },
    {
      "anonymous": false,
      "inputs": [
        {
          "indexed": true,
          "internalType": "address",
          "name": "provider",
          "type": "address"
        },
        {
          "indexed": false,
          "internalType": "uint256",
          "name": "value",
          "type": "uint256"
        },
        {
          "indexed": true,
          "internalType": "uint256",
          "name": "locktime",
          "type": "uint256"
        },
        {
          "indexed": false,
          "internalType": "uint256",
          "name": "_type",
          "type": "uint256"
        },
        {
          "indexed": false,
          "internalType": "uint256",
          "name": "ts",
          "type": "uint256"
        }
      ],
      "name": "Deposited",
      "type": "event"
    },
    {
      "anonymous": false,
      "inputs": [
        {
          "indexed": false,
          "internalType": "address",
          "name": "admin",
          "type": "address"
        }
      ],
      "name": "OwnershipApplied",
      "type": "event"
    },
    {
      "anonymous": false,
      "inputs": [
        {
          "indexed": false,
          "internalType": "address",
          "name": "admin",
          "type": "address"
        }
      ],
      "name": "OwnershipCommited",
      "type": "event"
    },
    {
      "anonymous": false,
      "inputs": [
        {
          "indexed": true,
          "internalType": "bytes32",
          "name": "role",
          "type": "bytes32"
        },
        {
          "indexed": true,
          "internalType": "bytes32",
          "name": "previousAdminRole",
          "type": "bytes32"
        },
        {
          "indexed": true,
          "internalType": "bytes32",
          "name": "newAdminRole",
          "type": "bytes32"
        }
      ],
      "name": "RoleAdminChanged",
      "type": "event"
    },
    {
      "anonymous": false,
      "inputs": [
        {
          "indexed": true,
          "internalType": "bytes32",
          "name": "role",
          "type": "bytes32"
        },
        {
          "indexed": true,
          "internalType": "address",
          "name": "account",
          "type": "address"
        },
        {
          "indexed": true,
          "internalType": "address",
          "name": "sender",
          "type": "address"
        }
      ],
      "name": "RoleGranted",
      "type": "event"
    },
    {
      "anonymous": false,
      "inputs": [
        {
          "indexed": true,
          "internalType": "bytes32",
          "name": "role",
          "type": "bytes32"
        },
        {
          "indexed": true,
          "internalType": "address",
          "name": "account",
          "type": "address"
        },
        {
          "indexed": true,
          "internalType": "address",
          "name": "sender",
          "type": "address"
        }
      ],
      "name": "RoleRevoked",
      "type": "event"
    },
    {
      "anonymous": false,
      "inputs": [
        {
          "indexed": false,
          "internalType": "uint256",
          "name": "prevSupply",
          "type": "uint256"
        },
        {
          "indexed": false,
          "internalType": "uint256",
          "name": "supply",
          "type": "uint256"
        }
      ],
      "name": "Supply",
      "type": "event"
    },
    {
      "anonymous": false,
      "inputs": [
        {
          "indexed": false,
          "internalType": "address",
          "name": "newSmartWalletChecker",
          "type": "address"
        }
      ],
      "name": "WalletCommited",
      "type": "event"
    },
    {
      "anonymous": false,
      "inputs": [
        {
          "indexed": true,
          "internalType": "address",
          "name": "provider",
          "type": "address"
        },
        {
          "indexed": false,
          "internalType": "uint256",
          "name": "value",
          "type": "uint256"
        },
        {
          "indexed": false,
          "internalType": "uint256",
          "name": "timeStamp",
          "type": "uint256"
        }
      ],
      "name": "Withdrew",
      "type": "event"
    },
    {
      "inputs": [],
      "name": "CONTROLLER_ROLE",
      "outputs": [
        {
          "internalType": "bytes32",
          "name": "",
          "type": "bytes32"
        }
      ],
      "stateMutability": "view",
      "type": "function"
    },
    {
      "inputs": [],
      "name": "CREATE_LOCK_TYPE",
      "outputs": [
        {
          "internalType": "uint256",
          "name": "",
          "type": "uint256"
        }
      ],
      "stateMutability": "view",
      "type": "function"
    },
    {
      "inputs": [],
      "name": "DEFAULT_ADMIN_ROLE",
      "outputs": [
        {
          "internalType": "bytes32",
          "name": "",
          "type": "bytes32"
        }
      ],
      "stateMutability": "view",
      "type": "function"
    },
    {
      "inputs": [],
      "name": "DEPOSIT_FOR_TYPE",
      "outputs": [
        {
          "internalType": "uint256",
          "name": "",
          "type": "uint256"
        }
      ],
      "stateMutability": "view",
      "type": "function"
    },
    {
      "inputs": [],
      "name": "INCREASE_LOCK_AMOUNT",
      "outputs": [
        {
          "internalType": "uint256",
          "name": "",
          "type": "uint256"
        }
      ],
      "stateMutability": "view",
      "type": "function"
    },
    {
      "inputs": [],
      "name": "INCREASE_UNLOCK_TIME",
      "outputs": [
        {
          "internalType": "uint256",
          "name": "",
          "type": "uint256"
        }
      ],
      "stateMutability": "view",
      "type": "function"
    },
    {
      "inputs": [],
      "name": "INCREASE_UNLOCK_TIME_AND_LOCK_AMOUNT",
      "outputs": [
        {
          "internalType": "uint256",
          "name": "",
          "type": "uint256"
        }
      ],
      "stateMutability": "view",
      "type": "function"
    },
    {
      "inputs": [],
      "name": "MAXTIME",
      "outputs": [
        {
          "internalType": "uint256",
          "name": "",
          "type": "uint256"
        }
      ],
      "stateMutability": "view",
      "type": "function"
    },
    {
      "inputs": [],
      "name": "MULTIPLIER",
      "outputs": [
        {
          "internalType": "uint256",
          "name": "",
          "type": "uint256"
        }
      ],
      "stateMutability": "view",
      "type": "function"
    },
    {
      "inputs": [],
      "name": "WEEK",
      "outputs": [
        {
          "internalType": "uint256",
          "name": "",
          "type": "uint256"
        }
      ],
      "stateMutability": "view",
      "type": "function"
    },
    {
      "inputs": [],
      "name": "admin",
      "outputs": [
        {
          "internalType": "address",
          "name": "",
          "type": "address"
        }
      ],
      "stateMutability": "view",
      "type": "function"
    },
    {
      "inputs": [],
      "name": "applySmartWalletChecker",
      "outputs": [],
      "stateMutability": "nonpayable",
      "type": "function"
    },
    {
      "inputs": [],
      "name": "applyTransferOwnership",
      "outputs": [],
      "stateMutability": "nonpayable",
      "type": "function"
    },
    {
      "inputs": [
        {
          "internalType": "address",
          "name": "_user",
          "type": "address"
        }
      ],
      "name": "balanceOf",
      "outputs": [
        {
          "internalType": "uint256",
          "name": "",
          "type": "uint256"
        }
      ],
      "stateMutability": "view",
      "type": "function"
    },
    {
      "inputs": [
        {
          "internalType": "address",
          "name": "_user",
          "type": "address"
        },
        {
          "internalType": "uint256",
          "name": "_block",
          "type": "uint256"
        }
      ],
      "name": "balanceOfAtBlock",
      "outputs": [
        {
          "internalType": "uint256",
          "name": "",
          "type": "uint256"
        }
      ],
      "stateMutability": "view",
      "type": "function"
    },
    {
      "inputs": [
        {
          "internalType": "address",
          "name": "_user",
          "type": "address"
        },
        {
          "internalType": "uint256",
          "name": "_t",
          "type": "uint256"
        }
      ],
      "name": "balanceOfAtTime",
      "outputs": [
        {
          "internalType": "uint256",
          "name": "",
          "type": "uint256"
        }
      ],
      "stateMutability": "view",
      "type": "function"
    },
    {
      "inputs": [
        {
          "internalType": "address",
          "name": "_newController",
          "type": "address"
        }
      ],
      "name": "changeController",
      "outputs": [],
      "stateMutability": "nonpayable",
      "type": "function"
    },
    {
      "inputs": [],
      "name": "checkpoint",
      "outputs": [],
      "stateMutability": "nonpayable",
      "type": "function"
    },
    {
      "inputs": [
        {
          "internalType": "address",
          "name": "_user",
          "type": "address"
        }
      ],
      "name": "commitSmartWalletChecker",
      "outputs": [],
      "stateMutability": "nonpayable",
      "type": "function"
    },
    {
      "inputs": [
        {
          "internalType": "address",
          "name": "_user",
          "type": "address"
        }
      ],
      "name": "commitTransferOwnership",
      "outputs": [],
      "stateMutability": "nonpayable",
      "type": "function"
    },
    {
      "inputs": [],
      "name": "controller",
      "outputs": [
        {
          "internalType": "address",
          "name": "",
          "type": "address"
        }
      ],
      "stateMutability": "view",
      "type": "function"
    },
    {
      "inputs": [
        {
          "internalType": "uint256",
          "name": "_value",
          "type": "uint256"
        },
        {
          "internalType": "uint256",
          "name": "_unlockTime",
          "type": "uint256"
        }
      ],
      "name": "createLock",
      "outputs": [],
      "stateMutability": "nonpayable",
      "type": "function"
    },
    {
      "inputs": [
        {
          "internalType": "address",
          "name": "",
          "type": "address"
        }
      ],
      "name": "createLockTs",
      "outputs": [
        {
          "internalType": "uint256",
          "name": "",
          "type": "uint256"
        }
      ],
      "stateMutability": "view",
      "type": "function"
    },
    {
      "inputs": [],
      "name": "decimals",
      "outputs": [
        {
          "internalType": "uint256",
          "name": "",
          "type": "uint256"
        }
      ],
      "stateMutability": "view",
      "type": "function"
    },
    {
      "inputs": [
        {
          "internalType": "address",
          "name": "_user",
          "type": "address"
        },
        {
          "internalType": "uint256",
          "name": "_value",
          "type": "uint256"
        }
      ],
      "name": "depositFor",
      "outputs": [],
      "stateMutability": "nonpayable",
      "type": "function"
    },
    {
      "inputs": [],
      "name": "epoch",
      "outputs": [
        {
          "internalType": "uint256",
          "name": "",
          "type": "uint256"
        }
      ],
      "stateMutability": "view",
      "type": "function"
    },
    {
      "inputs": [],
      "name": "futureAdmin",
      "outputs": [
        {
          "internalType": "address",
          "name": "",
          "type": "address"
        }
      ],
      "stateMutability": "view",
      "type": "function"
    },
    {
      "inputs": [],
      "name": "futureSmartWalletChecker",
      "outputs": [
        {
          "internalType": "address",
          "name": "",
          "type": "address"
        }
      ],
      "stateMutability": "view",
      "type": "function"
    },
    {
      "inputs": [
        {
          "internalType": "address",
          "name": "_user",
          "type": "address"
        }
      ],
      "name": "getLastUserSlope",
      "outputs": [
        {
          "internalType": "int256",
          "name": "",
          "type": "int256"
        }
      ],
      "stateMutability": "view",
      "type": "function"
    },
    {
      "inputs": [
        {
          "internalType": "bytes32",
          "name": "role",
          "type": "bytes32"
        }
      ],
      "name": "getRoleAdmin",
      "outputs": [
        {
          "internalType": "bytes32",
          "name": "",
          "type": "bytes32"
        }
      ],
      "stateMutability": "view",
      "type": "function"
    },
    {
      "inputs": [
        {
          "internalType": "bytes32",
          "name": "role",
          "type": "bytes32"
        },
        {
          "internalType": "address",
          "name": "account",
          "type": "address"
        }
      ],
      "name": "grantRole",
      "outputs": [],
      "stateMutability": "nonpayable",
      "type": "function"
    },
    {
      "inputs": [
        {
          "internalType": "bytes32",
          "name": "role",
          "type": "bytes32"
        },
        {
          "internalType": "address",
          "name": "account",
          "type": "address"
        }
      ],
      "name": "hasRole",
      "outputs": [
        {
          "internalType": "bool",
          "name": "",
          "type": "bool"
        }
      ],
      "stateMutability": "view",
      "type": "function"
    },
    {
      "inputs": [
        {
          "internalType": "uint256",
          "name": "_value",
          "type": "uint256"
        }
      ],
      "name": "increaseAmount",
      "outputs": [],
      "stateMutability": "nonpayable",
      "type": "function"
    },
    {
      "inputs": [
        {
          "internalType": "uint256",
          "name": "_value",
          "type": "uint256"
        },
        {
          "internalType": "uint256",
          "name": "_unlockTime",
          "type": "uint256"
        }
      ],
      "name": "increaseAmountAndUnlockTime",
      "outputs": [],
      "stateMutability": "nonpayable",
      "type": "function"
    },
    {
      "inputs": [
        {
          "internalType": "uint256",
          "name": "_unlockTime",
          "type": "uint256"
        }
      ],
      "name": "increaseUnlockTime",
      "outputs": [],
      "stateMutability": "nonpayable",
      "type": "function"
    },
    {
      "inputs": [
        {
          "internalType": "address",
          "name": "",
          "type": "address"
        }
      ],
      "name": "locked",
      "outputs": [
        {
          "internalType": "int256",
          "name": "amount",
          "type": "int256"
        },
        {
          "internalType": "uint256",
          "name": "end",
          "type": "uint256"
        }
      ],
      "stateMutability": "view",
      "type": "function"
    },
    {
      "inputs": [
        {
          "internalType": "address",
          "name": "_user",
          "type": "address"
        }
      ],
      "name": "lockedEnd",
      "outputs": [
        {
          "internalType": "uint256",
          "name": "",
          "type": "uint256"
        }
      ],
      "stateMutability": "view",
      "type": "function"
    },
    {
      "inputs": [],
      "name": "name",
      "outputs": [
        {
          "internalType": "string",
          "name": "",
          "type": "string"
        }
      ],
      "stateMutability": "view",
      "type": "function"
    },
    {
      "inputs": [
        {
          "internalType": "uint256",
          "name": "",
          "type": "uint256"
        }
      ],
      "name": "pointHistory",
      "outputs": [
        {
          "internalType": "int256",
          "name": "bias",
          "type": "int256"
        },
        {
          "internalType": "int256",
          "name": "slope",
          "type": "int256"
        },
        {
          "internalType": "uint256",
          "name": "timeStamp",
          "type": "uint256"
        },
        {
          "internalType": "uint256",
          "name": "blockNumber",
          "type": "uint256"
        }
      ],
      "stateMutability": "view",
      "type": "function"
    },
    {
      "inputs": [
        {
          "internalType": "bytes32",
          "name": "role",
          "type": "bytes32"
        },
        {
          "internalType": "address",
          "name": "callerConfirmation",
          "type": "address"
        }
      ],
      "name": "renounceRole",
      "outputs": [],
      "stateMutability": "nonpayable",
      "type": "function"
    },
    {
      "inputs": [
        {
          "internalType": "bytes32",
          "name": "role",
          "type": "bytes32"
        },
        {
          "internalType": "address",
          "name": "account",
          "type": "address"
        }
      ],
      "name": "revokeRole",
      "outputs": [],
      "stateMutability": "nonpayable",
      "type": "function"
    },
    {
      "inputs": [
        {
          "internalType": "uint256",
          "name": "",
          "type": "uint256"
        }
      ],
      "name": "slopeChanges",
      "outputs": [
        {
          "internalType": "int256",
          "name": "",
          "type": "int256"
        }
      ],
      "stateMutability": "view",
      "type": "function"
    },
    {
      "inputs": [],
      "name": "smartWalletChecker",
      "outputs": [
        {
          "internalType": "address",
          "name": "",
          "type": "address"
        }
      ],
      "stateMutability": "view",
      "type": "function"
    },
    {
      "inputs": [],
      "name": "supply",
      "outputs": [
        {
          "internalType": "uint256",
          "name": "",
          "type": "uint256"
        }
      ],
      "stateMutability": "view",
      "type": "function"
    },
    {
      "inputs": [
        {
          "internalType": "bytes4",
          "name": "interfaceId",
          "type": "bytes4"
        }
      ],
      "name": "supportsInterface",
      "outputs": [
        {
          "internalType": "bool",
          "name": "",
          "type": "bool"
        }
      ],
      "stateMutability": "view",
      "type": "function"
    },
    {
      "inputs": [],
      "name": "symbol",
      "outputs": [
        {
          "internalType": "string",
          "name": "",
          "type": "string"
        }
      ],
      "stateMutability": "view",
      "type": "function"
    },
    {
      "inputs": [],
      "name": "token",
      "outputs": [
        {
          "internalType": "address",
          "name": "",
          "type": "address"
        }
      ],
      "stateMutability": "view",
      "type": "function"
    },
    {
      "inputs": [],
      "name": "totalSupply",
      "outputs": [
        {
          "internalType": "uint256",
          "name": "",
          "type": "uint256"
        }
      ],
      "stateMutability": "view",
      "type": "function"
    },
    {
      "inputs": [
        {
          "internalType": "uint256",
          "name": "_block",
          "type": "uint256"
        }
      ],
      "name": "totalSupplyAtBlock",
      "outputs": [
        {
          "internalType": "uint256",
          "name": "",
          "type": "uint256"
        }
      ],
      "stateMutability": "view",
      "type": "function"
    },
    {
      "inputs": [
        {
          "internalType": "uint256",
          "name": "_t",
          "type": "uint256"
        }
      ],
      "name": "totalSupplyAtTime",
      "outputs": [
        {
          "internalType": "uint256",
          "name": "",
          "type": "uint256"
        }
      ],
      "stateMutability": "view",
      "type": "function"
    },
    {
      "inputs": [],
      "name": "transfersEnabled",
      "outputs": [
        {
          "internalType": "bool",
          "name": "",
          "type": "bool"
        }
      ],
      "stateMutability": "view",
      "type": "function"
    },
    {
      "inputs": [
        {
          "internalType": "address",
          "name": "",
          "type": "address"
        }
      ],
      "name": "userPointEpoch",
      "outputs": [
        {
          "internalType": "uint256",
          "name": "",
          "type": "uint256"
        }
      ],
      "stateMutability": "view",
      "type": "function"
    },
    {
      "inputs": [
        {
          "internalType": "address",
          "name": "",
          "type": "address"
        },
        {
          "internalType": "uint256",
          "name": "",
          "type": "uint256"
        }
      ],
      "name": "userPointHistory",
      "outputs": [
        {
          "internalType": "int256",
          "name": "bias",
          "type": "int256"
        },
        {
          "internalType": "int256",
          "name": "slope",
          "type": "int256"
        },
        {
          "internalType": "uint256",
          "name": "timeStamp",
          "type": "uint256"
        },
        {
          "internalType": "uint256",
          "name": "blockNumber",
          "type": "uint256"
        }
      ],
      "stateMutability": "view",
      "type": "function"
    },
    {
      "inputs": [
        {
          "internalType": "address",
          "name": "_user",
          "type": "address"
        },
        {
          "internalType": "uint256",
          "name": "_idx",
          "type": "uint256"
        }
      ],
      "name": "userPointHistoryTs",
      "outputs": [
        {
          "internalType": "uint256",
          "name": "",
          "type": "uint256"
        }
      ],
      "stateMutability": "view",
      "type": "function"
    },
    {
      "inputs": [],
      "name": "version",
      "outputs": [
        {
          "internalType": "string",
          "name": "",
          "type": "string"
        }
      ],
      "stateMutability": "view",
      "type": "function"
    },
    {
      "inputs": [],
      "name": "withdraw",
      "outputs": [],
      "stateMutability": "nonpayable",
      "type": "function"
    }
  ],
  "transactionHash": "0xede58ac91f2e2217ee1d821825d8d5835a5baae0196e6d92d62473eee7216643",
  "args": [
    "0x172160B1C9BD74D683e1EbaE0EdD96a6fEA9A6Eb",
    "Vote Escrowed SYNTH",
    "veSYNTH",
    "1"
  ],
  "numDeployments": 2,
  "solcInputHash": "06c489e9cd53e97119feead2fc8e4b18",
  "bytecode": "0x60808060405234620005525762003e518038038091620000208285620005a9565b8339810190608081830312620005525780516001600160a01b0381169190829003620005525760208181015190936001600160401b039290918381116200055257826200006f918301620005e3565b9060408101518481116200055257836200008b918301620005e3565b9260608201518581116200055257620000a59201620005e3565b6001808055600a80546001600160a01b031990811633908117909255600c8054909116881790554360115542601055600d80546001600160a81b03191660ff60a01b1990921691909117600160a01b17905560405163313ce56760e01b81526004979196829082908a9082905afa9081156200059d5760009162000557575b5060ff1660ff81116200055257600590815583518681116200045257600254948886811c9616801562000547575b8487101462000532578190601f96878111620004dd575b508490878311600114620004735760009262000467575b5050600019600383901b1c191690881b176002555b8451868111620004525760039586548981811c9116801562000447575b858210146200043257908187849311620003de575b50849087831160011462000377576000926200036b575b505060001982881b1c191690881b1785555b825195861162000356578754908782811c921680156200034b575b838310146200033657848211620002ed575b5050809285116001146200027f575093839491849260009562000273575b50501b92600019911b1c19161790555b620002563362000659565b506200026233620006d9565b506040516136b590816200077c8239f35b0151935038806200023b565b92919084601f1981168860005285600020956000905b89838310620002d25750505010620002b7575b50505050811b0190556200024b565b01519060f884600019921b161c1916905538808080620002a8565b85870151895590970196948501948893509081019062000295565b88600052826000209085808901821c830193858a106200032c575b01901c019087905b8281106200031f57506200021d565b6000815501879062000310565b9350829362000308565b602289634e487b7160e01b6000525260246000fd5b91607f16916200020b565b604188634e487b7160e01b6000525260246000fd5b015190503880620001de565b908a9350601f1983169189600052866000209260005b88828210620003c75750508411620003ae575b505050811b018555620001f0565b0151600019838a1b60f8161c19169055388080620003a0565b8385015186558e979095019493840193016200038d565b909150876000528460002087808501861c82019287861062000428575b918c918695949301871c01915b82811062000418575050620001c7565b600081558594508c910162000408565b92508192620003fb565b60228b634e487b7160e01b6000525260246000fd5b90607f1690620001b2565b604189634e487b7160e01b6000525260246000fd5b01519050388062000180565b908a9350601f198316916002600052866000209260005b88828210620004c65750508411620004ac575b505050811b0160025562000195565b015160001960f88460031b161c191690553880806200049d565b8385015186558e979095019493840193016200048a565b90915060026000528460002087808501861c82019287861062000528575b918c918695949301871c01915b8281106200051857505062000169565b600081558594508c910162000508565b92508192620004fb565b60228a634e487b7160e01b6000525260246000fd5b95607f169562000152565b600080fd5b8281813d831162000595575b6200056f8183620005a9565b810103126200059157519060ff821682036200058e575060ff62000124565b80fd5b5080fd5b503d62000563565b6040513d6000823e3d90fd5b601f909101601f19168101906001600160401b03821190821017620005cd57604052565b634e487b7160e01b600052604160045260246000fd5b919080601f84011215620005525782516001600160401b038111620005cd57602090604051926200061e83601f19601f8501160185620005a9565b818452828287010111620005525760005b8181106200064557508260009394955001015290565b85810183015184820184015282016200062f565b6001600160a01b031660008181527fad3228b676f7d3cd4284a5443f17f1962b36e491b30a40b2405849e597ba5fb5602052604081205490919060ff16620006d557818052816020526040822081835260205260408220600160ff19825416179055339160008051602062003e318339815191528180a4600190565b5090565b6001600160a01b031660008181527fd4b1ef424fcb83dce82b8e6790fbd9bbcd76978bd34427cec18daa7ab216754360205260408120549091907f7b765e0e932d348852a6f810bfa1ab891e259123f02db8cdcde614c5702233579060ff166200077657808352826020526040832082845260205260408320600160ff1982541617905560008051602062003e31833981519152339380a4600190565b50509056fe60c060408181526004918236101561001657600080fd5b600092833560e01c91826301ffc9a71461217f57508163047fc9aa14612160578163059f8b161461213d57816306fdde031461207c578163084057881461205f578163092c5b3b1461202457816315456eba14611ea3578163155bcbbd14611e7b57816318160ddd14611e5d578163248a9ca314611e335781632f2ff15d14611e095781632f4f21e214611bf95781633037408d14611bd0578163313ce56714611bb157816334d901a414611b2857816336568abe14611ac95781633a0af6bf14611aad5781633ccfd60b146118fa5781633cebb823146117f95781634cb654af146117d15781634d144a011461116a5781634deafcae1461178b57816354fd4d5014611694578163701b40631461166b57816370a08231146116435781637b39ecd5146116275781637c616fe6146114075781637df14854146113df57816381fc83bb1461139c5781638ad4c44714611331578163900cf0cf1461131257816391d14854146112cd5781639586900d1461128a57816395d89b4114611185578163a217fddf1461116a578163b52c05fe14610eb2578163bb65e8db14610cb4578163bef97c8714610c8d578163c2c4c5c114610956578163cbf9fe5f14610909578163d28d5944146108ed578163d2dcd933146108cd578163d3006d8e146106da578163d4cfd62714610653578163d547741f14610614578163df0ab9d314610540578163e1cebf0b146104b3578163eac6a6671461046b578163ee00ef3a1461044c578163f0818583146103bf578163f3a6d6081461035b578163f4359ce51461033d578163f52a36f71461030557508063f77c4791146102de578063f851a440146102b75763fc0c546a1461028d57600080fd5b346102b357816003193601126102b3576020906001600160a01b03600c54169051908152f35b5080fd5b50346102b357816003193601126102b3576020906001600160a01b03600a54169051908152f35b50346102b357816003193601126102b3576020906001600160a01b03600d54169051908152f35b9050346103395760206003193601126103395760209282913581526c050c783eb9b5c85f2a80000012845220549051908152f35b8280fd5b5050346102b357816003193601126102b3576020905162093a808152f35b5050346102b35760206003193601126102b35760016103b56020936001600160a01b0361038661230d565b1681526c050c783eb9b5c85f2a8000001185528380822054916c050c783eb9b5c85f2a80000010875220612323565b5001549051908152f35b5050346102b35760206003193601126102b35760207fd51f14a3b8bff946e1ff30178457f3a775892d9abfcbff540a5c225dffb0e9dd916001600160a01b0361040661230d565b858052858452828620338752845261042360ff84882054166128f6565b16908173ffffffffffffffffffffffffffffffffffffffff19600854161760085551908152a180f35b5050346102b357816003193601126102b35760209051630784ce008152f35b5050346102b357806003193601126102b35760026103b56020936001600160a01b0361049561230d565b1681526c050c783eb9b5c85f2a800000108552836024359120612323565b5050346102b35760206003193601126102b35760207fa3240ed8b91b2b9b457d36eea99b631317688960891cf3efa12666ce6a8e4252916001600160a01b036104fa61230d565b858052858452828620338752845261051760ff84882054166128f6565b16908173ffffffffffffffffffffffffffffffffffffffff19600b541617600b5551908152a180f35b919050346103395782600319360112610339578280528260205280832033845260205261057260ff82852054166128f6565b6001600160a01b03600b54169182156105d25750816020917fe15d3667144affcc7767a528cb267dc271fe6bcc6bd1237f826d4c71a7834d809373ffffffffffffffffffffffffffffffffffffffff19600a541617600a5551908152a180f35b6020606492519162461bcd60e51b8352820152601b60248201527f566f74696e67457363726f773a2041646d696e206e6f742073657400000000006044820152fd5b9190503461033957806003193601126103395761064f913561064a60016106396122f2565b938387528660205286200154612b0f565b612dd8565b5080f35b5050346102b357816003193601126102b35760207fd51f14a3b8bff946e1ff30178457f3a775892d9abfcbff540a5c225dffb0e9dd9183805283825280842033855282526106a660ff82862054166128f6565b6001600160a01b0360085416908173ffffffffffffffffffffffffffffffffffffffff19600954161760095551908152a180f35b8284346108ca5760206003193601126108ca57823543811161086157600754906107048282613399565b6c01431e0fae6d7217caa000000093848210156107e15761072a8260021b600e01612526565b948194831060001461080757600183018093116107f4578210156107e15750602095509161078b91610765610791959460021b600e01612526565b6060850190878251606083019485518203610798575b5050505050505b848301516124f9565b90613440565b9051908152f35b6107d696506107c6926107b36107d09695936107c0936124d6565b9201518b8a0151906124d6565b90612558565b92519051906124d6565b90612506565b86808087818061077b565b80603288634e487b7160e01b6024945252fd5b60248260118a634e487b7160e01b835252fd5b50505060209450829161078b91606061079195019081519043820361082f575b505050610782565b61085993506108446107d092610851926124d6565b6107c089880151426124d6565b9151436124d6565b868080610827565b608484602085519162461bcd60e51b8352820152602260248201527f566f74696e67457363726f773a20496e76616c696420426c6f636b204e756d6260448201527f65720000000000000000000000000000000000000000000000000000000000006064820152fd5b80fd5b8284346108ca5760206003193601126108ca575061079160209235612ace565b5050346102b357816003193601126102b3576020905160018152f35b5050346102b35760206003193601126102b35780916001600160a01b0361092e61230d565b1681526c050c783eb9b5c85f2a8000000e602052206001815491015482519182526020820152f35b8383346102b357816003193601126102b35780516109738161221d565b82815282602080920152826020835161098b8161221d565b8281520152610998612e4e565b506109a1612e4e565b50600754908251906109b28261224f565b84825284602083015242848301526060914360608201529383610c4e575b808501918251928793804211610c01575b949392919062093a809283808804028a975b60ff8910610a64575b505050505050505050806007556c01431e0fae6d7217caa0000000811015610a515790610a4e9160021b600e019060606003918051845560208101516001850155604081015160028501550151910155565b80f35b602483603286634e487b7160e01b835252fd5b858201809211610bee578b90828293428111600014610bca575050818c81610ab542965b610aac8451610aa68d870198610aa08a51918d6124d6565b9061256b565b906125aa565b84528551612ab2565b9182855281815112610bc2575b505012610bba575b50508091818452878b0198610afd8a51670de0b6b3a7640000610af6610af087806124d6565b8c612558565b04906124f9565b8a52600190818c01809c11610ba5578b428503610b305750505050505050505050504390528480808080808080806109fc565b909192939495969798999a506c01431e0fae6d7217caa0000000811015610b90578c610b819160021b600e019060606003918051845560208101516001850155604081015160028501550151910155565b019796959493929091906109f3565b505060248c60328f634e487b7160e01b835252fd5b505060248c60118f634e487b7160e01b835252fd5b528a8d610aca565b52818e610ac2565b90935082526c050c783eb9b5c85f2a800000128652818c81610ab587822054610a88565b60248c60118f634e487b7160e01b835252fd5b9350610c116060880151436124d6565b670de0b6b3a76400009080820291820403610c3b57610c35906107d08351426124d6565b936109e1565b60248960118c634e487b7160e01b835252fd5b93506c01431e0fae6d7217caa0000000831015610c7a57610c748360021b600e01612526565b936109d0565b602485603288634e487b7160e01b835252fd5b5050346102b357816003193601126102b35760209060ff600d5460a01c1690519015158152f35b8383346102b357610cc436612350565b610ccc612941565b610cd533612994565b3384526c050c783eb9b5c85f2a8000000e906020918083528486209062093a80809304838102938185041490151715610e9f5784151591610d1583612366565b610d21888254136123d7565b610d3b6001820154610d34428211612447565b8511612814565b630784ce004201804211610c3b5792610dfd7f5e2aa66efd74cce82b21852e317e5490d9ecc9e6bb953ae24d90851258cc2f5c999a93610d8b8794610d868b98610e3f9a1115612885565b6124b8565b93845191898601918251968d5194610da28661221d565b85528b8501978852610db76006549d8e6124f9565b6006555192518d5193610dc98561221d565b84528b840152610dda898551612ab2565b845280610e97575b508d33905289528a8d20825181556001865191015533612e73565b610e50575b51908651908382528582015242878201527fe3b53cd1a44fbf11535e145d80b8ef1ed6d57a73bf5daa7e939b6b01657d654960603392a3836124f9565b908351928352820152a16001805580f35b610e926001600160a01b03600c54168851906323b872dd60e01b8883015233602483015230604483015285606483015260648252610e8d8261226b565b61350c565b610e02565b86528e610de2565b60248760118a634e487b7160e01b835252fd5b8383346102b357610ec236612350565b610eca612941565b610ed333612994565b62093a80809104818102918183041490151715611157573384526c050c783eb9b5c85f2a8000000e9160209183835284862082151590610f1282612366565b80546110ef574283111561108757630784ce00428101809111610c3b577f5e2aa66efd74cce82b21852e317e5490d9ecc9e6bb953ae24d90851258cc2f5c989950610f89849392610f6c610ffb93610e3f98971115612885565b338c526c050c783eb9b5c85f2a8000000f8852428a8d20556124b8565b96875190878901908151958b5193610fa08561221d565b84528984019687526006549a610fb6898d6124f9565b6006555192518c5193610fc88561221d565b84528a840152610fd9888551612ab2565b84528061107f575b50338d528852898c20825181556001865191015533612e73565b61103d575b51855182815260018582015242878201527fe3b53cd1a44fbf11535e145d80b8ef1ed6d57a73bf5daa7e939b6b01657d654960603392a3836124f9565b61107a6001600160a01b03600c54168751906323b872dd60e01b8783015233602483015230604483015284606483015260648252610e8d8261226b565b611000565b86528d610fe1565b6084898689519162461bcd60e51b8352820152603660248201527f566f74696e67457363726f773a2043616e206f6e6c79206c6f636b20756e746960448201527f6c20612074696d6520696e2074686520667574757265000000000000000000006064820152fd5b6084898689519162461bcd60e51b8352820152602760248201527f566f74696e67457363726f773a205769746864726177206f6c6420746f6b656e60448201527f73206669727374000000000000000000000000000000000000000000000000006064820152fd5b602484601187634e487b7160e01b835252fd5b5050346102b357816003193601126102b35751908152602090f35b9190503461033957826003193601126103395780519183600354906001908260011c92600181168015611280575b602095868610821461126d575084885290811561124b57506001146111f2575b6111ee86866111e4828b0383612287565b51918291826122aa565b0390f35b929550600383527fc2575a0e9e593c00f959f8c92f12db2869c3395a3b0502d05e2516446f71f85b5b82841061123857505050826111ee946111e49282010194386111d3565b805486850188015292860192810161121b565b60ff191687860152505050151560051b83010192506111e4826111ee386111d3565b836022602492634e487b7160e01b835252fd5b93607f16936111b3565b5050346102b35760206003193601126102b357806020926001600160a01b036112b161230d565b1681526c050c783eb9b5c85f2a8000000f845220549051908152f35b9050346103395781600319360112610339578160209360ff926112ee6122f2565b903582528186526001600160a01b0383832091168252855220541690519015158152f35b5050346102b357816003193601126102b3576020906007549051908152f35b839150346102b35760206003193601126102b35735906c01431e0fae6d7217caa00000008210156108ca575060021b906111ee82600e015491600f84015493601160108201549101549151948594859094939260609260808301968352602083015260408201520152565b5050346102b35760206003193601126102b357806020926001600160a01b036113c361230d565b1681526c050c783eb9b5c85f2a80000011845220549051908152f35b5050346102b357816003193601126102b3576020906001600160a01b03600954169051908152f35b8383346102b35760208060031936011261033957611423612941565b61142c33612994565b3383526c050c783eb9b5c85f2a8000000e80825282842062093a809081873504828102928184041490151715611614576001810154428111156115d25786825413156115905761147d908311612814565b630784ce004201804211610e9f5790610d8661149b92841115612885565b91825190848401908151938751936114b28561221d565b8452868401948552600654955192518851936114cd8561221d565b845287840152835189811280151661157d577f5e2aa66efd74cce82b21852e317e5490d9ecc9e6bb953ae24d90851258cc2f5c999a50908493929161152d955280611575575b50338a528652868920825181556001855191015533612e73565b51835186815260038482015242858201527fe3b53cd1a44fbf11535e145d80b8ef1ed6d57a73bf5daa7e939b6b01657d654960603392a3825191818352820152a16001805580f35b85528a611513565b60248a60118d634e487b7160e01b835252fd5b6064888688519162461bcd60e51b8352820152601f60248201527f566f74696e67457363726f773a204e6f7468696e67206973206c6f636b6564006044820152fd5b6064888688519162461bcd60e51b8352820152601a60248201527f566f74696e67457363726f773a204c6f636b20657870697265640000000000006044820152fd5b602486601189634e487b7160e01b835252fd5b5050346102b357816003193601126102b3576020905160038152f35b5050346102b35760206003193601126102b35760209061079161166461230d565b4290612c98565b5050346102b357806003193601126102b35760209061079161168b61230d565b602435906125c3565b8383346102b357816003193601126102b35780519180938054916001908360011c9260018516948515611781575b602095868610811461176e5785895290811561174a57506001146116f2575b6111ee87876111e4828c0383612287565b81529295507f8a35acfbc15ff81a39ae7d344fd709f28e8600b4aa8c65c6b64bfe7fe36bd19b5b82841061173757505050826111ee946111e4928201019486806116e1565b8054868501880152928601928101611719565b60ff19168887015250505050151560051b83010192506111e4826111ee86806116e1565b602484602285634e487b7160e01b835252fd5b93607f16936116c2565b5050346102b35760206003193601126102b3576001816020936001600160a01b036117b461230d565b1681526c050c783eb9b5c85f2a8000000e85522001549051908152f35b5050346102b357816003193601126102b3576020906001600160a01b03600b54169051908152f35b9050346103395760206003193601126103395761181461230d565b917f7b765e0e932d348852a6f810bfa1ab891e259123f02db8cdcde614c57022335784528360205280842033855260205260ff8185205416156118b757836001600160a01b038461186433612d2d565b5061186e81612b6c565b50168073ffffffffffffffffffffffffffffffffffffffff19600d541617600d55337f6aef1fb5b23d0e109fc7f2b0601019e1edbacd177e31a441ec8548e8dd14f0f78380a380f35b906020606492519162461bcd60e51b8352820152601c60248201527f566f74696e67457363726f773a20496e76616c69642043616c6c6572000000006044820152fd5b8383346102b357816003193601126102b357611914612941565b33825260206c050c783eb9b5c85f2a8000000e815281832093600185019081544210611a46575061199185857f5e2aa66efd74cce82b21852e317e5490d9ecc9e6bb953ae24d90851258cc2f5c9697549355868155611975836006546124d6565b60065561198a611984826124b8565b916124b8565b9033612e73565b6119e16001600160a01b03600c54168451907fa9059cbb000000000000000000000000000000000000000000000000000000008583015233602483015283604483015260448252610e8d8261224f565b3385526c050c783eb9b5c85f2a8000000f82528483812055825181815242838201527fadec52fcd1408589179b85e44b434374db078b4eaf793e7d1a1bb0ae4ecfeee5843392a2611a3560065491826124f9565b918351928352820152a16001805580f35b6084908385519162461bcd60e51b83528201526024808201527f566f74696e67457363726f773a20546865206c6f636b206469646e277420657860448201527f70697265000000000000000000000000000000000000000000000000000000006064820152fd5b5050346102b357816003193601126102b3576020905160028152f35b8383346102b357806003193601126102b357611ae36122f2565b90336001600160a01b03831603611b00575061064f919235612dd8565b8390517f6697b232000000000000000000000000000000000000000000000000000000008152fd5b5050346102b357806003193601126102b357611b4261230d565b6001600160a01b03602435911683526c050c783eb9b5c85f2a80000010602052818320633b9aca00821015611bad5790611b7b91612323565b508054600182015460028301546003909301549351918252602082015260408101919091526060810191909152608090f35b8380fd5b5050346102b357816003193601126102b3576020906005549051908152f35b5050346102b357806003193601126102b357602090610791611bf061230d565b60243590612c98565b91905034610339578060031936011261033957611c1461230d565b91602435611c20612941565b6001600160a01b03808516908187526c050c783eb9b5c85f2a8000000e90602094828652611c4f878a206124b8565b908515611da15750808987925113611c66906123d7565b01514210611c7390612447565b828852818552858820611c85906124b8565b968751868901805194895192611c9a8461221d565b83528883019586526006549a611cb0898d6124f9565b6006555191518a5192611cc28461221d565b83528983015287835190611cd591612ab2565b8352868c528852888b208251815585519060010155611cf392612e73565b600c541685518581016323b872dd60e01b905283602482015230604482015284606482015260648152611d258161226b565b611d2e9161350c565b519084518381528785820152428682015260607fe3b53cd1a44fbf11535e145d80b8ef1ed6d57a73bf5daa7e939b6b01657d654991a3611d6e90846124f9565b9082519384528301527f5e2aa66efd74cce82b21852e317e5490d9ecc9e6bb953ae24d90851258cc2f5c91a16001805580f35b6084908789519162461bcd60e51b8352820152602160248201527f566f74696e67457363726f773a204e656564206e6f6e2d7a65726f2076616c7560448201527f65000000000000000000000000000000000000000000000000000000000000006064820152fd5b9190503461033957806003193601126103395761064f9135611e2e60016106396122f2565b612c1e565b90503461033957602060031936011261033957816020936001923581528085522001549051908152f35b5050346102b357816003193601126102b35760209061079142612ace565b5050346102b357816003193601126102b3576020906001600160a01b03600854169051908152f35b9190503461033957602080600319360112611bad577f5e2aa66efd74cce82b21852e317e5490d9ecc9e6bb953ae24d90851258cc2f5c923590611ee4612941565b611eed33612994565b338552610e3f6c050c783eb9b5c85f2a8000000e9283835284872093611f3482151595611f1987612366565b611f258a8254136123d7565b610d8660018201544210612447565b94611fa086518688018051948a5192611f4c8461221d565b835288830195865260065499611f62888c6124f9565b6006555191518b5192611f748461221d565b835289830152611f85878451612ab2565b8352338d528852898c20825181556001865191015533612e73565b611fe2575b51855182815260028582015242878201527fe3b53cd1a44fbf11535e145d80b8ef1ed6d57a73bf5daa7e939b6b01657d654960603392a3836124f9565b61201f6001600160a01b03600c54168751906323b872dd60e01b8783015233602483015230604483015284606483015260648252610e8d8261226b565b611fa5565b5050346102b357816003193601126102b357602090517f7b765e0e932d348852a6f810bfa1ab891e259123f02db8cdcde614c5702233578152f35b919050346103395782600319360112610339576020925051908152f35b9190503461033957826003193601126103395780519183600254906001908260011c92600181168015612133575b602095868610821461126d575084885290811561124b57506001146120da576111ee86866111e4828b0383612287565b929550600283527f405787fa12a823e0f2b7631cc41b3ba8828b3321ca811111fa75cd3aa3bb5ace5b82841061212057505050826111ee946111e49282010194386111d3565b8054868501880152928601928101612103565b93607f16936120aa565b5050346102b357816003193601126102b35760209051670de0b6b3a76400008152f35b5050346102b357816003193601126102b3576020906006549051908152f35b84913461033957602060031936011261033957357fffffffff00000000000000000000000000000000000000000000000000000000811680910361033957602092507f7965db0b0000000000000000000000000000000000000000000000000000000081149081156121f3575b5015158152f35b7f01ffc9a700000000000000000000000000000000000000000000000000000000915014836121ec565b6040810190811067ffffffffffffffff82111761223957604052565b634e487b7160e01b600052604160045260246000fd5b6080810190811067ffffffffffffffff82111761223957604052565b60a0810190811067ffffffffffffffff82111761223957604052565b90601f601f19910116810190811067ffffffffffffffff82111761223957604052565b60208082528251818301819052939260005b8581106122de57505050601f19601f8460006040809697860101520116010190565b8181018301518482016040015282016122bc565b602435906001600160a01b038216820361230857565b600080fd5b600435906001600160a01b038216820361230857565b90633b9aca0081101561233a5760021b0190600090565b634e487b7160e01b600052603260045260246000fd5b6003196040910112612308576004359060243590565b1561236d57565b608460405162461bcd60e51b815260206004820152602160248201527f566f74696e67457363726f773a206e656564206e6f6e2d7a65726f2076616c7560448201527f65000000000000000000000000000000000000000000000000000000000000006064820152fd5b156123de57565b608460405162461bcd60e51b8152602060048201526024808201527f566f74696e67457363726f773a204e6f206578697374696e67206c6f636b206660448201527f6f756e64000000000000000000000000000000000000000000000000000000006064820152fd5b1561244e57565b608460405162461bcd60e51b815260206004820152603560248201527f566f74696e67457363726f773a2043616e6e6f742061646420746f20616e206560448201527f787069726564206c6f636b2e20576974686472617700000000000000000000006064820152fd5b906040516124c58161221d565b602060018294805484520154910152565b919082039182116124e357565b634e487b7160e01b600052601160045260246000fd5b919082018092116124e357565b8115612510570490565b634e487b7160e01b600052601260045260246000fd5b906040516125338161224f565b6060600382948054845260018101546020850152600281015460408501520154910152565b818102929181159184041417156124e357565b8181029291600082127f80000000000000000000000000000000000000000000000000000000000000008214166124e35781840514901517156124e357565b818103929160001380158285131691841216176124e357565b4382116127d0576001600160a01b031660008181526c050c783eb9b5c85f2a80000011602090815260408083205490939183915b60808310612755575b50505061262e91612628916000526c050c783eb9b5c85f2a8000001060205283600020612323565b50612526565b916007549161263d8383613399565b6c01431e0fae6d7217caa00000008082101561233a576126628260021b600e01612526565b9482101561272657600182018092116124e35781101561233a576126e2936126db93612696610aa09360021b600e01612526565b906126bb856126ae60608501516060870151906124d6565b93015186850151906124d6565b905b8584015193836126f7575b50505050602086015192860151906124d6565b82516125aa565b90819052600081126126f15790565b50600090565b612717926107c061271d9695936060612712940151906124d6565b612506565b906124f9565b388080806126c8565b5050610aa0836126db9361274160606126e2970151436124d6565b9061274f85840151426124d6565b906126bd565b909193818110156127ca5761276a82826124f9565b60018082018092116124e3571c90846000526c050c783eb9b5c85f2a80000010845287600361279c848a600020612323565b500154116127b25750600190945b0191906125f7565b94915060001981019081116124e357600190916127aa565b93612600565b606460405162461bcd60e51b815260206004820152601d60248201527f566f74696e67457363726f773a2057726f6e6720636f6e646974696f6e0000006044820152fd5b1561281b57565b608460405162461bcd60e51b815260206004820152602d60248201527f566f74696e67457363726f773a2043616e206f6e6c7920696e6372656173652060448201527f6c6f636b206475726174696f6e000000000000000000000000000000000000006064820152fd5b1561288c57565b608460405162461bcd60e51b815260206004820152602c60248201527f566f74696e67457363726f773a20566f74696e67206c6f636b2063616e20626560448201527f2034207965617273206d617800000000000000000000000000000000000000006064820152fd5b156128fd57565b606460405162461bcd60e51b815260206004820152601860248201527f566f74696e67457363726f773a2061646d696e206f6e6c7900000000000000006044820152fd5b600260015414612952576002600155565b60046040517f3ee5aeb5000000000000000000000000000000000000000000000000000000008152fd5b90816020910312612308575180151581036123085790565b6001600160a01b03809116903282036129ab575050565b600954169081612a20575b608460405162461bcd60e51b815260206004820152603360248201527f566f74696e67457363726f773a20536d61727420636f6e74726163742064657060448201527f6f7369746f7273206e6f7420616c6c6f776564000000000000000000000000006064820152fd5b600091602460209260405194859384927fc23697a800000000000000000000000000000000000000000000000000000000845260048401525af1908115612aa657600091612a77575b50612a755780806129b6565b565b612a99915060203d602011612a9f575b612a918183612287565b81019061297c565b38612a69565b503d612a87565b6040513d6000823e3d90fd5b919091600083820193841291129080158216911516176124e357565b8015612b08575b600754906c01431e0fae6d7217caa000000082101561233a57612b00612b059260021b600e01612526565b613440565b90565b5042612ad5565b80600052600060205260406000203360005260205260ff6040600020541615612b355750565b604490604051907fe2517d3f0000000000000000000000000000000000000000000000000000000082523360048301526024820152fd5b6001600160a01b031660008181527fd4b1ef424fcb83dce82b8e6790fbd9bbcd76978bd34427cec18daa7ab216754360205260408120549091907f7b765e0e932d348852a6f810bfa1ab891e259123f02db8cdcde614c5702233579060ff16612c1957808352826020526040832082845260205260408320600160ff198254161790557f2f8788117e7eff1d82e926ec794901d17c78024a50270940304540a733656f0d339380a4600190565b505090565b90600091808352826020526001600160a01b036040842092169182845260205260ff60408420541615600014612c1957808352826020526040832082845260205260408320600160ff198254161790557f2f8788117e7eff1d82e926ec794901d17c78024a50270940304540a733656f0d339380a4600190565b8115612d25575b6001600160a01b031660009081526c050c783eb9b5c85f2a80000011602052604081205480612cce5750905090565b612d12612d0b612cf661262885946c050c783eb9b5c85f2a8000001060205260408620612323565b94610aa06020870151916040880151906124d6565b84516125aa565b80845212612d1f57505190565b81525190565b429150612c9f565b6001600160a01b031660008181527fd4b1ef424fcb83dce82b8e6790fbd9bbcd76978bd34427cec18daa7ab216754360205260408120549091907f7b765e0e932d348852a6f810bfa1ab891e259123f02db8cdcde614c5702233579060ff1615612c195780835282602052604083208284526020526040832060ff1981541690557ff6391f5c32d9c69d2a47ea670b442974b53935d1edc7fd64eb21e047a839171b339380a4600190565b90600091808352826020526001600160a01b036040842092169182845260205260ff604084205416600014612c195780835282602052604083208284526020526040832060ff1981541690557ff6391f5c32d9c69d2a47ea670b442974b53935d1edc7fd64eb21e047a839171b339380a4600190565b60405190612e5b8261224f565b60006060838281528260208201528260408201520152565b9091612e7d612e4e565b612e85612e4e565b60805260009182916001600160a01b03600754951695861515806132c6575b6040968751612eb28161224f565b60008152602060a052600060a05182015242898201524360608201528161329c575b888101805190600090824211613262575b9062093a8080808504026000945b60ff8610613122575b50505050505082826007556130b8575b6c01431e0fae6d7217caa000000082101561233a57612f509160021b600e019060606003918051845560208101516001850155604081015160028501550151910155565b612f5e575b50505050505050565b60a051019342855111613062575b505060a0510191825190428211613020575b50505050816000526c050c783eb9b5c85f2a8000001160a05152612fd7816000206001815401809155826080510192428452606060805101944386526000526c050c783eb9b5c85f2a8000001060a05152600020612323565b92909261300a5760039160805151845560a051608051015160018501555160028401555191015538808080808080612f55565b634e487b7160e01b600052600060045260246000fd5b511061302e575b8080612f7e565b60a051608051015161303f916125aa565b90516000526c050c783eb9b5c85f2a8000001260a0515281600020553880613027565b6130719160a051015190612ab2565b60a0518201518451146130a2575b83516000526c050c783eb9b5c85f2a8000001260a0515284600020553880612f6c565b60a05160805101516130b3916125aa565b61307f565b60006130d160a051608051015160a051880151906125aa565b6130e160a0518401918251612ab2565b81526130fc6130f5608051518951906125aa565b8451612ab2565b9081845282815112613119575b501215612f0c5760008152612f0c565b82905238613109565b8282018092116124e3576000918f814281111561323e57505050600061316742935b61315e8a51610aa660a0518d0196610aa08851918a6124d6565b8a528351612ab2565b80835281895112613236575b1261322c575b50809381815260608701956131a58751670de0b6b3a7640000610af661319f87806124d6565b89612558565b8752600190818a01809a116124e357894285036131d2575050505050505050439052388080808080612efc565b9091929394959697506c01431e0fae6d7217caa000000081101561233a57886132209160021b600e019060606003918051845560208101516001850155604081015160028501550151910155565b01929190939294612ef3565b6000905238613179565b818952613173565b90846131679260009496526c050c783eb9b5c85f2a8000001260a051522054613144565b90506132726060840151436124d6565b670de0b6b3a764000090808202918204036124e357613296906107d08351426124d6565b90612ee5565b506c01431e0fae6d7217caa000000081101561233a576132c18160021b600e01612526565b612ed4565b60208201805142108061338f575b61336c575b604060208601974289511180613362575b61333b575b825181526c050c783eb9b5c85f2a80000012602052205496519081613316575b5050612ea4565b5191955090810361332c575084935b388061330f565b60005260406000205493613325565b613359630784ce008851058060206080510152610aa0428c516124d6565b608051526132ef565b50808751136132ea565b613388630784ce00845105806020870152610aa04284516124d6565b84526132d9565b50868351136132d4565b600091906000915b608083106133b0575b50505090565b9091928181101561343a576133c582826124f9565b906001918281018091116124e35780831c926c01431e0fae6d7217caa000000084101561233a571b60031916601190810154851061340c575050600190935b0191906133a1565b909492506000198201918211613426575060019091613404565b634e487b7160e01b60005260045260246000fd5b926133aa565b906040906040830162093a809182825104838102908082048514901517156124e357936000945b60ff861061348b575b5050505050506000815112613483575190565b600081525190565b8481018091116124e35760009080848111156134ed57505082955b602088016134c46134bd8251610aa089518c6124d6565b8a516125aa565b89528488146134e6576134da6001938251612ab2565b90528685520194613467565b5050613470565b82526c050c783eb9b5c85f2a80000012602052908290205490956134a6565b6001600160a01b031690600080826020829451910182865af13d156135df573d67ffffffffffffffff81116135cb57604051613569939291613558601f8201601f191660200183612287565b8152809260203d92013e5b836135ec565b80519081151591826135b0575b505061357f5750565b602490604051907f5274afe70000000000000000000000000000000000000000000000000000000082526004820152fd5b6135c3925060208091830101910161297c565b153880613576565b602483634e487b7160e01b81526041600452fd5b6135699150606090613563565b9061362b575080511561360157805190602001fd5b60046040517f1425ea42000000000000000000000000000000000000000000000000000000008152fd5b81511580613676575b61363c575090565b6024906001600160a01b03604051917f9996b315000000000000000000000000000000000000000000000000000000008352166004820152fd5b50803b1561363456fea2646970667358221220140d42756080c3e0c293991c6acb1535ea083fbc014704724b5bc264565ea37564736f6c634300081800332f8788117e7eff1d82e926ec794901d17c78024a50270940304540a733656f0d",
  "devdoc": {
    "errors": {
      "AccessControlBadConfirmation()": [
        {
          "details": "The caller of a function is not the expected one. NOTE: Don't confuse with {AccessControlUnauthorizedAccount}."
        }
      ],
      "AccessControlUnauthorizedAccount(address,bytes32)": [
        {
          "details": "The `account` is missing a role."
        }
      ],
      "AddressEmptyCode(address)": [
        {
          "details": "There's no code at `target` (it is not a contract)."
        }
      ],
      "AddressInsufficientBalance(address)": [
        {
          "details": "The ETH balance of the account is not enough to perform the operation."
        }
      ],
      "FailedInnerCall()": [
        {
          "details": "A call to an address target failed. The target may have reverted."
        }
      ],
      "ReentrancyGuardReentrantCall()": [
        {
          "details": "Unauthorized reentrant call."
        }
      ],
      "SafeERC20FailedOperation(address)": [
        {
          "details": "An operation with an ERC20 token failed."
        }
      ]
    },
    "events": {
      "RoleAdminChanged(bytes32,bytes32,bytes32)": {
        "details": "Emitted when `newAdminRole` is set as ``role``'s admin role, replacing `previousAdminRole` `DEFAULT_ADMIN_ROLE` is the starting admin for all roles, despite {RoleAdminChanged} not being emitted signaling this."
      },
      "RoleGranted(bytes32,address,address)": {
        "details": "Emitted when `account` is granted `role`. `sender` is the account that originated the contract call, an admin role bearer except when using {AccessControl-_setupRole}."
      },
      "RoleRevoked(bytes32,address,address)": {
        "details": "Emitted when `account` is revoked `role`. `sender` is the account that originated the contract call:   - if using `revokeRole`, it is the admin role bearer   - if using `renounceRole`, it is the role bearer (i.e. `account`)"
      }
    },
    "kind": "dev",
    "methods": {
      "getRoleAdmin(bytes32)": {
        "details": "Returns the admin role that controls `role`. See {grantRole} and {revokeRole}. To change a role's admin, use {_setRoleAdmin}."
      },
      "grantRole(bytes32,address)": {
        "details": "Grants `role` to `account`. If `account` had not been already granted `role`, emits a {RoleGranted} event. Requirements: - the caller must have ``role``'s admin role. May emit a {RoleGranted} event."
      },
      "hasRole(bytes32,address)": {
        "details": "Returns `true` if `account` has been granted `role`."
      },
      "renounceRole(bytes32,address)": {
        "details": "Revokes `role` from the calling account. Roles are often managed via {grantRole} and {revokeRole}: this function's purpose is to provide a mechanism for accounts to lose their privileges if they are compromised (such as when a trusted device is misplaced). If the calling account had been revoked `role`, emits a {RoleRevoked} event. Requirements: - the caller must be `callerConfirmation`. May emit a {RoleRevoked} event."
      },
      "revokeRole(bytes32,address)": {
        "details": "Revokes `role` from `account`. If `account` had been granted `role`, emits a {RoleRevoked} event. Requirements: - the caller must have ``role``'s admin role. May emit a {RoleRevoked} event."
      },
      "supportsInterface(bytes4)": {
        "details": "See {IERC165-supportsInterface}."
      }
    },
    "version": 1
  },
  "userdoc": {
    "kind": "user",
    "methods": {},
    "version": 1
  },
  "storageLayout": {
    "storage": [
      {
        "astId": 26,
        "contract": "contracts/VotingEscrow.sol:VotingEscrow",
        "label": "_roles",
        "offset": 0,
        "slot": "0",
        "type": "t_mapping(t_bytes32,t_struct(RoleData)21_storage)"
      },
      {
        "astId": 1754,
        "contract": "contracts/VotingEscrow.sol:VotingEscrow",
        "label": "_status",
        "offset": 0,
        "slot": "1",
        "type": "t_uint256"
      },
      {
        "astId": 1916,
        "contract": "contracts/VotingEscrow.sol:VotingEscrow",
        "label": "name",
        "offset": 0,
        "slot": "2",
        "type": "t_string_storage"
      },
      {
        "astId": 1918,
        "contract": "contracts/VotingEscrow.sol:VotingEscrow",
        "label": "symbol",
        "offset": 0,
        "slot": "3",
        "type": "t_string_storage"
      },
      {
        "astId": 1920,
        "contract": "contracts/VotingEscrow.sol:VotingEscrow",
        "label": "version",
        "offset": 0,
        "slot": "4",
        "type": "t_string_storage"
      },
      {
        "astId": 1922,
        "contract": "contracts/VotingEscrow.sol:VotingEscrow",
        "label": "decimals",
        "offset": 0,
        "slot": "5",
        "type": "t_uint256"
      },
      {
        "astId": 1924,
        "contract": "contracts/VotingEscrow.sol:VotingEscrow",
        "label": "supply",
        "offset": 0,
        "slot": "6",
        "type": "t_uint256"
      },
      {
        "astId": 1926,
        "contract": "contracts/VotingEscrow.sol:VotingEscrow",
        "label": "epoch",
        "offset": 0,
        "slot": "7",
        "type": "t_uint256"
      },
      {
        "astId": 1928,
        "contract": "contracts/VotingEscrow.sol:VotingEscrow",
        "label": "futureSmartWalletChecker",
        "offset": 0,
        "slot": "8",
        "type": "t_address"
      },
      {
        "astId": 1930,
        "contract": "contracts/VotingEscrow.sol:VotingEscrow",
        "label": "smartWalletChecker",
        "offset": 0,
        "slot": "9",
        "type": "t_address"
      },
      {
        "astId": 1932,
        "contract": "contracts/VotingEscrow.sol:VotingEscrow",
        "label": "admin",
        "offset": 0,
        "slot": "10",
        "type": "t_address"
      },
      {
        "astId": 1934,
        "contract": "contracts/VotingEscrow.sol:VotingEscrow",
        "label": "futureAdmin",
        "offset": 0,
        "slot": "11",
        "type": "t_address"
      },
      {
        "astId": 1936,
        "contract": "contracts/VotingEscrow.sol:VotingEscrow",
        "label": "token",
        "offset": 0,
        "slot": "12",
        "type": "t_address"
      },
      {
        "astId": 1938,
        "contract": "contracts/VotingEscrow.sol:VotingEscrow",
        "label": "controller",
        "offset": 0,
        "slot": "13",
        "type": "t_address"
      },
      {
        "astId": 1940,
        "contract": "contracts/VotingEscrow.sol:VotingEscrow",
        "label": "transfersEnabled",
        "offset": 20,
        "slot": "13",
        "type": "t_bool"
      },
      {
        "astId": 1945,
        "contract": "contracts/VotingEscrow.sol:VotingEscrow",
        "label": "pointHistory",
        "offset": 0,
        "slot": "14",
        "type": "t_array(t_struct(Point)1909_storage)100000000000000000000000000000_storage"
      },
      {
        "astId": 1950,
        "contract": "contracts/VotingEscrow.sol:VotingEscrow",
        "label": "locked",
        "offset": 0,
        "slot": "400000000000000000000000000014",
        "type": "t_mapping(t_address,t_struct(LockedBalance)1914_storage)"
      },
      {
        "astId": 1954,
        "contract": "contracts/VotingEscrow.sol:VotingEscrow",
        "label": "createLockTs",
        "offset": 0,
        "slot": "400000000000000000000000000015",
        "type": "t_mapping(t_address,t_uint256)"
      },
      {
        "astId": 1961,
        "contract": "contracts/VotingEscrow.sol:VotingEscrow",
        "label": "userPointHistory",
        "offset": 0,
        "slot": "400000000000000000000000000016",
        "type": "t_mapping(t_address,t_array(t_struct(Point)1909_storage)1000000000_storage)"
      },
      {
        "astId": 1965,
        "contract": "contracts/VotingEscrow.sol:VotingEscrow",
        "label": "userPointEpoch",
        "offset": 0,
        "slot": "400000000000000000000000000017",
        "type": "t_mapping(t_address,t_uint256)"
      },
      {
        "astId": 1969,
        "contract": "contracts/VotingEscrow.sol:VotingEscrow",
        "label": "slopeChanges",
        "offset": 0,
        "slot": "400000000000000000000000000018",
        "type": "t_mapping(t_uint256,t_int256)"
      }
    ],
    "types": {
      "t_address": {
        "encoding": "inplace",
        "label": "address",
        "numberOfBytes": "20"
      },
      "t_array(t_struct(Point)1909_storage)100000000000000000000000000000_storage": {
        "base": "t_struct(Point)1909_storage",
        "encoding": "inplace",
        "label": "struct VotingEscrow.Point[100000000000000000000000000000]",
        "numberOfBytes": "12800000000000000000000000000000"
      },
      "t_array(t_struct(Point)1909_storage)1000000000_storage": {
        "base": "t_struct(Point)1909_storage",
        "encoding": "inplace",
        "label": "struct VotingEscrow.Point[1000000000]",
        "numberOfBytes": "128000000000"
      },
      "t_bool": {
        "encoding": "inplace",
        "label": "bool",
        "numberOfBytes": "1"
      },
      "t_bytes32": {
        "encoding": "inplace",
        "label": "bytes32",
        "numberOfBytes": "32"
      },
      "t_int256": {
        "encoding": "inplace",
        "label": "int256",
        "numberOfBytes": "32"
      },
      "t_mapping(t_address,t_array(t_struct(Point)1909_storage)1000000000_storage)": {
        "encoding": "mapping",
        "key": "t_address",
        "label": "mapping(address => struct VotingEscrow.Point[1000000000])",
        "numberOfBytes": "32",
        "value": "t_array(t_struct(Point)1909_storage)1000000000_storage"
      },
      "t_mapping(t_address,t_bool)": {
        "encoding": "mapping",
        "key": "t_address",
        "label": "mapping(address => bool)",
        "numberOfBytes": "32",
        "value": "t_bool"
      },
      "t_mapping(t_address,t_struct(LockedBalance)1914_storage)": {
        "encoding": "mapping",
        "key": "t_address",
        "label": "mapping(address => struct VotingEscrow.LockedBalance)",
        "numberOfBytes": "32",
        "value": "t_struct(LockedBalance)1914_storage"
      },
      "t_mapping(t_address,t_uint256)": {
        "encoding": "mapping",
        "key": "t_address",
        "label": "mapping(address => uint256)",
        "numberOfBytes": "32",
        "value": "t_uint256"
      },
      "t_mapping(t_bytes32,t_struct(RoleData)21_storage)": {
        "encoding": "mapping",
        "key": "t_bytes32",
        "label": "mapping(bytes32 => struct AccessControl.RoleData)",
        "numberOfBytes": "32",
        "value": "t_struct(RoleData)21_storage"
      },
      "t_mapping(t_uint256,t_int256)": {
        "encoding": "mapping",
        "key": "t_uint256",
        "label": "mapping(uint256 => int256)",
        "numberOfBytes": "32",
        "value": "t_int256"
      },
      "t_string_storage": {
        "encoding": "bytes",
        "label": "string",
        "numberOfBytes": "32"
      },
      "t_struct(LockedBalance)1914_storage": {
        "encoding": "inplace",
        "label": "struct VotingEscrow.LockedBalance",
        "members": [
          {
            "astId": 1911,
            "contract": "contracts/VotingEscrow.sol:VotingEscrow",
            "label": "amount",
            "offset": 0,
            "slot": "0",
            "type": "t_int256"
          },
          {
            "astId": 1913,
            "contract": "contracts/VotingEscrow.sol:VotingEscrow",
            "label": "end",
            "offset": 0,
            "slot": "1",
            "type": "t_uint256"
          }
        ],
        "numberOfBytes": "64"
      },
      "t_struct(Point)1909_storage": {
        "encoding": "inplace",
        "label": "struct VotingEscrow.Point",
        "members": [
          {
            "astId": 1902,
            "contract": "contracts/VotingEscrow.sol:VotingEscrow",
            "label": "bias",
            "offset": 0,
            "slot": "0",
            "type": "t_int256"
          },
          {
            "astId": 1904,
            "contract": "contracts/VotingEscrow.sol:VotingEscrow",
            "label": "slope",
            "offset": 0,
            "slot": "1",
            "type": "t_int256"
          },
          {
            "astId": 1906,
            "contract": "contracts/VotingEscrow.sol:VotingEscrow",
            "label": "timeStamp",
            "offset": 0,
            "slot": "2",
            "type": "t_uint256"
          },
          {
            "astId": 1908,
            "contract": "contracts/VotingEscrow.sol:VotingEscrow",
            "label": "blockNumber",
            "offset": 0,
            "slot": "3",
            "type": "t_uint256"
          }
        ],
        "numberOfBytes": "128"
      },
      "t_struct(RoleData)21_storage": {
        "encoding": "inplace",
        "label": "struct AccessControl.RoleData",
        "members": [
          {
            "astId": 18,
            "contract": "contracts/VotingEscrow.sol:VotingEscrow",
            "label": "hasRole",
            "offset": 0,
            "slot": "0",
            "type": "t_mapping(t_address,t_bool)"
          },
          {
            "astId": 20,
            "contract": "contracts/VotingEscrow.sol:VotingEscrow",
            "label": "adminRole",
            "offset": 0,
            "slot": "1",
            "type": "t_bytes32"
          }
        ],
        "numberOfBytes": "64"
      },
      "t_uint256": {
        "encoding": "inplace",
        "label": "uint256",
        "numberOfBytes": "32"
      }
    }
  }
}