{
  "address": "0xE78a94A17AC439B0c1B9E1241f1C667785E37232",
  "abi": [
    {
      "inputs": [
        {
          "internalType": "string",
          "name": "name_",
          "type": "string"
        },
        {
          "internalType": "string",
          "name": "symbol_",
          "type": "string"
        },
        {
          "internalType": "address",
          "name": "owner_",
          "type": "address"
        }
      ],
      "stateMutability": "nonpayable",
      "type": "constructor"
    },
    {
      "inputs": [
        {
          "internalType": "address",
          "name": "sender",
          "type": "address"
        },
        {
          "internalType": "uint256",
          "name": "tokenId",
          "type": "uint256"
        },
        {
          "internalType": "address",
          "name": "owner",
          "type": "address"
        }
      ],
      "name": "ERC721IncorrectOwner",
      "type": "error"
    },
    {
      "inputs": [
        {
          "internalType": "address",
          "name": "operator",
          "type": "address"
        },
        {
          "internalType": "uint256",
          "name": "tokenId",
          "type": "uint256"
        }
      ],
      "name": "ERC721InsufficientApproval",
      "type": "error"
    },
    {
      "inputs": [
        {
          "internalType": "address",
          "name": "approver",
          "type": "address"
        }
      ],
      "name": "ERC721InvalidApprover",
      "type": "error"
    },
    {
      "inputs": [
        {
          "internalType": "address",
          "name": "operator",
          "type": "address"
        }
      ],
      "name": "ERC721InvalidOperator",
      "type": "error"
    },
    {
      "inputs": [
        {
          "internalType": "address",
          "name": "owner",
          "type": "address"
        }
      ],
      "name": "ERC721InvalidOwner",
      "type": "error"
    },
    {
      "inputs": [
        {
          "internalType": "address",
          "name": "receiver",
          "type": "address"
        }
      ],
      "name": "ERC721InvalidReceiver",
      "type": "error"
    },
    {
      "inputs": [
        {
          "internalType": "address",
          "name": "sender",
          "type": "address"
        }
      ],
      "name": "ERC721InvalidSender",
      "type": "error"
    },
    {
      "inputs": [
        {
          "internalType": "uint256",
          "name": "tokenId",
          "type": "uint256"
        }
      ],
      "name": "ERC721NonexistentToken",
      "type": "error"
    },
    {
      "inputs": [
        {
          "internalType": "address",
          "name": "owner",
          "type": "address"
        }
      ],
      "name": "OwnableInvalidOwner",
      "type": "error"
    },
    {
      "inputs": [
        {
          "internalType": "address",
          "name": "account",
          "type": "address"
        }
      ],
      "name": "OwnableUnauthorizedAccount",
      "type": "error"
    },
    {
      "anonymous": false,
      "inputs": [
        {
          "indexed": true,
          "internalType": "address",
          "name": "owner",
          "type": "address"
        },
        {
          "indexed": true,
          "internalType": "address",
          "name": "approved",
          "type": "address"
        },
        {
          "indexed": true,
          "internalType": "uint256",
          "name": "tokenId",
          "type": "uint256"
        }
      ],
      "name": "Approval",
      "type": "event"
    },
    {
      "anonymous": false,
      "inputs": [
        {
          "indexed": true,
          "internalType": "address",
          "name": "owner",
          "type": "address"
        },
        {
          "indexed": true,
          "internalType": "address",
          "name": "operator",
          "type": "address"
        },
        {
          "indexed": false,
          "internalType": "bool",
          "name": "approved",
          "type": "bool"
        }
      ],
      "name": "ApprovalForAll",
      "type": "event"
    },
    {
      "anonymous": false,
      "inputs": [
        {
          "indexed": false,
          "internalType": "address[]",
          "name": "to",
          "type": "address[]"
        },
        {
          "indexed": false,
          "internalType": "uint256",
          "name": "lastTokenIdMinted",
          "type": "uint256"
        }
      ],
      "name": "BatchMinted",
      "type": "event"
    },
    {
      "anonymous": false,
      "inputs": [
        {
          "indexed": true,
          "internalType": "address",
          "name": "previousOwner",
          "type": "address"
        },
        {
          "indexed": true,
          "internalType": "address",
          "name": "newOwner",
          "type": "address"
        }
      ],
      "name": "OwnershipTransferStarted",
      "type": "event"
    },
    {
      "anonymous": false,
      "inputs": [
        {
          "indexed": true,
          "internalType": "address",
          "name": "previousOwner",
          "type": "address"
        },
        {
          "indexed": true,
          "internalType": "address",
          "name": "newOwner",
          "type": "address"
        }
      ],
      "name": "OwnershipTransferred",
      "type": "event"
    },
    {
      "anonymous": false,
      "inputs": [
        {
          "indexed": true,
          "internalType": "address",
          "name": "from",
          "type": "address"
        },
        {
          "indexed": true,
          "internalType": "address",
          "name": "to",
          "type": "address"
        },
        {
          "indexed": true,
          "internalType": "uint256",
          "name": "tokenId",
          "type": "uint256"
        }
      ],
      "name": "Transfer",
      "type": "event"
    },
    {
      "inputs": [],
      "name": "acceptOwnership",
      "outputs": [],
      "stateMutability": "nonpayable",
      "type": "function"
    },
    {
      "inputs": [
        {
          "internalType": "address",
          "name": "to",
          "type": "address"
        },
        {
          "internalType": "uint256",
          "name": "tokenId",
          "type": "uint256"
        }
      ],
      "name": "approve",
      "outputs": [],
      "stateMutability": "nonpayable",
      "type": "function"
    },
    {
      "inputs": [
        {
          "internalType": "address",
          "name": "owner",
          "type": "address"
        }
      ],
      "name": "balanceOf",
      "outputs": [
        {
          "internalType": "uint256",
          "name": "",
          "type": "uint256"
        }
      ],
      "stateMutability": "view",
      "type": "function"
    },
    {
      "inputs": [
        {
          "internalType": "uint256",
          "name": "tokenId",
          "type": "uint256"
        }
      ],
      "name": "getApproved",
      "outputs": [
        {
          "internalType": "address",
          "name": "",
          "type": "address"
        }
      ],
      "stateMutability": "view",
      "type": "function"
    },
    {
      "inputs": [
        {
          "internalType": "address",
          "name": "owner",
          "type": "address"
        },
        {
          "internalType": "address",
          "name": "operator",
          "type": "address"
        }
      ],
      "name": "isApprovedForAll",
      "outputs": [
        {
          "internalType": "bool",
          "name": "",
          "type": "bool"
        }
      ],
      "stateMutability": "view",
      "type": "function"
    },
    {
      "inputs": [
        {
          "internalType": "uint256",
          "name": "tokenId",
          "type": "uint256"
        }
      ],
      "name": "lockAmount",
      "outputs": [
        {
          "internalType": "uint256",
          "name": "stakedAmount",
          "type": "uint256"
        }
      ],
      "stateMutability": "view",
      "type": "function"
    },
    {
      "inputs": [],
      "name": "name",
      "outputs": [
        {
          "internalType": "string",
          "name": "",
          "type": "string"
        }
      ],
      "stateMutability": "view",
      "type": "function"
    },
    {
      "inputs": [],
      "name": "owner",
      "outputs": [
        {
          "internalType": "address",
          "name": "",
          "type": "address"
        }
      ],
      "stateMutability": "view",
      "type": "function"
    },
    {
      "inputs": [
        {
          "internalType": "uint256",
          "name": "tokenId",
          "type": "uint256"
        }
      ],
      "name": "ownerOf",
      "outputs": [
        {
          "internalType": "address",
          "name": "",
          "type": "address"
        }
      ],
      "stateMutability": "view",
      "type": "function"
    },
    {
      "inputs": [],
      "name": "pendingOwner",
      "outputs": [
        {
          "internalType": "address",
          "name": "",
          "type": "address"
        }
      ],
      "stateMutability": "view",
      "type": "function"
    },
    {
      "inputs": [],
      "name": "renounceOwnership",
      "outputs": [],
      "stateMutability": "nonpayable",
      "type": "function"
    },
    {
      "inputs": [
        {
          "internalType": "address",
          "name": "to",
          "type": "address"
        },
        {
          "internalType": "uint256",
          "name": "lpAmount",
          "type": "uint256"
        }
      ],
      "name": "safeMint",
      "outputs": [
        {
          "internalType": "uint256",
          "name": "tokenId",
          "type": "uint256"
        }
      ],
      "stateMutability": "nonpayable",
      "type": "function"
    },
    {
      "inputs": [
        {
          "internalType": "address[]",
          "name": "_to",
          "type": "address[]"
        },
        {
          "internalType": "uint256[]",
          "name": "_lpAmount",
          "type": "uint256[]"
        }
      ],
      "name": "safeMintBatch",
      "outputs": [],
      "stateMutability": "nonpayable",
      "type": "function"
    },
    {
      "inputs": [
        {
          "internalType": "address",
          "name": "from",
          "type": "address"
        },
        {
          "internalType": "address",
          "name": "to",
          "type": "address"
        },
        {
          "internalType": "uint256",
          "name": "tokenId",
          "type": "uint256"
        }
      ],
      "name": "safeTransferFrom",
      "outputs": [],
      "stateMutability": "nonpayable",
      "type": "function"
    },
    {
      "inputs": [
        {
          "internalType": "address",
          "name": "from",
          "type": "address"
        },
        {
          "internalType": "address",
          "name": "to",
          "type": "address"
        },
        {
          "internalType": "uint256",
          "name": "tokenId",
          "type": "uint256"
        },
        {
          "internalType": "bytes",
          "name": "data",
          "type": "bytes"
        }
      ],
      "name": "safeTransferFrom",
      "outputs": [],
      "stateMutability": "nonpayable",
      "type": "function"
    },
    {
      "inputs": [
        {
          "internalType": "address",
          "name": "operator",
          "type": "address"
        },
        {
          "internalType": "bool",
          "name": "approved",
          "type": "bool"
        }
      ],
      "name": "setApprovalForAll",
      "outputs": [],
      "stateMutability": "nonpayable",
      "type": "function"
    },
    {
      "inputs": [
        {
          "internalType": "bytes4",
          "name": "interfaceId",
          "type": "bytes4"
        }
      ],
      "name": "supportsInterface",
      "outputs": [
        {
          "internalType": "bool",
          "name": "",
          "type": "bool"
        }
      ],
      "stateMutability": "view",
      "type": "function"
    },
    {
      "inputs": [],
      "name": "symbol",
      "outputs": [
        {
          "internalType": "string",
          "name": "",
          "type": "string"
        }
      ],
      "stateMutability": "view",
      "type": "function"
    },
    {
      "inputs": [],
      "name": "tokenIdCount",
      "outputs": [
        {
          "internalType": "uint256",
          "name": "",
          "type": "uint256"
        }
      ],
      "stateMutability": "view",
      "type": "function"
    },
    {
      "inputs": [
        {
          "internalType": "uint256",
          "name": "tokenId",
          "type": "uint256"
        }
      ],
      "name": "tokenURI",
      "outputs": [
        {
          "internalType": "string",
          "name": "",
          "type": "string"
        }
      ],
      "stateMutability": "view",
      "type": "function"
    },
    {
      "inputs": [
        {
          "internalType": "address",
          "name": "from",
          "type": "address"
        },
        {
          "internalType": "address",
          "name": "to",
          "type": "address"
        },
        {
          "internalType": "uint256",
          "name": "tokenId",
          "type": "uint256"
        }
      ],
      "name": "transferFrom",
      "outputs": [],
      "stateMutability": "nonpayable",
      "type": "function"
    },
    {
      "inputs": [
        {
          "internalType": "address",
          "name": "newOwner",
          "type": "address"
        }
      ],
      "name": "transferOwnership",
      "outputs": [],
      "stateMutability": "nonpayable",
      "type": "function"
    }
  ],
  "transactionHash": "0x578b3ba2a4814be8d35727daf8c3f9e97e089d8105127a5f113923cb0cd2459c",
  "args": [
    "syMAXI",
    "syMAXI",
    "0xD2344ce2CFEaD1cBE24e33E8301411d62946A1d2"
  ],
  "numDeployments": 1,
  "solcInputHash": "223697bf02fd0af07878dad078d5935d",
  "bytecode": "0x60806040523480156200001157600080fd5b5060405162001b4838038062001b488339810160408190526200003491620001d3565b8083836000620000458382620002f1565b506001620000548282620002f1565b5050506001600160a01b0381166200008657604051631e4fbdf760e01b81526000600482015260240160405180910390fd5b62000091816200009b565b50505050620003bd565b600780546001600160a01b0319169055620000b681620000b9565b50565b600680546001600160a01b038381166001600160a01b0319831681179093556040519116919082907f8be0079c531659141344cd1fd0a4f28419497f9722a3daafe3b4186f6b6457e090600090a35050565b634e487b7160e01b600052604160045260246000fd5b600082601f8301126200013357600080fd5b81516001600160401b03808211156200015057620001506200010b565b604051601f8301601f19908116603f011681019082821181831017156200017b576200017b6200010b565b81604052838152602092508660208588010111156200019957600080fd5b600091505b83821015620001bd57858201830151818301840152908201906200019e565b6000602085830101528094505050505092915050565b600080600060608486031215620001e957600080fd5b83516001600160401b03808211156200020157600080fd5b6200020f8783880162000121565b945060208601519150808211156200022657600080fd5b50620002358682870162000121565b604086015190935090506001600160a01b03811681146200025557600080fd5b809150509250925092565b600181811c908216806200027557607f821691505b6020821081036200029657634e487b7160e01b600052602260045260246000fd5b50919050565b601f821115620002ec576000816000526020600020601f850160051c81016020861015620002c75750805b601f850160051c820191505b81811015620002e857828155600101620002d3565b5050505b505050565b81516001600160401b038111156200030d576200030d6200010b565b62000325816200031e845462000260565b846200029c565b602080601f8311600181146200035d5760008415620003445750858301515b600019600386901b1c1916600185901b178555620002e8565b600085815260208120601f198616915b828110156200038e578886015182559484019460019091019084016200036d565b5085821015620003ad5787850151600019600388901b60f8161c191681555b5050505050600190811b01905550565b61177b80620003cd6000396000f3fe608060405234801561001057600080fd5b50600436106101825760003560e01c806395d89b41116100d8578063c87b56dd1161008c578063e985e9c511610066578063e985e9c514610317578063f127394c14610353578063f2fde38b1461035c57600080fd5b8063c87b56dd146102d3578063daa58555146102e6578063e30c39781461030657600080fd5b8063a22cb465116100bd578063a22cb4651461029a578063aef765e4146102ad578063b88d4fde146102c057600080fd5b806395d89b411461027f578063a14481941461028757600080fd5b806342842e0e1161013a578063715018a611610114578063715018a61461025e57806379ba5097146102665780638da5cb5b1461026e57600080fd5b806342842e0e146102175780636352211e1461022a57806370a082311461023d57600080fd5b8063081812fc1161016b578063081812fc146101c4578063095ea7b3146101ef57806323b872dd1461020457600080fd5b806301ffc9a71461018757806306fdde03146101af575b600080fd5b61019a6101953660046112a2565b61036f565b60405190151581526020015b60405180910390f35b6101b7610454565b6040516101a6919061130f565b6101d76101d2366004611322565b6104e6565b6040516001600160a01b0390911681526020016101a6565b6102026101fd366004611357565b61050f565b005b610202610212366004611381565b61051e565b610202610225366004611381565b6105c7565b6101d7610238366004611322565b6105e7565b61025061024b3660046113bd565b6105f2565b6040519081526020016101a6565b610202610653565b610202610667565b6006546001600160a01b03166101d7565b6101b76106c4565b610250610295366004611357565b6106d3565b6102026102a83660046113d8565b610714565b6102026102bb366004611460565b61071f565b6102026102ce3660046114e2565b610859565b6101b76102e1366004611322565b610870565b6102506102f4366004611322565b60096020526000908152604090205481565b6007546001600160a01b03166101d7565b61019a6103253660046115be565b6001600160a01b03918216600090815260056020908152604080832093909416825291909152205460ff1690565b61025060085481565b61020261036a3660046113bd565b6108e5565b60007fffffffff0000000000000000000000000000000000000000000000000000000082167f80ac58cd00000000000000000000000000000000000000000000000000000000148061040257507fffffffff0000000000000000000000000000000000000000000000000000000082167f5b5e139f00000000000000000000000000000000000000000000000000000000145b8061044e57507f01ffc9a7000000000000000000000000000000000000000000000000000000007fffffffff000000000000000000000000000000000000000000000000000000008316145b92915050565b606060008054610463906115f1565b80601f016020809104026020016040519081016040528092919081815260200182805461048f906115f1565b80156104dc5780601f106104b1576101008083540402835291602001916104dc565b820191906000526020600020905b8154815290600101906020018083116104bf57829003601f168201915b5050505050905090565b60006104f182610963565b506000828152600460205260409020546001600160a01b031661044e565b61051a8282336109b5565b5050565b6001600160a01b03821661054d57604051633250574960e11b8152600060048201526024015b60405180910390fd5b600061055a8383336109c2565b9050836001600160a01b0316816001600160a01b0316146105c1576040517f64283d7b0000000000000000000000000000000000000000000000000000000081526001600160a01b0380861660048301526024820184905282166044820152606401610544565b50505050565b6105e283838360405180602001604052806000815250610859565b505050565b600061044e82610963565b60006001600160a01b038216610637576040517f89c62b6400000000000000000000000000000000000000000000000000000000815260006004820152602401610544565b506001600160a01b031660009081526003602052604090205490565b61065b610ac8565b6106656000610b0e565b565b60075433906001600160a01b031681146106b8576040517f118cdaa70000000000000000000000000000000000000000000000000000000081526001600160a01b0382166004820152602401610544565b6106c181610b0e565b50565b606060018054610463906115f1565b60006106dd610ac8565b600880549060006106ed8361162b565b9190505590506106fd8382610b34565b600081815260096020526040902091909155919050565b61051a338383610b4e565b610727610ac8565b60018311610791576040517f08c379a000000000000000000000000000000000000000000000000000000000815260206004820152601e60248201527f53796e746872204e46543a204d696e74206d6f7265207468616e206f6e6500006044820152606401610544565b60085460005b84811015610810576107da8686838181106107b4576107b4611653565b90506020020160208101906107c991906113bd565b836107d38161162b565b9450610b34565b8383828181106107ec576107ec611653565b60008581526009602090815260409091209102929092013590915550600101610797565b5060088190556040517fa1073f2c37a4313add0900530b4e7603aa018fe21cb0bbad768fe9ff6398bfab9061084a90879087908590611669565b60405180910390a15050505050565b61086484848461051e565b6105c184848484610c24565b606061087b82610963565b50600061089360408051602081019091526000815290565b905060008151116108b357604051806020016040528060008152506108de565b806108bd84610d97565b6040516020016108ce9291906116bd565b6040516020818303038152906040525b9392505050565b6108ed610ac8565b600780546001600160a01b03831673ffffffffffffffffffffffffffffffffffffffff19909116811790915561092b6006546001600160a01b031690565b6001600160a01b03167f38d16b8cac22d99fc7c124b9cd0de2d3fa1faef420bfe791d8c362d765e2270060405160405180910390a350565b6000818152600260205260408120546001600160a01b03168061044e576040517f7e27328900000000000000000000000000000000000000000000000000000000815260048101849052602401610544565b6105e28383836001610e37565b6000828152600260205260408120546001600160a01b03908116908316156109ef576109ef818486610f82565b6001600160a01b03811615610a2d57610a0c600085600080610e37565b6001600160a01b038116600090815260036020526040902080546000190190555b6001600160a01b03851615610a5c576001600160a01b0385166000908152600360205260409020805460010190555b600084815260026020526040808220805473ffffffffffffffffffffffffffffffffffffffff19166001600160a01b0389811691821790925591518793918516917fddf252ad1be2c89b69c2b068fc378daa952ba7f163c4a11628f55a4df523b3ef91a4949350505050565b6006546001600160a01b03163314610665576040517f118cdaa7000000000000000000000000000000000000000000000000000000008152336004820152602401610544565b6007805473ffffffffffffffffffffffffffffffffffffffff191690556106c181611018565b61051a828260405180602001604052806000815250611077565b6001600160a01b038216610b99576040517f5b08ba180000000000000000000000000000000000000000000000000000000081526001600160a01b0383166004820152602401610544565b6001600160a01b0383811660008181526005602090815260408083209487168084529482529182902080547fffffffffffffffffffffffffffffffffffffffffffffffffffffffffffffff001686151590811790915591519182527f17307eab39ab6107e8899845ad3d59bd9653f200f220920489ca2b5937696c31910160405180910390a3505050565b6001600160a01b0383163b156105c1576040517f150b7a020000000000000000000000000000000000000000000000000000000081526001600160a01b0384169063150b7a0290610c7f9033908890879087906004016116ec565b6020604051808303816000875af1925050508015610cba575060408051601f3d908101601f19168201909252610cb791810190611728565b60015b610d23573d808015610ce8576040519150601f19603f3d011682016040523d82523d6000602084013e610ced565b606091505b508051600003610d1b57604051633250574960e11b81526001600160a01b0385166004820152602401610544565b805181602001fd5b7fffffffff0000000000000000000000000000000000000000000000000000000081167f150b7a020000000000000000000000000000000000000000000000000000000014610d9057604051633250574960e11b81526001600160a01b0385166004820152602401610544565b5050505050565b60606000610da48361108e565b600101905060008167ffffffffffffffff811115610dc457610dc46114cc565b6040519080825280601f01601f191660200182016040528015610dee576020820181803683370190505b5090508181016020015b600019017f3031323334353637383961626364656600000000000000000000000000000000600a86061a8153600a8504945084610df857509392505050565b8080610e4b57506001600160a01b03821615155b15610f45576000610e5b84610963565b90506001600160a01b03831615801590610e875750826001600160a01b0316816001600160a01b031614155b8015610eb957506001600160a01b0380821660009081526005602090815260408083209387168352929052205460ff16155b15610efb576040517fa9fbf51f0000000000000000000000000000000000000000000000000000000081526001600160a01b0384166004820152602401610544565b8115610f435783856001600160a01b0316826001600160a01b03167f8c5be1e5ebec7d5bd14f71427d1e84f3dd0314c0f7b2291e5b200ac8c7c3b92560405160405180910390a45b505b50506000908152600460205260409020805473ffffffffffffffffffffffffffffffffffffffff19166001600160a01b0392909216919091179055565b610f8d838383611170565b6105e2576001600160a01b038316610fd4576040517f7e27328900000000000000000000000000000000000000000000000000000000815260048101829052602401610544565b6040517f177e802f0000000000000000000000000000000000000000000000000000000081526001600160a01b038316600482015260248101829052604401610544565b600680546001600160a01b0383811673ffffffffffffffffffffffffffffffffffffffff19831681179093556040519116919082907f8be0079c531659141344cd1fd0a4f28419497f9722a3daafe3b4186f6b6457e090600090a35050565b61108183836111f6565b6105e26000848484610c24565b6000807a184f03e93ff9f4daa797ed6e38ed64bf6a1f01000000000000000083106110d7577a184f03e93ff9f4daa797ed6e38ed64bf6a1f010000000000000000830492506040015b6d04ee2d6d415b85acef81000000008310611103576d04ee2d6d415b85acef8100000000830492506020015b662386f26fc10000831061112157662386f26fc10000830492506010015b6305f5e1008310611139576305f5e100830492506008015b612710831061114d57612710830492506004015b6064831061115f576064830492506002015b600a831061044e5760010192915050565b60006001600160a01b038316158015906111ee5750826001600160a01b0316846001600160a01b031614806111ca57506001600160a01b0380851660009081526005602090815260408083209387168352929052205460ff165b806111ee57506000828152600460205260409020546001600160a01b038481169116145b949350505050565b6001600160a01b03821661122057604051633250574960e11b815260006004820152602401610544565b600061122e838360006109c2565b90506001600160a01b038116156105e2576040517f73c6ac6e00000000000000000000000000000000000000000000000000000000815260006004820152602401610544565b7fffffffff00000000000000000000000000000000000000000000000000000000811681146106c157600080fd5b6000602082840312156112b457600080fd5b81356108de81611274565b60005b838110156112da5781810151838201526020016112c2565b50506000910152565b600081518084526112fb8160208601602086016112bf565b601f01601f19169290920160200192915050565b6020815260006108de60208301846112e3565b60006020828403121561133457600080fd5b5035919050565b80356001600160a01b038116811461135257600080fd5b919050565b6000806040838503121561136a57600080fd5b6113738361133b565b946020939093013593505050565b60008060006060848603121561139657600080fd5b61139f8461133b565b92506113ad6020850161133b565b9150604084013590509250925092565b6000602082840312156113cf57600080fd5b6108de8261133b565b600080604083850312156113eb57600080fd5b6113f48361133b565b91506020830135801515811461140957600080fd5b809150509250929050565b60008083601f84011261142657600080fd5b50813567ffffffffffffffff81111561143e57600080fd5b6020830191508360208260051b850101111561145957600080fd5b9250929050565b6000806000806040858703121561147657600080fd5b843567ffffffffffffffff8082111561148e57600080fd5b61149a88838901611414565b909650945060208701359150808211156114b357600080fd5b506114c087828801611414565b95989497509550505050565b634e487b7160e01b600052604160045260246000fd5b600080600080608085870312156114f857600080fd5b6115018561133b565b935061150f6020860161133b565b925060408501359150606085013567ffffffffffffffff8082111561153357600080fd5b818701915087601f83011261154757600080fd5b813581811115611559576115596114cc565b604051601f8201601f19908116603f01168101908382118183101715611581576115816114cc565b816040528281528a602084870101111561159a57600080fd5b82602086016020830137600060208483010152809550505050505092959194509250565b600080604083850312156115d157600080fd5b6115da8361133b565b91506115e86020840161133b565b90509250929050565b600181811c9082168061160557607f821691505b60208210810361162557634e487b7160e01b600052602260045260246000fd5b50919050565b6000600019820361164c57634e487b7160e01b600052601160045260246000fd5b5060010190565b634e487b7160e01b600052603260045260246000fd5b6040808252810183905260008460608301825b868110156116aa576001600160a01b036116958461133b565b1682526020928301929091019060010161167c565b5060209390930193909352509392505050565b600083516116cf8184602088016112bf565b8351908301906116e38183602088016112bf565b01949350505050565b60006001600160a01b0380871683528086166020840152508360408301526080606083015261171e60808301846112e3565b9695505050505050565b60006020828403121561173a57600080fd5b81516108de8161127456fea2646970667358221220242fd710a582e51009c72318470333ccb8604ae2909f42208f375bccab61c66764736f6c63430008180033",
  "devdoc": {
    "errors": {
      "ERC721IncorrectOwner(address,uint256,address)": [
        {
          "details": "Indicates an error related to the ownership over a particular token. Used in transfers.",
          "params": {
            "owner": "Address of the current owner of a token.",
            "sender": "Address whose tokens are being transferred.",
            "tokenId": "Identifier number of a token."
          }
        }
      ],
      "ERC721InsufficientApproval(address,uint256)": [
        {
          "details": "Indicates a failure with the `operator`s approval. Used in transfers.",
          "params": {
            "operator": "Address that may be allowed to operate on tokens without being their owner.",
            "tokenId": "Identifier number of a token."
          }
        }
      ],
      "ERC721InvalidApprover(address)": [
        {
          "details": "Indicates a failure with the `approver` of a token to be approved. Used in approvals.",
          "params": {
            "approver": "Address initiating an approval operation."
          }
        }
      ],
      "ERC721InvalidOperator(address)": [
        {
          "details": "Indicates a failure with the `operator` to be approved. Used in approvals.",
          "params": {
            "operator": "Address that may be allowed to operate on tokens without being their owner."
          }
        }
      ],
      "ERC721InvalidOwner(address)": [
        {
          "details": "Indicates that an address can't be an owner. For example, `address(0)` is a forbidden owner in EIP-20. Used in balance queries.",
          "params": {
            "owner": "Address of the current owner of a token."
          }
        }
      ],
      "ERC721InvalidReceiver(address)": [
        {
          "details": "Indicates a failure with the token `receiver`. Used in transfers.",
          "params": {
            "receiver": "Address to which tokens are being transferred."
          }
        }
      ],
      "ERC721InvalidSender(address)": [
        {
          "details": "Indicates a failure with the token `sender`. Used in transfers.",
          "params": {
            "sender": "Address whose tokens are being transferred."
          }
        }
      ],
      "ERC721NonexistentToken(uint256)": [
        {
          "details": "Indicates a `tokenId` whose `owner` is the zero address.",
          "params": {
            "tokenId": "Identifier number of a token."
          }
        }
      ],
      "OwnableInvalidOwner(address)": [
        {
          "details": "The owner is not a valid owner account. (eg. `address(0)`)"
        }
      ],
      "OwnableUnauthorizedAccount(address)": [
        {
          "details": "The caller account is not authorized to perform an operation."
        }
      ]
    },
    "events": {
      "Approval(address,address,uint256)": {
        "details": "Emitted when `owner` enables `approved` to manage the `tokenId` token."
      },
      "ApprovalForAll(address,address,bool)": {
        "details": "Emitted when `owner` enables or disables (`approved`) `operator` to manage all of its assets."
      },
      "Transfer(address,address,uint256)": {
        "details": "Emitted when `tokenId` token is transferred from `from` to `to`."
      }
    },
    "kind": "dev",
    "methods": {
      "acceptOwnership()": {
        "details": "The new owner accepts the ownership transfer."
      },
      "approve(address,uint256)": {
        "details": "See {IERC721-approve}."
      },
      "balanceOf(address)": {
        "details": "See {IERC721-balanceOf}."
      },
      "getApproved(uint256)": {
        "details": "See {IERC721-getApproved}."
      },
      "isApprovedForAll(address,address)": {
        "details": "See {IERC721-isApprovedForAll}."
      },
      "name()": {
        "details": "See {IERC721Metadata-name}."
      },
      "owner()": {
        "details": "Returns the address of the current owner."
      },
      "ownerOf(uint256)": {
        "details": "See {IERC721-ownerOf}."
      },
      "pendingOwner()": {
        "details": "Returns the address of the pending owner."
      },
      "renounceOwnership()": {
        "details": "Leaves the contract without owner. It will not be possible to call `onlyOwner` functions. Can only be called by the current owner. NOTE: Renouncing ownership will leave the contract without an owner, thereby disabling any functionality that is only available to the owner."
      },
      "safeTransferFrom(address,address,uint256)": {
        "details": "See {IERC721-safeTransferFrom}."
      },
      "safeTransferFrom(address,address,uint256,bytes)": {
        "details": "See {IERC721-safeTransferFrom}."
      },
      "setApprovalForAll(address,bool)": {
        "details": "See {IERC721-setApprovalForAll}."
      },
      "supportsInterface(bytes4)": {
        "details": "See {IERC165-supportsInterface}."
      },
      "symbol()": {
        "details": "See {IERC721Metadata-symbol}."
      },
      "tokenURI(uint256)": {
        "details": "See {IERC721Metadata-tokenURI}."
      },
      "transferFrom(address,address,uint256)": {
        "details": "See {IERC721-transferFrom}."
      },
      "transferOwnership(address)": {
        "details": "Starts the ownership transfer of the contract to a new account. Replaces the pending transfer if there is one. Can only be called by the current owner."
      }
    },
    "version": 1
  },
  "userdoc": {
    "kind": "user",
    "methods": {},
    "version": 1
  },
  "storageLayout": {
    "storage": [
      {
        "astId": 1870,
        "contract": "contracts/NFT-Staking/SynthrNFT.sol:SynthrNFT",
        "label": "_name",
        "offset": 0,
        "slot": "0",
        "type": "t_string_storage"
      },
      {
        "astId": 1872,
        "contract": "contracts/NFT-Staking/SynthrNFT.sol:SynthrNFT",
        "label": "_symbol",
        "offset": 0,
        "slot": "1",
        "type": "t_string_storage"
      },
      {
        "astId": 1876,
        "contract": "contracts/NFT-Staking/SynthrNFT.sol:SynthrNFT",
        "label": "_owners",
        "offset": 0,
        "slot": "2",
        "type": "t_mapping(t_uint256,t_address)"
      },
      {
        "astId": 1880,
        "contract": "contracts/NFT-Staking/SynthrNFT.sol:SynthrNFT",
        "label": "_balances",
        "offset": 0,
        "slot": "3",
        "type": "t_mapping(t_address,t_uint256)"
      },
      {
        "astId": 1884,
        "contract": "contracts/NFT-Staking/SynthrNFT.sol:SynthrNFT",
        "label": "_tokenApprovals",
        "offset": 0,
        "slot": "4",
        "type": "t_mapping(t_uint256,t_address)"
      },
      {
        "astId": 1890,
        "contract": "contracts/NFT-Staking/SynthrNFT.sol:SynthrNFT",
        "label": "_operatorApprovals",
        "offset": 0,
        "slot": "5",
        "type": "t_mapping(t_address,t_mapping(t_address,t_bool))"
      },
      {
        "astId": 387,
        "contract": "contracts/NFT-Staking/SynthrNFT.sol:SynthrNFT",
        "label": "_owner",
        "offset": 0,
        "slot": "6",
        "type": "t_address"
      },
      {
        "astId": 535,
        "contract": "contracts/NFT-Staking/SynthrNFT.sol:SynthrNFT",
        "label": "_pendingOwner",
        "offset": 0,
        "slot": "7",
        "type": "t_address"
      },
      {
        "astId": 4972,
        "contract": "contracts/NFT-Staking/SynthrNFT.sol:SynthrNFT",
        "label": "tokenIdCount",
        "offset": 0,
        "slot": "8",
        "type": "t_uint256"
      },
      {
        "astId": 4976,
        "contract": "contracts/NFT-Staking/SynthrNFT.sol:SynthrNFT",
        "label": "lockAmount",
        "offset": 0,
        "slot": "9",
        "type": "t_mapping(t_uint256,t_uint256)"
      }
    ],
    "types": {
      "t_address": {
        "encoding": "inplace",
        "label": "address",
        "numberOfBytes": "20"
      },
      "t_bool": {
        "encoding": "inplace",
        "label": "bool",
        "numberOfBytes": "1"
      },
      "t_mapping(t_address,t_bool)": {
        "encoding": "mapping",
        "key": "t_address",
        "label": "mapping(address => bool)",
        "numberOfBytes": "32",
        "value": "t_bool"
      },
      "t_mapping(t_address,t_mapping(t_address,t_bool))": {
        "encoding": "mapping",
        "key": "t_address",
        "label": "mapping(address => mapping(address => bool))",
        "numberOfBytes": "32",
        "value": "t_mapping(t_address,t_bool)"
      },
      "t_mapping(t_address,t_uint256)": {
        "encoding": "mapping",
        "key": "t_address",
        "label": "mapping(address => uint256)",
        "numberOfBytes": "32",
        "value": "t_uint256"
      },
      "t_mapping(t_uint256,t_address)": {
        "encoding": "mapping",
        "key": "t_uint256",
        "label": "mapping(uint256 => address)",
        "numberOfBytes": "32",
        "value": "t_address"
      },
      "t_mapping(t_uint256,t_uint256)": {
        "encoding": "mapping",
        "key": "t_uint256",
        "label": "mapping(uint256 => uint256)",
        "numberOfBytes": "32",
        "value": "t_uint256"
      },
      "t_string_storage": {
        "encoding": "bytes",
        "label": "string",
        "numberOfBytes": "32"
      },
      "t_uint256": {
        "encoding": "inplace",
        "label": "uint256",
        "numberOfBytes": "32"
      }
    }
  }
}